:020000040000fa
:10000000f8ff03207d240000732800002f2b000040
:100010005b2e00003f3500000b36000000000000a2
:100020000000000000000000000000000b2700009e
:10003000132c0000000000000b2700000b2700001d
:100040000b2700000b2700000b2700000b270000e8
:100050000b2700000b2700000b2700000b270000d8
:100060000b2700000b2700000b2700004531000084
:100070000b2700000b2700000b2700000b270000b8
:100080000b2700000b2700000b2700000b270000a8
:100090000b2700000b2700000b2700000b27000098
:1000a0000b2700000b2700000b2700000b27000088
:1000b0000b2700000b2700000b2700000b27000078
:1000c0000b2700000b2700000b2700000b27000068
:1000d0000b2700000b2700000b2700000b27000058
:1000e0000b2700000b2700000000000000000000ac
:1000f000000000000b2700000b2700000b2700006a
:100100000b2700000b2700000b2700000b27000027
:100110000b2700000b2700000b2700000b27000017
:100120000b2700000b2700000b2700000b27000007
:100130000b2700000b2700000b2700000b270000f7
:100140000b2700000b2700000b2700000b270000e7
:100150000b2700000b2700000b2700000b270000d7
:100160000b2700000b2700000b2700000b270000c7
:100170000b2700000b2700000b2700000b270000b7
:100180000b2700000b2700000b2700000b270000a7
:100190000b2700000b2700000b2700000b27000097
:1001a0000b2700000b2700000b2700000b27000087
:1001b0000b2700000b2700000b2700000b27000077
:1001c0000b2700000b2700000b2700000b27000067
:1001d0000b2700000b2700000b2700000b27000057
:1001e0000b2700000b2700000b2700000b27000047
:1001f0000b2700000b2700000b2700000b27000037
:100200000b2700000b2700000b2700000b27000026
:100210000b2700000b2700000b2700000b27000016
:100220000b2700000b2700000b2700000b27000006
:100230000b2700000b2700000b2700000b270000f6
:100240000b2700000b2700000b2700000b270000e6
:100250000b2700000b2700000b2700000b270000d6
:040260000b27000068
:020000040000fa
:10026400f8b500bff8bc08bc9e467047112d0000cd
:10027400f8b500bff8bc08bc9e467047ed2c0000e2
:020000040000fa
:10028400140200201c0000000000000030020020c6
:100294000c0000000000000000000020010000002d
:1002a400000000005c0200200400000001000000c7
:1002b40074010020740100206000000001000000af
:1002c40000000000cc330000ec330000ac3300002d
:1002d400000000000000000000000000000000001a
:1002e400000000000000000000000000000000000a
:1002f40000000000000000000000000000000000fa
:1003040000000000000000000000000000000000e9
:1003140000000000000000000000000000000000d9
:100324003c0200200b0000000000000047020020f7
:100334000b00000000000000600200200400000028
:10034400000000006402002004000000000000001f
:100354006802002004000000000000005402002095
:10036400080000000100000074360000743600002c
:10037400d401002040000000010000000100000042
:10038400000000004a00000000000000000000001f
:100394000000000000000000000000000000000059
:1003a4004a000000000000000000000000000000ff
:1003b4000000000000000000000000006c020020ab
:1003c400040000000000000070020020040000008f
:1003d400000000007402002004000000000000007f
:1003e40078020020040000000100000074020020d4
:1003f400080000206c010000010000004300000020
:1004040000000000000000000000000000000000e8
:100414000000000000000000000000004300000095
:1004240000000000000000000000000000000000c8
:100434000000000000000000000000004300000075
:1004440000000000000000000000000000000000a8
:100454000000000000000000000000004300000055
:100464000000000000000000000000000000000088
:100474000000000000000000000000004300000035
:100484000000000000000000000000000000000068
:100494000000000000000000000000004300000015
:1004a4000000000000000000000000000000000048
:1004b40000000000000000000000000043000000f5
:1004c4000000000000000000000000000000000028
:1004d400000000000000000000000000f7340000ed
:1004e400bd32000000000000c819000045360000bd
:1004f4004436000044360000443600004436000010
:1005040044360000443600004436000044360000ff
:1005140044360000ffffffffffffffffffffffff69
:10052400ffff00000100415343494900000000005f
:1005340000000000000000000000000000000000b7
:10054400000000000000415343494900000000003e
:100554000000000000000000000000000000000097
:10056400000000000000000004000020040000005f
:10057400000000007c0200200400000000000000d5
:100584000000000000000000222222222222222257
:020000040000fa
:100594002de9f04f8db0074603f054f8b149b24e3f
:1005a4000546384603f028f8044670b9af4bb04a04
:1005b4001860b04b1860b04b30681a605a6002f093
:1005c400fbff34600db0bde8f08f3168002960d1c5
:1005d400306802f0f1ff204603f006f8411c38466b
:1005e40001f09afd3060002858d12378a34aa44929
:1005f4003a2b08bf01340aae3346204602f01cfaf7
:100604000028dfdd0a9be718e35c2d2b4ad1013774
:100614004ff0ff340df1200a0df11e0b4ff00008ce
:100624000396cdf808a00196cdf800b0334607aa8a
:100634009449adf81e803846adf8208002f0fcf9ec
:100644004045bfddbdf81e30bdf82020dff84092e4
:100654003c2101fb0322bdf81c304ff4616101fb16
:1006640003235c432c62844c844b23600a9b84499f
:100674001f444a463346384602f0def9404516dc4c
:1006840023686360794b2a6a1a607a4bc3f8008046
:1006940098e702f05dff002894d099e7214602f024
:1006a4009bffa2e72b2b08bf01370124b2e70a9b6b
:1006b400c4f80490fc18fb5c2d2b40f092800134ac
:1006c4004ff0ff370023adf81c30adf81e30adf805
:1006d40020300a930396cdf808a00196cdf800b017
:1006e400334607aa6749204602f0a6f900287ddcb4
:1006f4002b6aa3f56163eb630a9b2f461c444ff0fe
:10070400000923782c2b08bf013494f80080b8f139
:100714004d0f7bd10df12603029309ab0093039691
:10072400019633460df122025749204602f084f91e
:1007340003287ff447afbdf822104b1e0b2b3ff666
:1007440041afbdf82420531e042b3ff63bafbdf848
:100754002630062b3ff636af87f80880f9603a61f9
:100764007b610a9b04eb03080223adf81c300023d1
:10077400adf81e30adf820300a9398f800302f2bd6
:100784000bd10396cdf808a00196cdf800b03346fe
:1007940007aa3e49404602f04ff9bdf81e30bdf8a5
:1007a40020203c2101fb0322bdf81c304ff4616181
:1007b40001fb0323bb610a9c09f10109b9f1020f92
:1007c400444407f11c079cd1686800f0cbff274b19
:1007d4002a6a1a60eb6b9b1a264a18bf012313601e
:1007e400f0e62b2b08bf013401276be7bdf81e3060
:1007f400bdf820203c2101fb0322bdf81c304ff43e
:10080400616101fb03235f43ef6375e7b8f14a0fae
:1008140006bf0134434644230a220ba9204605930c
:1008240002f062fcddf82c80adf826004445059bff
:1008340014d14d23b9f1000f07d12b720323eb60c0
:1008440002232b61c5f814908ee785f824300b231e
:10085400ab620123eb6200232b6385e780b23b721a
:10086400786181e7e02a000060020020680200202d
:10087400e32a000064020020540200204702002002
:10088400e72a0000f62a0000082b00001b2b0000ba
:040894003c02002002
:020000040000fa
:100898002de9f047814602f0d3fe8046484600f035
:1008a800d1fdd9f81030b34ad9f80c4052f82320ba
:1008b800d9f80800013c012b99e882001444d9f8c2
:1008c800143011dd9d070fd1642593fbf5f205fb6c
:1008d800123242b903f26c764ff4c87596fbf5f202
:1008e80005fb126202b9013403f51c52103244f6ba
:1008f8002065aa42c9f81c4000f22e81462b72dd01
:10090800462540f26d1c64264ff4c87eaa0764d1c0
:1009180095fbf6f206fb1252002a61d105f26c7ab9
:100928009afbfef20efb12a2002a14bf62464ff495
:10093800b7720135ab421444e8d13c2303fb0717d7
:100948004ff4616303fb00708b4f07fb040702f051
:100958008bfe8a4b1e68002e00f00781d9f82030e4
:10096800d9f81400012ba8bf01239a46d8f80430ff
:1009780000f26c70984279d1d8f83820d8f8203035
:10098800d8f83c00d8f81c10d61ab742a1eb0001e1
:1009980072d2d8f80020002a72d08f42c0f0e080ce
:1009a800b7422cbf00260126baf1000f6eda012edd
:1009b80040f0db80d8f83c00012638440434072393
:1009c80094fbf3f3c3ebc303e41a48bf0734c9f835
:1009d8002060c9f81840bde8f08740f26d12a8e71a
:1009e8004ff4b772a5e71ed0452240f26d1c64266d
:1009f8004ff4c87e9a4218dc9d0731d1642593fbd9
:100a0800f5f205fb123272bb03f26c764ff4c8752f
:100a180096fbf5f205fb1262002a40f26d1208bf40
:100a28004ff4b772a41a1d4687e7950712d192fbb7
:100a3800f6f506fb152585b902f26c7a9afbfef5e8
:100a48000efb15a5002d14bf65464ff4b775641b42
:100a5800013acfe740f26d15f9e74ff4b775f6e7bd
:100a680040f26d12dee74ff4b772dbe700f078fe74
:100a7800002881d156469ae7121a9742fad388e796
:100a88008f428dd3baf1000f94db01268aea060a59
:100a9800baf1010f8bd11b1a06b95b42d9f80020b5
:100aa800d9f80ca01a44c9f8002048461f4400f0a1
:100ab800c9fcd9f80c30b3eb0a033ff478af012b2b
:100ac80021dc981cd8bf0123d9f81c201c449b1892
:100ad80022d56a1e910719d1642192fbf1f301fb1b
:100ae8001323b3b905f26b754ff4c87295fbf2f393
:100af80002fb1355002d40f26d1318bf4ff4b67367
:100b0800c9f81c3053e74ff0ff33dde74ff4b673f5
:100b1800f6e740f26d13f3e7aa0717d1642195fbb6
:100b2800f1f201fb1252a2b905f26c754ff4c871cb
:100b380095fbf1f201fb1255002d40f26d1208bf32
:100b48004ff4b7729a42d8bf9b1ad9e740f26d1298
:100b5800f8e74ff4b772f5e74ff0ff30bde8f087dc
:100b6800baf1000f4ff0000690dad8f820003844a8
:100b780024e700bf303000008051010064020020eb
:020000040000fa
:100b88002de9f04fadf5257d0df10c0801930023fb
:100b980046934793a04ba293dff884929f4bcdf8de
:100ba800208106460c46a39392460a279af80030fd
:100bb800002b00f02f8102f07ffc9af800b0584417
:100bc800437813f0080343d1bbf1250f0af101055f
:100bd80040f09980459343939af801302a2b03d12a
:100be800102343930af102052978a1f13002092a5a
:100bf800aa4605f1010541d90322894801f09cfb69
:100c080038b1a0eb090301209840439b1843439057
:100c1800aa469af80030672b0af101054ad8652bd5
:100c280080f0b780472b2fd8452b80f0b280002b5f
:100c380000f08280252b66d003234993449745e032
:100c48004799013147916168013301396160236037
:100c58006368002b0bdd02f02ffc23681978084429
:100c680041780d07ecd40af10105aa469ee7a39b3b
:100c78002146304698470028edd0f4e7459b07fb0e
:100c88000313303b4593afe75b2b61d00cd8582b4f
:100c9800d2d1439a42f400724392102244926f2bad
:100ca800b4bf0323042310e0632b5cd0642bc3d1af
:100cb8004497f4e7702b42d01dd86e2b59d043d8f7
:100cc800692bb9d100234493032349936368002b0c
:100cd80061dd439b59066fd5499b022b7cdc01ab38
:100ce800224643a9304601f0b1f9012800f092806c
:100cf8000228bad11de0752bdad0782bc9d0732b16
:100d08009ad10223e1e76368002b0cdd23681a7887
:100d180093457fd1013362682360479b013a0133d1
:100d280062604793a1e7a39b214630469847002875
:100d3800ecd04698002863d14ff0ff3066e0439a24
:100d480042f020024392a4e7082344930423bce71b
:100d58002946404601f0eafd439b43f04003439394
:100d680005460123b1e7439b43f040034393002327
:100d7800abe7439ad0063ff578af12f0010f019a1e
:100d8800479b02f104010191126814bf138013609c
:100d98006be7052399e7a39b21463046984700282f
:100da80097d0c6e7479a013247926268013a002a0b
:100db80062600add0133236002f07efb23681a7843
:100dc800104442781207edd486e7a39b21463046ab
:100dd80098470028f0d0ace7042b06dc01ab22468c
:100de80043a9304600f03afa7fe70e4b002b3ff458
:100df8003caf01ab224643a93046aff3008074e70d
:100e0800a38913f0400f18bf4ff0ff300df5257d73
:100e1800bde8f08f4698f9e791260000212e0000e2
:080e28007c3600000000000010
:020000040000fa
:100e30002de9f04317460a7e85b06e2a984606468d
:100e40000c460c9b01f1430e00f0bc801ad8632abb
:100e50002ed00ad8002a00f0c880582a00f08a80d4
:100e600004f1420584f842202ae0642a01d0692a6c
:100e7000f6d121681a6811f0800f23d0111d196076
:100e8000136827e0732a00f0b48008d86f2a2ad0ac
:100e9000702ae5d10a6842f020020a6003e0752a50
:100ea00021d0782adcd1782284f845206e4964e08c
:100eb0001a6801f14205111d1960136884f8423067
:100ec0000123a3e011f0400f02f104011960d7d013
:100ed000b2f90030002b03da2d225b4284f8432064
:100ee00062490a2217e02068196810f0800f03d0c9
:100ef000081d18600b6806e010f0400f01f10400b7
:100f00001860f7d00b8859496f2a14bf0a220822ab
:100f1000002084f843006568a560002dc0f29c8025
:100f2000206820f004002060002b3fd1002d40f00d
:100f300095807546082a0bd12368da0708d52369fe
:100f400062689a42debf302305f8013c05f1ff35a7
:100f5000aeeb05032361cdf800803b4603aa214692
:100f6000304600f027ff013055d14ff0ff3005b07b
:100f7000bde8f08381f845203c492268186812f0ea
:100f8000800f00f104051d6001d0036802e05506e2
:100f9000fbd50388d00744bf42f0200222601bb972
:100fa000226822f0200222601022b1e77546b3fbce
:100fb000f2f002fb1033cb5c05f8013d034600283c
:100fc000f5d1b7e708681a68496910f0800f04d0b6
:100fd000101d18601368196007e010f0400f02f14f
:100fe000040018601368f6d0198000232361754649
:100ff000b1e71a68111d196015686268002128465a
:1010000001f09ef908b1401b606063682361002312
:1010100084f843309fe723692a4639463046c04763
:101020000130a2d023689b0707d5002504f11909d8
:10103000e368039a9b1a9d4205dbe068039b984294
:10104000b8bf184693e701234a4639463046c047a1
:1010500001308ad00135ebe7002ba7d10b7884f85b
:10106000423004f1420565e75b3300004a3300007b
:020000040000fa
:101070002de9f04f9db00d4692460393074618b1f7
:1010800083690bb901f0f6fb6f4b9d4256d17d6829
:10109000ab891c075cd52b69002b59d00023099321
:1010a00020238df82930dff8a48130238df82a30f1
:1010b0004ff001095446264616f8013b002b52d149
:1010c000b4eb0a0b0bd05b4652462946384601f07a
:1010d0007bfd013000f0b380099b5b4409932378ca
:1010e000002b00f0ac8000234ff0ff3204930793f5
:1010f000059206938df853301a93052231785348a0
:1011000001f01ef9741c049b002830d1d80644bf9e
:1011100020228df85320190744bf2b228df853202d
:1011200032782a2a2bd0079a00210a203446013629
:101130002378303b092b68d971b326e0444b9d429c
:1011400001d1bd68a4e7434b9d4208bffd689fe7fe
:101150002946384600f0a4fe00289fd04ff0ff300b
:101160001db0bde8f08f252baad03446a3e7a0eb35
:10117000080009fa00f0184304902646bde7039ad8
:10118000111d12680391002a01db079204e052420c
:1011900043f002030792049323782e2b0ed1637839
:1011a0002a2b04f1010134d1039b1a1d1b68039201
:1011b000002bb8bf4ff0ff3302340593264e217841
:1011c0000322304601f0bcf838b14023801b03fafb
:1011d00000f0049b03430493013421781f488df8e9
:1011e0002810062201f0acf803ab009304f1010ac9
:1011f0001b4b2a4604a9f0b1384602f031fa421cd2
:101200001dd0099b0344099354e700fb02320121de
:101210008ce70023059318460a260c4601312278f4
:10122000303a092a03d9002bc8d00590c6e706fb3f
:1012300000200123f1e73846fff7fafddfe7ab892d
:101240005b068bd409988be7cc3300007a3500001d
:10125000ec330000ac330000803500008435000022
:04126000c92b000096
:020000040000fa
:101264002de9f04f9a46744b0c468346164693e894
:10127400070087b003aba76883e807006f4ba16939
:101284006f4a032918bf1a467b1eb3f5ae7f84bf8d
:1012940040f25d13a3602368009243f4506388bf57
:1012a4006ff4ae7504f11c0923608cbf7f1900270d
:1012b4004b464ff000080193316803ab022253f808
:1012c4002800097801f03af8019b28b3b8f1010f1e
:1012d40056d162682ab908226260226842f4007218
:1012e4002260226822f4a0622260a268511ea160da
:1012f40092b13268511c316012781a705d1c7368a7
:10130400013b002b736006dcd4f88031314658462b
:101314009847002876d12b4608f10108b8f1030f4d
:10132400c9d162680ab90a22626062684549606983
:101334000193891a01f0fcfa019b4ff000081d4645
:10134400a368002b38d0316860690a78805c002873
:1013540032d0302a226821d110051fd508f10108a6
:1013640017b10133013fa3607368013b002b736025
:101374001bdd336801333360a368013ba360dfe7ff
:10138400b8f1020fb1d1226802f4c061b1f5007f57
:10139400c2d11021616042f48072a5e722f4106288
:1013a40022600b782b700135dee7d4f880313146aa
:1013b400584698470028dfd02368d9050cd54d45f9
:1013c40008d915f8011cd4f87c31324658469847a0
:1013d4006f1e3d464d452cd0226812f010021ed1de
:1013e4002a706368009e49465846b0472268daf876
:1013f400003012f0200f08d01a1dcaf800201b6814
:10140400186009e04ff00008d6e7d207f4d51a1d9a
:10141400caf800201b681880e3680133e360a5eb79
:101424000905a844256945442561002007b0bde8a5
:10143400f08f0120fae700bf943100002d32000044
:0814440005330000b031000087
:020000040000fa
:10144c00f7b501683b29044611d93c22684601f0e6
:10145c0087fe019a63680099002a0b446360bbbf46
:10146c003c3203f1ff3322602260b8bf63606168d5
:10147c003b2911d93c22684601f072fe019aa368ff
:10148c000099002a0b44a360bbbf3c3203f1ff332d
:10149c0062606260b8bfa360a168172911d91822d5
:1014ac00684601f05dfe019ae3680099002a0b443e
:1014bc00e360bbbf183203f1ff33a260a260b8bf78
:1014cc00e36021690b2911d90c22684601f048fe12
:1014dc00019a63690099002a0b446361bbbf0c320b
:1014ec0003f1ff3322612261b8bf6361636999071d
:1014fc0043d1642193fbf1f201fb1232002a3ed15d
:10150c0003f26c734ff4c87193fbf1f201fb1233cd
:10151c00002b14bf1c231d23e268002a31dd374f3a
:10152c0002264ff0000e64204ff4c8752169e26862
:10153c0001295dd057f821c062452cdd0131a2eba9
:10154c000c020c29e2602161f0d16369c4f810e04f
:10155c005a1c9107626147d192fbf0f100fb1122fa
:10156c00002a43d103f26d7393fbf5f205fb1233a2
:10157c00002b14bf1c231d23d8e71c23cce71d23f1
:10158c00cae71e4f0b2664204ff4c875d4f80ce044
:10159c00bef1000f01dd03b0f0bd216901392161fd
:1015ac00013114d163692661591e8a07616117d113
:1015bc0091fbf0f200fb1211a1b903f26b7393fbd8
:1015cc00f5f205fb1233002b14bf1c231d232269db
:1015dc00012a14bf57f822201a467244e260d5e75c
:1015ec001c23f4e71d23f2e71c239fe71d239de733
:1015fc009342d0dad21ae260266197e700300000fd
:020000040000fa
:10160c002de9f7431d46514b1e6804460f46904684
:10161c0026b1b36913b9304601f026f94c4b9c4204
:10162c0052d17468b8f1020f06d0b8f1010f00f274
:10163c008980002dc0f286802146304601f0cef91b
:10164c00616b41b104f14403994202d0304600f081
:10165c00c1fe002363630023a3616360a3891b069f
:10166c0003d52169304600f0b5fea38923f44a6303
:10167c0023f00303b8f1020fa3815dd001ab6a46de
:10168c002146304601f008fba3891843a0812dbbed
:10169c00009d284601f084ff074600284ed1ddf856
:1016ac000090a9453cd14ff0ff30a38943f00203d1
:1016bc00a3810023a36004f147032360236101236a
:1016cc00636103b0bde8f083224b9c4201d1b46846
:1016dc00a8e7214b9c4208bff468a3e7002fd8d0a1
:1016ec00b36913b9304601f0bff8b8f1010f08bf68
:1016fc00a389276004bf43f00103a381a389276159
:10170c0013f0080065611bd013f0010018bf6d4287
:10171c004ff000031dbfa360a5611846a560d0e77c
:10172c00484601f03dff07460028bcd0a38943f092
:10173c008003a3814d46d3e70020b6e7a946f5e721
:10174c00a060bee74ff0ff30bbe700bf5c0200209b
:0c175c00cc330000ec330000ac33000084
:020000040000fa
:101768002de9f74f044601f06bff40f2b1739c423c
:1017780040f398806ff4f663e3189b1040f26d1203
:10178800a4f2b27502fb05356ff06302a4f26d7323
:1017980093fbf2f36ff4c8621d444ff4c873a218a8
:1017a80094fbf3f792fbf3f203fb174700f13803be
:1017b8001544b7fa87fe6422019304f0030394fbef
:1017c800f2f6446002fb16464fea5e1e014600939d
:1017d8006ff0404c0b7a4a2b23d14c69009a2b1995
:1017e80002b906b9dfb93b2cd4bf002401241c443c
:1017f800013c2d4b8a6903fb04240b6a1c4441f805
:101808001c4f019b8b42e5d1c369826b93422cbf6d
:10181800002301230360012003b0bde8f08f0024fa
:10182800e5e7442b02d14b69ec18e2e7009b7bbb50
:10183800002e0cbff0464ff001081c4bcc6830223c
:1018480002fb0838a8f1040a2b464ff00109a1450c
:1018580020db012cb8bf0124a14603f1040b0722a9
:101868004c699bfbf2facaebca0aabeb0a0ab4eb67
:101878000a0a0c69e14404f1ff3448bf9244c4ebfe
:10188800c40458f829805444444509da1c44b0e794
:10189800f046d2e75af804bf09f101095b44d6e7dc
:1018a800073cf1e70020b7e780510100d428000089
:020000040000fa
:1018b8008a892de9f041054610070c465ad44b6831
:1018c800002b05dc0b6c002b02dc0020bde8f0814e
:1018d800e66a002ef9d0002312f480522f682b609c
:1018e80033d0606da3895a0705d56368c01a636b46
:1018f8000bb1236cc01a00230246e66a216a284607
:10190800b047431ca38906d129681d294bd82b4a07
:10191800ca40d60747d500226260d90422692260ee
:1019280004d5421c01d12b6803b96065616b2f6037
:101938000029cad004f14403994202d0284600f095
:101948004bfd00206063bde8f081216a0123284631
:10195800b047411cc6d12b68002bc3d01d2b01d02a
:10196800162b01d12f60b0e7a38943f04003a38170
:10197800bde8f0810f69002fa7d093070e6808bf54
:101988004b690f6018bf0023a6eb07088b60b8f1fe
:10199800000f9add43463a46216aa66a2846b047b0
:1019a800002807dca38943f04003a3814ff0ff30f0
:1019b800bde8f0810744a8eb0008e8e701004020f3
:020000040000fa
:1019c8000020202020202020202028282828282007
:1019d80020202020202020202020202020202020ff
:1019e8002088101010101010101010101010101067
:1019f8001004040404040404040404101010101057
:101a08001010414141414141010101010101010120
:101a18000101010101010101010101011010101072
:101a280010104242424242420202020202020202f2
:101a38000202020202020202020202021010101046
:101a4800200000000000000000000000000000006e
:101a5800000000000000000000000000000000007e
:101a6800000000000000000000000000000000006e
:101a7800000000000000000000000000000000005e
:101a8800000000000000000000000000000000004e
:101a9800000000000000000000000000000000003e
:101aa800000000000000000000000000000000002e
:101ab800000000000000000000000000000000001e
:011ac800001d
:020000040000fa
:101aca002de9f84f8046894692461f468b465d4669
:101ada000a9815f8014b01f0c1fd2044467816f02a
:101aea0008060bd12d2c0bd12c7801260bf10205ff
:101afa0067b1102f14d1302c0ad011e0ab46e6e7bb
:101b0a002b2c04bf2c780bf10205f1e7302c27d1de
:101b1a002b7803f0df03582b4bd16c781027023552
:101b2a00002e0cbf6ff000414ff000410022b1fbc4
:101b3a00f7fe104607fb1e1ca4f13003092b11d82f
:101b4a001c46a7421ddd531c07d0864516d301d17a
:101b5a00a44513db00fb0740012215f8014bebe714
:101b6a000a27dde7a4f14103192b01d8373ce8e73e
:101b7a00a4f16103192b04d8573ce2e74ff0ff3276
:101b8a00ebe7531c08d12223c8f800300846baf103
:101b9a00000f07d1bde8f88f06b14042baf1000f35
:101baa000cd022b1013dcaf80050bde8f88f4d466d
:101bba00f9e73024002fb3d10827b1e7bde8f88f41
:020000040000fa
:101bca002de9f0478046894692461e460f463d4615
:101bda00089815f8014b01f041fd2044437813f0b1
:101bea0008030ad12d2c0ad12c780123bd1c5eb121
:101bfa00102e13d1302c09d010e02f46e7e72b2cfa
:101c0a0004bf2c78bd1cf2e7302c25d12a7802f0cb
:101c1a00df02582a4ad16c78102602354ff0ff317c
:101c2a000027b1fbf6f106fb01fe6fea0e0e3846fd
:101c3a00a4f13002092a11d81446a6421ddd002f4c
:101c4a0018db814216d301d1a64513db00fb0640ff
:101c5a00012715f8014bebe70a26dfe7a4f1410259
:101c6a00192a01d8373ce8e7a4f16102192a04d8f5
:101c7a00573ce2e74ff0ff37ebe7002f09da222360
:101c8a00c8f800304ff0ff30baf1000f07d1bde8b5
:101c9a00f08703b14042baf1000f0cd027b1013de1
:101caa00caf80050bde8f0874d46f9e73024002e07
:0a1cba00b4d10826b2e7bde8f087b8
:020000040000fa
:101cc4000022334b1a74334a03f500639a621a46ae
:101cd400536813f0100ffbd142222f4bc3f884201a
:101ce4001a46d2f8843013f0400ffad02b4b00225e
:101cf4009a6377225a631a46d36b13f0040ffbd10d
:101d04000222264b83f830201a46d36b13f0020fbd
:101d1400fbd1224a136c03f00303032bfad10122f3
:101d24001f4b5a711a46d37813f0010ffbd01d4a8a
:101d3400194b1a621a46536813f0040ffbd11a4a5e
:101d4400154b5a621a46536813f0080ffbd141220f
:101d5400114bc3f8dc201a46d2f8dc3013f0400fe4
:101d6400fad041220c4bc3f80c211a46d2f80c319c
:101d740013f0400ffad00a4b6ff07f421a6140f221
:101d8400ff725a61094a9a6102221a62704700bfbf
:101d94000014004006013000001c00400010004008
:101da40000080040070101000701020056820100fb
:020000040000fa
:101db4002de9f04791461f468a680b69ddf82080bb
:101dc4009342b8bf1346c9f8003091f84320064641
:101dd4000c4612b10133c9f800302368990642bf9a
:101de400d9f800300233c9f80030256815f006052b
:101df40007d104f1190ae368d9f800209b1a9d421f
:101e040029db94f843302268003318bf012392067b
:101e14002ed404f1430239463046c047013021d064
:101e24002368e568d9f8002003f00603042b08bff3
:101e3400ad1aa36822690cbf25eae5750025934213
:101e4400c4bf9b1aed184ff000091a344d451bd13d
:101e54000020bde8f0870123524639463046c0478a
:101e6400013003d14ff0ff30bde8f0870135c2e700
:101e7400e1185a1c302081f84300224494f845109c
:101e840082f843100233c4e7012322463946304620
:0c1e9400c0470130e6d009f10109d7e792
:020000040000fa
:101ea000324b70b51d6806460c4625b1ab6913b9b7
:101eb000284600f0dffc2e4b9c420fd16c68b4f931
:101ec0000c309ab215072cd4d00611d409223260f6
:101ed00043f04003a3814ff0ff3070bd254b9c427f
:101ee00001d1ac68ebe7244b9c4208bfec68e6e705
:101ef000510712d5616b41b104f14403994202d0fc
:101f0000304600f06dfa00236363a38923f02403b5
:101f1000a3810023636023692360a38943f008033e
:101f2000a38123694bb9a38903f42073b3f5007f20
:101f300003d02146304600f025fca28912f00103af
:101f40000cd00023a36063695b42a361236953b98a
:101f5000b4f90c3013f08000bad170bd920758bfad
:101f60006369a360f2e70020f7e700bf5c0200208e
:0c1f7000cc330000ec330000ac33000068
:020000040000fa
:101f7c000a2d2d2d2d2d2d2d2d2d2d2d2d2d2d2da8
:101f8c002d2d2d2d2d2d2d2d2d2d2d2d2d2d2d2d75
:101f9c002d2d2d2d2d2d2d2d2d2d2d2d2d2d2d2d65
:101fac002d2d2d2d2d2d2d2d2d2d00000a202020f9
:101fbc002020202020202020202020202020202015
:101fcc00205254432044656d6f2020202020202077
:101fdc002020202020202020202000000a5379736c
:101fec0074656d2074696d652069733a2020202515
:101ffc003032643a253032643a25303264000000c5
:10200c000a53797374656d20646174652069733a41
:10201c00202020253032643a253032643a25303283
:10202c00640000000a7365636f6e64732073696edd
:10203c006365207468652045706f63683a20256c71
:08204c0064200a0a000000bf35
:020000040000fa
:102054002de9f04115468a6880460c4632b98a69f2
:10206400002a0cbf01224ff0ff328a602268d10699
:102074005fbf1a68111d196017680026a369dbb1d8
:10208400012b07d12b6862691b78d35ca3b9002e9e
:1020940032d106e0022b07d0002e2dd1a369012beb
:1020a4002ad10120bde8f08101f008fa2b681b78e1
:1020b400184443781b07efd42368da065ebf2b6805
:1020c4001b783b702a686b6802f101022a60a268df
:1020d40003f1ff3302f1ff326b6006f1010658bfd2
:1020e4000137a26042b1002bc8dcd4f88031294604
:1020f400404698470028c1d0236813f0100305d147
:10210400e2680132e260a26902b13b7023691e44b5
:0821140026610020bde8f08106
:020000040000fa
:10211c0070b5cd1c25f0030508350c2d38bf0c25ea
:10212c00002d064601dba94203d90c2333600020a5
:10213c0070bd01f0b2fa234a1468214691b9224cc1
:10214c0023681bb9304601f05bf920602946304604
:10215c0001f056f9431c26d10c233360304601f0b4
:10216c009dfae4e70b685b1b1ad40b2b0fd90b60a1
:10217c00cd50cc18304601f091fa04f10b00231d20
:10218c0020f00700c31a1bd05a42e25070bd8c429b
:10219c000dbf63684b686360136018bf0c46e9e7ba
:1021ac000c464968cae7c41c24f00304a04205d0bd
:1021bc00211a304601f024f90130cdd02560d9e741
:0c21cc0070bd00bf6c02002070020020fb
:020000040000fa
:1021d800f8b50e461446054618b183690bb900f0e8
:1021e80045fb274b9c422fd16c68a369a360a38948
:1021f800190733d52369002b30d0b4f90c30f6b267
:102208009a04374634d523692068c01a636998420e
:1022180004db2146284600f0e3fb28bba368013b0a
:10222800a36023685a1c22601e70636901309842bb
:1022380004d0a389db0719d50a2e17d121462846d1
:1022480000f0cefb90b10fe00e4b9c4201d1ac6880
:10225800cbe70d4b9c4208bfec68c6e721462846f1
:10226800fff71afe0028c8d04ff0ff373846f8bdf0
:1022780043f40053a381236e23f400532366c2e77b
:0c228800cc330000ec330000ac3300004d
:020000040000fa
:1022940030b58bb0002000f047fd01f037f9002481
:1022a400234b1c70122303930194262302930623c9
:1022b400059379230693142304930223079301a817
:1022c400fef7e8fa1b4d284600f0c8fe05f13c0075
:1022d40000f0c4fe284600f0c1fe2146164801f075
:1022e40093f901a800f0b8fd2c466c3501a800f064
:1022f4001dfc019b029a0399284600f0affe069b41
:10230400643b059a0132049904f1900000f0a6fea2
:1023140001a800f00bfc01a8fef7bcfa014604f189
:10232400b40000f09bfe41f2883001f0d5f8dde7ff
:0c233400000000207c1f00008d33000022
:020000040000fa
:1023400001f0ff01102a2bdb10f0070f08d010f866
:10235000013b013a8b422dd010f0070f42b3f6d16a
:10236000f0b441ea012141ea014122f007047ff083
:1023700000070023f0e80256083c85ea010586eada
:10238000010685fa47f5a3fa87f586fa47f6a5fa16
:1023900087f68eb9eed1f0bc01f0ff0102f0070222
:1023a00032b110f8013b013a83ea010313b1f8d1cd
:1023b0000020704701387047002d06bf35460338ae
:1023c000073815f0010f07d1013015f4807f02bfe7
:1023d000013015f4c03f0130f0bc0138704700bf38
:020000040000fa
:1023e00038b50546002945d051f8043c0c1f002b98
:1023f000b8bfe41801f057f91f4a1368104633b903
:10240000636014602846bde8384001f04db9a3422e
:102410000cd921686218934204bf1a685b68636034
:1024200004bf521822600460ece713465a680ab1f0
:10243000a242fad919685818a0420bd12068014469
:10244000581882421960ddd1106852685a60014400
:102450001960d7e702d90c232b60d3e72068211835
:102460008a4204bf11685268626004bf0918216083
:0c2470005c60c7e738bd00bf6c020020b4
:020000040000fa
:10247c0008b51b4b98471b4b9847eff3108172b66e
:10248c00194ad2f8883043f47003c2f88830bff38d
:10249c004f8fbff36f8f01b962b6144c202363606a
:1024ac0000f070f8104a124b23f07f039360114b2d
:1024bc009847a36823f00103a3602346da6812f05f
:1024cc00010ffbd1094b5a6842f004025a600122f9
:1024dc009a60094b9847094b9847fff7d5fefee7e2
:1024ec00a1360000a136000000ed00e000600041c4
:1024fc0000000000152c0000a1360000a1360000e1
:020000040000fa
:10250c002de9f74380460e46144600f0c5ff01281e
:10251c001cd1731efe2b19d88df8046005460027bc
:10252c000df10409af4220d0a36817f80910013b44
:10253c00002ba36004daa26993421adb0a2918d093
:10254c0023685a1c226019700137ebe7324604f1fc
:10255c00580301a9404600f095fa421c0546ded10d
:10256c00a38943f04003a3810646304603b0bde87f
:10257c00f08322464046fff729fe431ce4d1064671
:02258c00f3e773
:020000040000fa
:02258e00704794
:020000040000fa
:102590001c4b1d4a934230b438bf002103d203f8cc
:1025a000011b9342fbd1194800250168c1b942685b
:1025b00032b383680c30d3b10139034613f8014bb1
:1025c00001f8014f1c1a9442f8d312f0030318bf0c
:1025d000012303eb920200eb820001680029e6d0a0
:1025e000846842680b460c303cb9002addd01a449e
:1025f00003f8015b9a42fbd1d7e7002adcd1e4e77c
:1026000030bc704700000020080000208402000059
:020000040000fa
:102610002de9f04706468a46174601f042f81b4b63
:10262000d3f800809946b8f1000f07d054462346ee
:1026300013f8012b32b33d2a1c46f8d1304601f085
:1026400031f80020bde8f08708f10408d8f8000050
:102650000028f3d02246514600f0d6fd0028f3d1e1
:10266000d8f800301d191b5d3d2bedd1d9f8003095
:10267000a8eb03039b1030463b6001f013f8681c85
:10268000bde8f087a4eb0a04e0e700bf7802002071
:020000040000fa
:1026900038b54b1c144603d14ff0ff35284638bde2
:1026a000938923f020039381536b5268cdb28bb191
:1026b000a36b9a4208da23685a1e226003f8015c71
:1026c000636801336360e9e7214600f097f800286a
:1026d000f1d0e1e72169236851b1994208d213f89a
:1026e000011c8d4204d1013b013223606260d5e7b9
:1026f000e36304f1440363630323a3632346226477
:0a27000003f8465f23600123dce7c5
:020000040000fa
:02270a00fee7e8
:020000040000fa
:10270c00f8b51c4b1e68b369074613b9304600f088
:10271c00abf84836b4687368013b03d5336833b102
:10272c003668f7e7b4f90c506db16434f4e7042162
:10273c00384600f0bffc30600028f1d10c233b6020
:10274c0004462046f8bd4ff6ff73e3810123a381b5
:10275c0025662560a560656025616561a561082217
:10276c00294604f1580000f02bff6563a563a564ae
:08277c00e564e6e76c3600009d
:020000040000fa
:102784008b8973b59d0706460c4607d504f14703ac
:10279400236023610123636102b070bd01ab6a460b
:1027a40000f07efa009905463046fff7b5fc38b9cb
:1027b400b4f90c309a05efd443f00203a381e5e7a2
:1027c4000c4bb362a389206043f08003a381009b78
:1027d4006361019b20614bb1b4f90e10304600f0e7
:1027e40033fe18b1a38943f00103a381a3891d43d8
:0827f400a581d1e725360000a4
:020000040000fa
:1027fc002de9f0410c46496b04f1440399421ed17a
:10280c004ff48061fff784fc18b94ff0ff30bde83e
:10281c00f0814ff48063a36394f84630606380f8d2
:10282c00ff3394f8453080f8fe3394f8443080f848
:10283c00fd3300f2fd3020600020bde8f081a66b76
:10284c0077003a4600f094f905460028ddd000ebfd
:10285c00060801463246404600f060fec4f800808f
:06286c006563a763e8e7c5
:020000040000fa
:02287200fee77f
:020000040000fa
:10287400836910b5044633bb8364c3640365124b98
:10288400124a1b688262984204bf01238361fff7e6
:102894003bff60602046fff737ffa0602046fff74c
:1028a40033ff0022e0600421606800f0d5f90122c2
:1028b4000921a06800f0d0f902221221e06800f09a
:1028c400cbf90123a36110bd6c360000253600004e
:020000040000fa
:1028d4001f0000001c0000001f0000001e0000007c
:1028e4001f0000001e0000001f0000001f00000069
:1028f4001e0000001f0000001e0000001f0000005a
:102904001f0000001d0000001f0000001e0000004a
:102914001f0000001e0000001f0000001f00000038
:102924001e0000001f0000001e0000001f00000029
:020000040000fa
:1029340070b50b785e2b13bf4a1c8a1c4b780021a0
:1029440008bf0121441e00f1ff0504f8011fa54240
:10295400fbd113b9013a104670bd81f00104c4548f
:1029640011460d782d2d01f1010206d05d2df2d016
:102974000db90a46efe72b46f1e74e785d2efad003
:10298400b342f8dc023101339e42c454fbdce8e775
:020000040000fa
:1029940018b338b504460d4600f018fbddb100202d
:1029a4000f4a137e13f0040ffbd0538b13f0070f61
:1029b4000cd1536803f00703012b936a1abf2370e9
:1029c400013424f8023b01308542ead1854214bf28
:1029d4000020012038bd0020f8e70020704700bf28
:0429e40000040043a8
:020000040000fa
:1029e80038b50b6905460c46dbb118b183690bb9dc
:1029f800fff73cff0c4b9c4209d16c68b4f90c30d2
:102a08007bb121462846bde83840fef751bf074b49
:102a18009c4201d1ac68f1e7054b9c4208bfec68c9
:102a2800ece7002038bd00bfcc330000ec330000d9
:042a3800ac330000bb
:020000040000fa
:102a3c000eb430b59ab01dac4ff4017254f8045b6f
:102a4c00adf810200190059000f0cafd0b4b0290e0
:102a5c0006900a930a48009400230e9313934ff6a2
:102a6c00ff73adf812302a46234601a90068fef721
:102a7c0085f81ab0bde8304003b0704779360000d5
:042a8c005c020020c8
:020000040000fa
:102a9000f0b5054685b01e460f460f4c91b9226829
:102aa0000e49126a002a08bf0a4601a9d2f8e0407e
:102ab0003a46a047431c01bf002333608a232b60a2
:102ac00005b0f0bd2468054f246a002c08bf3c46c1
:102ad000d4f8e040ede700bf5c02002008000020d1
:020000040000fa
:102ae000545a00474d54002531305b5e302d392c4f
:102af0002b2d5d256e00256875256e3a2568752598
:102b00006e3a256875256e004d256875256e2e2553
:102b10006875256e2e256875256e002f256875252c
:0e2b20006e3a256875256e3a256875256e009b
:020000040000fa
:022b2e00fee7c0
:020000040000fa
:102b300038b505460f4a136913f4004ffbd10d4b0e
:102b40009c6921460c4800f08bfac4f30433ab6057
:102b5000c4f385136b6004f03f032b60c4f383530d
:102b6000013b2b61a30e74336b61c4f34444ec60ee
:0c2b700038bd00bf0024004040350000cc
:020000040000fa
:102b7c00f8b5074614460e4621b91146bde8f84093
:102b8c00fff7c6ba22b9fff725fc25462846f8bd43
:102b9c0000f0e4fc84420fd921463846fff7b8fa1e
:102bac0005460028f2d03146224600f0b7fc3146eb
:0c2bbc003846fff70ffce9e73546e7e775
:020000040000fa
:102bc800f8b50e46096e14468a0407460bd4e51874
:102bd800ac420dd0324614f8011b384600f054fac6
:102be8000130f5d10ee023f00303e518ac4201d122
:102bf8000020f8bd324654f8041b384600f040fc6b
:0a2c08000130f3d14ff0ff30f8bdaa
:020000040000fa
:022c1200fee7db
:020000040000fa
:102c140070b50d4e0d4ca41ba4100025a54209d17e
:102c24000b4e0c4cfdf71cfba41ba4100025a54265
:102c340005d170bd56f8253098470135eee756f8b2
:102c4400253098470135f2e7700200007002000059
:082c5400700200007402000090
:020000040000fa
:102c5c00002310b5044603604360836081810366e2
:102c6c00c28103614361836119460822583000f028
:102c7c00a7fc054b6362054ba362054be362054b56
:102c8c002462236310bd00bf29330000952e000081
:082c9c00e53100005136000093
:020000040000fa
:102ca40070b50e46b1f90e10002990b014461d46b9
:102cb40007da00232b60b3891a0610d44ff480631b
:102cc4000ee001aa00f0d4fa0028f2db029a02f422
:102cd4007042a2f500535a425a412a60eee740235b
:082ce4000020236010b070bd58
:020000040000fa
:102cec0010b5054c227832b9044b13b10448aff33c
:102cfc0000800123237010bd14020020000000008e
:102d0c000000000008b5034b1bb103490348aff3a7
:102d1c00008008bd00000000180200200000000028
:020000040000fa
:102d2c0010b500f02dfc0d4c23680021586800f004
:102d3c002ffc23680021986800f02afc00f0daf8d8
:102d4c00fef7baff00f024f900f008f9fff719fcc0
:102d5c0000f0eaf800f0b4f810bd00bf5c020020ef
:020000040000fa
:102d6c00b0b1b9b10c4a03e030f8023b936269b1df
:102d7c000139137e13f0010ffbd0536803f00703e6
:102d8c00012bf1d0037893620130f0e701207047fa
:0c2d9c0000207047012070470004004335
:020000040000fa
:102da8002de9f8438046894600f14804002614b905
:102db8003046bde8f883a5686768013f01d52468f7
:102dc800f5e7ab89012b07d9b5f90e30013303d0ec
:0c2dd80029464046c84706436435eee734
:020000040000fa
:102de40070b50d46a9b114460ab1022801d920468e
:102df40070bd094b2bb108461146aff30080204645
:102e040070bd164615f8010b00f02efb013ef9d1fa
:0c2e1400ede70c46204670bd00000000f9
:020000040000fa
:102e200010b50c46496b69b104f14403994201d0d5
:102e3000fff7d6fa236c63600020606313b1e36b85
:102e4000236010bd2369236000236360a38943f0de
:0a2e50002003a3814ff0ff3010bdf6
:020000040000fa
:022e5a00fee791
:020000040000fa
:102e5c00c26883681b0343ea424302681343426817
:102e6c0043ea82134269743a43ea8263026901328b
:102e7c0043ea8253034a9361136913f0080ffbd1a1
:082e8c00012070470024004002
:020000040000fa
:102e94002de9f0411f468b89db0505460c46164695
:102ea40005d502230022b1f90e1000f0f3f9a3892d
:102eb400b4f90e1023f48053a38132463b462846ce
:082ec400bde8f04100f0c2b9c5
:020000040000fa
:102ecc000a4ad36823f4e0631b041b0c43f0bf6372
:102edc0043f40033d360bff35f8f62b6044be02240
:102eec0083f80b234ff400621a60704700ed00e08a
:042efc0000e100e011
:020000040000fa
:102f00000b4b012283f8d02083f8d12083f8d820fe
:102f100083f8d920222283f8b820332283f8bc20fa
:102f20004ff48022c3f80021c3f81021704700bf7e
:042f300000800041dc
:020000040000fa
:102f34000b4a13889bb243f001031380136913f007
:102f4400010ffbd148f60a32054b1a801a46136961
:102f540013f0020ffbd14ff48072014b5a8170477a
:042f64000024004005
:020000040000fa
:102f68000a4b0b4a1a604ff622029a814ff44032fc
:102f78005a601a46d369002bfcd1044a136843f0ff
:102f880002031360d369002bfcd170470020014174
:042f980004011040e0
:020000040000fa
:102f9c000a4b0b4a1a604ff658729a814ff4403222
:102fac005a601a46d369002bfcd1044a136843f0cb
:102fbc0002031360d369002bfcd17047000400435b
:042fcc0004011040ac
:020000040000fa
:102fd0000a4b5b8b13f0070f0ed0084b80221a763a
:102fe00007225a831b7e13f0040f05d0034b9a6a05
:102ff0001a7e12f0040ffad1704700bf000400439c
:020000040000fa
:103000001f0000001c0000001f0000001e00000048
:103010001f0000001e0000001f0000001f00000035
:103020001e0000001f0000001e0000001f00000026
:020000040000fa
:10303000000000001f0000003b0000005a000000dc
:103040007800000097000000b5000000d4000000e8
:10305000f300000011010000300100004e010000eb
:020000040000fa
:103060000fb40a4b13b51c6824b1a36913b92046e9
:10307000fff700fc05ab049aa16801932046fdf719
:10308000f7ff02b0bde8104004b070475c020020ba
:020000040000fa
:103090009368013b002b10b4936009da9469a34252
:1030a00002dbcbb20a2b03d15df8044bfff794b8d7
:1030b0001368581c10601970c8b25df8044b704753
:020000040000fa
:1030c00070b54a1e642555430e4605f17001fff7a1
:1030d00025f8044640b1002180e842000c30a06091
:0c30e00005f1640200f072fa204670bd99
:020000040000fa
:1030ec00084b37b51c68084d236a002b08bf2b46cc
:1030fc00009313460a4601462046fef760fd03b0d6
:0c310c0030bd00bf5c0200200800002065
:020000040000fa
:10311800074a136843b10749184488429abf1060a8
:1031280018464ff0ff307047034b1360f3e700bfba
:0c3138007c020020880400208802002097
:020000040000fa
:1031440008b5074a908980b2064b18604cf2ff31eb
:1031540091815b6813b1034a9168984708bd00bf29
:083164000024004030020020ad
:020000040000fa
:10316c00002910b591fbf2f402fb141306db002bc3
:10317c0001da01349b1a0460436010bd002bc4bffc
:08318c0004f1ff349b18f6e783
:020000040000fa
:10319400b2310000b5310000b8310000412d466164
:1031a4002d66383930313233343536375d002b2dc6
:0831b4000030300078580000e3
:020000040000fa
:1031bc0070b50d4661b1164642b138b914460120be
:1031cc0000f0cef8013c05f8010bf8d1304670bd8b
:0831dc000e46304670bd00bf35
:020000040000fa
:1031e40010b50c46b1f90e1000f054f8431ca38935
:1031f40015bf606523f4805343f48053a38118bf43
:04320400a38110bdd5
:020000040000fa
:1032080010b56ab10139841810f8013b11f8012f83
:10321800934203d1a04201d0002bf5d1981a10bdda
:04322800104610bd7f
:020000040000fa
:10322c0037b5064c064d2468246a002c08bf2c4682
:10323c000094fef7c4fc03b030bd00bf5c0200205c
:04324c000800002056
:020000040000fa
:1032500038b5074c054608461146002222601a463a
:1032600000f018fa431c02d1236803b12b6038bd6b
:043270000400002036
:020000040000fa
:1032740038b5074c0023054608461146236000f084
:10328400fff9431c02d1236803b12b6038bd00bf92
:043294000400002012
:020000040000fa
:1032980038b5074c054608461146002222601a46f2
:1032a80000f0f0f9431c02d1236803b12b6038bd4c
:0432b80004000020ee
:020000040000fa
:1032bc0082b001b901a942b14bb113780b601278fd
:1032cc00101c18bf012002b070471046fbe76ff0ce
:0432dc000100f8e70e
:020000040000fa
:1032e00038b5074c054608461146002222601a46aa
:1032f00000f0cef9431c02d1236803b12b6038bd26
:0433000004000020a5
:020000040000fa
:1033040037b5064c064d2468246a002c08bf2c46a9
:103314000094fef7d8fb03b030bd00bf5c02002070
:04332400080000207d
:020000040000fa
:1033280010b50c46b1f90e10fff7d6ff0028abbf59
:10333800636da3891b1823f48053acbf6365a38115
:0233480010bdb6
:020000040000fa
:10334a0030313233343536373839414243444546d1
:10335a000030313233343536373839616263646567
:02336a006600fb
:020000040000fa
:10336c0030b583b002ac002344f8043d0125294656
:10337c002046fff709fb0028f9d0019803b030bdb7
:020000040000fa
:10338c0010f4807f07d00122034b1a704ff4802277
:10339c00024bc3f81c217047000000200080004144
:020000040000fa
:1033ac000000000000000000000000000000000011
:1033bc000000000000000000000000000000000001
:020000040000fa
:1033cc0000000000000000000000000000000000f1
:1033dc0000000000000000000000000000000000e1
:020000040000fa
:1033ec0000000000000000000000000000000000d1
:1033fc0000000000000000000000000000000000c1
:020000040000fa
:10340c0038b5064c0023054608462360fff77efec0
:10341c00431c02d1236803b12b6038bd040000208b
:020000040000fa
:10342c0038b5064c002305460846236000f022f907
:10343c00431c02d1236803b12b6038bd040000206b
:020000040000fa
:10344c0038b5064c002305460846236000f016f9f3
:10345c00431c02d1236803b12b6038bd040000204b
:020000040000fa
:10346c0030b583b002ac04f8010d01252946204685
:0c347c00fff776fc0028f9d003b030bd4b
:020000040000fa
:10348800b2f90c3013f4005f06d143f40053938172
:0c349800136e43f400531366fff734b8c2
:020000040000fa
:1034a400044b054a1b681b6a002b08bf134693f89c
:0c34b400280170475c0200200800002086
:020000040000fa
:1034c000044b054a1b681b6a002b08bf1346d3f840
:0c34d000ec0070475c02002008000020a7
:020000040000fa
:1034dc000028a8bf002207db4cf25133013bfdd181
:0a34ec0001329042f8da7047704791
:020000040000fa
:1034f60049b1ff2a85bf8a2303600a704ff0ff3067
:0a35060098bf012070470846704787
:020000040000fa
:10351000044a536843f480335360d369002bfcd1d1
:08352000704700bf00040043e6
:020000040000fa
:1035280010b5431e0a44914200d110bd11f8014b59
:0635380003f8014ff7e764
:020000040000fa
:02353e00fee7a6
:020000040000fa
:103540000a20636c6f636b206172653d20256c758a
:04355000000000bfb8
:020000040000fa
:1035540010f8012b11f8013b012a28bf9a42f7d039
:04356400d01a7047c2
:020000040000fa
:1035680051f8040c0028a0f10400bcbf0b58c01887
:0235780070479a
:020000040000fa
:10357a00232d302b2000686c4c0065666745464752
:01358a000040
:020000040000fa
:10358c0040f20452014b1a80704700bf00400041ca
:020000040000fa
:10359c0000294ff480630cbf02220022fef730b8e2
:020000040000fa
:1035ac00024b01461868fef7b3bd00bf5c02002059
:020000040000fa
:1035bc00024b01461868fef70dbf00bf5c020020ed
:020000040000fa
:1035cc0002440346934200d1704703f8011bf9e70c
:020000040000fa
:1035dc00034611f8012b03f8012b002af9d170478f
:020000040000fa
:1035ec00034613f8012b002afbd1181a0138704737
:020000040000fa
:0e35fc0007b501aafff706f803b05df804fb5f
:020000040000fa
:02360a00fee7d9
:020000040000fa
:0c360c00014b58609960704730020020ac
:020000040000fa
:0c361800014b1868fcf7babf5c020020f0
:020000040000fa
:0c3624000149fff7bfbb00bfe92900000f
:020000040000fa
:0c3630004ff400534b600020704700bfb7
:020000040000fa
:0b363c004300504f53495800002e007f
:020000040000fa
:0836480000487047d401002086
:020000040000fa
:08365000b1f90e10fff7eabe0c
:020000040000fa
:083658004ff0ff30704700bf86
:020000040000fa
:063660004ff0ff3070473f
:020000040000fa
:06366600d0f8ec007047f3
:020000040000fa
:04366c0074010020c5
:020000040000fa
:04367000fff7d2bfcf
:020000040000fa
:04367400474d54006a
:020000040000fa
:043678000020704777
:020000040000fa
:04367c00686c4c002a
:020000040000fa
:04368000fff7eabfa7
:020000040000fa
:04368400fff7d4bfb9
:020000040000fa
:0436880000f006b890
:020000040000fa
:04368c0000f006b88c
:020000040000fa
:04369000fff794bdef
:020000040000fa
:04369400fff7a6bbdb
:020000040000fa
:043698000120704756
:020000040000fa
:04369c000020704753
:020000040000fa
:0236a000704771
:020000040000fa
:0236a20070476f
:020000040000fa
:0236a40070476d
:020000040000fa
:0236a60070476b
:020000040000fa
:0236a800704769
:020000040000fa
:0200000400807a
:044000003912003c35
:020000040000fa
:0200000400807a
:044004008000a82a66
:020000040000fa
:0200000400807a
:04400800ffffffffb8
:00000001FF
