:020000040000fa
:10000000f0ff0320550300005d0600005f060000be
:10001000630600006506000067060000000000009f
:100020000000000000000000000000005b0600006f
:1000300061060000000000005b0600005b06000097
:100040005b0600005b0600005b0600005b0600002c
:100050005b0600005b0600005b0600005b0600001c
:100060005b0600005b0600005b0600005b0600000c
:100070005b0600005b0600005b0600005b060000fc
:100080005b0600005b0600005b0600005b060000ec
:100090005b0600005b0600005b0600005b060000dc
:1000a0005b0600005b0600005b0600005b060000cc
:1000b0005b0600005b0600005b0600005b060000bc
:1000c0005b0600005b0600005b0600005b060000ac
:1000d0005b0600005b0600005b0600005b0600009c
:1000e0005b0600005b06000000000000000000004e
:1000f000000000005b0600005b0600005b060000dd
:100100005b0600005b0600005b0600005b0600006b
:100110005b0600005b0600005b0600005b0600005b
:100120005b0600005b0600005b0600005b0600004b
:100130005b0600005b0600005b0600005b0600003b
:100140005b0600005b0600005b0600005b0600002b
:100150005b0600005b0600005b0600005b0600001b
:100160005b0600005b0600005b0600005b0600000b
:100170005b0600005b0600005b0600005b060000fb
:100180005b0600005b0600005b0600005b060000eb
:100190005b0600005b0600005b0600005b060000db
:1001a0005b0600005b0600005b0600005b060000cb
:1001b0005b0600005b0600005b0600005b060000bb
:1001c0005b0600005b0600005b0600005b060000ab
:1001d0005b0600005b0600005b0600005b0600009b
:1001e0005b0600005b0600005b060000ad0500003a
:1001f0005b0600005b0600005b0600005b0600007b
:100200005b0600005b0600005b0600005b0600006a
:100210005b0600005b0600005b0600005b0600005a
:100220005b0600005b0600005b0600005b0600004a
:100230005b0600005b0600005b0600005b0600003a
:100240005b0600005b0600005b0600005b0600002a
:100250005b0600005b0600005b0600005b0600001a
:040260005b06000039
:020000040000fa
:10026400f8b500bff8bc08bc9e4670475d050000a9
:10027400f8b500bff8bc08bc9e46704739050000bd
:020000040000fa
:1002840000222c4b1a742c4a03f500639a621a4616
:10029400536813f0100ffbd14222284bc3f884207b
:1002a4001a46d2f8843013f0400ffad0244b0022bf
:1002b4009a6377225a631a46d36b13f0040ffbd167
:1002c40002221f4b83f830201a46d36b13f0020f1f
:1002d400fbd11b4a136c03f00303032bfad1012255
:1002e400184b5a711a46d37813f0010ffbd0164af3
:1002f400124b1a621a46536813f0040ffbd1134ac7
:100304000e4b5a621a46536813f0080ffbd1412270
:100314000a4bc3f8a4201a46d2f8a43013f0400fb5
:10032400fad0084b6ff07f421a6144f2ff725a61af
:10033400704700bf0014004006013000001c00405c
:1003440000100040000800400701010007010200fe
:020000040000fa
:1003540008b51b4b98471b4b9847eff3108172b6b7
:10036400194ad2f8883043f47003c2f88830bff3d6
:100374004f8fbff36f8f01b962b6144c20236360b3
:1003840000f02ef8104a124b23f07f039360114bb8
:100394009847a36823f00103a3602346da6812f0a8
:1003a400010ffbd1094b5a6842f004025a60012242
:1003b4009a60094b9847094b984700f051f8fee7bb
:1003c400690600006906000000ed00e000600041dd
:1003d40000000000ad04000069060000690600008a
:020000040000fa
:1003e4001c4b1d4a934230b438bf002103d203f89a
:1003f400011b9342fbd1194800250168c1b9426829
:1004040032b383680c30d3b10139034613f8014b7e
:1004140001f8014f1c1a9442f8d312f0030318bfd9
:10042400012303eb920200eb820001680029e6d06d
:10043400846842680b460c303cb9002addd01a446b
:1004440003f8015b9a42fbd1d7e7002adcd1e4e749
:1004540030bc70470000002000000020d8050000d8
:020000040000fa
:1004640080b5002000f0c6f800210d4800f0ecf83b
:1004740000f0cef80a4d00240a4f2146284600f029
:10048400e3f84ff48026c7f814612146284600f0ab
:10049400dbf8c7f818612146284600f0d5f8ece7e8
:0804a4006b060000008000411e
:020000040000fa
:1004ac0070b50d4e0d4ca41ba4100025a54209d10e
:1004bc000b4e0c4cfff7d0fea41ba4100025a5423c
:1004cc0005d170bd56f8253098470135eee756f842
:1004dc00253098470135f2e77002000070020000e9
:0804ec00700200007402000020
:020000040000fa
:1004f40001220e4b1a601a46136913f0010ffbd147
:100504000a4b4ff4e2621a6003221a734ef2e1427c
:100514009a8333229a720021054a116001225a7289
:100524001a461369002bfcd1704700bf0038004005
:040534001c00002087
:020000040000fa
:1005380010b5054c227832b9044b13b10448aff317
:1005480000800123237010bd00000020000000007f
:100558000000000008b5034b1bb103490348aff383
:10056800008008bd0000000004000020000000001a
:020000040000fa
:100578000a4ad36823f4e0631b041b0c43f0bf63ef
:1005880043f40033d360bff35f8f62b6044be022bd
:1005980083f86b234ff40062da60704700ed00e0e7
:0405a80000e100e08e
:020000040000fa
:1005ac0008b5084b5b7a63b1064a937a3321917292
:1005bc0003f0ff002bb1044b1b6813b1024a5168c6
:0c05cc00984708bd003800401c000020cb
:020000040000fa
:1005d800000000201c000000000000001c0000209b
:1005e80008000000000000000000000000000000fb
:020000040000fa
:1005f80008b500f017f800f01df8fff73ffe00f00f
:0c06080027f8fff773fffff7b3ff08bdf2
:020000040000fa
:10061400044a136843f002031360136913f0020fd2
:08062400fbd1704700380040d3
:020000040000fa
:10062c0040f20452014b1a80704700bf0040004159
:020000040000fa
:10063c004ff48022014bc3f8002170470080004129
:020000040000fa
:0c064c00014b1860596070471c00002032
:020000040000fa
:020658007047e9
:020000040000fa
:02065a00fee7b9
:020000040000fa
:02065c00fee7b7
:020000040000fa
:02065e00fee7b5
:020000040000fa
:02066000fee7b3
:020000040000fa
:02066200fee7b1
:020000040000fa
:02066400fee7af
:020000040000fa
:02066600fee7ad
:020000040000fa
:020668007047d9
:020000040000fa
:02066a007047d7
:020000040000fa
:0200000400807a
:044000003912003c35
:020000040000fa
:0200000400807a
:044004008000a82a66
:020000040000fa
:0200000400807a
:04400800ffffffffb8
:00000001FF
