:020000040000fa
:10000000f8ff0320e9560900935809009f59090099
:1000100073680900436c0900cb6e09000000000002
:10002000000000000000000000000000e75609008a
:10003000db60090000000000e7560900e7560900f0
:10004000e7560900e7560900e7560900e756090098
:10005000e7560900e7560900e7560900e756090088
:10006000e7560900e7560900e7560900e756090078
:10007000e7560900e7560900e7560900e756090068
:10008000e7560900e7560900e7560900e756090058
:10009000e7560900e7560900e7560900e756090048
:1000a000e7560900e7560900e7560900e756090038
:1000b000e7560900e7560900e7560900e756090028
:1000c000e7560900e7560900e7560900e756090018
:1000d000e7560900e7560900e7560900e756090008
:1000e000e7560900e7560900000000000000000084
:1000f00000000000e7560900e7560900e75609002e
:10010000e7560900e7560900e7560900e7560900d7
:10011000e7560900e7560900a1250900a1250900b5
:10012000a1250900a1250900e7560900e7560900a5
:10013000e7560900e7560900e7560900e7560900a7
:10014000e7560900e7560900e7560900e756090097
:10015000e7560900e7560900e7560900e756090087
:10016000e7560900e7560900e7560900e756090077
:10017000e7560900e7560900e7560900e756090067
:10018000e7560900e7560900e7560900e756090057
:10019000e7560900e7560900e7560900e756090047
:1001a000e7560900e7560900e7560900e756090037
:1001b000e7560900e7560900e7560900e756090027
:1001c000e7560900e7560900e7560900e756090017
:1001d000e7560900e7560900e7560900e756090007
:1001e000e7560900e7560900e7560900e7560900f7
:1001f000e7560900e7560900e7560900e7560900e7
:10020000e7560900e7560900e7560900e7560900d6
:10021000e7560900e7560900e7560900e7560900c6
:10022000e7560900e7560900e7560900e7560900b6
:10023000e7560900e7560900e7560900e7560900a6
:10024000e7560900e7560900e7560900e756090096
:10025000e7560900e7560900e7560900e756090086
:04026000e756090054
:020000040000fa
:10026400f8b500bff8bc08bc9e467047f9690900a0
:10027400f8b500bff8bc08bc9e467047d5690900b4
:020000040000fa
:020000040008f2
:10000000ebfe904d53444f53352e3000020101005a
:100010000100028000f001003f00ff00000000002e
:10002000000000008000294f5ffe504e4f204e41df
:100030004d45202020204641542020202020000033
:1000400000000000000000000000000000000000b0
:1000500000000000000000000000000000000000a0
:100060000000000000000000000000000000000090
:100070000000000000000000000000000000000080
:100080000000000000000000000000000000000070
:100090000000000000000000000000000000000060
:1000a0000000000000000000000000000000000050
:1000b0000000000000000000000000000000000040
:1000c0000000000000000000000000000000000030
:1000d0000000000000000000000000000000000020
:1000e0000000000000000000000000000000000010
:1000f0000000000000000000000000000000000000
:1001000000000000000000000000000000000000ef
:1001100000000000000000000000000000000000df
:1001200000000000000000000000000000000000cf
:1001300000000000000000000000000000000000bf
:1001400000000000000000000000000000000000af
:10015000000000000000000000000000000000009f
:10016000000000000000000000000000000000008f
:10017000000000000000000000000000000000007f
:10018000000000000000000000000000000000006f
:10019000000000000000000000000000000000005f
:1001a000000000000000000000000000000000004f
:1001b000000000000000000000000000000000003f
:1001c000000000000000000000000000000000002f
:1001d000000000000000000000000000000000001f
:1001e000000000000000000000000000000000000f
:1001f000000000000000000000000000000055aa00
:10020000f0ffffff0f0000000000000000000000f2
:1002100000000000000000000000000000000000de
:1002200000000000000000000000000000000000ce
:1002300000000000000000000000000000000000be
:1002400000000000000000000000000000000000ae
:10025000000000000000000000000000000000009e
:10026000000000000000000000000000000000008e
:10027000000000000000000000000000000000007e
:10028000000000000000000000000000000000006e
:10029000000000000000000000000000000000005e
:1002a000000000000000000000000000000000004e
:1002b000000000000000000000000000000000003e
:1002c000000000000000000000000000000000002e
:1002d000000000000000000000000000000000001e
:1002e000000000000000000000000000000000000e
:1002f00000000000000000000000000000000000fe
:1003000000000000000000000000000000000000ed
:1003100000000000000000000000000000000000dd
:1003200000000000000000000000000000000000cd
:1003300000000000000000000000000000000000bd
:1003400000000000000000000000000000000000ad
:10035000000000000000000000000000000000009d
:10036000000000000000000000000000000000008d
:10037000000000000000000000000000000000007d
:10038000000000000000000000000000000000006d
:10039000000000000000000000000000000000005d
:1003a000000000000000000000000000000000004d
:1003b000000000000000000000000000000000003d
:1003c000000000000000000000000000000000002d
:1003d000000000000000000000000000000000001d
:1003e000000000000000000000000000000000000d
:1003f00000000000000000000000000000000000fd
:1004000046494c45202020205458542000004f5f7e
:10041000fe50000000004f5ffe500200040000008c
:1004200000000000000000000000000000000000cc
:1004300000000000000000000000000000000000bc
:1004400000000000000000000000000000000000ac
:10045000000000000000000000000000000000009c
:104400004461746100000000000000000000000032
:10441000000000000000000000000000000000009c
:10442000000000000000000000000000000000008c
:10443000000000000000000000000000000000007c
:10444000000000000000000000000000000000006c
:020000040000fa
:020000040009f1
:100000002de9f04f97b016ad45f8140d0c46174684
:100010001e46284606f062f80028c0f25983ab4b12
:1000200053f820300bb100221a70a94b13f810506e
:1000300003eb400393f80180a64b002c08bf1c463d
:10004000284607f04bfc10f0010f01d0032340e3da
:1000500010f0040f01d00a233be3636815935bb3f0
:10006000159a531eb3f5004f30d30123159394f81e
:1000700001b00bf1ff33dbb2022b28bf4ff0010bb5
:10008000a3685a1eb2f5004f23d203f00f02002ad4
:1000900018bf4ff400730193e368b3f1807f1cd85d
:1000a0005a1e1a40002a0cbf99464ff000095fea19
:1000b000562a15d111230ce315aa0321284606f070
:1000c00015fe0028ccd001231593d0e71a42ccd1dd
:1000d000cde74ff400730193dee74ff00009e6e748
:1000e000002f00f0fa822378029300231493b8f1d2
:1000f000000f2dd0012300223946284606f074ff58
:10010000002840f0ec8297f8ff2197f8fe3143ea8f
:1001100002231bb2704a934201d00e23d9e2b8f1f8
:10012000040f01d90e23d4e207eb081494f8b2317e
:1001300004f5d774002b00f0d48204f1080007f016
:100140000dfb039004f10c0007f008fb149015e080
:1001500014aa0121284606f0c9fd002840f0d082eb
:10016000029b13f0080f07d1149b3f2b0bd93f3b89
:1001700014933f23039301e00023039314997f29f1
:1001800004d80e23a5e200230393f7e7029a12f0a6
:100190000203059324d002f00103002b0cbf0323bc
:1001a00002230493cdf824b04fea5923802b28bfb3
:1001b00080234fea113e019ac2f3161210461092a4
:1001c0004fea514c159a541e0a94524207920b90d2
:1001d0000c95049dcdf834800e970f965e46a6e2ee
:1001e000029b13f0010f08bf132300f07282022359
:1001f0000493d7e79946032598e283b9bcf1000f31
:100200002dd0364a901c4ff002094a46944507d338
:100210004fea490930f8022f002af7d100e0994649
:10022000b1fbf9f2900000f207204fea5028a2f546
:100230007f42f63a2a48824200f26482039a02f12f
:10024000200708fb06700a9a0244079c2240121af3
:1002500000240894202414440694174449e04ff0e5
:100260000109dde79946b1fbf9f240f6f5708242eb
:1002700020d90232520002f2ff124fea5228039aaa
:10028000571c08fb0670109a10440a9a8218079ca3
:100290002240121a032d14d0b2fbf6f406fb1424ec
:1002a00004b3013a039ca71c022406941ce04ff0ff
:1002b0000109d8e702eb420201325208033201255c
:1002c000d9e70b9c08940124c5e700bf280500204e
:1002d00088010020cc78090055aaffffbc780900ee
:1002e000fffffe0f01240694b2fbf6f290440b9a36
:1002f0000892039ac2eb091202449142c0f00482b0
:10030000069a8c1a06fb1844089aa41ab4fbf9f44e
:10031000032d18d0022d32d14ff6f57294421fd919
:10032000002b40f0ff814fea4909b9f1400f40f23c
:10033000fd81059a002a7ff45dafb9f1800f40f28c
:10034000f5810e23c5e14ff6f572944217d8002bc4
:1003500040f0dc815fea590940f0e8810e23b8e102
:1003600040f6f572944235d8002b40f0d1814fea27
:100370004909b9f1800f40f2d9810e23a9e12b463a
:10038000049505970c9dcdf81c80ddf834800e9ff8
:100390000f9e012b27d140f6f5739c4200f2ba81e3
:1003a0004ff400720021384607f0d4fa0b22ce49f0
:1003b000384607f0fff90023fb7202233b7387f8ee
:1003c0000d90069aba73c2f30723fb7387f810b037
:1003d000019b25e0049505970c9dcdf81c80ddf868
:1003e00034800e9f0f9e4ff400720021384607f0b4
:1003f000b1fa0b22bc49384607f0dcf90023fb7246
:1004000002233b7387f80d90069aba73c2f3072351
:10041000fb7387f810b0049b032b019b08bf0023dc
:100420007b74c3f30723bb741499b1f5803f4cd29e
:10043000f974c1f307213975f8237b753f233b76a7
:1004400000237b76ff22ba76fb76039907f11c0026
:1004500007f01cfa049b032b3cd106f0d4fe0146a6
:1004600007f1430007f012fa079907f1240007f09b
:100470000dfa022107f12c0007f008fa4ff0010bea
:1004800087f830b0002387f83130062287f8322011
:1004900087f83330802387f84030292387f84230ab
:1004a0001322924907f1470007f084f9552387f892
:1004b000fe31aa2387f8ff315b46039a3946284666
:1004c00006f034fd68b3012303e107f1200007f0d3
:1004d000ddf9b1e706f097fe014607f1270007f0c6
:1004e000d5f9079aba75c2f30723fb75802387f8fd
:1004f0002430292387f8263013227d4907f12b0069
:1005000007f058f9552387f8fe31aa2387f8ff3101
:100510000123039a3946284606f008fdb0b30123ab
:10052000d7e00123039a06323946284606f0fefc3e
:100530004ff400720021384607f00cfa6d49384636
:1005400007f0a4f96c4907f5f27007f09ff9611ef6
:1005500007f5f47007f09af9022107f5f67007f035
:1005600095f9552387f8fe31aa2387f8ff31012337
:10057000039c224607323946284606f0d7fc012361
:1005800022461a443946284606f0d0fc26f4ff726b
:1005900022f001020021384607f0dcf9049b012b10
:1005a000564b18bf6ff0070301934ff0000b3b1d34
:1005b0000393099b9b453bd3089b049a032a18bfce
:1005c0009946059e4c46d14528bf5446234632469f
:1005d0003946284606f0aafc002840f09f802644b1
:1005e000b9eb0409eed1049a032a54d0149bb3f555
:1005f000803f52d2022a0cbf04240124b8f1000f1c
:100600004dd0012300223946284606f0edfc002893
:1006100040f0868007eb081888f8b24101230022d9
:100620003946284606f082fc002848d0012350e0d5
:10063000049b032b2ad16ff00701384607f026f9f7
:100640004ff0ff31039807f021f96ff0704107f187
:10065000080007f01bf9079c2646544528bf56465c
:100660003346059a3946284606f060fc002853d1e7
:100670004ff400720021384607f06cf9059b3344b3
:100680000593a41be8d10bf1010b92e701993846c1
:1006900007f0fcf8dfe70c24b0e70624aee7029b86
:1006a00013f0080f0bd1149b1293002313933b46b6
:1006b000224612a9284602f017fd034648b9002237
:1006c0001146284606f012fb031c18bf012300e068
:1006d0000b23184617b0bde8f08f1123f9e701236b
:1006e000f7e70e23f5e700bfb0660900bc66090016
:1006f000d06609005252614172724161f8ffff00f9
:100700000123e6e70e23e4e70e23e2e70e23e0e70a
:100710000e23dee70e23dce70123dae70123d8e727
:100720000123d6e7059adab1994603254b46032df6
:100730003ff463ad002b7ff495adbef1000f3ff4a5
:10074000b6ad084a901c4ff0020904229645fff40a
:100750008aad4fea490930f8022f002af6d182e526
:080760000e23b6e7ac78090096
:020000040000fa
:020000040009f1
:100768002de9f04f83b09c4b1e68197d21b9337871
:100778004bbb03b0bde8f08f3378002b40f0c2814b
:1007880030460022531cdbb29942f2d010f8284fb1
:100798000cb91a46f6e70232d2b2012a08bf002283
:1007a8008d490a75ff2be4d003eb8303dc00351970
:1007b8006b79012b09d02b7b042bdad8dfe803f007
:1007c8000a1d2e5080000b46eee72b7b042b10d021
:1007d80000232b7395f82030012b00f06e81002345
:1007e800335585f820306b71ab70eb706b702b71e3
:1007f800bfe70022784b5a75eae7ab685b6a0321ca
:10080800e88898476861b0f1ff3fb2d0ab681b69d0
:100818002a467249984702232b73aae7ab681b68dc
:100828006869984770b195f820301bb1012385f8a5
:1008380020309ee7ab685b68686998476862032365
:100848002b73f3e795f82030012b03d0002385f8ac
:1008580020308ee7284606f04dff00232b71f5e780
:100868005d4b5b7d012b84d001225b4b5a756b6a13
:100878001b691b68b3f5007f3abf4ff40074b4fbe3
:10088800f3f40124544e4ff400720021306907f04c
:1008980031f8022385f8213032696869ab68009421
:1008a8009c68002305f11c01a047eb69b3f1ff3fe9
:1008b80002d004232b735ce70022474b5a7558e794
:1008c80095f92130022b06d06bb10022424b5a75a4
:1008d80003232b734de7ab68db6a002b3ff449af6a
:1008e8002869984745e73c4b1e6900236b7096f8ca
:1008f800fe31552b0ed0002634464ff0ff08364bfc
:100908005f683b78002b6bd00022334b5a7502236b
:100918002b732ee796f8ff31aa2b01d00026ebe7c0
:100928003378eb2b2bd096f8c20106f00bfd074667
:100938000446687096f8d20106f004fd20b147f02d
:10094800020401376f70e4b296f8e20106f0fafc8f
:1009580028b144f00404e4b26b7801336b7096f864
:10096800f20106f0effc28b144f00804e4b26b7819
:1009780001336b70002c40f0c2800126bce773780d
:100988003c2b03d0582b01d0fe2bccd1b378902b25
:10099800c9d101236b7096f85230462b00f0918034
:1009a80096f85330412b00f0918096f85430542b30
:1009b80000f0918096f83630462b00f0918096f83a
:1009c8003730412b00f0918096f83830542b00f0e6
:1009d8009180002690e700bfe8370020656e090087
:1009e8004a4bd3f810a02b7901332b712a7e484b40
:1009f80053f822b0584606f085ff5ffa80f94a4658
:100a08005946b81c06f06efbaa7807eb09039a70e2
:100a180009f1010357fa83f32a7930329a7009f100
:100a2800020357fa83f300229a70bd6187f80180a8
:100a38001cb314f0010f29d01446b8f1ff0f1cd0d5
:100a4800344b33f814301af803207a705344d97aa7
:100a58009a7a120402eb0162597a02eb0122197a9e
:100a68000a447a61d9799a79120402eb01625979b8
:100a780002eb01221b7913443b61c6b1264bea788d
:100a88001a7001345c7001233b703de714f0020fcb
:100a980001d00124d1e714f0040f01d00224cce7df
:100aa80004f00804002c0cbf00240324c5e71a4beb
:100ab800ea781a7000225a70e5e7284606f01afe0e
:100ac8008de6002634464ff00b0818e7002634461a
:100ad8004ff00b0813e7002634464ff00b080ee7db
:100ae800002634464ff0060809e7002634464ff042
:100af800060804e7002634464ff00608ffe60126fc
:100b0800b046fce60023014a13754de6e83700209d
:0c0b180000380020307a0900880100201d
:020000040000fa
:020000040009f1
:100b24002de9f04f87b081468a46036802930b781b
:100b34002f2b0bd05c2b09d0029b9b6983609af806
:100b440000301f2b0ed9dff864b320e153469a46d8
:100b540013f8012b2f2afad05c2af8d00023c9f805
:100b64000830ece7802389f82f300021484604f050
:100b7400b9f903462ce082b21f2a42d92f2a2dd07c
:100b84005c2a2bd07f2a12d9fe2c20d825f81420d9
:100b9400013405a806f0bdfab0f1ff3f17d0b0f557
:100ba400803fe8d3030c25f814300134e3e7104602
:100bb400222a00f069812a230bf10d01984204d006
:100bc40011f8013f002bf9d1dee7002bdcd006231e
:100bd400184607b0bde8f08f01330593059b1a78da
:100be4002f2af9d05c2af7d00027ddf814a0012cb5
:100bf40009d0022c1dd0002c00f0448105eb4402e6
:100c040021e00427f1e72b882e2bf7d1002325f8c8
:100c1400143009f123029c428cbf2e21202102f8ba
:100c2400011f01330b2bf6d147f0200789f82f70f1
:100c34008fe06b882e2be1d12b882e2bded1e5e7bc
:100c4400013c00f01f8132f8023d202bf8d02e2bfe
:100c5400f6d06100002325f81430002cb7d02b887f
:100c6400202b20d12a460026013632f8023f202bc1
:100c7400fad0ceb147f003078a1eab18aa5a2e2a1f
:100c840005d0013c03d033f8022d2e2af9d10b22d2
:100c9400202109f1240006f05bfe082300930023c1
:100ca4000193039308e000262e2be5d1e2e7a0454b
:100cb4000bd047f00307464606f1010835f8160045
:100cc40018b32028f5d02e28f1d0019b009a934226
:100cd40011d2a04500f0da807f286bd8ff2840f2bb
:100ce4008c80009a531e019999427ed347f00307e2
:100cf40046460192e0e7009b0b2b4fd0a04500f045
:100d0400c88047f0030740f2c48099f82430e52beb
:100d14004cd0009b082b00f09780039a02f00c0340
:100d24000c2b00f0968002f00303032b00f091805b
:100d340017f0020f0bd1039b13f0010f18bf47f0fc
:100d44001007039b13f0040f18bf47f0080789f836
:100d54002f70484601f042fb99f82f2003460028e3
:100d64007ad112f0040f7ff433af99f8063013f000
:100d7400100f00f08580029800f14001d9f814307a
:100d8400c3f30803194406f043fbc9f80800cdf87f
:100d940014a0d9f80030dd680024fae647f0030710
:100da40099f82430e52bb8d10b230093052389f857
:100db4002430aee747f0020740f2b51105f0e6fd36
:100dc40010f0800f03d000f07f00374b185cff2831
:100dd40087d890b947f00307019b5f205a1c019202
:100de4004b4483f82400464666e7019a13460133d0
:100df4004a44010a82f82410f0e72b28ead02c2375
:100e04000bf1190299b2814219d012f8013f002b5b
:100e1400f8d1a0f141039bb2192b03d8039b43f0f3
:100e240002030393a0f161039bb2192b0ad8039b1d
:100e340043f001030393203880b2019bcee7002bdb
:100e4400c8d1e6e7019bc9e7039b9b00dbb2039390
:100e540063e747f002076be7042b7ff4b9ae12f0a7
:100e6400200f07d012f0040f91d0802389f82f307f
:100e74000023ade602f00402002a08bf0523a7e61a
:100e84000523a5e600232b800623a1e6009b0b2b5c
:100e940084d0039b9b00dbb2039326460b23009371
:100ea4000823019308e700bfa059090090660900d0
:020000040000fa
:020000040009f1
:100eb400cc3700201c000000000000002c3500206e
:100ec40098000000000000003438002002000000f8
:100ed400000000003838002001000000000000007d
:100ee4002805002004000000000000001438002041
:100ef400100000000000000036380020020000004e
:100f040000000000c03100200002000000000000ca
:100f1400403800200800000000000000000000200d
:100f240054010000000000003025002000080000eb
:100f340000000000e8370020180000000100000055
:100f4400600100209003002078790900000000006f
:100f54009001002000000000003800201400000070
:100f6400010000007c740900807409008474090085
:100f74008c74090090740900600100204c02000088
:100f8400000000007037002038000000000000005e
:100f9400802f00204002000000000000302d0020bf
:100fa4005002000000000000393800200100000059
:100fb40000000000a837002024000000000000000a
:100fc400243800201000000000000000300500203c
:100fd4000020000000000000ac030020040000001a
:100fe40000000000b00300207401000000000000b5
:100ff400c4350020800000000000000044360020ba
:1010040080000000000000002437002040000000a1
:10101400000000002c050020040000000100000076
:10102400c4360020c4360020600000000100000027
:1010340000000000d4740900f4740900b4740900b9
:10104400000000000000000000000000000000009c
:10105400000000000000000000000000000000008c
:10106400000000000000000000000000000000007c
:10107400000000000000000000000000000000006c
:10108400000000000000000000000000000000005c
:1010940064370020040000000000000068370020ce
:1010a4000400000000000000c03300206c010000b8
:1010b40001000000430000000000000000000000e8
:1010c400000000000000000000000000000000001c
:1010d40000000000430000000000000000000000c9
:1010e40000000000000000000000000000000000fc
:1010f40000000000430000000000000000000000a9
:1011040000000000000000000000000000000000db
:101114000000000043000000000000000000000088
:1011240000000000000000000000000000000000bb
:101134000000000043000000000000000000000068
:10114400000000000000000000000000000000009b
:101154000000000043000000000000000000000048
:10116400000000000000000000000000000000007b
:101174000000000043000000000000000000000028
:10118400000000000000000000000000000000005b
:1011940000000000e1760900e1720900000000008f
:1011a400d0420900b1790900b0790900b079090089
:1011b400b0790900b0790900b0790900b079090063
:1011c400b0790900b0790900b0790900ffffffff89
:1011d400ffffffffffffffffffff00000100415380
:1011e4004349490000000000000000000000000026
:1011f4000000000000000000000000000000415357
:101204004349490000000000000000000000000005
:1012140000000000000000000000000000000000ca
:101224002405002004000000000000006c370020aa
:1012340004000000000000000000000000000000a6
:020000040000fa
:020000040009f1
:101244002de9f04385b00d46164600230b6004f0eb
:1012540043ff071ec0f25281b94b53f82740002cbc
:1012640000f050812c6006f0fe0623787bb1607894
:1012740006f01bfc10f0010f09d1002e00f0448190
:1012840000f0040000280cbf00200a2037e10023ee
:101294002370ac4b13f81700607006f01dfb10f0c0
:1012a400010f01d003202ae126b110f0040f01d070
:1012b4000a2024e1a34b03eb47077f780021204653
:1012c40002f082ff022801d03bd8d7b3042f01d902
:1012d4000d2014e104f206256e4604f24628284641
:1012e40006f03afa46f8040b10354545f7d10fb12c
:1012f4007d1e00e03d460deb85064ff0030818e027
:10130400204602f061ffe7b901280fd8042800f055
:10131400138194f84c2094f84b3043ea02231bb217
:10132400b3f5007f14d00d20e9e040460135032dcc
:1013340007d856f8041b0029e2d1002ff5d00d2060
:10134400dde0042800f0e2800128e2d90d20d6e097
:1013540094f8573094f8567057ea032704d104f1ef
:10136400640006f0f9f90746666b276294f850505a
:10137400a5706b1edbb2012b01d90d20bfe094f8e0
:101384004d901ffa89f36381002b00f0c18009f1ad
:10139400ff3313ea090f01d00d20b0e094f8523066
:1013a40094f8518048ea0328a4f8088018f00f0f35
:1013b40040f0b08094f8543094f8530050ea03207d
:1013c40003d104f1600006f0c7f994f84f2094f8b3
:1013d4004e3053ea022300f09f8007fb05f203eb33
:1013e400181111448842c0f09980451ab5fbf9f5eb
:1013f400002d00f095805448854294bf4ff00309b6
:101404004ff000094ff6f570854298bf4ff002097e
:1014140040f6f570854240f2a580b9f1000f00f066
:1014240081800235e56166623344a36231442163fd
:10143400b9f1030f40f09f8094f86b2094f86a3060
:1014440053ea022370d1b8f1000f6fd104f16c009c
:1014540006f082f9e062ab0003f2ff13b7eb532fff
:1014640066d34ff0ff33636123618023237194f8c3
:10147400712094f8703043ea02231bb2012b28d167
:10148400711c204605f014fc18bb0023237194f84a
:101494003f2294f83e3243ea02231bb22b4a934282
:1014a40017d104f1400006f057f9294b984210d1a6
:1014b40004f5097006f050f9264b984209d104f559
:1014c4000a7006f049f9606104f50b7006f044f9fe
:1014d400206184f80090204a138801339bb2138062
:1014e400e3801e4be3600023a3611d4b1b689c42f9
:1014f40002d100221a4b1a60002000e00b2005b034
:10150400bde8f0830c20fae70020f8e70120f6e7b5
:101514000d20f4e70d20f2e70d20f0e70d20eee7b3
:101524000d20ece70d20eae70d20e8e70d20e6e7c3
:101534000d20e4e70d20e2e70120e0e70d20dee7df
:101544002805002088010020f5ffff0f55aaffffa2
:10155400525261417272416136380020c03100201c
:10156400143800200235e56166623344a3620e44f8
:1015740026634ff00109b8f1000fdbd01344e36296
:10158400b9f1020f0fbf6d0005eb450305f001052e
:1015940005eb530505f2ff15b7eb552fced34ff0ee
:0c15a400ff33636123618023237192e711
:020000040000fa
:020000040009f1
:1015b0002de9f04f9db004460d4690464c22002187
:1015c00009a806f0c7f909941ce1d8461ae1697820
:1015d000302946d02d2948d0023500202a2948d06c
:1015e000a1f13003dbb2092b88bf00240cd8002402
:1015f00004eb840401eb4404303c15f8011ba1f119
:101600003003dbb2092bf3d901f0df034c2b37d0c9
:10161000002900f04081a1f16103dbb2192b9abfd0
:10162000a1f12003dbb20b46a3f14202162a76d8c1
:10163000dfe812f01e016c0079007500750075007e
:1016400075007500750075007500750075002b013b
:101650007500750075002b00750079007500750028
:10166000f800a97803350120b8e7a97803350220ee
:10167000b4e7d8f80040297808f104080135c3e739
:1016800040f0040029780135c2e708f1040bd8f8ce
:1016900000703978002900f0c0803b464ff0000808
:1016a00000e0b04608f1010613f8012f002af8d136
:1016b00010f0020f14d108f10208b44240f2c680c3
:1016c00004f1010ac146202109a805f023fa09f115
:1016d0000109ca45f7d1a8eb06062644397831b18d
:1016e00009a805f017fa17f8011f0029f8d1771c8f
:1016f000b4427ff66aaf01342026314609a805f0ce
:1017000009fa0137a742f8d1d8467be008f1040472
:1017100098f8001009a805f0fdf9a04672e009a8a4
:1017200005f0f8f96ee010f0040f0dd14ff00a0e3d
:10173000442b7cd1d8f8002008f10408002abcbf53
:10174000524240f0080076e04ff00a0e08f104061d
:10175000d8f80020442b04d1b046efe74ff0100e2c
:10176000f4e7b04667e0b446b2fbfef10efb11238e
:10177000dbb20a46092b84bf4b44dbb20cf10106f5
:10178000303307f8013f09b1202eecd110f0080fdb
:1017900006d01cab1e442d2306f86c3c0cf102064f
:1017a00000f00103002b14bf4ff030094ff0200967
:1017b00010f0020f0fd106f1010aa6420cd2671ced
:1017c000494609a805f0a6f90af1010aba45f7d178
:1017d00004f1010a00e0b24601ab1e441f4616f8b0
:1017e000011d09a805f096f9b742f8d10af10106e2
:1017f000544507d90134494609a805f08bf901364b
:10180000b442f8d12978002945d025293ff4dfae2c
:10181000013509a805f07ef9f4e710f0020f18d0a1
:10182000002664e710f0040f98d14ff0100ed8f89e
:10183000002008f1040878290cbf4ff027094ff069
:1018400007090df103074ff0000c8de73978464684
:1018500046e70126002c3ff44aaf00264ff001086e
:101860002ee7d8f8002008f104084ff0020ee2e756
:1018700010f0040ff5d14ff0020e59e7d8f8002010
:1018800008f104084ff0080ed5e710f0040ff5d169
:101890004ff0080ecbe709a805f0b6f91db0bde87a
:0218a000f08fc7
:020000040000fa
:020000040009f1
:0218a20070478d
:020000040000fa
:020000040009f1
:1018a4002de9f04f8bb090f82f3013f0a00f04d037
:1018b400062738460bb0bde8f08f0668f3681a882f
:1018c40022b34ff0000a0af1010a33f8022f002a6a
:1018d400f9d1054600f124040c22214607a805f09d
:1018e40067ff9df8273013f0010f7dd0402385f862
:1018f4002f300b2207a9204605f05aff4ff00109ab
:101904004b464ff07e0b4ff0200803e04ff0000ae7
:10191400dfe74b460df11b07072203f00f0000f130
:101924003001392988bf00f13701013a07f801195c
:101934001b09f2d10aa9114401f814bc62b195f84b
:10194400241020290bd0214601339a4206d011f8e5
:10195400010f2028f8d102e0134600e01346234487
:1019640005e0414603f8011b191b072907d8072a7c
:10197400f7d80aa9114411f8141c0132f2e72846d9
:1019840000f02cfd074628bb09f10109b9f1640fe9
:101994001ed0f7680b2207a9204605f009ffb9f10c
:1019a400050fb6d9023f4b4637f8022f002ab1d0b3
:1019b400102102f0010000eb4303520813f4803fae
:1019c4001cbf83f4883383f021030139f1d1ebe7a1
:1019d40007276ee7b9f1640f74d004287ff469af68
:1019e4009df8273085f82f309df8273013f0020f2b
:1019f40000f085800af10c03524aa2fb03234fea4c
:101a0400930a0af10101284604f016fe074600284d
:101a14007ff44fafbaf1000f79d06969a1eb4a1195
:101a2400284603f05ffa074600287ff442af2046b9
:101a340005f09efd019000230293039419e03846bb
:101a440049e04ff6ff72934202d03cf810300bb9d4
:101a540048f0400881f800800123f37000212846f3
:101a640002f093fe074600287ff423afbaf1010a7f
:101a740026d0e969304605f01bf9074600287ff4b3
:101a840018afd6f80cc0296a5ffa8af89df80430ba
:101a94004b734ff00f03cb724ff000030b738b7635
:101aa400cb7608f1ff3000eb400300eb8300264abd
:101ab40002f10d0e029b4ff6ff744ff0ff090de08b
:101ac400039c24e00727f4e6177801eb070b01f8e1
:101ad40007908bf8019001329645b2d0a342f3d01f
:101ae400471c3cf81030107801eb000b0b54180a1b
:101af4008bf80100002ba2d138462346ebe70121e5
:101b0400284604f099fd074600287ff4d2aee9691f
:101b1400304605f0cdf8074600287ff4caae2022ef
:101b24000021286a05f014ff0b222146286a05f0db
:101b34003ffe2a6a95f82f3003f01803137301232c
:0c1b4400f370b6e64fecc44e9c7809002c
:020000040000fa
:020000040009f1
:101b50002de9f04391b00191002800f09c800446eb
:101b6000154602f03f073a4602a901a8fff76afbb3
:101b7000064610b1002323608ee0029b0393019977
:101b800003a8fef7cfff0346002840f09b809df995
:101b90003b30002bc0f2848037f0010314bf0121d9
:101ba000002103a804f088fb034615f01c0f00f089
:101bb0008c8000284cd19df8123013f0110f40f0aa
:101bc000ec8015f0040f40f0ed8017f0080f00f0e6
:101bd0008e8005f018fb054601460b980e3005f087
:101be00055fe29460b98163005f050fe029dddf893
:101bf0002c804146284605f00dfc8146202388f8bc
:101c00000b3000220b99284605f050fd00210b985f
:101c10001c3005f03bfe0122029bda70b9f1000f87
:101c200063d0029b5d6b0022494603a803f0ecfde4
:101c30000346002840f0b9802946029805f03af89a
:101c400009f1ff33029a136100284ed0064691e74e
:101c5000042b05d047f00807002b58d01e4689e713
:101c6000544b1b680bb11223f4e703a8fff71afecd
:101c700047f0080703460028a7d096e000eb55225e
:101c8000226201234146787805f0aef920b10126a1
:101c900070e702266ee70926304611b0bde8f083f2
:101ca00015f01c0f5ed10623d6e7e161c5f30803ea
:101cb000002bf1d0029f384605f05bfd0028ddd1f6
:101cc000022657e715f01c0fc2d1002b6dd19df8ed
:101cd000123013f0100f67d115f0020f02d013f07d
:101ce000010f64d115f0080f01d047f04007029ba7
:101cf0005b6b63620b9ba36237f0010314bf01218e
:101d0000002103a804f03af820610028c1d0029d08
:101d1000ddf82c804146284605f07cfba06008f1e8
:101d20001c0005f01bfde0602560eb88a380277593
:101d3000002161752162a16104f130084ff4007245
:101d4000404605f007fe17f0200fa5d0e568002dee
:101d5000a2d0a561029b5f897f02a168bd42a4d980
:101d6000ed1b05e0062375e7eb1baf429dd21d4638
:101d7000204602f055fe0146012806d9b0f1ff3f8a
:101d8000f2d105e0e1610226f4e6b0f1ff3ff9d1be
:101d90004ff0ff33e3610126ece60726002e3ff407
:101da0007bafe7e60826f9e704231e46e2e60723b1
:081db000fbe700bf143800201e
:020000040000fa
:020000040009f1
:101db8002de9f04317460a7e85b06e2a98460646f6
:101dc8000c460c9b01f1430e00f0bc801ad8632a24
:101dd8002ed00ad8002a00f0c880582a00f08a803d
:101de80004f1420584f842202ae0642a01d0692ad5
:101df800f6d121681a6811f0800f23d0111d1960df
:101e0800136827e0732a00f0b48008d86f2a2ad014
:101e1800702ae5d10a6842f020020a6003e0752ab8
:101e280021d0782adcd1782284f845206e4964e0f4
:101e38001a6801f14205111d1960136884f84230cf
:101e48000123a3e011f0400f02f104011960d7d07b
:101e5800b2f90030002b03da2d225b4284f84320cc
:101e680062490a2217e02068196810f0800f03d031
:101e7800081d18600b6806e010f0400f01f104001f
:101e88001860f7d00b8859496f2a14bf0a22082214
:101e9800002084f843006568a560002dc0f29c808e
:101ea800206820f004002060002b3fd1002d40f076
:101eb80095807546082a0bd12368da0708d5236967
:101ec80062689a42debf302305f8013c05f1ff3510
:101ed800aeeb05032361cdf800803b4603aa2146fb
:101ee800304602f06afb013055d14ff0ff3005b0a3
:101ef800bde8f08381f845203c492268186812f053
:101f0800800f00f104051d6001d0036802e055064a
:101f1800fbd50388d00744bf42f0200222601bb9da
:101f2800226822f0200222601022b1e77546b3fb36
:101f3800f2f002fb1033cb5c05f8013d03460028a4
:101f4800f5d1b7e708681a68496910f0800f04d01e
:101f5800101d18601368196007e010f0400f02f1b7
:101f6800040018601368f6d01980002323617546b1
:101f7800b1e71a68111d19601568626800212846c2
:101f880003f02afa08b1401b6060636823610023ec
:101f980084f843309fe723692a4639463046c047cc
:101fa8000130a2d023689b0707d5002504f1190941
:101fb800e368039a9b1a9d4205dbe068039b9842fd
:101fc800b8bf184693e701234a4639463046c0470a
:101fd80001308ad00135ebe7002ba7d10b7884f8c4
:101fe800423004f1420565e7c3730900b273090082
:020000040000fa
:020000040009f1
:101ff80061001a03e0001703f8000703ff0001005f
:1020080078010001300132010601390110014a014d
:102018002e017901060180014d00430281018201f0
:1020280082018401840186018701870189018a016f
:102038008b018b018d018e018f019001910191011e
:1020480093019401f60196019701980198013d02c8
:102058009b019c019d0120029f01a001a001a201fa
:10206800a201a401a401a601a701a701a901aa012f
:10207800ab01ac01ac01ae01af01af01b101b201de
:10208800b301b301b501b501b701b801b801ba018f
:10209800bb01bc01bc01be01f701c001c101c20105
:1020a800c301c401c501c401c701c801c701ca01f0
:1020b800cb01ca01cd011001dd0101008e01de0155
:1020c8001201f3010300f101f401f401f801280100
:1020d800220212013a020900652c3b023b023d0232
:1020e800662c3f0240024102410246020a015302a5
:1020f800400081018601550289018a0158028f0139
:102108005a0290015c025d025e025f029301610265
:1021180062029401640265026602670297019601f1
:102128006a02622c6c026d026e029c0170027102de
:102138009d01730274029f01760277027802790288
:102148007a027b027c02642c7e027f02a601810255
:102158008202a9018402850286028702ae01440236
:10216800b101b20145028d028e028f0290029102e6
:10217800b7017b030300fd03fe03ff03ac03040068
:102188008603880389038a03b1031103c20302008b
:10219800a303a303c4030803cc0303008c038e0327
:1021a8008f03d8031801f2030a00f903f303f403b9
:1021b800f503f603f703f703f903fa03fa03300408
:1021c800200350041007600422018a043601c10468
:1021d8000e01cf040100c004d004440161052604a7
:0421e800000000bf34
:020000040000fa
:020000040009f1
:1021ec002de9f04f9db00d4692460393074618b16a
:1021fc0083690bb903f0ccff6f4b9d4256d17d68c0
:10220c00ab891c075cd52b69002b59d00023099393
:10221c0020238df82930dff8a48130238df82a3063
:10222c004ff001095446264616f8013b002b52d1bb
:10223c00b4eb0a0b0bd05b4652462946384604f0e9
:10224c00edfa013000f0b380099b5b4409932378cd
:10225c00002b00f0ac8000234ff0ff320493079367
:10226c00059206938df853301a9305223178534812
:10227c0003f0b0f8741c049b002830d1d80644bf7e
:10228c0020228df85320190744bf2b228df85320a0
:10229c0032782a2a2bd0079a00210a20344601369c
:1022ac002378303b092b68d971b326e0444b9d420f
:1022bc0001d1bd68a4e7434b9d4208bffd689fe771
:1022cc002946384602f0ccfa00289fd04ff0ff3058
:1022dc001db0bde8f08f252baad03446a3e7a0eba8
:1022ec00080009fa00f0184304902646bde7039a4b
:1022fc00111d12680391002a01db079204e052427f
:10230c0043f002030792049323782e2b0ed16378ab
:10231c002a2b04f1010134d1039b1a1d1b68039273
:10232c00002bb8bf4ff0ff3302340593264e2178b3
:10233c000322304603f04ef838b14023801b03fad9
:10234c0000f0049b03430493013421781f488df85b
:10235c002810062203f03ef803ab009304f1010aa7
:10236c001b4b2a4604a9f0b1384605f093fb421cde
:10237c001dd0099b0344099354e700fb0232012151
:10238c008ce70023059318460a260c460131227867
:10239c00303a092a03d9002bc8d00590c6e706fbb2
:1023ac0000200123f1e73846fff700fddfe7ab899a
:1023bc005b068bd409988be7d47409002a78090042
:1023cc00f4740900b47409003078090034780900f9
:0423dc002968090063
:020000040000fa
:020000040009f1
:1023e0002de9f04f85b004460768002102f07cfd1e
:1023f0008346002840f0bc804ff0ff3323634ff04a
:10240000ff0ad14698460be0c4f830804ff0ff0930
:102410000021204602f0bbf98346002840f0a88046
:10242000e169384604f046fc8346002840f0a0806d
:10243000256a2e78002e00f09980eb7a03f03f0297
:10244000a271e52ee0d013f0080f16d00f2adbd1d1
:1024500094f82f3013f0400fdad116f0400f32d03d
:1024600095f80da006f0bf066369236395f80db0db
:10247000d3452ed04ff0ff09cae70f2ae8d0b9f1b3
:10248000000f04d1284605f075f8824570d094f805
:102490002f3013f0010f11d1691c04f1250015f83c
:1024a0000b3b94f824209b1a43b911f8013b10f818
:1024b000012b9b1a8d42f7d1002b59d0c4f83080e4
:1024c0004ff0ff09a4e7b14518bf4ff0ff099fd1b6
:1024d000cce7ea7eab7e53ea022350d1fb6800933f
:1024e0002b7803f03f03013b03eb430203eb820332
:1024f000dff8a8a0012101970396cdf808b01f4688
:1025000006e04ff6ff739e4241d1234b53451ad04c
:102510001af8013bea185278ee5c46ea02260029d6
:10252000efd0ff2f28d8304602f016fc834607f183
:102530000109009b33f8170002f00efc834522d1fd
:1025400031464f46e1e7039eddf808b03a46019f69
:102550002b7813f0400f04d019b1009b33f81230e0
:102560006bb9013e5ffa86f9da4651e74ff0040b8a
:10257000584605b0bde8f08f019fddf808b0da4697
:102580004ff0ff0944e7019fddf808b0f7e7019f2e
:10259000ddf808b0f3e700bfa97809009c780900ce
:020000040000fa
:020000040009f1
:1025a000f8b5684b9b7d002b00f0ca80654a137e0e
:1025b000dbb2927d12f0800f0fd1624a137edbb244
:1025c000927d12f0010f00f0b08013f0010f00f0c7
:1025d000ac805c4d5c4c5d4e24e013f0800fecd081
:1025e000584b5b8b13f00703e7d0574ad387554b03
:1025f00080221a7607225a831b7e13f0040f05d01f
:10260000504b9a6a1a7e12f0040ffad14e4b1b6a95
:10261000002bd2d04c4a516a02209847cde7a269dc
:1026200090422fd02b7e13f0010f7ed0a368e2687a
:10263000934277d06b6803f00703012b02f101038b
:1026400014bfb25c36f812202169994298bf00236a
:10265000e3606b6803f00703012b18bfd2b2aa62d4
:10266000237d002bded005f0c3f82368002bd9d0e2
:10267000227f002ad3d0a2699042d3d3616803207d
:102680009847cfe7616803209847cbe7226a002a82
:1026900035d0616a38469047a36a0133226b934272
:1026a00028bf00232be0a16a294a22f8116031e0fb
:1026b00005f048f8236a002b31d094f83c2032b161
:1026c000a26b90422bd3616a0020984727e0a26b4f
:1026d000904224d1616a0020984720e0194d1a4c9d
:1026e0001de02b7e13f0040f1bd0ae6aa36a0133ea
:1026f000226b934228bf0023e26a9a42c6d0e26a64
:102700009a42eed06a6802f00702012acbd0a26a90
:102710000f498e54a36294f83430002bc8d101279e
:10272000dfe7f8bd0122074b1a75064a137edbb2bc
:10273000927d12f0040f03d013f0040fced1f8bd38
:10274000f8bd00bf0020014124370020443600209e
:04275000c43500206c
:020000040000fa
:020000040009f1
:102754002de9f04f87b004468b4616469846002371
:10276400c8f80030019005a904f094fb074630b97d
:10277400677d27b9237d13f0020f04d1072738465c
:1027840007b0bde8f08fa369f34228bfde43002ef3
:1027940000f0b18004f13003029303975fe000215d
:1027a400019801f005fc03e0e169019801f000fce7
:1027b400002864d1039f9ee002276775dfe70127a5
:1027c4006775dce70123226a02990598407804f0d2
:1027d400abfb20b9237d03f07f0323755ce0012765
:1027e4006775cce702276775c9e701276775c6e7f0
:1027f4004ff400720beb4121029804f0d9ff237dc2
:1028040003f07f03237567e0236a994503d0a26927
:10281400e3689a4262d3c4f82090a069c0f3080028
:10282400c0f50075b54228bf35462a465946029b75
:10283400184404f0bdff237d63f07f032375d8f8ab
:1028440000302b44c8f80030ab44a3692b44a36187
:10285400e268934238bf1346e360761b4ad0a3690b
:10286400c3f30802002ad8d1059a5789013f17ea11
:1028740053270dd1002b97d1a06800288fd00128b1
:102884009ad0b0f1ff3f9ad0e061a36803b9a06089
:1028940094f91430002b95dbddf814a0e16950465f
:1028a40004f065ff814600289cd0b944750aabd07a
:1028b400baf80a307a199a4288bfdd1b2b464a4679
:1028c40059469af8010004f02ffb00288dd1216aa3
:1028d400a1eb09018d428bd86d02b0e701234a4672
:1028e40002999af8010004f07dfb002893d0012797
:1028f400677544e7039f237d43f0400323753ee758
:020000040000fa
:020000040009f1
:1029040010b14ff0ff30704730b58bb00c46644bbc
:1029140093f90030022b49d0614b1b6cdb683bb14f
:102924005f4a908e9847022802d04ff0ff3044e06f
:102934005b4b1b6c1b683bb1594d0b21a88e984710
:10294400a863b0f1ff3ff0d028220021684604f0cc
:10295400d3ff534b1a6cd2696946986b9047002891
:1029640000f093804e4b009ada67019ac3f88020f6
:10297400039ac3f884200499c3f888109a62069acb
:10298400c3f88c200799c3f89010da62182283f8f0
:102994006820029ada66059a1a67089a5a6703f158
:1029a4007c029a67099ada6002221a703c4b93f807
:1029b4009530012b03d04ff0ff300bb030bd384bb6
:1029c400002283f89520db7933b10122344b83f85c
:1029d40095204ff0ff30f0e7314b93f860304bb166
:1029e40014f0080f06d001222d4b83f895204ff0e8
:1029f400ff30e2e72a4b586e002849d09d6dab7832
:102a040000225bb105f110030022013282423fd063
:102a14001d46103313f80e1c0029f6d10123ab70a8
:102a240000232b706c706b6014f0080f02d001212e
:102a34001b4bd9711a4b93f86010013183f8601065
:102a4400198e42ea0142aa601b8e01339bb24ff6f3
:102a5400ff72934208bf0123114a1386ab68b3f196
:102a6400ff3f08d092f83c302bb1136c9b6913b133
:102a74000c49906b98470122094b83f895200db1be
:102a8400a8689ae74ff0ff3097e74ff0ff3094e7dc
:102a94000122034b83f895204ff0ff308de700bff0
:082aa4002c350020197a09000d
:020000040000fa
:020000040009f1
:102aac002de9f04196b00190022208a901a8fef789
:102abc00c3fb044618b1204616b0bde8f0810b22ca
:102acc00202102a804f040ff019b1b781f2b40f231
:102adc009280002540f2b517574e1ee00624eae717
:102aec00002b7cd10a2d00f28280a8460ae0ff2c34
:102afc00f8d9092d79d805f1010816ab1d44230a24
:102b0c0005f8503c08f10105e4b216ab434403f858
:102b1c00504c019b1b781f2b19d901a804f0f5fa16
:102b2c00b0f5803f57d202f011f9394603f02aff75
:102b3c000446002851d02b28d0d02e23721c99b2d9
:102b4c00a142cdd012f8013f002bf8d1cfe79df870
:102b5c000830e52b45d075b1202c0ed102ab434487
:102b6c00b8f1000f4dd008f1ff3213f8011d2029e8
:102b7c0047d19046f4e7a84643e0a84641e0e52259
:102b8c00119b1a700122089bda70089802f0f0fd74
:102b9c00044690e7042826d1b8f1000f8bd0012110
:102bac0009a803f045fd0446002884d12022002109
:102bbc00119804f0c9fe0822119bda720b2202a9ab
:102bcc00119804f0f1fd0122089bda70089802f0cc
:102bdc00cffd04466fe706246de706246be7062459
:102bec0069e7062467e7044665e7062463e70624dd
:102bfc0061e706245fe79df80830e52bf9d04ff02c
:102c0c000008089b099300210b9109a802f066f9b2
:102c1c00044600287ff44faf012109a800f084fc82
:102c2c000028b7d1b8f1000fa9d00b2202a9119836
:0c2c3c0004f0bafda6e700bfc87709004d
:020000040000fa
:020000040009f1
:102c480010b14ff0ff3070472de9f04f87b00f46b5
:102c580093461e465e4b1c686069b0f1ff3f00f06a
:102c6800b180636a1b699b680593b3f5007f0fd930
:102c78004fea5328b8f1010f19d00122544b9a7525
:102c8800002e00f08a8004f11c030493029655e09c
:102c9800059ab2f5007f0ad04ff40078b8fbf2f835
:102ca80008fb01f708fb06f6b8f1000fe5d0022390
:102cb80084f82130a3680096dd683b465a4604f143
:102cc8001c01a847e0697fe0029622bb6a025946c8
:102cd800404b03eb4a2004f053fd3e4b0393029e06
:102ce800b5425dd04ff0020384f821306069a368d3
:102cf80001220092d3f80ca04b46039a0499d047be
:102d080094f92120022a0fd1a368db6a002bf9d09d
:102d180020699847f4e700222d4b9a754ff0ff3051
:102d280052e0cdf80cb0dae70296002a2fd12f44f2
:102d38000beb452b029b5b1b029331d0b7fbf8f9d9
:102d480008fb197aa8eb0a05029b9d4228bf1d467d
:102d58004545e6d04ff0020384f821306069a36846
:102d68004ff4006200929b681e46059b09fb03f323
:102d7800184a0499b047029e94f92120022aa3d147
:102d8800a368db6a002bf9d020699847f4e7002292
:102d98000f4b9a754ff0ff3016e0b146cdf80cb0e6
:102da80000220b4b9a75022384f821306069a368ce
:102db80001220092dd684b46039a04f11c01a847e2
:102dc800e06901e04ff0ff3007b0bde8f08f00bfc9
:082dd800e8370020302500203f
:020000040000fa
:020000040009f1
:102de000002800f0b68070b582b00446a9b1531e29
:102df000dbb2012b11d815460e4603f015fb90b13e
:102e00000022574b1a70574b1b78ab425fd01522ec
:102e1000534b1a704ff0ff304ae01322504b1a7098
:102e20004ff0ff3044e003224d4b1a704ff0ff305b
:102e30003ee001224a4b1a704ff0ff3038e0162274
:102e4000474b1a704ff0ff3032e00022464b1a70a9
:102e5000464b1b78002b50d00122434b1a70142292
:102e60003f4b1a704ff0ff3022e000223f4b9a7325
:102e7000a36cfbb198473d4b5b681b68f3b13b4ac1
:102e8000507b9847364b18700d285ed00122374b87
:102e90009a7330b9354a01211170354b19705a6057
:102ea00000200122304b1a70003018bf0120404230
:102eb00002b070bd17222a4b1a70dce71722284b8c
:102ec0001a700122294b9a734ff0ff30e9e76946e7
:102ed000204603f027ff0028abd09df804309d4228
:102ee00001d0002babd1204b1b78012badd007229a
:102ef0001b4b1a704ff0ff30dae71c4b5d70194a1c
:102f000054685c6000221a73701d73792f2b0bd0ec
:102f100053b10146154a137b0133137311f8013f76
:102f20002f2b01d0002bf6d1104b98609df800009c
:102f300058739b7b012b98d00722094b1a700122f2
:102f4000094b1a704ff0ff30b2e70122074b9a731a
:102f5000a0e71322024b1a704ff0ff30704700bffa
:102f60004001002038010020000000204401002022
:042f7000300100200c
:020000040000fa
:020000040009f1
:102f74002de9f04f87b004468b461546984600234a
:102f8400c8f80030019005a903f084ff074630b962
:102f9400677d27b9237d13f0010f04d10727384635
:102fa40007b0bde8f08fe668a369f61aae4228bf01
:102fb4002e46002ef3d004f130030293039748e029
:102fc400e169019801f02afd51e002276775e6e7ff
:102fd40001276775e3e702276775e0e7012767754f
:102fe400dde7206aa0eb0900854265d94ff4007241
:102ff40002990beb402004f0dbfb5de0226a914573
:103004000cd094f91430002b58db01234a46029962
:103014000598407803f0e6ff00285ed1c4f82090bc
:10302400a169c1f30801c1f50075b54228bf354651
:103034002a46029b1944584604f0bafbd8f80030db
:103044002b44c8f80030ab44a3692b44a361761b1e
:1030540046d0a369c3f30802002ae1d1059a57892f
:10306400013f17ea532708d1002ba9d1a0680128f2
:10307400abd9b0f1ff3fabd0e061ddf814a0e1695a
:10308400504604f074fb81460028a4d0b944750a64
:10309400b4d0baf80a307a199a4288bfdd1b2b469d
:1030a4004a4659469af8010003f09cff002895d13e
:1030b40094f91430002b94db6d02bfe701230299cd
:1030c4009af8010003f030ff20b9237d03f07f0359
:1030d40023759ae70127677561e7012767755ee73e
:0430e400039f5ce703
:020000040000fa
:020000040009f1
:1030e8002de9f04f87b00190894600929a4605aacb
:1030f800012103f0f7fd002840f0a180ddf81480dd
:10310800504b984598bf08260bd910264ff63e42db
:10311800b8fbf6f3934204d9760016f0ff06f7d110
:10312800ff264ff400720021504604f00ffcb8f15e
:103138003f0f6fd9444ba3fb08235b090293a9f106
:1031480004090af5e3740af5fb733f25dff8fcb0c0
:10315800cdf80ca09a4647e0a8eb0507002f54d0fd
:103168002946204604f08efb3946201d04f08afbd0
:103178009df8003004f8043cabfb0523ea1a03eb86
:1031880052035b09b3fbf6f206fb123104f8071c85
:10319800c3eb8313eb1a0133910821f03f010b4372
:1031a80004f8063c04f8052c3d446a1eabfb0213e8
:1031b800d11a03eb51035b09b3fbf6f106fb11309f
:1031c80004f8030cc3eb8313d31a01338a0822f0e3
:1031d8003f02134304f8023c04f8011c544517d07d
:1031e80055b31034a8450dd959f8047f642f03d876
:1031f8001abf029b5f4347467b199845acd3ab4245
:10320800acd2a9e7ddf80ca004e0ddf80ca001e0e1
:10321800ddf80ca055238af8fe31aa238af8ff317d
:10322800012300225146019803f07cfe003018bfac
:10323800012007b0bde8f08fddf80ca0eae7012017
:10324800f7e700bff7e107001f85eb5105411004c0
:020000040000fa
:020000040009f1
:103258002de9f04182b004460d46804601a903f0ed
:1032680017fe0746002840f09280677d002f40f047
:103278008e80e368ab4205d2227d02f00202002a6a
:1032880008bf1d46a3690022a261002d7fd0019ac4
:10329800568976026bb1013b6a1eb2fbf6f2b3fbac
:1032a800f6f18a4205d372421340a361ed1ae1692f
:1032b80002e0a16899b1e16100294ad0b5422fd84e
:1032c800a3692b44a361c5f30803002b63d00198bd
:1032d80004f04bfa002839d10227677557e02046d9
:1032e80000f064fe0146012804d0b0f1ff3f04d08d
:1032f800a060e0e70227677549e00127677546e0a7
:10330800404601f089fb0146b1f1ff3f18d0012981
:1033180019d9019bdb69994215d2e161ae42cfd23e
:10332800ad1ba3693344a361237d13f0020fe7d0db
:10333800404600f03bfe01460028e5d1002509e0a3
:103348000127677523e00227677520e000eb552504
:1033580000e00025a369e268934204d9e360227d76
:1033680042f040022275c3f3080383b1226a9542f2
:103378000dd094f91430002b0fdb01232a4604f1f9
:1033880030010198407803f02bfeb0b92562384629
:1033980002b0bde8f0810025dce7012304f130012b
:1033a8000198407803f0befd20b9237d03f07f0328
:1033b8002375e2e701276775e9e701276775e6e7ff
:020000040000fa
:020000040009f1
:1033c8002de9f84fd0f800a000238b75c369002bb6
:1033d80000f0a9800e460746036bb3f1ff3f3fd0cc
:1033e80000242546a04640f2b51b0ae070b3b9f1a7
:1033f800000f2dd006eb080398750123984400258b
:103408000234daf80c30185bd8b12db900f5205326
:103418009bb2b3f5006f12d3c8f1ff09594640ead1
:10342800054003f0b1faff28e0d9b9f1010f0ad934
:1034380006eb0803020a9a75d8750223dee70546eb
:10344800dee7c14604e04ff0000901e04ff0000953
:10345800002d18bf4ff00009b144002389f8163039
:1034680000210b462e2405e07018437201311346e3
:103478000b2a0fd05a1c386ac35c202bf7d0052bb7
:1034880008bfe523092aefd10b29edd8701844723b
:103498000131e9e7731800225a72b37dbbb959b1fb
:1034a800737a104663b106f1090406f1150108257f
:1034b80000204ff0100e28e0481c31443f238b7544
:1034c8003044002383753b6a1b7b03b973723b6ae4
:1034d800db7a3372386a1c3004f03cf930603a6a9f
:1034e800d17d937d43ea0123f3803a6a517e137eae
:1034f80043ea0123b380bde8f88f754601f8013f20
:10350800013014f8013f002bdad09bb22e2bf4d0f7
:10351800a3f1410292b2192af0d83a6a127b1542f5
:0a352800ecd02033eae7bde8f88f8d
:020000040000fa
:020000040009f1
:023532007047e0
:020000040000fa
:020000040009f1
:103534002de9f04f83b00446894607684ff0ff0a2f
:1035440055460426d0464ff6ff7b67e00f2a53d139
:1035540013f0400f0bd090f80da003f0bf03626985
:10356400226390f80de0d64506d0454650e09d42d2
:1035740018bf45464cd1f4e7c17e827e52ea01224f
:103584006bd1fa6811460192067826f04006013e96
:1035940006eb460206eb8206354d05f10d0a4ff0a7
:1035a400010c009363468c4603e05a4555d1aa4565
:1035b4000fd015f8012b81184978825c42ea012268
:1035c400002bf2d0ff2e48d82cf8162013460136d3
:1035d400ede79c46009b027812f0400f08d0bcf146
:1035e400000f05d0ff2e38d80022019921f81620ab
:1035f400013bddb2f2460be01db903f0b9ff824591
:1036040031d04ff0ff3323632de0454600e04546bb
:103614000021204601f0b9f8064610bbe169d1b19a
:10362400384603f045fb0646d8b9206a0378bbb197
:10363400c27a02f03f02a271e52be6d02e2be6d02f
:1036440022f02001082914bf0021012149453ff43b
:103654007daf4546dce736b103e0f2464546d7e7a1
:1036640004260023e361304603b0bde8f08f00bfb9
:043674009c78090035
:020000040000fa
:020000040009f1
:103678002de9f04115461e469df820700c4611b103
:103688004ff0ff330b6002f0e9fb0346f8b14278d4
:103698009df8241011421ad0ddb1069abab11978f2
:1036a80002eb060e01ebc10201eb42029df81c0081
:1036b80002443e4800ebc202d2f88020964506d864
:1036c800982202fb010292f89420012a04d0bde856
:1036d800f081022ffbd1e0e7982202fb01020020d3
:1036e80082f89400126c9268002a48d093f800e09f
:1036f80098222e4802fb0e02926c002a37d04ff017
:10370800980808fb0e08106ac8f84800b8f832c0d4
:103718001878000240ea0c4c10684cea0000d060af
:10372800536015615661069b9361177701231372e5
:1037380000231362b8f8323001339bb24ff6ff70a2
:10374800834208bf0123a8f832300cb1d368236044
:103758009823164803fb0e03db6cfbb19820134b30
:1037680000fb0e3edef850301a62cef85020982248
:103778000e4b02fb0131012381f89430a7e7022f99
:1037880003d0032f08bf0127b0e79823074a03fb9c
:103798000121012381f89430bde8f081982303fbcf
:1037a8000e0ecef84c20cef85020e0e72c35002045
:020000040000fa
:020000040009f1
:1037b80030b583b0474b1b790d2b2fd8dfe803f0ca
:1037c8000710212e2e2e2e2e2e2e30475683424b9a
:1037d800d3f8a030002b21db01223e4b1a711de0eb
:1037e8003e4800230093012201461030fff7f4fa07
:1037f80018b10122374b1a7110e00222354b1a71a9
:103808000ce00321364800f057fc324b1860b0f149
:10381800ff3f0ebf0e220a222e4b1a7103b030bd95
:103828000d2230492b4b186802f036f9b0f1ff3ff2
:1038380006d0284c206802f0d7fa0b232371ede755
:10384800244c206802f042fb0e232371e6e7022293
:103858006ff00c011f4b186801f0defab0f1ff3f62
:103868000cbf0e220c221b4b1a71d7e71e4b0d22e0
:10387800194653f8050c02f0c9f9b0f1ff3f0cd016
:103888001849194803f0baff70b10e22114b1a718a
:10389800104b186802f01afbc0e70e4c206802f0c3
:1038a80015fb0e232371b9e70a4d0d232b710b4c21
:1038b8000c4904f1340003f04dfb691d04f1480084
:1038c80003f048fbe4e74ff48022034bc3f81421cc
:1038d800a4e700bfb0030020008000419065090004
:0c38e800ac650900ec780900b503002075
:020000040000fa
:020000040009f1
:1038f4002de9f047d6b001908846064600220270b2
:1039040048a901a8fdf79cfc074600285dd1489b07
:103914004993d3f818a0cdf82ca1baf1000f65d0c3
:1039240045464ff02009002422e00b46591c12f8aa
:10393400010f0028f9d19a1caa4263d879b156aa7a
:103944001344a3f239130df11e0c2a46013a13f85d
:1039540001ed019800f802e09c45f7d16d1a013d94
:10396400019b2f225a55ddf82ca1baf1000f32d059
:10397400494649a801f0b6fa00283dd15099489823
:1039840003f096f9002839d15199489803f040fd85
:103994004b90214649a801f0a5fa88bb214649a8c5
:1039a400fff7c6fd034660b95199489803f030fd0e
:1039b400504529d0214649a800f0e7fe03460028d7
:1039c400ecd0042b14bf1f46022700233370384663
:1039d40056b0bde8f087a84509d06b1c019a525d2a
:1039e40006f8012b1d469845f7d8eee74546013dfc
:1039f400019b2f225a55f0e70746e6e70746e4e71e
:103a04000746e2e71127e0e702a949a8fff7dafc35
:103a14009df81e301bb10df11e02234686e7002dd2
:063a24009dd11127d1e73e
:020000040000fa
:020000040009f1
:103a2a0030b5a7b0019026a840f8981d02f051fbc6
:103a3a0002220ba901a8fdf700fc034610b11846a3
:103a4a0027b030bd0b9b1993019919a8fdf765f8aa
:103a5a0003460028f3d19df8933013f0a00f72d1da
:103a6a00022119a802f023fc03460028e7d12022ec
:103a7a00219903a803f099fe342219a90ca803f08e
:103a8a0094fe00990ca8fdf748f8034650bb1b9b0f
:103a9a000e9a9a4201d00823d1e71e9b119a9a42a4
:103aaa0022d00823cbe7284603f0fff80346002874
:103aba00c5d10b9890f861302e2b0ad019a802f0c4
:103aca000afd03460028bad10b9801f052fe0346bc
:103ada00b5e70e9a00f1600103f0e3fd01220b9baa
:103aea00da70ebe70428aad10ca8fdf7d6fe034644
:103afa000028a4d1149c13220df1190104f10d0020
:103b0a0003f053fe9df8173013f0100f08bf43f06f
:103b1a002003e37201220b9bda70e37a13f0100f91
:103b2a00ccd00e9b1b9a9a42c8d00b9d21462846a0
:103b3a0003f06bfc0146284603f016fe01460028f6
:0a3b4a00b1d102237be7062379e7df
:020000040000fa
:020000040009f1
:103b54002de9f047012940f28680c369994201d3d7
:103b6400022681e017460c4605460378022b4bd00b
:103b7400032b5dd0012b01d0022675e001eb510827
:103b8400816a01eb582103f093f8064600286bd1b3
:103b940005f1400a08f10109c8f3080814f0010fff
:103ba4001ad01af8083003f00f0343ea07130af88f
:103bb40008300123eb70a96a01eb5921284603f070
:103bc40077f8002853d1c9f308015144c7f3071209
:103bd4000a700123eb7047e00af808700123eb70c8
:103be400a96a01eb5921284603f062f8002840d164
:103bf400c9f308090aeb09011af8093023f00f0385
:103c0400c7f303221a43e3e7816a01eb142103f0ab
:103c14004ff8064640bb05f14002630003f4ff730e
:103c2400d118d754c7f307224a700123eb701be065
:103c3400816a01ebd41103f03bf80646a0b927f0e2
:103c4400704705f14003a10001f4fe715c182046a1
:103c540003f082fd00f070413943204603f014fe66
:103c64000123eb7000e002263046bde8f0870646eb
:063c7400fae70646f8e73e
:020000040000fa
:020000040009f1
:103c7a0070b596b00190022203a901a8fdf7ddfafa
:103c8a00044610b1204616b070bd039b09930199f2
:103c9a0009a8fcf742ff0446f0b10428f2d19df8c6
:103caa00533013f0200f19d116a8039b40f8483d52
:103cba00002100f07af9054628b101285ed103f007
:103cca009dfa022402e003f099fa07240022294609
:103cda0004a801f094fdd5e70824d3e70624d1e728
:103cea0003f08cfa06462946039802f082fa044643
:103cfa000028ebd10b2220210398403003f025fe47
:103d0a0003982e2480f84040102380f84b30314627
:103d1a00563003f0b6fd03982a4600f1400103f03d
:103d2a00c0fc0398202200f14001603003f03dfd01
:103d3a00039880f861400b9a00f1600103f0b1fc2e
:103d4a000122039bda7009a8fdf7a7fd04460028a3
:103d5a00bcd131461198163003f093fd2a461199c9
:103d6a00039803f09efc1022119bda720122039b36
:103d7a00da70039801f0fdfc044683e7b0f1ff3fd7
:0a3d8a00aed103f03bfa0124a0e7dc
:020000040000fa
:020000040009f1
:103d9400b0f1ff3f06d0982303fb00f33e4ad3560d
:103da400022b00d07047982303fb002393f8943030
:103db400012bf7d1982303fb0023002283f89420de
:103dc40093f83c3033b19823334a03fb002393f830
:103dd4003d308bb170b5044698232f4a03fb002372
:103de4005b7983b1012b23d098202b4b00fb04304b
:103df400012380f8943070bd982303fb0020012335
:103e040080f8943070479823234a03fb0023d96c2d
:103e14005965002937d098231f4a03fb0023002249
:103e24005a709a70da701a7101225a7102230b7255
:103e34009820194b00fb0430456d2a7f174b53f82b
:103e44002260ab696a692969b047012821d0012839
:103e5400cad9ff232b7201206a6898230e4903fbf9
:103e64000413012183f83d1000215971d96c096aaa
:103e7400d964996c29629d645368002bb4d0d268cc
:103e8400e9689847b0e7982303fb002300221a65ea
:103e9400aae700202872dfe72c3500204c780900bf
:020000040000fa
:020000040009f1
:103ea4008a892de9f041054610070c465ad44b681f
:103eb400002b05dc0b6c002b02dc0020bde8f0813c
:103ec400e66a002ef9d0002312f480522f682b608a
:103ed40033d0606da3895a0705d56368c01a636b34
:103ee4000bb1236cc01a00230246e66a216a2846f5
:103ef400b047431ca38906d129681d294bd82b4af6
:103f0400ca40d60747d500226260d90422692260dc
:103f140004d5421c01d12b6803b96065616b2f6025
:103f24000029cad004f14403994202d0284601f082
:103f3400f3fa00206063bde8f081216a012328467a
:103f4400b047411cc6d12b68002bc3d01d2b01d018
:103f5400162b01d12f60b0e7a38943f04003a3815e
:103f6400bde8f0810f69002fa7d093070e6808bf42
:103f74004b690f6018bf0023a6eb07088b60b8f1ec
:103f8400000f9add43463a46216aa66a2846b0479e
:103f9400002807dca38943f04003a3814ff0ff30de
:103fa400bde8f0810744a8eb0008e8e701004020e1
:020000040000fa
:020000040009f1
:103fb4002de9f04107460668884659b93569002d50
:103fc4007ad0f3699d4228bf01257369002b42d042
:103fd4002c4653e000f022fd0346012864d9b0f1d9
:103fe400ff3f38d0f269904235d37369002b32d049
:103ff40008f10104f3699c4228bf02242146384693
:1040040000f00cfd0346012825d0b0f1ff3f22d07b
:1040140038b13569012d4dd9f3699d4228bf454614
:10402400d6e7dcb14ff0ff3221463046fff790fd72
:10403400034698bbb8f1000f28d134617269f36963
:10404400023b9a429cbf02f1ff327261337943f022
:104054000103337123461846bde8f0814546b7e7ae
:104064002146384600f0dafc03460028dad001285d
:10407400f1d0b0f1ff3feed0ac4219d00134f36976
:104084009c42edd3012d11d90224e9e72246414691
:104094003046fff75dfd03460028ced0012b0cbf50
:1040a4004ff0ff330123d6e70123d4e70023d2e7ff
:0c40b4000023d0e745468be7012586e796
:020000040000fa
:020000040009f1
:1040c00030b5c3b004460d46002141914ff48172d2
:1040d000684603f013fc6a4641a9204600f070fdd3
:1040e00018b94ff0ff3043b030bd41994b78022be7
:1040f00009d0324b1b78012b0dd00722304b1a70a0
:104100004ff0ff30efe7002df3d007222c4b1a7051
:104110004ff0ff30e7e72b4b1b7843b10122274bd1
:104120001a701222264b1a704ff0ff30dbe7254a37
:10413000012313705160214a13709df802302f2b18
:1041400014bf0df102040df1030423781d4a13740a
:1041500053b1234602f11000fe3413f8012f00f88a
:10416000012f0ab19c42f8d18b7b012b08d007228a
:10417000134b1a700022134b1a704ff0ff30b2e746
:1041800000238b730e4a13704b689b685bb12a4601
:1041900069460d4898470a4b18700122419b9a7353
:1041a00030b908489fe71722054b1a7001238b731b
:1041b0000022044b1a704ff0ff3094e700000020fb
:0c41c0004001002010000020180000202a
:020000040000fa
:020000040009f1
:1041cc0070b504460023c3704ff0ff33436302f015
:1041dc006bfd08b1042070bd94f83f3294f83e0298
:1041ec0040ea032094f84030eb2b0ad01833dbb2b2
:1041fc00012b06d94af6552398420cbf0220032006
:10420c0070bd4af6552398420ad094f84c2094f885
:10421c004b3043ea02235a1e1a422fd0032070bda2
:10422c0004f1930294f89230463b254904f19a0626
:10423c004bb912f8013b11f8015f5b1bb242f7d18d
:10424c008bb9002070bd94f84c2094f84b3043eaa5
:10425c0002235a1e1a4204d1b3f5007f11d002205a
:10426c0070bd022070bd94f84c2094f84b3043ea9a
:10427c0002235a1e1a42efd0022070bdb3f5007f04
:10428c001cd194f84d30002bb4d05a1e1a42b1d127
:10429c0094f85030013bdbb2012babd894f8522090
:1042ac0094f8513053ea0223a4d094f8572094f890
:1042bc00563053ea02239dd0002070bd032070bd00
:0442cc0090660900ef
:020000040000fa
:020000040009f1
:1042d00000202020202020202020282828282820d6
:1042e00020202020202020202020202020202020ce
:1042f0002088101010101010101010101010101036
:104300001004040404040404040404101010101025
:1043100010104141414141410101010101010101ef
:104320000101010101010101010101011010101041
:1043300010104242424242420202020202020202c1
:104340000202020202020202020202021010101015
:10435000200000000000000000000000000000003d
:10436000000000000000000000000000000000004d
:10437000000000000000000000000000000000003d
:10438000000000000000000000000000000000002d
:10439000000000000000000000000000000000001d
:1043a000000000000000000000000000000000000d
:1043b00000000000000000000000000000000000fd
:1043c00000000000000000000000000000000000ed
:0143d00000ec
:020000040000fa
:020000040009f1
:1043d400c700fc00e900e200e400e000e500e700bb
:1043e400ea00eb00e800ef00ee00ec00c400c500ba
:1043f400c900e600c600f400f600f200fb00f90074
:10440400ff00d600dc00a200a300a500a7209201b3
:10441400e100ed00f300fa00f100d100aa00ba00b7
:10442400bf001023ac00bd00bc00a100ab00bb006a
:10443400912592259325022524256125622556255b
:1044440055256325512557255d255c255b251025bc
:10445400142534252c251c2500253c255e255f25a7
:104464005a25542569256625602550256c25672520
:1044740068256425652559255825522553256b251e
:104484006a2518250c25882584258c2590258025ca
:10449400b103df009303c003a303c303b500c40344
:1044a400a6039803a903b4031e22c603b503292255
:1044b4006122b1006522642220232123f7004822cf
:1044c400b0001922b7001a227f20b200a025a00054
:020000040000fa
:020000040009f1
:1044d40038b50446456dc26a836ab2fbf3f30179c9
:1044e400022941d003294cd001291bd0002141705d
:1044f400c1708170dbb26969b1fbf3f181616869f4
:10450400b0fbf3f103fb1101e161591a2162a869bf
:10451400814288bf2062216a8b4210d0a368636203
:1045240001232371a169134601fb02f2a16820460d
:1045340002f06efa0346012807d0d8b238bd2b69c1
:104544006362022323710023f7e7a26ae36903fb92
:1045540002f3e361a068216a01fb02f229691844ad
:1045640003f010f9022323710123a26900212046dc
:1045740001f080fd03460128dfd1032323710023ca
:10458400dbe7dab28169134601fb02f2416a01f00a
:10459400d7fc03460128d0d1aa69216a8a42ccd02b
:1045a400521aaa616b69226a13446b61236aa16a75
:0e45b4002a6901fb03232b6100232371bde75d
:020000040000fa
:020000040009f1
:1045c2002de9f04791461f468a680b69ddf8208085
:1045d2009342b8bf1346c9f8003091f8432006460b
:1045e2000c4612b10133c9f800302368990642bf64
:1045f200d9f800300233c9f80030256815f00605f5
:1046020007d104f1190ae368d9f800209b1a9d42e8
:1046120029db94f843302268003318bf0123920645
:104622002ed404f1430239463046c047013021d02e
:104632002368e568d9f8002003f00603042b08bfbd
:10464200ad1aa36822690cbf25eae57500259342dd
:10465200c4bf9b1aed184ff000091a344d451bd107
:104662000020bde8f0870123524639463046c04754
:10467200013003d14ff0ff30bde8f0870135c2e7ca
:10468200e1185a1c302081f84300224494f8451066
:1046920082f843100233c4e70123224639463046ea
:0c46a200c0470130e6d009f10109d7e75c
:020000040000fa
:020000040009f1
:1046ae002de9f04788b0019089461446002207a9eb
:1046be0001a8fcf7c0fd804600285dd1079b236052
:1046ce005a69dd69a91e8a4206d91a78012a06d0ce
:1046de009f6a002426462be0c9f800204ce008ad66
:1046ee0045f8183d0224002604e00134079bdb69df
:1046fe009c4239d22146284600f08bf9b0f1ff3f9b
:10470e002bd001282cd00028efd10136ede70798e9
:10471e000378022b17d04030204403f018f830f005
:10472e00704308bf01360434c4f30804013d1bd0a6
:10473e00002cecd107f1010a3946079802f0b3fac2
:10474e0088b95746e3e7403003195a78035d53eab8
:10475e00022308bf01360234e6e74ff0010803e0fa
:10476e004ff0020800e08046c9f80060079b5e61ca
:10477e001a7942f001021a71404608b0bde8f0877e
:020000040000fa
:020000040009f1
:10478e002de9f84345692035b5f5001f04d3002304
:10479e00c3610420bde8f883c369002b4cd0884662
:1047ae0004460668c5f308078fb90133c3618169f2
:1047be0041b93389b3eb551f09d80023c3610420d7
:1047ce00bde8f8837389013b13ea552306d0656172
:1047de0040363e4426620020bde8f88300f019f909
:1047ee00814601282bd9b0f1ff3f2bd0f3699842b7
:1047fe001ad3b8f1000f04d10023e3610420bde801
:10480e00f883a1692046fff7cefb814610b9072039
:10481e00bde8f883012818d0b0f1ff3f18d001464b
:10482e00304601f0e4fcb0b9c4f818904946304661
:10483e0002f098ffe061cae70420bde8f883022089
:10484e00bde8f8830120bde8f8830220bde8f883b7
:0c485e000120bde8f8830120bde8f883cc
:020000040000fa
:020000040009f1
:02486a00704795
:020000040000fa
:020000040009f1
:10486c00324b70b51d6806460c4625b1ab6913b9c1
:10487c00284601f08dfc2e4b9c420fd16c68b4f98c
:10488c000c309ab215072cd4d00611d40922326000
:10489c0043f04003a3814ff0ff3070bd254b9c4289
:1048ac0001d1ac68ebe7244b9c4208bfec68e6e70f
:1048bc00510712d5616b41b104f14403994202d006
:1048cc00304600f025fe00236363a38923f0240304
:1048dc00a3810023636023692360a38943f0080349
:1048ec00a38123694bb9a38903f42073b3f5007f2b
:1048fc0003d02146304601f0fff9a28912f00103e2
:10490c000cd00023a36063695b42a361236953b994
:10491c00b4f90c3013f08000bad170bd920758bfb7
:10492c006369a360f2e70020f7e700bf2c050020c5
:0c493c00d4740900f4740900b47409007c
:020000040000fa
:020000040009f1
:1049480000222d4b1a742d4a03f500639a621a4609
:10495800536813f0100ffbd14222294bc3f884206f
:104968001a46d2f8843013f0400ffad0254b0022b3
:104978009a6377225a631a46d36b13f0040ffbd15c
:104988000222204b83f830201a46d36b13f0020f13
:10499800fbd11c4a136c03f00303032bfad1012249
:1049a800194b5a711a46d37813f0010ffbd0174ae6
:1049b800134b1a621a46536813f0040ffbd1144aba
:1049c8000f4b5a621a46536813f0080ffbd1412265
:1049d8000b4bc3f8dc201a46d2f8dc3013f0400f3a
:1049e800fad0094b6ff07f421a6140f2ff725a61a8
:1049f800084a9a61704700bf001400400601300061
:104a0800001c0040001000400008004007010100a1
:084a18000701020056820100b3
:020000040000fa
:020000040009f1
:104a2000012961d9f8b50668f36999425ed20c464e
:104a30003378022b2fd0032b42d0012b01d0012041
:104a4000f8bd01eb5105b16a01eb5521304602f08a
:104a500031f910b14ff0ff30f8bd6f1cc5f30805f8
:104a6000354495f84050b16a01eb5721304602f0c9
:104a700021f910b14ff0ff30f8bdc7f308033344fc
:104a800093f8400045ea002014f0010f14bf00091c
:104a9000c0f30b00f8bdb16a01eb1421304602f0ff
:104aa00009f910b14ff0ff30f8bd06f14003610085
:104ab00001f4ff715a185278585c40ea0220f8bda0
:104ac000b16a01ebd411304602f0f4f810b14ff0a6
:104ad000ff30f8bd4036a10001f4fe70304402f012
:104ae0003dfe20f07040f8bd012070470120f8bd68
:020000040000fa
:020000040009f1
:104af00070b59eb00190022203a901a8fcf7a2fba9
:104b0000034610b118461eb070bd039b1193019966
:104b100011a8fcf707f803460028f3d19df873307d
:104b200013f0200f46d1022111a801f0c5fb034666
:104b30000028e7d19df97330002b3ddb9df84a40fa
:104b400014f0010f3ad1039d1999284602f062fc36
:104b5000064614f0100f0bd111a801f0c1fc03465a
:104b60000028cfd1ceb9039800f008fe0346c9e76c
:104b7000ab699e421ad004950696002104a800f065
:104b8000b3f903460028bdd1002104a8fef7d2fcea
:104b9000034668b10428dfd0b4e70022314611a8eb
:104ba00000f032fe03460028acd1dce70723a9e77a
:104bb0000723a7e70623a5e70623a3e70723a1e723
:020000040000fa
:020000040009f1
:104bc0002de9f04104460f46164602f09ffe85b2dd
:104bd00005222a49204602f03bfbd0b9284b1b781e
:104be0004bb10534264b93f80c8042469968204619
:104bf00002f02efb18b10622224b1a701de0204b4a
:104c00003b604444c8f57f4808f1fb084544adb219
:104c100005e01d4b1b786bb11b4b5b683b604eb3d3
:104c2000ea1cb2f5817f0bdd0622164b1a700020bc
:104c3000bde8f0810d22134b1a700020bde8f08111
:104c40000021304602f05afe3b685b7b303337462a
:104c500007f8023b3a23737025b900237b550120e6
:104c6000bde8f0812a462146384602f03ffa013578
:104c7000adb2f2e70120bde8f08100bf287a09005b
:0c4c800044010020400100203001002011
:020000040000fa
:020000040009f1
:104c8c0030b583b0054601a902f000f9044630b9ed
:104c9c006c7d24b92b7d13f0020f03d10724204621
:104cac0003b030bdab69ea689342f8d2fbb900227d
:104cbc00a968284600f0a2fd0023ab60ab69eb604d
:104ccc002b7d43f040032b7500283bd113f0800f54
:104cdc00e5d001232a6a05f130010198407802f0f1
:104cec001ff930bb2b7d03f07f032b75d7e7e969e8
:104cfc002846fff78ffe01281dd0b0f1ff3f10d0e2
:104d0c00019bdb69984206d3ab69eb602b7d43f0ca
:104d1c0040032b75dae7ea690146284600f06efd80
:104d2c00cce7ab69eb602b7d43f040032b75012482
:104d3c0009e0012006e0ab69eb602b7d43f04003fa
:0a4d4c002b75022004466c75a9e7e0
:020000040000fa
:020000040009f1
:024d56007047a4
:020000040000fa
:020000040009f1
:104d5800b0f5803f5bd22de9f0411ffa80fe2c4a66
:104d68002c49bef5805f28bf11467746704604314e
:104d78000c4631f8043cdbb19e4519d331f8022cbe
:104d8800150ad2b2d618b74205db0431002defd18f
:104d980004eb4201ebe7082d0ad8dfe805f0050c23
:104da800151a1f24292e3300a0eb030c31f81ce040
:104db8007046bde8f081aeeb030202f00102aeebf3
:104dc80002031ffa83fef3e7aef110031ffa83fe16
:104dd800eee7aef120031ffa83fee9e7aef13003f8
:104de8001ffa83fee4e7aef11a031ffa83fedfe73a
:104df8000ef108031ffa83fedae7aef150031ffa3b
:104e080083fed5e7aef5e3531ffa83fed0e770477c
:084e1800a44f0900f81f090076
:020000040000fa
:020000040009f1
:104e200038b5b0f1ff3f1ed004460d46037803b3fa
:104e300043685968886910b3012a25d0022a2fd007
:104e4000002222739a7b012a25d100229a732946d7
:104e500063685b689b69a0689847636801229a73de
:104e600098bb284638bd09221e4b1a704ff0ff35fb
:104e7000f7e709221b4b1a704ff0ff35f1e71723b4
:104e800023734ff0ff35ece7ca69cab100222273e1
:104e90009a7b012a1dd0072323734ff0ff35e0e7eb
:104ea0004a6a6ab1002222739a7b012af3d1002256
:104eb0009a7363685b685b6aa06898472918c7e7bc
:104ec000172323734ff0ff35cbe720734ff0ff35e7
:104ed000c7e700229a7363685b68db69a06898473c
:084ee0004119b5e74001002073
:020000040000fa
:020000040009f1
:104ee800b1f5001f01d3022070472de9f0410646b5
:104ef8000c4611f01f0f02d00220bde8f081d0f857
:104f0800008071618568c5b998f80030022b02d914
:104f1800d8f82c3083b9b8f80830b3eb541f02d84e
:104f28000220bde8f081d8f82c30f361b561f3694f
:104f3800fbb90220bde8f0811d46b8f80a707f026f
:104f4800bc4210d329463046fff766fd0546b0f14e
:104f5800ff3f1ad001281bd9d8f81c3098421ad222
:104f6800e41ba742eed92946404602f0fefbf06159
:104f7800dce703eb5423f36108f14008c4f30804a9
:104f8800444434620020bde8f0810120bde8f0818e
:0c4f98000220bde8f0810220bde8f0819d
:020000040000fa
:020000040009f1
:104fa4007d1d0100632c001e9601a01e5a01001fe6
:104fb4000806101f0606201f0806301f0806401f9b
:104fc4000606511f0700591f521f5b1f541f5d1f08
:104fd400561f5f1f601f0806701f0e00ba1fbb1ffd
:104fe400c81fc91fca1fcb1fda1fdb1ff81ff91ff9
:104ff400ea1feb1ffa1ffb1f801f0806901f0806fd
:10500400a01f0806b01f0400b81fb91fb21fbc1fa1
:10501400cc1f0100c31fd01f0206e01f0206e51fbc
:105024000100ec1ff31f0100fc1f4e21010032217f
:1050340070211002842101008321d0241a05302c10
:105044002f04602c0201672c0601752c0201802cb0
:0c5054006401002d260841ff1a03000033
:020000040000fa
:020000040009f1
:1050600070b5cd1c25f0030508350c2d38bf0c2577
:10507000002d064601dba94203d90c233360002032
:1050800070bd02f0b2fa234a1468214691b9224c4d
:1050900023681bb9304602f03dfa206029463046ad
:1050a00002f038fa431c26d10c233360304602f05c
:1050b00024fbe4e70b685b1b1ad40b2b0fd90b60a6
