:020000040000fa
:10000000f0ff0320cd170000971c000067240000bc
:100010008f240000912400009324000000000000c1
:10002000000000000000000000000000df180000d9
:100030008d24000000000000df180000df18000021
:10004000df180000df180000df180000df180000d4
:10005000df180000df180000df180000df180000c4
:10006000df180000df180000df180000df180000b4
:10007000df180000df180000df180000df180000a4
:10008000df180000df180000df180000df18000094
:10009000df180000df180000df180000df18000084
:1000a000df180000df180000df180000df18000074
:1000b000df180000df180000df180000df18000064
:1000c000df180000df180000df180000df18000054
:1000d000df180000df180000df180000df18000044
:1000e000df180000df180000000000000000000022
:1000f00000000000df180000df180000df1800001b
:10010000df180000df180000df180000df18000013
:10011000df180000df180000df180000df18000003
:10012000df180000df180000df180000df180000f3
:10013000df180000df180000df180000df180000e3
:10014000df180000df180000df180000df180000d3
:10015000df180000df180000df180000df180000c3
:10016000df180000df180000df180000df180000b3
:10017000df180000df180000df180000df180000a3
:10018000df180000df180000df180000df18000093
:10019000df180000df180000df180000df18000083
:1001a000df180000df180000df180000df18000073
:1001b000df180000df180000df180000df18000063
:1001c000df180000df180000df180000df18000053
:1001d000df180000df180000df180000df18000043
:1001e000df180000df180000df180000df18000033
:1001f000df180000df180000df180000df18000023
:10020000df180000df180000df180000df18000012
:10021000df180000df180000df180000df18000002
:10022000df180000df180000df180000df180000f2
:10023000df180000df180000df180000df180000e2
:10024000df180000df180000df180000df180000d2
:10025000df180000df180000df180000df180000c2
:04026000df180000a3
:020000040000fa
:10026400f8b500bff8bc08bc9e467047951d000059
:10027400f8b500bff8bc08bc9e467047711d00006d
:020000040000fa
:10028400636f6465207374617274200d200a20000a
:10029400636f646520696e206c6f6f700a200000c4
:1002a4006461746120726561642061726520646fa9
:1002b4006e65200a2000000064617461207265612b
:1002c4006420636861723d2563200a00636b656383
:1002d4006b20617272302000636b65636b20617206
:1002e40072312000746f67676c65206f6e2f6f66c4
:1002f400662000002061727261792066696c6c6905
:100304006e672064617461200a200000636f646575
:1003140020696e206966206c6f6f702000000000f9
:10032400200a20726561642067736d2064617461c2
:10033400206c6f6f70200000200a207265616420b9
:10034400646174612063686172203d25630000006c
:10035400200a2072656164206461746120696e748e
:10036400203d256400000000200a2066756e20638d
:100374006c6f736520000000200a2073746172742e
:1003840020415420636d642066756e6374696f6eda
:10039400200a200041540d0a0000000061745f31fe
:1003a40000000000726563657665722069732072cf
:1003b40065616479000000007561727420697320be
:1003c4006e6f74206572726f720000004154203d9c
:1003d40020256300617420696e20666f72206c6f43
:1003e4006f70203d25640000617420656c73652086
:1003f400636f6e646974696f6e3d206172726179b6
:1004040020636f6c6c656374000000007265616446
:1004140020646174613d20256300000072782063cc
:100424006f756e743d20256400000000204543482c
:100434004f2066756e6374696f6e200a2000000099
:10044400415445300d0a00002053494d2052454186
:1004540044592066756e6374696f6e2009200a2002
:100464000000000041542b4350494e3f0d0a000048
:10047400205345542043616c6c20466c61672066b0
:10048400756e6374696f6e200a20000041542b431b
:100494004f4c503d310d0a00205365742041757452
:1004a4006f2063616c6c207265636576656420639c
:1004b4006d64200a20000000415453303d320d0a7f
:1004c40000000000205365742044544d46204d4fd5
:1004d400444520636d64200a2000000041542b51e0
:1004e400544f4e454445543d310d0a0020416c6c37
:1004f4002073617665206461746120636d64200af1
:1005040020000000415426570d0a00002043414cae
:100514004c2043555420434d44200a200000000041
:100524004154480d0a00000020636865636b20672e
:10053400736d207369676e616c200a2000000000ef
:1005440041542b4353510d0a000000002067736d82
:100554002063616c6c696e6720636d64200a2000ff
:10056400415444373036363235333435363b0d0a50
:10057400000000000a2067736d2066756e6374695d
:100584006f6e2063616c6c200a2000002064746d1f
:10059400662073656e6420636d64200a2000000089
:0c05a40041542b5654533d350d0a000005
:020000040000fa
:1005b0002c0200201c000000000000002b02002084
:1005c0000100000000000000d00100203200000007
:1005d00000000000020200200200000000000000f5
:1005e0006402002002000000010000004f4b0000e8
:1005f0000402002027000000010000000d0a2a2a42
:100600002a2a205553415254206572726f72206815
:100610006173206f63637572726564202a2a2a2ac7
:100620000d0a000048020020050000000100000043
:1006300041540d0a00000000600200200300000089
:10064000010000000d0a000050020020040000001c
:100650000100000070010020700100206000000017
:10066000010000000000000074220000942200003d
:100670005422000000000000000000000000000004
:10068000000000000000000000000000000000006a
:10069000000000000000000000000000000000005a
:1006a000000000000000000000000000000000004a
:1006b000000000000000000000000000000000003a
:1006c00000000000540200200400000000000000b0
:1006d0005802002004000000000000000400002078
:1006e0006c01000001000000430000000000000059
:1006f00000000000000000000000000000000000fa
:1007000000000000000000004300000000000000a6
:1007100000000000000000000000000000000000d9
:100720000000000000000000430000000000000086
:1007300000000000000000000000000000000000b9
:100740000000000000000000430000000000000066
:100750000000000000000000000000000000000099
:100760000000000000000000430000000000000046
:100770000000000000000000000000000000000079
:100780000000000000000000430000000000000026
:100790000000000000000000000000000000000059
:1007a0000000000000000000430000000000000006
:1007b0000000000000000000000000000000000039
:1007c0000000000000000000a1230000a92100009b
:1007d00000000000801100004d2400004c240000a7
:1007e0004c2400004c2400004c2400004c24000049
:1007f0004c2400004c2400004c2400004c24000039
:10080000ffffffffffffffffffffffffffff0000f6
:10081000010041534349490000000000000000006e
:1008200000000000000000000000000000000000c8
:10083000000041534349490000000000000000004f
:1008400000000000000000000000000000000000a8
:100850000000000000000020040000000000000074
:100860005c02002004000000000000000000000006
:1008700000000000222222222222222222222222e0
:020000040000fa
:100880002de9f04317460a7e85b06e2a9846064643
:100890000c460c9b01f1430e00f0bc801ad8632a71
:1008a0002ed00ad8002a00f0c880582a00f08a808a
:1008b00004f1420584f842202ae0642a01d0692a22
:1008c000f6d121681a6811f0800f23d0111d19602c
:1008d000136827e0732a00f0b48008d86f2a2ad062
:1008e000702ae5d10a6842f020020a6003e0752a06
:1008f00021d0782adcd1782284f845206e4964e042
:100900001a6801f14205111d1960136884f842301c
:100910000123a3e011f0400f02f104011960d7d0c8
:10092000b2f90030002b03da2d225b4284f8432019
:1009300062490a2217e02068196810f0800f03d07e
:10094000081d18600b6806e010f0400f01f104006c
:100950001860f7d00b8859496f2a14bf0a22082261
:10096000002084f843006568a560002dc0f29c80db
:10097000206820f004002060002b3fd1002d40f0c3
:1009800095807546082a0bd12368da0708d52369b4
:1009900062689a42debf302305f8013c05f1ff355d
:1009a000aeeb05032361cdf800803b4603aa214648
:1009b000304600f066fc013055d14ff0ff3005b0f5
:1009c000bde8f08381f845203c492268186812f0a0
:1009d000800f00f104051d6001d0036802e0550698
:1009e000fbd50388d00744bf42f0200222601bb928
:1009f000226822f0200222601022b1e77546b3fb84
:100a0000f2f002fb1033cb5c05f8013d03460028f1
:100a1000f5d1b7e708681a68496910f0800f04d06b
:100a2000101d18601368196007e010f0400f02f104
:100a3000040018601368f6d01980002323617546fe
:100a4000b1e71a68111d196015686268002128460f
:100a500000f01efe08b1401b606063682361002344
:100a600084f843309fe723692a4639463046c04719
:100a70000130a2d023689b0707d5002504f119098e
:100a8000e368039a9b1a9d4205dbe068039b98424a
:100a9000b8bf184693e701234a4639463046c04757
:100aa00001308ad00135ebe7002ba7d10b7884f811
:100ab000423004f1420565e72322000012220000c3
:020000040000fa
:100ac0002de9f04f9db00d4692460393074618b1ad
:100ad00083690bb900f0bcff6f4b9d4256d17d6816
:100ae000ab891c075cd52b69002b59d000230993d7
:100af00020238df82930dff8a48130238df82a30a7
:100b00004ff001095446264616f8013b002b52d1fe
:100b1000b4eb0a0b0bd05b4652462946384601f02f
:100b200095f8013000f0b380099b5b44099323786a
:100b3000002b00f0ac8000234ff0ff3204930793aa
:100b4000059206938df853301a9305223178534855
:100b500000f09efd741c049b002830d1d80644bfd1
:100b600020228df85320190744bf2b228df85320e3
:100b700032782a2a2bd0079a00210a2034460136df
:100b80002378303b092b68d971b326e0444b9d4252
:100b900001d1bd68a4e7434b9d4208bffd689fe7b4
:100ba0002946384600f0e4fb00289fd04ff0ff3084
:100bb0001db0bde8f08f252baad03446a3e7a0ebeb
:100bc000080009fa00f0184304902646bde7039a8e
:100bd000111d12680391002a01db079204e05242c2
:100be00043f002030792049323782e2b0ed16378ef
:100bf0002a2b04f1010134d1039b1a1d1b680392b7
:100c0000002bb8bf4ff0ff3302340593264e2178f6
:100c10000322304600f03cfd38b14023801b03fa2c
:100c200000f0049b03430493013421781f488df89e
:100c30002810062200f02cfd03ab009304f1010afa
:100c40001b4b2a4604a9f0b1384601f009fc421cae
:100c50001dd0099b0344099354e700fb0232012194
:100c60008ce70023059318460a260c4601312278aa
:100c7000303a092a03d9002bc8d00590c6e706fbf5
:100c800000200123f1e73846fff7fafddfe7ab89e3
:100c90005b068bd409988be774220000ba2300000e
:100ca0009422000054220000c0230000c42300004e
:040cb0004d1c0000d7
:020000040000fa
:100cb4002de9f84f002001f079f805214a4801f0a8
:100cc40095f84a4801f0a4f932220021484801f07d
:100cd4008bfb0022474b1a80dff8109109f1100ab0
:100ce400dff824b11e46444d45e009f1640001f0eb
:100cf40083fb4ff48022414bc3f81c214ff448700e
:100d040001f022fb4ff4fa7001f01efb32220021a5
:100d1400374801f069fb00233380a4eb08033288d1
:100d2400934220dc384601f067fb14f8013b2a7833
:100d34009a42f2d109f1580001f05efb22786b78f7
:100d44009a42ead1d1e709f1740001f061f93388dc
:100d54005a1c32802a4a1178254ad15403e02721ab
:100d6400584601f043f84ff4487001f0edfa4ff49f
:100d7400fa7001f0e9fa504601f04af901f02cfb4f
:100d84000028f0d001f0c4fa0028e8d11c4c01215d
:100d9400204600f08bfe09f1200001f039f921789a
:100da40009f1380001f034f923780d2bcbd842f245
:100db400014222fa03f313f0010fc4d0114f0321af
:100dc400384601f013f80a4c3188204601f00ef839
:100dd4000321384601f00af809f18c0001f00cfbfc
:100de400a04609f14c079de7480200208402000058
:100df400d001002002020020640200200080004193
:0c0e04002b0200206002002004020020ed
:020000040000fa
:100e10002de9f7431d46514b1e6804460f46904688
:100e200026b1b36913b9304600f012fe4c4b9c4218
:100e300052d17468b8f1020f06d0b8f1010f00f278
:100e40008980002dc0f286802146304600f084fe65
:100e5000616b41b104f14403994202d0304600f085
:100e600067fc002363630023a3616360a3891b06ff
:100e700003d52169304600f05bfca38923f44a6363
:100e800023f00303b8f1020fa3815dd001ab6a46e2
:100e90002146304600f048ffa3891843a0812dbbae
:100ea000009d284601f0bafa074600284ed1ddf829
:100eb0000090a9453cd14ff0ff30a38943f00203d5
:100ec000a3810023a36004f147032360236101236e
:100ed000636103b0bde8f083224b9c4201d1b4684a
:100ee000a8e7214b9c4208bff468a3e7002fd8d0a5
:100ef000b36913b9304600f0abfdb8f1010f08bf7c
:100f0000a389276004bf43f00103a381a38927615c
:100f100013f0080065611bd013f0010018bf6d428b
:100f20004ff000031dbfa360a5611846a560d0e780
:100f3000484601f073fa07460028bcd0a38943f065
:100f40008003a3814d46d3e70020b6e7a946f5e725
:100f5000a060bee74ff0ff30bbe700bf50020020ab
:0c0f6000742200009422000054220000c3
:020000040000fa
:100f6c008a892de9f041054610070c465ad44b6886
:100f7c00002b05dc0b6c002b02dc0020bde8f081a3
:100f8c00e66a002ef9d0002312f480522f682b60f1
:100f9c0033d0606da3895a0705d56368c01a636b9b
:100fac000bb1236cc01a00230246e66a216a28465c
:100fbc00b047431ca38906d129681d294bd82b4a5d
:100fcc00ca40d60747d500226260d9042269226044
:100fdc0004d5421c01d12b6803b96065616b2f608d
:100fec000029cad004f14403994202d0284600f0eb
:100ffc0099fb00206063bde8f081216a012328463b
:10100c00b047411cc6d12b68002bc3d01d2b01d07f
:10101c00162b01d12f60b0e7a38943f04003a381c5
:10102c00bde8f0810f69002fa7d093070e6808bfa9
:10103c004b690f6018bf0023a6eb07088b60b8f153
:10104c00000f9add43463a46216aa66a2846b04705
:10105c00002807dca38943f04003a3814ff0ff3045
:10106c00bde8f0810744a8eb0008e8e70100402048
:020000040000fa
:10107c000022384b1a74384a03f500639a621a46f8
:10108c00536813f0100ffbd14222344bc3f8842069
:10109c001a46d2f8843013f0400ffad0304b0022ad
:1010ac009a6377225a631a46d36b13f0040ffbd161
:1010bc0002222b4b83f830201a46d36b13f0020f0d
:1010cc00fbd1274a136c03f00303032bfad1012243
:1010dc00244b5a711a46d37813f0010ffbd0224ad5
:1010ec001e4b1a621a46536813f0040ffbd11f4aa9
:1010fc001a4b5a621a46536813f0080ffbd141225f
:10110c00164bc3f89c201a46d2f89c3013f0400fb3
:10111c00fad04122114bc3f8dc201a46d2f8dc304d
:10112c0013f0400ffad041220c4bc3f80c211a4695
:10113c00d2f80c3113f0400ffad00a4b6ff07f420b
:10114c001a6141f2ff725a61094a9a6102221a62cb
:10115c00704700bf0014004006013000001c004026
:10116c0000100040000800400701010007010200c8
:04117c005682010096
:020000040000fa
:101180000020202020202020202028282828282057
:10119000202020202020202020202020202020204f
:1011a00020881010101010101010101010101010b7
:1011b00010040404040404040404041010101010a7
:1011c0001010414141414141010101010101010171
:1011d00001010101010101010101010110101010c3
:1011e0001010424242424242020202020202020243
:1011f0000202020202020202020202021010101097
:1012000020000000000000000000000000000000be
:1012100000000000000000000000000000000000ce
:1012200000000000000000000000000000000000be
:1012300000000000000000000000000000000000ae
:10124000000000000000000000000000000000009e
:10125000000000000000000000000000000000008e
:10126000000000000000000000000000000000007e
:10127000000000000000000000000000000000006e
:01128000006d
:020000040000fa
:101282002de9f04791461f468a680b69ddf82080f8
:101292009342b8bf1346c9f8003091f8432006467e
:1012a2000c4612b10133c9f800302368990642bfd7
:1012b200d9f800300233c9f80030256815f0060568
:1012c20007d104f1190ae368d9f800209b1a9d425c
:1012d20029db94f843302268003318bf01239206b9
:1012e2002ed404f1430239463046c047013021d0a2
:1012f2002368e568d9f8002003f00603042b08bf31
:10130200ad1aa36822690cbf25eae5750025934250
:10131200c4bf9b1aed184ff000091a344d451bd17a
:101322000020bde8f0870123524639463046c047c7
:10133200013003d14ff0ff30bde8f0870135c2e73d
:10134200e1185a1c302081f84300224494f84510d9
:1013520082f843100233c4e701232246394630465d
:0c136200c0470130e6d009f10109d7e7cf
:020000040000fa
:02136e007047c6
:020000040000fa
:10137000324b70b51d6806460c4625b1ab6913b9f2
:10138000284600f065fb2e4b9c420fd16c68b4f9e7
:101390000c309ab215072cd4d00611d40922326031
:1013a00043f04003a3814ff0ff3070bd254b9c42ba
:1013b00001d1ac68ebe7244b9c4208bfec68e6e740
:1013c000510712d5616b41b104f14403994202d037
:1013d000304600f0adf900236363a38923f02403b2
:1013e000a3810023636023692360a38943f008037a
:1013f000a38123694bb9a38903f42073b3f5007f5c
:1014000003d02146304600f0e7faa28912f001032a
:101410000cd00023a36063695b42a361236953b9c5
:10142000b4f90c3013f08000bad170bd920758bfe8
:101430006369a360f2e70020f7e700bf50020020d5
:0c144000742200009422000054220000de
:020000040000fa
:10144c0070b50e46054618b183690bb900f0fafa6f
:10145c00ab69ac6813b9284600f0f4fa284b9c42ef
:10146c0022d16c68b4f90c309a0406d443f40053be
:10147c00a381236e23f400532366a3891b071dd578
:10148c002369dbb1013ea36816f8011f013ba36081
:10149c00e9b9002b2eda22460a21284600f036f84c
:1014ac00013011d00a2070bd164b9c4201d1ac68a2
:1014bc00d8e7154b9c4208bfec68d3e72146284679
:1014cc00fff750ff0028ddd04ff0ff3070bd002b30
:1014dc0004daa269934206db0a2904d023685a1c59
:1014ec0022601970cfe72246284600f00ff8013031
:1014fc00c9d1e9e723680a205a1c2260187070bd14
:0c150c0074220000942200005422000011
:020000040000fa
:10151800f8b50e461446054618b183690bb900f0b4
:1015280093fa274b9c422fd16c68a369a360a389c7
:10153800190733d52369002b30d0b4f90c30f6b233
:101548009a04374634d523692068c01a63699842db
:1015580004db2146284600f0fbfa28bba368013bc0
:10156800a36023685a1c22601e7063690130984288
:1015780004d0a389db0719d50a2e17d1214628469e
:1015880000f0e6fa90b10fe00e4b9c4201d1ac6836
:10159800cbe70d4b9c4208bfec68c6e721462846be
:1015a800fff7e2fe0028c8d04ff0ff373846f8bdf5
:1015b80043f40053a381236e23f400532366c2e748
:0c15c80074220000942200005422000055
:020000040000fa
:1015d40070b5cd1c25f0030508350c2d38bf0c253e
:1015e400002d064601dba94203d90c2333600020f9
:1015f40070bd00f04eff234a1468214691b9224c75
:1016040023681bb9304600f053fe2060294630465b
:1016140000f04efe431c26d10c233360304600f00c
:1016240039ffe4e70b685b1b1ad40b2b0fd90b6053
:10163400cd50cc18304600f02dff04f10b00231dd3
:1016440020f00700c31a1bd05a42e25070bd8c42ee
:101654000dbf63684b686360136018bf0c46e9e70d
:101664000c464968cae7c41c24f00304a04205d010
:10167400211a304600f01cfe0130cdd02560d9e798
:0c16840070bd00bf54020020580200207e
:020000040000fa
:1016900001f0ff01102a2bdb10f0070f08d010f823
:1016a000013b013a8b422dd010f0070f42b3f6d127
:1016b000f0b441ea012141ea014122f007047ff040
:1016c00000070023f0e80256083c85ea010586ea97
:1016d000010685fa47f5a3fa87f586fa47f6a5fad3
:1016e00087f68eb9eed1f0bc01f0ff0102f00702df
:1016f00032b110f8013b013a83ea010313b1f8d18a
:101700000020704701387047002d06bf354603386a
:10171000073815f0010f07d1013015f4807f02bfa3
:10172000013015f4c03f0130f0bc0138704700bff4
:020000040000fa
:1017300038b50546002945d051f8043c0c1f002b54
:10174000b8bfe41800f0a7fe1f4a1368104633b96b
:10175000636014602846bde8384000f09dbea34297
:101760000cd921686218934204bf1a685b686360f1
:1017700004bf521822600460ece713465a680ab1ad
:10178000a242fad919685818a0420bd12068014426
:10179000581882421960ddd1106852685a600144bd
:1017a0001960d7e702d90c232b60d3e720682118f2
:1017b0008a4204bf11685268626004bf0918216040
:0c17c0005c60c7e738bd00bf5402002089
:020000040000fa
:1017cc0008b51b4b98471b4b9847eff3108172b62b
:1017dc00194ad2f8883043f47003c2f88830bff34a
:1017ec004f8fbff36f8f01b962b6144c2023636027
:1017fc0000f070f8104a124b23f07f039360114bea
:10180c009847a36823f00103a3602346da6812f01b
:10181c00010ffbd1094b5a6842f004025a600122b5
:10182c009a60094b9847094b9847fff73dfafee73a
:10183c00952400009524000000ed00e000600041bc
:10184c0000000000991c0000952400009524000065
:020000040000fa
:10185c002de9f74380460e46144600f08dfd012815
:10186c001cd1731efe2b19d88df804600546002779
:10187c000df10409af4220d0a36817f80910013b01
:10188c00002ba36004daa26993421adb0a2918d050
:10189c0023685a1c226019700137ebe7324604f1b9
:1018ac00580301a9404600f0a3f9421c0546ded1bd
:1018bc00a38943f04003a3810646304603b0bde83c
:1018cc00f08322464046fff721fe431ce4d1064636
:0218dc00f3e730
:020000040000fa
:0218de00fee723
:020000040000fa
:1018e0001c4b1d4a934230b438bf002103d203f889
:1018f000011b9342fbd1194800250168c1b9426818
:1019000032b383680c30d3b10139034613f8014b6d
:1019100001f8014f1c1a9442f8d312f0030318bfc8
:10192000012303eb920200eb820001680029e6d05c
:10193000846842680b460c303cb9002addd01a445a
:1019400003f8015b9a42fbd1d7e7002adcd1e4e738
:1019500030bc70470000002004000020b0050000eb
:020000040000fa
:10196000f8b51c4b1e68b369074613b9304600f042
:101970006ff84836b4687368013b03d5336833b1f8
:101980003668f7e7b4f90c506db16434f4e704211c
:10199000384600f06ffb30600028f1d10c233b602b
:1019a00004462046f8bd4ff6ff73e3810123a3816f
:1019b00025662560a560656025616561a5610822d1
:1019c000294604f1580000f011fd6563a563a56484
:0819d000e564e6e7682400006d
:020000040000fa
:1019d8008b8973b59d0706460c4607d504f1470366
:1019e800236023610123636102b070bd01ab6a46c5
:1019f80000f096f9009905463046fff7e7fd38b93b
:101a0800b4f90c309a05efd443f00203a381e5e75b
:101a18000c4bb362a389206043f08003a381009b31
:101a28006361019b20614bb1b4f90e10304600f0a0
:101a38005dfc18b1a38943f00103a381a3891d4369
:081a4800a581d1e72d24000067
:020000040000fa
:101a5000836910b5044633bb8364c3640365124bca
:101a6000124a1b688262984204bf01238361fff718
:101a700077ff60602046fff773ffa0602046fff706
:101a80006fff0022e0600421606800f029f9012264
:101a90000921a06800f024f902221221e06800f078
:101aa0001ff90123a36110bd682400002d2400004c
:020000040000fa
:101ab00018b338b504460d4600f07cfaddb10020bd
:101ac0000f4a137e13f0040ffbd0538b13f0070f54
:101ad0000cd1536803f00703012b936a1abf2370dc
:101ae000013424f8023b01308542ead1854214bf1b
:101af0000020012038bd0020f8e70020704700bf1b
:041b0000000400439a
:020000040000fa
:101b040018b338b504460d4600f06afaddb100207a
:101b14000f4a137e13f0040ffbd0538b13f0070fff
:101b24000cd1536803f00703012b936a1abf237087
:101b3400013424f8023b01308542ead1854214bfc6
:101b44000020012038bd0020f8e70020704700bfc6
:041b5400002001412b
:020000040000fa
:101b580038b50b6905460c46dbb118b183690bb97a
:101b6800fff772ff0c4b9c4209d16c68b4f90c303a
:101b78007bb121462846bde83840fff7f3b9074b4b
:101b88009c4201d1ac68f1e7054b9c4208bfec6868
:101b9800ece7002038bd00bf74220000942200004a
:041ba80054220000c3
:020000040000fa
:101bac00114b012283f8442083f84520332183f81c
:101bbc003210c3f880200d48c3f8900083f8d02071
:101bcc0083f8d12083f8d82083f8d920062283f813
:101bdc00df20222283f8b82083f8bc104ff4802237
:101bec00c3f80021704700bf008000410100008055
:020000040000fa
:101bfc00f0b5054685b01e460f460f4c91b92268cc
:101c0c000e49126a002a08bf0a4601a9d2f8e04020
:101c1c003a46a047431c01bf002333608a232b6044
:101c2c0005b0f0bd2468054f246a002c08bf3c4663
:101c3c00d4f8e040ede700bf500200200400002083
:020000040000fa
:101c4c00f8b50e46096e14468a0407460bd4e518ff
:101c5c00ac420dd0324614f8011b384600f0ecf9ba
:101c6c000130f5d10ee023f00303e518ac4201d1ad
:101c7c000020f8bd324654f8041b384600f06efbc9
:0a1c8c000130f3d14ff0ff30f8bd36
:020000040000fa
:021c9600fee767
:020000040000fa
:101c980070b50d4e0d4ca41ba4100025a54209d10a
:101ca8000b4e0c4cfef7dafaa41ba4100025a54233
:101cb80005d170bd56f8253098470135eee756f83e
:101cc800253098470135f2e77002000070020000e5
:081cd80070020000740200001c
:020000040000fa
:101ce000002310b50446036043608360818103666e
:101cf000c28103614361836119460822583000f0b4
:101d000075fb054b6362054ba362054be362054b14
:101d10002462236310bd00bff1210000e11e00001a
:081d200019210000512400000c
:020000040000fa
:101d280070b50e46b1f90e10002990b014461d4644
:101d380007da00232b60b3891a0610d44ff48063a6
:101d48000ee001aa00f008fa0028f2db029a02f479
:101d58007042a2f500535a425a412a60eee74023e6
:081d68000020236010b070bde3
:020000040000fa
:101d700010b5054c227832b9044b13b10448aff3c7
:101d800000800123237010bd2c0200200000000001
:101d90000000000008b5034b1bb103490348aff333
:101da000008008bd0000000030020020000000009c
:020000040000fa
:101db00010b500f00bfb0d4c23680021586800f0b3
:101dc00025fb23680021986800f020fbfff7eefe5a
:101dd000fff754f900f0d4f8fff7c9fa00f09cf8c7
:101de00000f0b4f800f086f910bd00bf50020020ea
:020000040000fa
:101df000b0b1b9b10c4a03e030f8023b936269b16b
:101e00000139137e13f0010ffbd0536803f0070371
:101e1000012bf1d0037893620130f0e70120704785
:0c1e2000002070470120704700040043c0
:020000040000fa
:101e2c00b0b1b9b10c4a03e030f8023b936269b12e
:101e3c000139137e13f0010ffbd0536803f0070335
:101e4c00012bf1d0037893620130f0e70120704749
:0c1e5c0000207047012070470020014169
:020000040000fa
:101e68002de9f8438046894600f14804002614b954
:101e78003046bde8f883a5686768013f01d5246846
:101e8800f5e7ab89012b07d9b5f90e30013303d03b
:0c1e980029464046c84706436435eee783
:020000040000fa
:101ea40070b50d46a9b114460ab1022801d92046dd
:101eb40070bd094b2bb108461146aff30080204694
:101ec40070bd164615f8010b00f030fa013ef9d149
:0c1ed400ede70c46204670bd0000000049
:020000040000fa
:101ee0002de9f0411f468b89db0505460c46164659
:101ef00005d502230022b1f90e1000f043f9a389a1
:101f0000b4f90e1023f48053a38132463b46284691
:081f1000bde8f04100f012b938
:020000040000fa
:101f18000a4b0b4a1a604ff658729a814ff44032b6
:101f28005a601a46d369002bfcd1044a136843f05f
:101f380002031360d369002bfcd1704700300040c6
:041f48000401104040
:020000040000fa
:101f4c000a4b0b4a1a604ff658729a814ff4403282
:101f5c005a601a46d369002bfcd1044a136843f02b
:101f6c0002031360d369002bfcd1704700040043bb
:041f7c00040110400c
:020000040000fa
:101f80000a4b0b4a1a604ff658729a814ff440324e
:101f90005a601a46d369002bfcd1044a136843f0f7
:101fa00002031360d369002bfcd17047002001416c
:041fb00004011040d8
:020000040000fa
:101fb4000a4b5b8b13f0070f0ed0084b80221a7666
:101fc40007225a831b7e13f0040f05d0034b9a6a31
:101fd4001a7e12f0040ffad1704700bf00040043c8
:020000040000fa
:101fe4000a4b5b8b13f0070f0ed0084b80221a7636
:101ff40007225a831b7e13f0040f05d0034b9a6a01
:102004001a7e12f0040ffad1704700bf002001417c
:020000040000fa
:102014000fb40a4b13b51c6824b1a36913b9204645
:10202400fff714fd05ab049aa16801932046fef75f
:1020340045fd02b0bde8104004b0704750020020d6
:020000040000fa
:102044009368013b002b10b4936009da9469a342ae
:1020540002dbcbb20a2b03d15df8044bfff75aba6b
:102064001368581c10601970c8b25df8044b7047af
:020000040000fa
:1020740070b54a1e642555430e4605f17001fff7fd
:10208400a7fa044640b1002180e842000c30a06069
:0c20940005f1640200f0a8f9204670bdc0
:020000040000fa
:1020a000074a136843b10749184488429abf106031
:1020b00018464ff0ff307047034b1360f3e700bf43
:0c20c0005c020020680400206802002080
:020000040000fa
:1020cc0070b50d4661b1164642b138b914460120bf
:1020dc0000f0aaf8013c05f8010bf8d1304670bdb0
:0820ec000e46304670bd00bf36
:020000040000fa
:1020f400074ad36823f4e0631b041b0c43f0bf635b
:1021040043f40033d360bff35f8f62b6704700bf00
:0421140000ed00e0fa
:020000040000fa
:1021180010b50c46b1f90e1000f030f8431ca38935
:1021280015bf606523f4805343f48053a38118bf1f
:04213800a38110bdb2
:020000040000fa
:10213c0038b5074c054608461146002222601a465f
:10214c0000f098f9431c02d1236803b12b6038bd11
:04215c00000000205f
:020000040000fa
:1021600038b5074c0023054608461146236000f0a9
:102170007ff9431c02d1236803b12b6038bd00bf37
:04218000000000203b
:020000040000fa
:1021840038b5074c054608461146002222601a4617
:1021940000f070f9431c02d1236803b12b6038bdf1
:0421a4000000002017
:020000040000fa
:1021a80082b001b901a942b14bb113780b60127822
:1021b800101c18bf012002b070471046fbe76ff0f3
:0421c8000100f8e733
:020000040000fa
:1021cc0038b5074c054608461146002222601a46cf
:1021dc0000f04ef9431c02d1236803b12b6038bdcb
:0421ec0000000020cf
:020000040000fa
:1021f00010b50c46b1f90e10fff7e8ff0028abbf91
:10220000636da3891b1823f48053acbf6365a3815e
:0222100010bdff
:020000040000fa
:10221200303132333435363738394142434445461a
:1022220000303132333435363738396162636465b0
:02223200660044
:020000040000fa
:1022340030b583b002ac002344f8043d012529469f
:102244002046fff75dfc0028f9d0019803b030bdab
:020000040000fa
:10225400000000000000000000000000000000007a
:10226400000000000000000000000000000000006a
:020000040000fa
:10227400000000000000000000000000000000005a
:10228400000000000000000000000000000000004a
:020000040000fa
:10229400000000000000000000000000000000003a
:1022a400000000000000000000000000000000002a
:020000040000fa
:1022b40038b5064c0023054608462360fff7eefeba
:1022c400431c02d1236803b12b6038bd00000020f9
:020000040000fa
:1022d40038b5064c002305460846236000f0c4f8d0
:1022e400431c02d1236803b12b6038bd00000020d9
:020000040000fa
:1022f40038b5064c002305460846236000f0b8f8bc
:10230400431c02d1236803b12b6038bd00000020b8
:020000040000fa
:1023140010b5054b588b10f0070401d1204610bdb1
:0c232400fff746fefae700bf000400438c
:020000040000fa
:1023300030b583b002ac04f8010d012529462046d2
:0c234000fff774fd0028f9d003b030bd99
:020000040000fa
:10234c0042f2107204e001339842fcda013a04d0f4
:0c235c000028a8bf0023f6daf8e770475d
:020000040000fa
:10236800b2f90c3013f4005f06d143f400539381a3
:0c237800136e43f400531366fff76cbab9
:020000040000fa
:10238400044b054a1b681b6a002b08bf134693f8cd
:0c239400280170475002002004000020c7
:020000040000fa
:1023a00049b1ff2a85bf8a2303600a704ff0ff30ce
:0a23b00098bf0120704708467047ef
:020000040000fa
:1023ba00232d302b2000686c4c0065666745464724
:0123ca000012
:020000040000fa
:1023cc0040f20452014b1a80704700bf004000419c
:020000040000fa
:1023dc00024b187ec0f38000704700bf000400431e
:020000040000fa
:1023ec0002440346934200d1704703f8011bf9e7fe
:020000040000fa
:1023fc00024b01461868fff723b800bf50020020bb
:020000040000fa
:10240c0000294ff480630cbf02220022fef7fabcb5
:020000040000fa
:10241c00024b01461868fff7d7b800bf50020020e6
:020000040000fa
:0c242c000149fff71bbd00bf591b000059
:020000040000fa
:0c2438004ff400534b600020704700bfc1
:020000040000fa
:0b2444004300504f53495800002e0089
:020000040000fa
:08245000b1f90e10fff73ebfc9
:020000040000fa
:082458004ff0ff30704700bf98
:020000040000fa
:062460004ff0ff30704751
:020000040000fa
:02246600fee78f
:020000040000fa
:0424680070010020df
:020000040000fa
:04246c00fff7f4bfc3
:020000040000fa
:04247000fff7e2bfd1
:020000040000fa
:0424740000f006b8b6
:020000040000fa
:0424780000f006b8b2
:020000040000fa
:04247c00fff726be82
:020000040000fa
:04248000fff710bd95
:020000040000fa
:04248400012070477c
:020000040000fa
:042488000020704779
:020000040000fa
:02248c00fee769
:020000040000fa
:02248e00fee767
:020000040000fa
:02249000fee765
:020000040000fa
:02249200fee763
:020000040000fa
:0224940070478f
:020000040000fa
:0224960070478d
:020000040000fa
:0224980070478b
:020000040000fa
:0200000400807a
:044000003912003c35
:020000040000fa
:0200000400807a
:044004008000a82a66
:020000040000fa
:0200000400807a
:04400800ffffffffb8
:00000001FF
