:020000040000fa
:10000000f8ff032011040000470800004908000021
:100010004d0800004f0800005108000000000000db
:100020000000000000000000000000004508000083
:100030004b080000000000004508000045080000d3
:10004000450800004508000045080000450800007c
:10005000450800004508000045080000450800006c
:10006000450800004508000045080000450800005c
:10007000450800004508000045080000450800004c
:10008000450800004508000045080000450800003c
:10009000450800004508000045080000450800002c
:1000a000450800004508000045080000450800001c
:1000b000450800004508000045080000450800000c
:1000c00045080000450800004508000045080000fc
:1000d00045080000450800004508000045080000ec
:1000e0004508000045080000000000000000000076
:1000f0000000000045080000450800004508000019
:1001000045080000450800004508000045080000bb
:1001100045080000450800004508000045080000ab
:10012000450800004508000045080000450800009b
:10013000450800004508000045080000450800008b
:10014000450800004508000045080000450800007b
:10015000450800004508000045080000450800006b
:10016000450800004508000045080000450800005b
:10017000450800004508000045080000450800004b
:10018000450800004508000045080000450800003b
:10019000450800004508000045080000450800002b
:1001a000450800004508000045080000450800001b
:1001b000450800004508000045080000450800000b
:1001c00045080000450800004508000045080000fb
:1001d00045080000450800004508000045080000eb
:1001e00045080000450800004508000045080000db
:1001f00045080000450800004508000045080000cb
:1002000045080000450800004508000045080000ba
:1002100045080000450800004508000045080000aa
:10022000450800004508000045080000450800009a
:10023000450800004508000045080000450800008a
:10024000450800004508000045080000450800007a
:10025000450800004508000045080000450800006a
:04026000450800004d
:020000040000fa
:10026400f8b500bff8bc08bc9e46704751060000b4
:10027400f8b500bff8bc08bc9e4670472d060000c8
:020000040000fa
:100284000022324b1a74324a03f500639a621a460a
:10029400536813f0100ffbd142222e4bc3f8842075
:1002a4001a46d2f8843013f0400ffad02a4b0022b9
:1002b4009a6377225a631a46d36b13f0040ffbd167
:1002c4000222254b83f830201a46d36b13f0020f19
:1002d400fbd1214a136c03f00303032bfad101224f
:1002e4001e4b5a711a46d37813f0010ffbd01c4ae7
:1002f400184b1a621a46536813f0040ffbd1194abb
:10030400144b5a621a46536813f0080ffbd141226a
:10031400104bc3f89c201a46d2f89c3013f0400fbf
:10032400fad041220b4bc3f80c211a46d2f80c31f7
:1003340013f0400ffad0094b6ff07f421a6141f27b
:10034400ff725a6102221a62704700bf0014004013
:1003540006013000001c004000100040000800406e
:0803640007010100070102007e
:020000040000fa
:10036c0010b582b0214b93e8030000908df8041077
:10037c000521684600f092f9052000f029fa00f0fa
:10038c0047fa08b902b010bd00f014fa48bb184c7b
:10039c000121204600f0f6f823780d2b1ad842f2f2
:1003ac000142da4012f0010f14d0124c218812488d
:1003bc0000f074f94ff4487000f00afa4ff4fa7038
:1003cc0000f006fa002323804ff480220b4bc3f875
:1003dc001c21d7e707490a88501c088006498b5412
:1003ec00d0e72721064800f059f9cbe73c0800007c
:1003fc005b00002032000020000000200080004143
:04040c003400002098
:020000040000fa
:1004100008b51b4b98471b4b9847eff3108172b6fa
:10042000194ad2f8883043f47003c2f88830bff319
:100430004f8fbff36f8f01b962b6144c20236360f6
:1004400000f02ef8104a124b23f07f039360114bfb
:100450009847a36823f00103a3602346da6812f0eb
:10046000010ffbd1094b5a6842f004025a60012285
:100470009a60094b9847094b984700f0d7f9fee777
:10048000530800005308000000ed00e00060004148
:1004900000000000e50500005308000053080000bc
:020000040000fa
:1004a0001c4b1d4a934230b438bf002103d203f8dd
:1004b000011b9342fbd1194800250168c1b942686c
:1004c00032b383680c30d3b10139034613f8014bc2
:1004d00001f8014f1c1a9442f8d312f0030318bf1d
:1004e000012303eb920200eb820001680029e6d0b1
:1004f000846842680b460c303cb9002addd01a44af
:1005000003f8015b9a42fbd1d7e7002adcd1e4e78c
:1005100030bc7047000000200000002020050000d3
:020000040000fa
:100520005c0000201c000000000000005b000020b8
:100530000100000000000000000000203200000068
:100540000000000032000020020000000000000057
:100550003400002027000000010000000d0a2a2ab4
:100560002a2a205553415254206572726f722068b6
:100570006173206f63637572726564202a2a2a2a68
:100580000d0a0000000000000000000022222222cc
:020000040000fa
:1005900018b338b504460d4600f0d8f8ddb1002098
:1005a0000f4a137e13f0040ffbd0538b13f0070f89
:1005b0000cd1536803f00703012b936a1abf237011
:1005c000013424f8023b01308542ead1854214bf50
:1005d0000020012038bd0020f8e70020704700bf50
:0405e00000040043d0
:020000040000fa
:1005e40070b50d4e0d4ca41ba4100025a54209d1d5
:1005f4000b4e0c4cfff734fea41ba4100025a5429f
:1006040005d170bd56f8253098470135eee756f808
:10061400253098470135f2e77002000070020000af
:080624007002000074020000e6
:020000040000fa
:10062c0010b5054c227832b9044b13b10448aff322
:10063c0000800123237010bd5c000020000000002e
:10064c000000000008b5034b1bb103490348aff38e
:10065c00008008bd000000006000002000000000c9
:020000040000fa
:10066c000d4b012283f8442083f84520332183f875
:10067c0032104ff00041c3f8901083f8d02083f86b
:10068c00d120062283f8df20222283f8b8204ff4f1
:0c069c008022c3f800217047008000415c
:020000040000fa
:1006a800b0b1b9b10c4a03e030f8023b936269b1ca
:1006b8000139137e13f0010ffbd0536803f00703d1
:1006c800012bf1d0037893620130f0e701207047e5
:0c06d80000207047012070470004004320
:020000040000fa
:1006e4000a4b0b4a1a604ff658729a814ff4403203
:1006f4005a601a46d369002bfcd1044a136843f0ac
:1007040002031360d369002bfcd170470030004012
:04071400040110408c
:020000040000fa
:100718000a4b0b4a1a604ff658729a814ff44032ce
:100728005a601a46d369002bfcd1044a136843f077
:1007380002031360d369002bfcd170470004004307
:040748000401104058
:020000040000fa
:10074c000a4b5b8b13f0070f0ed0084b80221a76e6
:10075c0007225a831b7e13f0040f05d0034b9a6ab1
:10076c001a7e12f0040ffad1704700bf0004004348
:020000040000fa
:10077c00074ad36823f4e0631b041b0c43f0bf63ec
:10078c0043f40033d360bff35f8f62b6704700bf92
:04079c0000ed00e08c
:020000040000fa
:1007a00008b500f033f8fff761fffff76bfd00f0cd
:1007b00044f8fff797fffff7affffff7dfff08bd34
:020000040000fa
:1007c00010b5054b588b10f0070401d1204610bd21
:0c07d000fff7bcfffae700bf0004004385
:020000040000fa
:1007dc0042f2107204e001339842fcda013a04d080
:0c07ec000028a8bf0023f6daf8e77047e9
:020000040000fa
:1007f80008b50022024b1a80fff7b4fd08bd00bf00
:04080800320000209a
:020000040000fa
:10080c0040f20452014b1a80704700bf0040004177
:020000040000fa
:10081c00024b187ec0f38000704700bf00040043f9
:020000040000fa
:0e082c0008b50020fff7b6fffff7e0fffce77e
:020000040000fa
:02083a00704705
:020000040000fa
:08083c0041540d0a000000bf49
:020000040000fa
:02084400fee7cd
:020000040000fa
:02084600fee7cb
:020000040000fa
:02084800fee7c9
:020000040000fa
:02084a00fee7c7
:020000040000fa
:02084c00fee7c5
:020000040000fa
:02084e00fee7c3
:020000040000fa
:02085000fee7c1
:020000040000fa
:020852007047ed
:020000040000fa
:0200000400807a
:044000003912003c35
:020000040000fa
:0200000400807a
:044004008000a82a66
:020000040000fa
:0200000400807a
:04400800ffffffffb8
:00000001FF
