:10000000F8040120A9020000A5020000A5020000DA
:10001000A5020000A5020000A502000000000000EB
:10002000000000000000000000000000A502000029
:10003000A502000000000000A5020000A5020000CB
:10004000A5020000A5020000A5020000A502000014
:10005000A5020000A5020000A5020000A502000004
:10006000A5020000A5020000A5020000A5020000F4
:10007000A5020000A5020000A5020000A5020000E4
:10008000A5020000A5020000A5020000A5020000D4
:10009000A5020000A5020000A5020000A5020000C4
:1000A000A5020000A5020000A5020000A5020000B4
:1000B000A5020000A5020000A5020000A5020000A4
:1000C000A5020000A5020000A5020000A502000094
:1000D000A5020000A5020000A5020000A502000084
:1000E000A5020000A50200000000000000000000C2
:1000F00000000000E1050000A5020000A5020000CC
:10010000A5020000A5020000A5020000A502000053
:10011000A5020000A5020000090800007508000003
:100120007D08000085080000A5020000A50200006F
:10013000A5020000A5020000A5020000A502000023
:10014000A5020000A5020000A5020000A502000013
:10015000A5020000A5020000A5020000A502000003
:10016000A5020000A5020000A5020000A5020000F3
:10017000A5020000A5020000A5020000A5020000E3
:10018000A5020000A5020000A5020000A5020000D3
:10019000A5020000A5020000A5020000A5020000C3
:1001A000A5020000A5020000A5020000A5020000B3
:1001B000A5020000A5020000A5020000A5020000A3
:1001C000A5020000A5020000A5020000A502000093
:1001D000A5020000A5020000A5020000A502000083
:1001E000A5020000A5020000A5020000A502000073
:1001F000A5020000A5020000A5020000A502000063
:10020000A5020000A5020000A5020000A502000052
:10021000A5020000A5020000A5020000A502000042
:10022000A5020000A5020000A5020000A502000032
:10023000A5020000A5020000A5020000A502000022
:10024000A5020000A5020000A5020000A502000012
:10025000A5020000A5020000A5020000A502000002
:10026000A502000010B5054C237833B9044B13B137
:100270000448AFF300800123237010BD3C0400202C
:1002800000000000D00B000008B5034B1BB1034970
:100290000348AFF3008008BD0000000040040020C8
:1002A000D00B0000FEE7000008B50F4A0F4B9A4242
:1002B00002D00F498B420ED30E4B0F4A00219342BE
:1002C0000ED30E4B0E4A23F07F0393600D4B9847DD
:1002D0000D4B9847FEE752F8040B43F8040BE9E78F
:1002E00043F8041BEBE700BFD00B00000000002028
:1002F0003C0400203C040020F40400200000000026
:1003000000ED00E0450A0000C1080000EFF3108393
:10031000036072B6BFF35F8F7047BFF35F8F0368F0
:1003200083F3108870470368184743681847002311
:100330008362C3690BB10838184770470023836292
:10034000436A0BB1083818477047000070B504467F
:10035000054BA0F108052C309847236A1BB12846AD
:10036000BDE87040184770BD1705000010B5B0F823
:100370004C301446B0F844209A420CD10023A0F827
:100380004430012303638164A0F84C40034B0830E0
:100390009847204610BD6FF01B00FBE7C707000021
:1003A000838FB0F844209A4210B504460AD0026CFC
:1003B000591C8187D15C044B9847044B2046BDE80B
:1003C00010401847024BFAE7C1070000C7070000BA
:1003D000CF0700002DE9F74305460F4BDFF84490A7
:1003E00001A834358846164698470C4B284698474E
:1003F0000B4B074601A898470024A74201D0B442FE
:1004000003D1204603B0BDE8F08308EB0401284681
:10041000C8470134F1E700BF0D0300003D050000AF
:100420001B030000F504000038B504460D463430C7
:1004300011461A460C4B984790B9294604F108001A
:100440000A4B984758B90A4B63600A4B23600A4B22
:10045000A3600A4BE3600A4B23610A4B636138BD1A
:100460006FF00C00FBE700BFDD0400004107000057
:10047000D50300006D030000A10300004D03000040
:100480002F0300003D03000008B50830014B9847DA
:10049000002008BDAD070000012910B510D04CB2F6
:1004A00024B1022912D06FF00C0010BD826200321C
:1004B00018BF012201210830074B98470020F4E7BC
:1004C0004262003218BF01220221F4E7C262003208
:1004D00018BF01220321EEE7D7070000531E1A4080
:1004E00001BFC0E90132C2600160104618BF6FF061
:1004F0000C007047D0E902329A4209D0426813409A
:100500000268D35C0B7083680133836000207047FE
:100510006FF009007047C368426813400268D15405
:10052000D0E90121C368591A914288BF9A1A03F190
:10053000010388BF8260C36000207047D0E90202D7
:10054000101A7047094A138810B59BB21380084BE4
:100550009847084B9847084B9847084B984740F6F0
:10056000FF70074BBDE81040184700BF0040004136
:10057000B1050000C5050000A5050000DD0500006F
:1005800085050000C30707D5044B054A1A6243F6E8
:10059000FD7259681142FCD1704700BF001C004039
:1005A00001010100014B01225A717047000800400F
:1005B000034BDA6902F47C52DA6100221A74704744
:1005C00000140040034B044A9A611A699207FCD553
:1005D000704700BF0010004006260003704700006F
:1005E0000B4A937882B0DBB20193019B990705D542
:1005F000084B1B6813B1506802B01847019BDB071A
:1006000004D5044B5B680BB1014AF4E702B07047B4
:100610000000024170040020C3690B42FCD1704706
:10062000036823F0020303600321014B184700BF56
:100630001906000070B50C4D06460FCD88B06C460B
:100640000FC495E80F0084E80F006B46002053F8B4
:10065000042BB24202D1C0B208B070BD01300828EC
:10066000F5D10020F8E700BF700B000008B5034B80
:10067000984780002E3000F0FE0008BD35060000CF
:100680004209012300F01F0003FA00F0014B43F878
:100690002200704700E100E04309012200F01F0042
:1006A00002FA00F02033044A42F82300BFF34F8FD0
:1006B000BFF36F8F704700BF00E100E043090122E4
:1006C00000F01F0002FA00F06033024A42F82300F3
:1006D000704700BF00E100E0C36913F0010F10B5DF
:1006E0000246134C0DD10321A04703689B0703D595
:1006F000104B98470221A0470523136003211046A1
:10070000A04710460121A0470B4B13600321A047CF
:100710004FF4403353601F21A047084B93600020E3
:100720004FF6B9439381907382F8300010BD00BF3B
:1007300019060000210600000400104002007000AD
:100740002DE9F8430646124B08460C4698470546E5
:10075000D8B9104BB4619C4208BF0F4BDFF84880FA
:1007600008BF1E6020460D4B0D4F0E4E98470024CB
:10077000814609EB0401C9B20846C0470846B8479C
:1007800001340846B047042CF3D12846BDE8F8836D
:10079000D906000000200141580400206D06000029
:1007A000BD0600008106000099060000806903680C
:1007B00043F0020303600321004B184719060000B1
:1007C000836999627047836901229A7570478369CA
:1007D00002229A75704711F0FD0F09D18369022139
:1007E000012012B918751975704798759975704779
:1007F000012904D183690421002AF7D1F3E70329F1
:10080000F5D183698021F7E7194B186810B5846921
:10081000237EDA0708D5A37DDB0705D501232375E1
:100820000368BDE810401847237E990706D5A37DCD
:100830009A0703D5022323758368F2E7237E5B07BB
:100840000CD5638B03F0370313B1FF23638310BD13
:10085000A16A4368C9B2BDE810401847237EDB098E
:10086000F5D080232376C3689847638B9BB2EDE76E
:1008700058040020004B184709080000004B184797
:1008800009080000004B184709080000024B4FF40C
:100890008022C3F81C21704700800041014B0122D7
:1008A0001A6070475C0400200C2202490248034B86
:1008B000184700BF0000002080040020270300002C
:1008C00083B5184B184C194D194E9847194A1848BA
:1008D0000121A047184A16480021A047174A14488A
:1008E0000221A047164B1248164C98470C22164975
:1008F0000F48A0472F462B68002BFCD0DFF84C8018
:1009000001220DF107013046C047012802D0002323
:100910003B60F0E701220DF107013046A0470128B6
:10092000F8D1EDE73D0A0000990400005C040020C6
:10093000800400208D0800009D080000A908000028
:100940008904000027030000000000202B030000A2
:10095000064B4022C3F8DC204322C3F88C20044A13
:10096000936943F400739361704700BF001C00401B
:1009700000080040104B93F8D92002F0FE0242F02C
:10098000010283F8D92093F8BC2002F00F0242F054
:10099000300283F8BC2093F8D82002F0FE0242F027
:1009A000010283F8D82093F8BC2002F0F00242F054
:1009B000030283F8BC2070470080004113B5074B49
:1009C000074C984700230093064A0749074810231D
:1009D000A047074B02B0BDE810401847510900007E
:1009E0002904000060040020002001418004002050
:1009F0007509000010B50D4B98470D4B4FF4802240
:100A0000C3F81821C3F808214FF08042C3F8282109
:100A1000084AC3F8282193F8522102F0FE0283F815
:100A20005221BDE81040044B184700BF45050000A7
:100A300000800041040000C0BD090000004B1847C1
:100A4000F509000070B50D4E0D4D761BB61006D0A1
:100A50000024013455F8043B9847A642F9D1094EC9
:100A6000094D761B00F0A2F8B61006D00024013420
:100A700055F8043B9847A642F9D170BDB80B000069
:100A8000B80B0000C00B0000B80B0000024B13B104
:100A9000024800F005B8704700000000AD0A0000F1
:100AA000002301461A46184600F01EB838B50A4C15
:100AB0000A4D641BA4100AD004F18043013B05EBEE
:100AC0008305013C55F804399847002CF9D1BDE85D
:100AD000384000F075B800BFD00B0000CC0B000010
:100AE000704700BF704700BF2DE9F0411E4C05461E
:100AF000206890461F460E46FFF7F2FF1B4B1A6810
:100B0000D2F8483133B35A6820681F2A27DC4DB920
:100B1000911C01325A6043F82160FFF7E3FF002087
:100B2000BDE8F08103EB82010124C1F8888004FA5A
:100B300002FED3F88841022D44EA0E0CC3F888C1A6
:100B4000C1F80871E4D1D3F88C114EEA0104C3F85E
:100B50008C41DDE702F5A673C2F84831D3E7FFF711
:100B6000C1FF4FF0FF30DBE738040020A80B000086
:100B700000300040003400400020014100400141AD
:100B8000000000430004004300080043000C004341
:100B90000000000000000000000000000000000055
:100BA000000000000000000010000020F8B500BFA9
:100BB000F8BC08BC9E4670478D0A00008902000000
:100BC000F8B500BFF8BC08BC9E467047650200003F
:100BD000737564686972206B686169726E61720016
:100BE00000000000FC02002064030020CC03002071
:100BF00000000000000000000000000000000000F5
:100C000000000000000000000000000000000000E4
:100C100000000000000000000000000000000000D4
:100C200000000000000000000000000000000000C4
:100C300000000000000000000000000000000000B4
:100C400000000000000000000000000000000000A4
:100C50000000000000000000000000000000000094
:100C60000000000000000000000000000000000084
:100C70000000000000000000000000000000000074
:100C80000000000000000000010000000000000063
:100C90000E33CDAB34126DE6ECDE05000B00000028
:100CA0000000000000000000000000000000000044
:100CB0000000000000000000000000000000000034
:100CC0000000000000000000000000000000000024
:100CD0000000000000000000000000000000000014
:0C1000000000000000000000D0040020F0
:00000001FF
