:020000040000fa
:10000000f0ff0320ad040000650800006708000051
:100010006b0800006d0800006f0800000000000081
:100020000000000000000000000000006308000065
:100030006908000000000000630800006308000079
:100040006308000063080000630800006308000004
:1000500063080000630800006308000063080000f4
:1000600063080000630800006308000063080000e4
:1000700063080000630800006308000063080000d4
:1000800063080000630800006308000063080000c4
:1000900063080000630800006308000063080000b4
:1000a00063080000630800006308000063080000a4
:1000b0006308000063080000630800006308000094
:1000c0006308000063080000630800006308000084
:1000d0006308000063080000630800006308000074
:1000e000630800006308000000000000000000003a
:1000f00000000000630800006308000063080000bf
:100100006308000063080000630800006308000043
:100110006308000063080000630800006308000033
:100120006308000063080000630800006308000023
:100130006308000063080000630800006308000013
:100140006308000063080000630800006308000003
:1001500063080000630800006308000063080000f3
:1001600063080000630800006308000063080000e3
:1001700063080000630800006308000063080000d3
:1001800063080000630800006308000063080000c3
:1001900063080000630800006308000063080000b3
:1001a00063080000630800006308000063080000a3
:1001b0006308000063080000630800006308000093
:1001c0006308000063080000630800006308000083
:1001d0006308000063080000630800006308000073
:1001e0006308000063080000630800006308000063
:1001f0006308000063080000630800006308000053
:100200006308000063080000630800006308000042
:100210006308000063080000630800006308000032
:100220006308000063080000630800006308000022
:100230006308000063080000630800006308000012
:100240006308000063080000630800006308000002
:1002500063080000630800006308000063080000f2
:04026000630800002f
:020000040000fa
:10026400f8b500bff8bc08bc9e46704709070000fb
:10027400f8b500bff8bc08bc9e467047e506000010
:020000040000fa
:10028400f80100201c00000000000000f70100201d
:100294000100000000000000000000200001000038
:1002a40000000000d0010020270000000100000031
:1002b4000d0a2a2a2a2a2055534152542065727263
:1002c4006f7220686173206f636375727265642056
:1002d4002a2a2a2a0d0a000000010020ce0000006c
:1002e400010000002a2a2a2a205553415254204c46
:1002f400696e65204563686f2044656d6f3a2042de
:100304006c6f636b696e67205472616e736665729d
:1003140020776974686f75742074686520696e74d9
:10032400657272757074202a2a2a2a0d0a2a2a2aca
:100334002a20547970652061206c696e65206f668f
:10034400206368617261637465727320616e6420f6
:1003540070726573732074686520456e74657220cd
:100364006b65792e202a2a2a2a200d0a2a2a2a2a6b
:1003740020456e7465726564206c696e65207769ca
:100384006c6c206265206563686f656420626163dc
:100394006b2c20616e6420746865204c4544206990
:1003a4007320746f67676c65642e202a2a2a2a0dcd
:1003b4000a000000140200200300000001000000f5
:1003c4000d0a00000000000000000000222222228a
:020000040000fa
:1003d40000222d4b1a742d4a03f500639a621a46c3
:1003e400536813f0100ffbd14222294bc3f8842029
:1003f4001a46d2f8843013f0400ffad0254b00226d
:100404009a6377225a631a46d36b13f0040ffbd115
:100414000222204b83f830201a46d36b13f0020fcc
:10042400fbd11c4a136c03f00303032bfad1012202
:10043400194b5a711a46d37813f0010ffbd0174a9f
:10044400134b1a621a46536813f0040ffbd1144a73
:100454000f4b5a621a46536813f0080ffbd141221e
:100464000b4bc3f8dc201a46d2f8dc3013f0400ff3
:10047400fad0094b6ff07f421a6140f2ff725a6161
:10048400084a9a61704700bf00140040060130001a
:10049400001c00400010004000080040070101005b
:0804a40007010200568201006d
:020000040000fa
:1004ac0008b51b4b98471b4b9847eff3108172b65e
:1004bc00194ad2f8883043f47003c2f88830bff37d
:1004cc004f8fbff36f8f01b962b6144c202363605a
:1004dc0000f074f8104a124b23f07f039360114b19
:1004ec009847a36823f00103a3602346da6812f04f
:1004fc00010ffbd1094b5a6842f004025a600122e9
:10050c009a60094b9847094b984700f011f8fee7a1
:10051c00710800007108000000ed00e0006000416f
:10052c00000000009d06000071080000710800002a
:020000040000fa
:10053c00f8b5002000f070f9ce211a4800f0ecf864
:10054c000024194e194d1a4f16e00321384600f0bd
:10055c00e3f82146174800f0dff80321384600f095
:10056c00dbf84ff48022144bc3f81c21002403e069
:10057c002721304600f0d0f800f064f90028fbd0b9
:10058c0000f03cf90028f3d10121284600f056f880
:10059c002b780a2bd9d00d2bd7d0621c05490b55c3
:1005ac0094b2e9e700010020d0010020f7010020ff
:0c05bc001402002000000020008000411c
:020000040000fa
:1005c8001c4b1d4a934230b438bf002103d203f8b4
:1005d800011b9342fbd1194800250168c1b9426843
:1005e80032b383680c30d3b10139034613f8014b99
:1005f80001f8014f1c1a9442f8d312f0030318bff4
:10060800012303eb920200eb820001680029e6d087
:10061800846842680b460c303cb9002addd01a4485
:1006280003f8015b9a42fbd1d7e7002adcd1e4e763
:1006380030bc704700000020000000208402000049
:020000040000fa
:1006480018b338b504460d4600f0a0f8ddb1002017
:100658000f4a137e13f0040ffbd0538b13f0070fd0
:100668000cd1536803f00703012b936a1abf237058
:10067800013424f8023b01308542ead1854214bf97
:100688000020012038bd0020f8e70020704700bf97
:0406980000200141fc
:020000040000fa
:10069c0070b50d4e0d4ca41ba4100025a54209d11c
:1006ac000b4e0c4cfff7d8fda41ba4100025a54243
:1006bc0005d170bd56f8253098470135eee756f850
:1006cc00253098470135f2e77002000070020000f7
:0806dc0070020000740200002e
:020000040000fa
:1006e40010b5054c227832b9044b13b10448aff36a
:1006f40000800123237010bdf801002000000000d9
:100704000000000008b5034b1bb103490348aff3d5
:10071400008008bd00000000fc0100200000000073
:020000040000fa
:10072400b0b1b9b10c4a03e030f8023b936269b14d
:100734000139137e13f0010ffbd0536803f0070354
:10074400012bf1d0037893620130f0e70120704768
:0c07540000207047012070470020014188
:020000040000fa
:100760000a4b0b4a1a604ff622029a814ff440322c
:100770005a601a46d369002bfcd1044a136843f02f
:1007800002031360d369002bfcd1704700200141a4
:040790000401104010
:020000040000fa
:100794000a4b5b8b13f0070f0ed0084b80221a769e
:1007a40007225a831b7e13f0040f05d0034b9a6a69
:1007b4001a7e12f0040ffad1704700bf00200141e5
:020000040000fa
:1007c400074ad36823f4e0631b041b0c43f0bf63a4
:1007d40043f40033d360bff35f8f62b6704700bf4a
:0407e40000ed00e044
:020000040000fa
:1007e800064b012283f8d82083f8d920332283f8d6
:1007f800bc204ff48022c3f80021704700800041dc
:020000040000fa
:1008080010b5054b588b10f0070401d1204610bdd8
:0c081800fff7bcfffae700bf0020014121
:020000040000fa
:1008240008b500f00bf8fff7ddfffff7d1fdfff788
:0c08340095ff00f013f8fff7c3ff08bdac
:020000040000fa
:1008400040f20452014b1a80704700bf0040004143
:020000040000fa
:10085000024b187ec0f38000704700bf00200141aa
:020000040000fa
:020860007047df
:020000040000fa
:02086200fee7af
:020000040000fa
:02086400fee7ad
:020000040000fa
:02086600fee7ab
:020000040000fa
:02086800fee7a9
:020000040000fa
:02086a00fee7a7
:020000040000fa
:02086c00fee7a5
:020000040000fa
:02086e00fee7a3
:020000040000fa
:020870007047cf
:020000040000fa
:0200000400807a
:044000003912003c35
:020000040000fa
:0200000400807a
:044004008000a82a66
:020000040000fa
:0200000400807a
:04400800ffffffffb8
:00000001FF
