:020000040000fa
:10000000f8ff03208d1700007f2300002f2700003a
:10001000fb270000fd270000ff2700000000000074
:10002000000000000000000000000000812300002c
:10003000f927000000000000a11a0000292200009a
:10004000c31d0000c31d0000c31d0000c31d000030
:10005000c31d0000c31d0000c31d0000c31d000020
:10006000c31d0000c31d0000c31d0000c31d000010
:10007000c31d0000c31d0000c31d0000c31d000000
:10008000c31d0000c31d0000c31d0000c31d0000f0
:10009000c31d0000c31d0000c31d0000c31d0000e0
:1000a000c31d0000c31d0000c31d0000c31d0000d0
:1000b000c31d0000c31d0000c31d0000c31d0000c0
:1000c000c31d0000c31d0000c31d0000c31d0000b0
:1000d000c31d0000c31d0000c31d0000c31d0000a0
:1000e000c31d0000c31d0000000000000000000050
:1000f00000000000c31d0000c31d0000c31d000060
:10010000c31d0000c31d0000c31d0000c31d00006f
:10011000c31d0000c31d0000c31d0000c31d00005f
:10012000c31d0000c31d0000c31d0000c31d00004f
:10013000c31d0000c31d0000c31d0000c31d00003f
:10014000c31d0000c31d0000c31d0000c31d00002f
:10015000c31d0000c31d0000c31d0000c31d00001f
:10016000c31d0000c31d0000c31d0000c31d00000f
:10017000c31d0000c31d0000c31d0000c31d0000ff
:10018000c31d0000c31d0000c31d0000c31d0000ef
:10019000c31d0000c31d0000c31d0000c31d0000df
:1001a000c31d0000c31d0000c31d0000c31d0000cf
:1001b000c31d0000c31d0000c31d0000c31d0000bf
:1001c000c31d0000c31d0000c31d0000c31d0000af
:1001d000c31d0000c31d0000c31d0000c31d00009f
:1001e000c31d0000c31d0000c31d0000c31d00008f
:1001f000c31d0000c31d0000c31d0000c31d00007f
:10020000c31d0000c31d0000c31d0000c31d00006e
:10021000c31d0000c31d0000c31d0000c31d00005e
:10022000c31d0000c31d0000c31d0000c31d00004e
:10023000c31d0000c31d0000c31d0000c31d00003e
:10024000c31d0000c31d0000c31d0000c31d00002e
:10025000c31d0000c31d0000c31d0000c31d00001e
:04026000c31d0000ba
:020000040000fa
:10026400f8b500bff8bc08bc9e467047951f000057
:10027400f8b500bff8bc08bc9e467047711f00006b
:020000040000fa
:100284003ca200201c000000000000000000002030
:100294000400000000000000bca2002004000000d4
:1002a40000000000c0a200200400000000000000c4
:1002b400c4a200200400000000000000c8a2002026
:1002c4000400000001000000aaaaaaaacca20020ef
:1002d40004000000000000000c00002000a000004a
:1002e40000000000d0a20020040000000000000074
:1002f400d4a200200400000000000000d8a20020c6
:100304000400000000000000dca200200400000043
:100314000000000078a1002064000000000000003c
:10032400e0a200200400000000000000e4a200207d
:100334000400000000000000e8a200200400000007
:1003440000000000eca200200400000000000000f7
:10035400f0a20020040000000000000058a20020c9
:1003640014000000000000006ca200201400000033
:1003740000000000f4a200200400000000000000bf
:10038400f8a200200400000000000000fca20020ed
:10039400040000000000000000a30020040000008e
:1003a4000000000080a200201400000000000000f3
:1003b40004a30020040000000000000094a2002018
:1003c4001400000000000000a8a200201400000097
:1003d4000000000008a3002004000000000000004a
:1003e4000ca3002004000000000000000400002012
:1003f400010000000000000010a300200400000021
:1004040001000000dca10020dca10020600000004d
:10041400010000000000000080250000a02500006d
:100424006025000000000000000000000000000043
:1004340000000000000000000000000000000000b8
:1004440000000000000000000000000000000000a8
:100454000000000000000000000000000000000098
:100464000000000000000000000000000000000088
:100474000000000014a3002004000000000000009d
:1004840018a3002004000000000000000ca00020bd
:100494006c010000010000004300000000000000a7
:1004a4000000000000000000000000000000000048
:1004b40000000000000000004300000000000000f5
:1004c4000000000000000000000000000000000028
:1004d40000000000000000004300000000000000d5
:1004e4000000000000000000000000000000000008
:1004f40000000000000000004300000000000000b5
:1005040000000000000000000000000000000000e7
:100514000000000000000000430000000000000094
:1005240000000000000000000000000000000000c7
:100534000000000000000000430000000000000074
:1005440000000000000000000000000000000000a7
:100554000000000000000000430000000000000054
:100564000000000000000000000000000000000087
:1005740000000000000000007526000011240000a7
:1005840000000000940f0000ad270000ac2700001d
:10059400ac270000ac270000ac270000ac2700000b
:1005a400ac270000ac270000ac270000ac270000fb
:1005b400ffffffffffffffffffffffffffff000045
:1005c40001004153434949000000000000000000bd
:1005d4000000000000000000000000000000000017
:1005e400000041534349490000000000000000009e
:1005f40000000000000000000000000000000000f7
:1006040000000000080000200400000000000000ba
:100614001ca30020040000000000000000000000f3
:10062400000000002222222222222222222222222e
:020000040000fa
:100634002de9f04317460a7e85b06e2a9846064691
:100644000c460c9b01f1430e00f0bc801ad8632abf
:100654002ed00ad8002a00f0c880582a00f08a80d8
:1006640004f1420584f842202ae0642a01d0692a70
:10067400f6d121681a6811f0800f23d0111d19607a
:10068400136827e0732a00f0b48008d86f2a2ad0b0
:10069400702ae5d10a6842f020020a6003e0752a54
:1006a40021d0782adcd1782284f845206e4964e090
:1006b4001a6801f14205111d1960136884f842306b
:1006c4000123a3e011f0400f02f104011960d7d017
:1006d400b2f90030002b03da2d225b4284f8432068
:1006e40062490a2217e02068196810f0800f03d0cd
:1006f400081d18600b6806e010f0400f01f10400bb
:100704001860f7d00b8859496f2a14bf0a220822af
:10071400002084f843006568a560002dc0f29c8029
:10072400206820f004002060002b3fd1002d40f011
:1007340095807546082a0bd12368da0708d5236902
:1007440062689a42debf302305f8013c05f1ff35ab
:10075400aeeb05032361cdf800803b4603aa214696
:10076400304600f096fc013055d14ff0ff3005b013
:10077400bde8f08381f845203c492268186812f0ee
:10078400800f00f104051d6001d0036802e05506e6
:10079400fbd50388d00744bf42f0200222601bb976
:1007a400226822f0200222601022b1e77546b3fbd2
:1007b400f2f002fb1033cb5c05f8013d0346002840
:1007c400f5d1b7e708681a68496910f0800f04d0ba
:1007d400101d18601368196007e010f0400f02f153
:1007e400040018601368f6d019800023236175464d
:1007f400b1e71a68111d196015686268002128465e
:1008040000f024ff08b1401b60606368236100238b
:1008140084f843309fe723692a4639463046c04767
:100824000130a2d023689b0707d5002504f11909dc
:10083400e368039a9b1a9d4205dbe068039b984298
:10084400b8bf184693e701234a4639463046c047a5
:1008540001308ad00135ebe7002ba7d10b7884f85f
:10086400423004f1420565e7af2400009e240000f5
:020000040000fa
:100874002de9f04f9db00d4692460393074618b1fb
:1008840083690bb901f0a0f96f4b9d4256d17d6885
:10089400ab891c075cd52b69002b59d00023099325
:1008a40020238df82930dff8a48130238df82a30f5
:1008b4004ff001095446264616f8013b002b52d14d
:1008c400b4eb0a0b0bd05b4652462946384601f07e
:1008d40051fa013000f0b380099b5b4409932378fb
:1008e400002b00f0ac8000234ff0ff3204930793f9
:1008f400059206938df853301a93052231785348a4
:1009040000f0a4fe741c049b002830d1d80644bf18
:1009140020228df85320190744bf2b228df8532031
:1009240032782a2a2bd0079a00210a20344601362d
:100934002378303b092b68d971b326e0444b9d42a0
:1009440001d1bd68a4e7434b9d4208bffd689fe702
:100954002946384600f088fc00289fd04ff0ff302d
:100964001db0bde8f08f252baad03446a3e7a0eb39
:10097400080009fa00f0184304902646bde7039adc
:10098400111d12680391002a01db079204e0524210
:1009940043f002030792049323782e2b0ed163783d
:1009a4002a2b04f1010134d1039b1a1d1b68039205
:1009b400002bb8bf4ff0ff3302340593264e217845
:1009c4000322304600f042fe38b14023801b03fa74
:1009d40000f0049b03430493013421781f488df8ed
:1009e4002810062200f032fe03ab009304f1010a42
:1009f4001b4b2a4604a9f0b1384601f0e6fe421c1e
:100a04001dd0099b0344099354e700fb02320121e2
:100a14008ce70023059318460a260c4601312278f8
:100a2400303a092a03d9002bc8d00590c6e706fb43
:100a340000200123f1e73846fff7fafddfe7ab8931
:100a44005b068bd409988be7802500001c270000e7
:100a5400a0250000602500002227000026270000b2
:040a6400791d0000f8
:020000040000fa
:100a68002de9f04f83b001900f4698460d9e9500f2
:100a7800284601f043f8002800f08e808246542072
:100a880001f03cf80446002800f08380c0f830a04c
:100a98002a46a521504601f067fe043d236b1d44fc
:100aa80025f00705002f7ad03b7884f834303b785e
:100ab80063b13b4604f1340207f10f01587802f89c
:100ac800010f13f8010f08b18b42f7d1002384f806
:100ad80043300c9b042b28bf04239946e3626364cc
:100ae8000027a76404f1040b584601f069fe04f1dd
:100af800180001f065fe2461c9f10503a361646271
:100b0800e76484f8507042460199284601f072fb68
:100b1800206006b1346001f0fffc3d4a13680133e0
:100b280013603c4b1b68002b3dd03b4b1b683bb90b
:100b3800384b1b68da6ae36a9a429cbf354b1c60e3
:100b4800364a136801331360e06a354a1168012395
:100b580083400b43136000eb80005946314b03eb95
:100b6800800001f090fd01f0affd2b4b1b68002bbe
:100b780048d0284b1b68da6ae36a9a4246d24ff09b
:100b88008052294b1a60bff34f8fbff36f8f01203c
:100b980039e0504601f031fe4ff0ff3033e00023da
:100ba80084f8343095e71b4b1c601368012bc7d1c0
:100bb8001c4d284601f073fd05f1140001f06ffd8e
:100bc80005f1280001f06bfd05f13c0001f067fd1f
:100bd80005f1500001f063fd144e304601f05ffd51
:100be800134d284601f05bfd124801f058fd1248ec
:100bf80001f055fd114801f052fd114b1e60114bdb
:100c08001d609de7012003b0bde8f08f0120fae7e1
:100c1800e0a20020d4a2002004a30020eca200201f
:100c2800f0a2002078a1002004ed00e058a20020e6
:100c38006ca2002080a20020a8a2002094a200207c
:080c4800d8a20020dca200206c
:020000040000fa
:100c500070b5404b1c68844228bf04463e4a136866
:100c600023f0010313603d4b1b68661e3c4a156868
:100c700005fb06353b4b1b689d4288bfed1a72b6db
:100c8000bff34f8fbff36f8f01f0ecf9002842d014
:100c9000354b1d60002204331a602f4a136843f05d
:100ca0000103136024b1bff34f8f30bfbff36f8fc9
:100cb00062b6bff34f8fbff36f8f72b6bff34f8f24
:100cc000bff36f8f244b06221a601b6813f4803f1a
:100cd00030d0234b1a68214b1b681344013b5d1b2a
:100ce000204b1b689d4201d3aa4200d2551e1e4bc9
:100cf0001d600022194b1a60174a136843f0010364
:100d00001360304601f024fd154b1b68013b164a69
:100d1000136062b670bd114b1b68134a13600e4915
:100d20000b6843f001030b600d4b1b68013b136024
:100d300062b670bd0a4b1b68084a126804fb03f4d4
:100d4000a41ab4fbf3f606fb03331c1b064b1c6012
:100d5000cfe700bfc4a2002010e000e018e000e0f0
:0c0d6000c0a20020bca2002014e000e0b3
:020000040000fa
:100d6c002de9f047394b1b68002b68d1384b1a68ba
:100d7c0002f10108c3f80080b8f1000f17d0354b11
:100d8c001b68984520d20025334b1b68db6a03ebac
:100d9c0083039b00314ad358022b28bf0125304bcb
:100dac001b68002b18bf01252846bde8f0872d4a8b
:100dbc0011682d4b1868106019602c4a13680133a8
:100dcc00136001f041fadae70025264fdff8a49012
:100ddc00dff888a021e04ff0ff321e4b1a60d3e7fa
:100dec001c4a1360d0e704f1180001f0abfae06a7a
:100dfc00d9f80020012383401343c9f8003000ebdd
:100e0c00800031460aeb800001f03bfc124b1b6862
:100e1c00e26adb6a9a4228bf01253b681b68002bfb
:100e2c00d9d03b68db68dc6863689845d8d3261d4d
:100e3c00304601f087faa36a002bd4d1d7e70c4acd
:100e4c001368013313600025aee700bfe8a2002051
:100e5c0008a30020f8a20020d4a2002078a1002032
:100e6c000ca30020d8a20020dca20020fca20020b1
:080e7c0000a30020f0a20020f9
:020000040000fa
:100e84008a892de9f041054610070c465ad44b686f
:100e9400002b05dc0b6c002b02dc0020bde8f0818c
:100ea400e66a002ef9d0002312f480522f682b60da
:100eb40033d0606da3895a0705d56368c01a636b84
:100ec4000bb1236cc01a00230246e66a216a284645
:100ed400b047431ca38906d129681d294bd82b4a46
:100ee400ca40d60747d500226260d904226922602d
:100ef40004d5421c01d12b6803b96065616b2f6076
:100f04000029cad004f14403994202d0284600f0d3
:100f1400edfb00206063bde8f081216a01232846cf
:100f2400b047411cc6d12b68002bc3d01d2b01d068
:100f3400162b01d12f60b0e7a38943f04003a381ae
:100f4400bde8f0810f69002fa7d093070e6808bf92
:100f54004b690f6018bf0023a6eb07088b60b8f13c
:100f6400000f9add43463a46216aa66a2846b047ee
:100f7400002807dca38943f04003a3814ff0ff302e
:100f8400bde8f0810744a8eb0008e8e70100402031
:020000040000fa
:100f94000020202020202020202028282828282045
:100fa400202020202020202020202020202020203d
:100fb40020881010101010101010101010101010a5
:100fc4001004040404040404040404101010101095
:100fd400101041414141414101010101010101015f
:100fe40001010101010101010101010110101010b1
:100ff4001010424242424242020202020202020231
:101004000202020202020202020202021010101084
:1010140020000000000000000000000000000000ac
:1010240000000000000000000000000000000000bc
:1010340000000000000000000000000000000000ac
:10104400000000000000000000000000000000009c
:10105400000000000000000000000000000000008c
:10106400000000000000000000000000000000007c
:10107400000000000000000000000000000000006c
:10108400000000000000000000000000000000005c
:01109400005b
:020000040000fa
:101096002de9f04791461f468a680b69ddf82080e6
:1010a6009342b8bf1346c9f8003091f8432006466c
:1010b6000c4612b10133c9f800302368990642bfc5
:1010c600d9f800300233c9f80030256815f0060556
:1010d60007d104f1190ae368d9f800209b1a9d424a
:1010e60029db94f843302268003318bf01239206a7
:1010f6002ed404f1430239463046c047013021d090
:101106002368e568d9f8002003f00603042b08bf1e
:10111600ad1aa36822690cbf25eae575002593423e
:10112600c4bf9b1aed184ff000091a344d451bd168
:101136000020bde8f0870123524639463046c047b5
:10114600013003d14ff0ff30bde8f0870135c2e72b
:10115600e1185a1c302081f84300224494f84510c7
:1011660082f843100233c4e701232246394630464b
:0c117600c0470130e6d009f10109d7e7bd
:020000040000fa
:021182007047b4
:020000040000fa
:101184002de9f04101f0caf92e4b1a68013a1a60b0
:101194001b68002b4dd12c4b1b683bb300242b4efa
:1011a4002b4fdff8c080336813b3f368dc6804f1b5
:1011b400180001f0cbf8251d284601f0c7f8e06ab5
:1011c4003a680123834013433b6000eb80002946c7
:1011d40008eb800001f059fa1e4b1b68e26adb6ad7
:1011e4009a42e0d301221c4b1a60dce7002421e080
:1011f4000cb101f02df8194b1c686cb1164e012589
:1012040001e0013c05d0fff7affd0028f9d03560bf
:10121400f7e70022114b1a600f4b1b687bb14ff0ac
:1012240080520f4b1a60bff34f8fbff36f8f0124af
:1012340000e0002401f04afa2046bde8f0810024d1
:10124400f8e700bfe8a20020e0a2002080a200206e
:10125400f0a20020d4a200200ca3002000a30020b0
:0812640004ed00e078a1002078
:020000040000fa
:10126c00324b70b51d6806460c4625b1ab6913b9f7
:10127c00284600f0a5fc2e4b9c420fd16c68b4f9ab
:10128c000c309ab215072cd4d00611d40922326036
:10129c0043f04003a3814ff0ff3070bd254b9c42bf
:1012ac0001d1ac68ebe7244b9c4208bfec68e6e745
:1012bc00510712d5616b41b104f14403994202d03c
:1012cc00304600f00ffa00236363a38923f0240354
:1012dc00a3810023636023692360a38943f008037f
:1012ec00a38123694bb9a38903f42073b3f5007f61
:1012fc0003d02146304600f091fba28912f0010385
:10130c000cd00023a36063695b42a361236953b9ca
:10131c00b4f90c3013f08000bad170bd920758bfed
:10132c006369a360f2e70020f7e700bf10a3002079
:0c133c0080250000a025000060250000b6
:020000040000fa
:1013480000222d4b1a742d4a03f500639a621a463f
:10135800536813f0100ffbd14222294bc3f88420a5
:101368001a46d2f8843013f0400ffad0254b0022e9
:101378009a6377225a631a46d36b13f0040ffbd192
:101388000222204b83f830201a46d36b13f0020f49
:10139800fbd11c4a136c03f00303032bfad101227f
:1013a800194b5a711a46d37813f0010ffbd0174a1c
:1013b800134b1a621a46536813f0040ffbd1144af0
:1013c8000f4b5a621a46536813f0080ffbd141229b
:1013d8000b4bc3f8dc201a46d2f8dc3013f0400f70
:1013e800fad0094b6ff07f421a6140f2ff725a61de
:1013f800084a9a61704700bf001400400601300097
:10140800001c0040001000400008004007010100d7
:081418000701020056820100e9
:020000040000fa
:1014200070b5cd1c25f0030508350c2d38bf0c25f3
:10143000002d064601dba94203d90c2333600020ae
:1014400070bd01f0dff9234a1468214691b9224c9e
:1014500023681bb9304601f0b3f8206029463046b6
:1014600001f0aef8431c26d10c233360304601f066
:10147000caf9e4e70b685b1b1ad40b2b0fd90b607e
:10148000cd50cc18304601f0bef904f10b00231dfd
:1014900020f00700c31a1bd05a42e25070bd8c42a4
:1014a0000dbf63684b686360136018bf0c46e9e7c3
:1014b0000c464968cae7c41c24f00304a04205d0c6
:1014c000211a304601f07cf80130cdd02560d9e7f3
:0c14d00070bd00bf14a3002018a3002072
:020000040000fa
:1014dc00f8b50e461446054618b183690bb900f0f1
:1014ec006ffb274b9c422fd16c68a369a360a38927
:1014fc00190733d52369002b30d0b4f90c30f6b270
:10150c009a04374634d523692068c01a6369984217
:10151c0004db2146284600f0d7fb28bba368013b1f
:10152c00a36023685a1c22601e70636901309842c4
:10153c0004d0a389db0719d50a2e17d121462846da
:10154c0000f0c2fb90b10fe00e4b9c4201d1ac6895
:10155c00cbe70d4b9c4208bfec68c6e721462846fa
:10156c00fff77efe0028c8d04ff0ff373846f8bd95
:10157c0043f40053a381236e23f400532366c2e784
:0c158c0080250000a02500006025000064
:020000040000fa
:10159800254b1b68002b2ed110b50022234b1a6057
:1015a800234b1b681b6b1a68b2f1a53f27d0204b51
:1015b80018681968343101f09bf81e4b1b68b3faa0
:1015c80083f3dbb2c3f11f031b4a9900c81802eb6f
:1015d80080004468646844601944024608329442b2
:1015e8001ad003eb8303144a02eb83035b68da68bf
:1015f8000f4b1a6010bd01220c4b1a6070475a68d5
:10160800b2f1a53fd3d19a68b2f1a53fcfd1db683b
:10161800b3f1a53fcbd1d0e760680a46064901eb94
:1016280082025060dde700bfe8a200200ca3002082
:0c163800d4a20020f0a2002078a1002025
:020000040000fa
:0c1644004150505f5461736b730000bf95
:020000040000fa
:1016500001f0ff01102a2bdb10f0070f08d010f863
:10166000013b013a8b422dd010f0070f42b3f6d167
:10167000f0b441ea012141ea014122f007047ff080
:1016800000070023f0e80256083c85ea010586ead7
:10169000010685fa47f5a3fa87f586fa47f6a5fa13
:1016a00087f68eb9eed1f0bc01f0ff0102f007021f
:1016b00032b110f8013b013a83ea010313b1f8d1ca
:1016c0000020704701387047002d06bf35460338ab
:1016d000073815f0010f07d1013015f4807f02bfe4
:1016e000013015f4c03f0130f0bc0138704700bf35
:020000040000fa
:1016f00038b50546002945d051f8043c0c1f002b95
:10170000b8bfe41801f07ef81f4a1368104633b9d9
:10171000636014602846bde8384001f074b8a34205
:101720000cd921686218934204bf1a685b68636031
:1017300004bf521822600460ece713465a680ab1ed
:10174000a242fad919685818a0420bd12068014466
:10175000581882421960ddd1106852685a600144fd
:101760001960d7e702d90c232b60d3e72068211832
:101770008a4204bf11685268626004bf0918216080
:0c1780005c60c7e738bd00bf14a3002068
:020000040000fa
:10178c0008b51b4b98471b4b9847eff3108172b66b
:10179c00194ad2f8883043f47003c2f88830bff38a
:1017ac004f8fbff36f8f01b962b6144c2023636067
:1017bc0000f0b8f8104a124b23f07f039360114be2
:1017cc009847a36823f00103a3602346da6812f05c
:1017dc00010ffbd1094b5a6842f004025a600122f6
:1017ec009a60094b9847094b984700f0a3fefee717
:1017fc00012800000128000000ed00e0006000411d
:10180c0000000000551e0000012800000128000007
:020000040000fa
:10181c002de9f0411d4d1e4fdff880801d4e03e079
:10182c0000f07efb012826d82b68bbb100f072febd
:10183c00fb68dc68201d00f085fd3368013b3360dc
:10184c002b68013b2b6000f03dff206b00f0d3ffb9
:10185c00204600f0d0ff2b68002be7d10e4b1b6805
:10186c00012bddd94ff08053c8f80030bff34f8ff8
:10187c00bff36f8fd4e700f05dff00f051fb012840
:10188c0001d9fff7dff9fff777fccde7e4a20020e1
:10189c00a8a20020e0a2002078a1002004ed00e026
:020000040000fa
:1018ac002de9f74380460e46144600f0cffe012882
:1018bc001cd1731efe2b19d88df804600546002729
:1018cc000df10409af4220d0a36817f80910013bb1
:1018dc00002ba36004daa26993421adb0a2918d000
:1018ec0023685a1c226019700137ebe7324604f169
:1018fc00580301a9404600f011fa421c0546ded1fe
:10190c00a38943f04003a3810646304603b0bde8eb
:10191c00f08322464046fff7dbfd431ce4d106462c
:02192c00f3e7df
:020000040000fa
:02192e00704700
:020000040000fa
:101930001c4b1d4a934230b438bf002103d203f838
:10194000011b9342fbd1194800250168c1b94268c7
:1019500032b383680c30d3b10139034613f8014b1d
:1019600001f8014f1c1a9442f8d312f0030318bf78
:10197000012303eb920200eb820001680029e6d00c
:10198000846842680b460c303cb9002addd01a440a
:1019900003f8015b9a42fbd1d7e7002adcd1e4e7e8
:1019a00030bc7047000000200c00002084020000c2
:020000040000fa
:1019b000f8b51c4b1e68b369074613b9304600f0f2
:1019c00005f94836b4687368013b03d5336833b111
:1019d0003668f7e7b4f90c506db16434f4e70421cc
:1019e000384600f04dfc30600028f1d10c233b60fc
:1019f00004462046f8bd4ff6ff73e3810123a3811f
:101a000025662560a560656025616561a561082280
:101a1000294604f1580000f0abfe6563a563a56498
:081a2000e564e6e7d4270000ad
:020000040000fa
:101a28008b8973b59d0706460c4607d504f1470315
:101a3800236023610123636102b070bd01ab6a4674
:101a480000f04cfa009905463046fff7e5fc38b936
:101a5800b4f90c309a05efd443f00203a381e5e70b
:101a68000c4bb362a389206043f08003a381009be1
:101a78006361019b20614bb1b4f90e10304600f050
:101a8800bbfd18b1a38943f00103a381a3891d43ba
:081a9800a581d1e78d270000b4
:020000040000fa
:101aa000eff30980bff36f8f154b1a681ef0100f0c
:101ab00008bf20ed108a20e9f04f10602de90900e1
:101ac0004ff0200080f31188bff34f8fbff36f8f6b
:101ad000fff762fd4ff0000080f3118809bc196820
:101ae0000868b0e8f04f1ef0100f08bfb0ec108a85
:101af00080f30988bff36f8f704700bfaff300809a
:041b0000d4a200204b
:020000040000fa
:101b040038b5044610f0070f1cbf20f00704083452
:101b140000f014fe104b1b6893b1104b1b681c445f
:101b240049f6f772944211d8a3420fd20a4a1568b3
:101b34001d440a4b1c60fff723fb4db1284638bdfa
:101b4400074b23f00703044a1360e6e7fff718fb8b
:101b540000f0d9fd0025f1e7cca20020d0a200209e
:041b64001400002049
:020000040000fa
:101b680000b583b0114b01930023009380221049e4
:101b78001048fef775ff012802d003b05df804fb9a
:101b88004ff0200383f31188bff36f8fbff34f8f9c
:101b98004ff0ff32084b1a600122084b1a600022ee
:101ba800074b1a6000f02ef9e7e700bff4a2002007
:101bb800b02700001d180000f8a2002004a3002090
:041bc80008a300204e
:020000040000fa
:101bcc00836910b5044633bb8364c3640365124b4d
:101bdc00124a1b688262984204bf01238361fff79b
:101bec00e1fe60602046fff7ddfea0602046fff7b7
:101bfc00d9fe0022e0600421606800f049f901225e
:101c0c000921a06800f044f902221221e06800f0da
:101c1c003ff90123a36110bdd42700008d270000dc
:020000040000fa
:101c2c0008b5114bd3f8a030002b0eda0f4800f09a
:101c3c00affa0d4b4022c3f898204ff48022c3f822
:101c4c0018210222c3f8982008bd094800f0a0fa18
:101c5c00054b4022c3f894204ff48022c3f8142182
:101c6c000222c3f8942008bd0080004168270000c0
:041c7c0060270000dd
:020000040000fa
:101c800018b338b504460d4600f070faddb10020f7
:101c90000f4a137e13f0040ffbd0538b13f0070f82
:101ca0000cd1536803f00703012b936a1abf23700a
:101cb000013424f8023b01308542ead1854214bf49
:101cc0000020012038bd0020f8e70020704700bf49
:041cd00000200141ae
:020000040000fa
:101cd40038b50b6905460c46dbb118b183690bb9fd
:101ce400fff772ff0c4b9c4209d16c68b4f90c30bd
:101cf4007bb121462846bde83840fff7c1b8074b01
:101d04009c4201d1ac68f1e7054b9c4208bfec68ea
:101d1400ece7002038bd00bf80250000a0250000ae
:041d24006025000036
:020000040000fa
:101d2800f0b5054685b01e460f460f4c91b922689e
:101d38000e49126a002a08bf0a4601a9d2f8e040f3
:101d48003a46a047431c01bf002333608a232b6017
:101d580005b0f0bd2468054f246a002c08bf3c4636
:101d6800d4f8e040ede700bf10a300200ca000204d
:020000040000fa
:101d7800f8b50e46096e14468a0407460bd4e518d2
:101d8800ac420dd0324614f8011b384600f01afa5e
:101d98000130f5d10ee023f00303e518ac4201d180
:101da8000020f8bd324654f8041b384600f042fcc7
:0a1db8000130f3d14ff0ff30f8bd09
:020000040000fa
:021dc200fee73a
:020000040000fa
:101dc400094a0a4b1a608b22094b1a602d22094bcf
:101dd4001a60094b00221a6008490a600849094a36
:101de400116007221a607047c0d40100c0a200200d
:101df400c4a20020bca2002010e000e018e000e033
:081e0400bfd4010014e000e06e
:020000040000fa
:101e0c0010b50e4b1a6842f460021a601a6842f060
:101e1c0060421a60fff7d0ff0024094b1c6000f0f1
:101e2c0047fc084a136843f04043136000f062fa21
:101e3c00fff7acfb00f05efb204610bd20ed00e090
:081e4c00c8a2002034ef00e001
:020000040000fa
:101e540070b50d4e0d4ca41ba4100025a54209d14c
:101e64000b4e0c4cfef7fcf9a41ba4100025a54254
:101e740005d170bd56f8253098470135eee756f880
:101e8400253098470135f2e7700200007002000027
:081e940070020000740200005e
:020000040000fa
:101e9c00002310b5044603604360836081810366b0
:101eac00c28103614361836119460822583000f0f6
:101ebc0059fc054b6362054ba362054be362054b72
:101ecc002462236310bd00bf7d2400009d20000010
:081edc00a5230000b927000056
:020000040000fa
:101ee40070b50e46b1f90e10002990b014461d4687
:101ef40007da00232b60b3891a0610d44ff48063e9
:101f04000ee001aa00f0a6fa0028f2db029a02f41d
:101f14007042a2f500535a425a412a60eee7402328
:081f24000020236010b070bd25
:020000040000fa
:101f2c000b4b1a680b4b1b68db6a6bb90a4b1b68b3
:101f3c00012b01d900207047012a07d8074b1868dc
:101f4c00074b1b68c01a7047002070470020704771
:101f5c00f0a20020d4a2002078a10020f8a200203a
:041f6c0008a30020a6
:020000040000fa
:101f700010b5054c227832b9044b13b10448aff3c5
:101f800000800123237010bd3ca20020000000004f
:101f90000000000008b5034b1bb103490348aff331
:101fa000008008bd0000000040a2002000000000ea
:020000040000fa
:101fb000b0b1b9b10c4a03e030f8023b936269b1a9
:101fc0000139137e13f0010ffbd0536803f00703b0
:101fd000012bf1d0037893620130f0e701207047c4
:0c1fe000002070470120704700200141e4
:020000040000fa
:101fec002de9f8438046894600f14804002614b9cf
:101ffc003046bde8f883a5686768013f01d52468c1
:10200c00f5e7ab89012b07d9b5f90e30013303d0b5
:0c201c0029464046c84706436435eee7fd
:020000040000fa
:1020280070b50d46a9b114460ab1022801d9204657
:1020380070bd094b2bb108461146aff3008020460e
:1020480070bd164615f8010b00f0e6fa013ef9d10d
:0c205800ede70c46204670bd00000000c3
:020000040000fa
:10206400094b1b6863b9094b1b685bb9084b1868bb
:10207400084b1b68013b984214bf012002207047a3
:10208400002070470020704780a200200ca300208d
:0820940094a20020e0a200204c
:020000040000fa
:10209c002de9f0411f468b89db0505460c4616469b
:1020ac0005d502230022b1f90e1000f099f9a3898d
:1020bc00b4f90e1023f48053a38132463b462846d4
:0820cc00bde8f04100f07ab913
:020000040000fa
:1020d4000b4b4222c3f880204ff00042c3f89020fb
:1020e400012283f8d82083f8d920062283f8df2040
:1020f400332283f8bc204ff48022c3f800217047b8
:042104000080004116
:020000040000fa
:102108000a4b0b4a1a604ff658729a814ff44032c4
:102118005a601a46d369002bfcd1044a136843f06d
:1021280002031360d369002bfcd1704700200141e2
:04213800040110404e
:020000040000fa
:10213c0000b583b0074b01930123009300234ff4a8
:10214c00806205490548fef789fcfff707fd03b0df
:10215c005df804fb0000002044160000772300000b
:020000040000fa
:10216c000a4b5b8b13f0070f0ed0084b80221a76ac
:10217c0007225a831b7e13f0040f05d0034b9a6a77
:10218c001a7e12f0040ffad1704700bf00200141f3
:020000040000fa
:10219c000fb40a4b13b51c6824b1a36913b92046bc
:1021ac00fff70efd05ab049aa16801932046fef7dc
:1021bc005bfb02b0bde8104004b0704710a30020d8
:020000040000fa
:1021cc009368013b002b10b4936009da9469a34225
:1021dc0002dbcbb20a2b03d15df8044bfff778b9c5
:1021ec001368581c10601970c8b25df8044b704726
:020000040000fa
:1021fc004ff0807340f8043c21f0010140f8081cba
:10220c00054b40f80c3c40f8202c6ff0020340f8d2
:0c221c00243c4438704700bf012500003e
:020000040000fa
:1022280008b54ff0200383f31188bff36f8fbff316
:102238004f8ffef797fd18b14ff08052024b1a608e
:0c224800002383f3118808bd04ed00e0c2
:020000040000fa
:10225400084b1b681b683bb1064b1b68db68db68db
:102264005a68054b1a6070474ff0ff32024b1a60f0
:0c227400704700bfd8a20020f8a2002094
:020000040000fa
:1022800070b54a1e642555430e4605f17001fff7ef
:10229000c7f8044640b1002180e842000c30a0603d
:0c22a00005f1640200f064fa204670bdf5
:020000040000fa
:1022ac00074a136843b10749184488429abf106023
:1022bc0018464ff0ff307047034b1360f3e700bf35
:0c22cc001ca3002028a5002028a300204f
:020000040000fa
:1022d800084ad36823f4e0631b041b0c43f0bf6374
:1022e80043f40033d360bff35f8f62b6e02382f814
:0822f8002330704700ed00e007
:020000040000fa
:1023000008480068006880f308884ff0000080f3f8
:10231000148862b661b6bff34f8fbff36f8f00dfd3
:0823200000bf000008ed00e021
:020000040000fa
:1023280070b50d4661b1164642b138b91446012060
:1023380000f0c2f8013c05f8010bf8d1304670bd39
:082348000e46304670bd00bfd7
:020000040000fa
:1023500003694268816891608268416851605a6887
:10236000904204bf82685a60002202611a68013af2
:062370001a6018687047b6
:020000040000fa
:0823760008b5fff758fcfce775
:020000040000fa
:02237e00fee778
:020000040000fa
:10238000074b19680868b0e8f04f80f30988bff37d
:102390006f8f4ff0000080f311887047aff300801b
:0423a000d4a20020a3
:020000040000fa
:1023a40010b50c46b1f90e1000f01ef8431ca389b9
:1023b40015bf606523f4805343f48053a38118bf91
:0423c400a38110bd24
:020000040000fa
:1023c80038b5074c054608461146002222601a46d1
:1023d80000f008fa431c02d1236803b12b6038bd12
:0423e80008000020c9
:020000040000fa
:1023ec0038b5074c054608461146002222601a46ad
:1023fc0000f0f2f9431c02d1236803b12b6038bd05
:04240c0008000020a4
:020000040000fa
:1024100082b001b901a942b14bb113780b601278b7
:10242000101c18bf012002b070471046fbe76ff088
:042430000100f8e7c8
:020000040000fa
:1024340038b5074c054608461146002222601a4664
:1024440000f0d0f9431c02d1236803b12b6038bdde
:04245400080000205c
:020000040000fa
:1024580038b5074c0023054608461146236000f0ae
:10246800b9f9431c02d1236803b12b6038bd00bf02
:042478000800002038
:020000040000fa
:10247c0010b50c46b1f90e10fff7d6ff0028abbf14
:10248c00636da3891b1823f48053acbf6365a381d0
:02249c0010bd71
:020000040000fa
:10249e00303132333435363738394142434445468c
:1024ae000030313233343536373839616263646522
:0224be006600b6
:020000040000fa
:1024c00030b583b002ac002344f8043d0125294611
:1024d0002046fff7d5fb0028f9d0019803b030bda6
:020000040000fa
:1024e00008b500f025f9fff7f5fdfef72dfffef723
:1024f00048fefff71cfa00f043f9fff7edfe08bdb8
:020000040000fa
:1025000082b0002301934ff0200383f31188bff3bf
:102510006f8fbff34f8f019b002bfcd002b0704731
:020000040000fa
:102520004ff0200383f31188bff36f8fbff34f8ffa
:10253000024a136801331360704700bfc8a200202d
:020000040000fa
:1025400008b50020fff7ccfffff7defd034c204667
:10255000fff724fefff7f2fdf9e700bfe4260000d5
:020000040000fa
:10256000000000000000000000000000000000006b
:10257000000000000000000000000000000000005b
:020000040000fa
:10258000000000000000000000000000000000004b
:10259000000000000000000000000000000000003b
:020000040000fa
:1025a000000000000000000000000000000000002b
:1025b000000000000000000000000000000000001b
:020000040000fa
:1025c00038b5064c0023054608462360fff76efe2b
:1025d000431c02d1236803b12b6038bd08000020e2
:020000040000fa
:1025e00038b5064c002305460846236000f0f4f891
:1025f000431c02d1236803b12b6038bd08000020c2
:020000040000fa
:1026000038b5064c002305460846236000f0e8f87c
:10261000431c02d1236803b12b6038bd08000020a1
:020000040000fa
:1026200030b583b002ac04f8010d012529462046df
:0c263000fff7befc0028f9d003b030bd5d
:020000040000fa
:10263c00b2f90c3013f4005f06d143f400539381cc
:0c264c00136e43f400531366fff72ab925
:020000040000fa
:10265800044b054a1b681b6a002b08bf134693f8f6
:0c2668002801704710a300200ca00020e7
:020000040000fa
:1026740049b1ff2a85bf8a2303600a704ff0ff30f7
:0a26840098bf012070470846704718
:020000040000fa
:10268e0043684b609a688a609a68516099600861e5
:08269e0003680133036070477b
:020000040000fa
:1026a60000f1080343604ff0ff328260c3600361ac
:0626b600002303607047e1
:020000040000fa
:1026bc00dff80c00016841f4700101607047000004
:0426cc0088ed00e0b5
:020000040000fa
:1026d000034a1368013b13600bb983f311887047f9
:0426e000c8a200206c
:020000040000fa
:1026e4007768696c652020636f6e646974696f6ec6
:0426f400000000bf23
:020000040000fa
:1026f8004ff0200383f31188bff36f8fbff34f8f21
:02270800fee7ea
:020000040000fa
:10270a004ff0200383f31188bff36f8fbff34f8f0e
:02271a00fee7d8
:020000040000fa
:10271c00232d302b2000686c4c00656667454647be
:01272c0000ac
:020000040000fa
:02272e00fee7c4
:020000040000fa
:1027300040f20452014b1a80704700bf0040004134
:020000040000fa
:10274000024a136801331360704700bfe8a20020fb
:020000040000fa
:10275000024a136818441060704700bf08a30020a5
:020000040000fa
:102760000a206f6e000000000a206f66660000bf3e
:020000040000fa
:1027700002440346934200d1704703f8011bf9e776
:020000040000fa
:0c2780000022014b1a707047040000207a
:020000040000fa
:0c278c000149fff72dbc00bfd51c000068
:020000040000fa
:0c2798004ff400534b600020704700bf5e
:020000040000fa
:0b27a4004300504f53495800002e0026
:020000040000fa
:0827b00049444c45000000bf44
:020000040000fa
:0827b800b1f90e10fff710bf8c
:020000040000fa
:0827c0004ff0ff30704700bf2d
:020000040000fa
:0627c800002303617047cd
:020000040000fa
:0627ce004ff0ff307047e0
:020000040000fa
:0427d400dca1002064
:020000040000fa
:0427d800fff7f2bf56
:020000040000fa
:0427dc00fff7dcbf68
:020000040000fa
:0427e00000f006b847
:020000040000fa
:0427e40000f006b843
:020000040000fa
:0427e800fff79ebd9c
:020000040000fa
:0427ec00fff71cbc1b
:020000040000fa
:0427f000012070470d
:020000040000fa
:0427f400002070470a
:020000040000fa
:0227f800fee7fa
:020000040000fa
:0227fa00fee7f8
:020000040000fa
:0227fc00fee7f6
:020000040000fa
:0227fe00fee7f4
:020000040000fa
:0228000070471f
:020000040000fa
:0228020070471d
:020000040000fa
:0228040070471b
:020000040000fa
:02280600704719
:020000040000fa
:0200000400807a
:044000003912003c35
:020000040000fa
:0200000400807a
:044004008000a82a66
:020000040000fa
:0200000400807a
:04400800ffffffffb8
:00000001FF
