:020000040000fa
:10000000f0ff0320750a00003b1400003d140000bf
:1000100041140000431400004514000000000000db
:100020000000000000000000000000003914000083
:100030003f140000000000003914000039140000d3
:10004000391400003914000039140000391400007c
:10005000391400003914000039140000391400006c
:10006000391400003914000039140000391400005c
:10007000391400003914000039140000391400004c
:10008000391400003914000039140000391400003c
:10009000391400003914000039140000391400002c
:1000a000391400003914000039140000391400001c
:1000b000391400003914000039140000391400000c
:1000c00039140000391400003914000039140000fc
:1000d00039140000391400003914000039140000ec
:1000e0003914000039140000000000000000000076
:1000f0000000000039140000391400003914000019
:1001000039140000391400003914000039140000bb
:1001100039140000391400003914000039140000ab
:10012000391400003914000039140000391400009b
:10013000391400003914000039140000391400008b
:10014000391400003914000039140000391400007b
:10015000391400003914000039140000391400006b
:10016000391400003914000039140000391400005b
:10017000391400003914000039140000391400004b
:10018000391400003914000039140000391400003b
:10019000391400003914000039140000391400002b
:1001a000391400003914000039140000391400001b
:1001b000391400003914000039140000391400000b
:1001c00039140000391400003914000039140000fb
:1001d00039140000391400003914000039140000eb
:1001e00039140000391400003914000039140000db
:1001f00039140000391400003914000039140000cb
:1002000039140000391400003914000039140000ba
:1002100039140000391400003914000039140000aa
:10022000391400003914000039140000391400009a
:10023000391400003914000039140000391400008a
:10024000391400003914000039140000391400007a
:10025000391400003914000039140000391400006a
:04026000391400004d
:020000040000fa
:10026400f8b500bff8bc08bc9e467047cd0e000030
:10027400f8b500bff8bc08bc9e467047a90e000044
:020000040000fa
:100284003c0100201c00000000000000c000002011
:1002940032000000000000001b01002001000000eb
:1002a40000000000640000205a000000000000006c
:1002b400f400002027000000010000000d0a2a2a93
:1002c4002a2a205553415254206572726f72206855
:1002d4006173206f63637572726564202a2a2a2a07
:1002e4000d0a00001c010020200000000100000095
:1002f4002a2a2a2a205553415254204c696e6520db
:100304004563686f2044656d6f2a2a2a2a0d0a0006
:100314006801002003000000010000000d0a000035
:100324005801002004000000010000000400002027
:100334000400002060000000010000000000000034
:10034400b8120000d812000098120000000000004b
:100354000000000000000000000000000000000099
:100364000000000000000000000000000000000089
:100374000000000000000000000000000000000079
:100384000000000000000000000000000000000069
:100394000000000000000000000000005c010020dc
:1003a40004000000000000006001002004000000c0
:1003b4000000000000000020040000000000000015
:1003c40064010020040000000000000000000000a0
:1003d4000000000022222222222222222222222281
:020000040000fa
:1003e4008a892de9f041054610070c465ad44b681a
:1003f400002b05dc0b6c002b02dc0020bde8f08137
:10040400e66a002ef9d0002312f480522f682b6084
:1004140033d0606da3895a0705d56368c01a636b2e
:100424000bb1236cc01a00230246e66a216a2846ef
:10043400b047431ca38906d129681d294bd82b4af0
:10044400ca40d60747d500226260d90422692260d7
:1004540004d5421c01d12b6803b96065616b2f6020
:100464000029cad004f14403994202d0284600f07e
:10047400b1fa00206063bde8f081216a01232846b7
:10048400b047411cc6d12b68002bc3d01d2b01d013
:10049400162b01d12f60b0e7a38943f04003a38159
:1004a400bde8f0810f69002fa7d093070e6808bf3d
:1004b4004b690f6018bf0023a6eb07088b60b8f1e7
:1004c400000f9add43463a46216aa66a2846b04799
:1004d400002807dca38943f04003a3814ff0ff30d9
:1004e400bde8f0810744a8eb0008e8e701004020dc
:020000040000fa
:1004f4000022334b1a74334a03f500639a621a4696
:10050400536813f0100ffbd142222f4bc3f8842001
:100514001a46d2f8843013f0400ffad02b4b002245
:100524009a6377225a631a46d36b13f0040ffbd1f4
:100534000222264b83f830201a46d36b13f0020fa5
:10054400fbd1224a136c03f00303032bfad10122db
:100554001f4b5a711a46d37813f0010ffbd01d4a72
:10056400194b1a621a46536813f0040ffbd11a4a46
:10057400154b5a621a46536813f0080ffbd14122f7
:10058400114bc3f8dc201a46d2f8dc3013f0400fcc
:10059400fad041220c4bc3f80c211a46d2f80c3184
:1005a40013f0400ffad00a4b6ff07f421a6140f209
:1005b400ff725a61094a9a6102221a62704700bfa7
:1005c4000014004006013000001c004000100040f0
:1005d40000080040070101000701020056820100e3
:020000040000fa
:1005e400324b70b51d6806460c4625b1ab6913b98c
:1005f400284600f03dfb2e4b9c420fd16c68b4f9a9
:100604000c309ab215072cd4d00611d409223260ca
:1006140043f04003a3814ff0ff3070bd254b9c4253
:1006240001d1ac68ebe7244b9c4208bfec68e6e7d9
:10063400510712d5616b41b104f14403994202d0d0
:10064400304600f0c7f900236363a38923f0240331
:10065400a3810023636023692360a38943f0080313
:10066400a38123694bb9a38903f42073b3f5007ff5
:1006740003d02146304600f0bffaa28912f00103ec
:100684000cd00023a36063695b42a361236953b95f
:10069400b4f90c3013f08000bad170bd920758bf82
:1006a4006369a360f2e70020f7e700bf5801002068
:0c06b400b8120000d812000098120000dc
:020000040000fa
:1006c0002de9f047002000f055fe2b4800f086fe93
:1006d00020212a4800f026fc5a220021284800f058
:1006e00075fe0025244f07f11404dff8a080254e85
:1006f00020e0dff89ca00321504600f013fcdff857
:1007000080902946484600f00dfc29461e4800f01e
:1007100009fc0321504600f005fc5a2200214846fe
:1007200000f054fe03e02721404600f0fbfb33239a
:10073000013bfdd1204600f051fe00f03ffe0028b5
:10074000f5d000f025fe0028edd10121304600f063
:10075000ebfa07f1240000f041fe33780a2bc8d0f1
:100760000d2bc6d06a1c92b205494b550235adb26d
:1007700005498b54dbe700bfd80f00001c010020a7
:10078000640000201b010020c0000020f4000020b5
:0407900068010020dc
:020000040000fa
:1007940070b50e46054618b183690bb900f068fac6
:1007a400ab69ac6813b9284600f062fa284b9c4246
:1007b40022d16c68b4f90c309a0406d443f4005383
:1007c400a381236e23f400532366a3891b071dd53d
:1007d4002369dbb1013ea36816f8011f013ba36046
:1007e400e9b9002b2eda22460a21284600f036f811
:1007f400013011d00a2070bd164b9c4201d1ac6867
:10080400d8e7154b9c4208bfec68d3e7214628463d
:10081400fff7e6fe0028ddd04ff0ff3070bd002b5f
:1008240004daa269934206db0a2904d023685a1c1d
:1008340022601970cfe72246284600f00ff80130f5
:10084400c9d1e9e723680a205a1c2260187070bdd8
:0c085400b8120000d8120000981200003a
:020000040000fa
:10086000f8b50e461446054618b183690bb900f079
:1008700001fa274b9c422fd16c68a369a360a3891e
:10088000190733d52369002b30d0b4f90c30f6b2f8
:100890009a04374634d523692068c01a63699842a0
:1008a00004db2146284600f069fa28bba368013b17
:1008b000a36023685a1c22601e706369013098424d
:1008c00004d0a389db0719d50a2e17d12146284663
:1008d00000f054fa90b10fe00e4b9c4201d1ac688d
:1008e000cbe70d4b9c4208bfec68c6e72146284683
:1008f000fff778fe0028c8d04ff0ff373846f8bd24
:1009000043f40053a381236e23f400532366c2e70c
:0c091000b8120000d8120000981200007d
:020000040000fa
:10091c0070b5cd1c25f0030508350c2d38bf0c2502
:10092c00002d064601dba94203d90c2333600020bd
:10093c0070bd00f083fd234a1468214691b9224c06
:10094c0023681bb9304600f0d1fc206029463046a4
:10095c0000f0ccfc431c26d10c233360304600f055
:10096c006efde4e70b685b1b1ad40b2b0fd90b60e5
:10097c00cd50cc18304600f062fd04f10b00231d65
:10098c0020f00700c31a1bd05a42e25070bd8c42b3
:10099c000dbf63684b686360136018bf0c46e9e7d2
:1009ac000c464968cae7c41c24f00304a04205d0d5
:1009bc00211a304600f09afc0130cdd02560d9e7e1
:0c09cc0070bd00bf5c0100206001002035
:020000040000fa
:1009d80038b50546002945d051f8043c0c1f002bba
:1009e800b8bfe41800f02cfd1f4a1368104633b94d
:1009f800636014602846bde8384000f022bda34279
:100a08000cd921686218934204bf1a685b68636056
:100a180004bf521822600460ece713465a680ab112
:100a2800a242fad919685818a0420bd1206801448b
:100a3800581882421960ddd1106852685a60014422
:100a48001960d7e702d90c232b60d3e72068211857
:100a58008a4204bf11685268626004bf09182160a5
:0c0a68005c60c7e738bd00bf5c010020e7
:020000040000fa
:100a740008b51b4b98471b4b9847eff3108172b690
:100a8400194ad2f8883043f47003c2f88830bff3af
:100a94004f8fbff36f8f01b962b6144c202363608c
:100aa40000f02ef8104a124b23f07f039360114b91
:100ab4009847a36823f00103a3602346da6812f081
:100ac400010ffbd1094b5a6842f004025a6001221b
:100ad4009a60094b9847094b9847fff7effdfee7eb
:100ae400471400004714000000ed00e000600041de
:100af40000000000d10d000047140000471400005e
:020000040000fa
:100b04001c4b1d4a934230b438bf002103d203f872
:100b1400011b9342fbd1194800250168c1b9426801
:100b240032b383680c30d3b10139034613f8014b57
:100b340001f8014f1c1a9442f8d312f0030318bfb2
:100b4400012303eb920200eb820001680029e6d046
:100b5400846842680b460c303cb9002addd01a4444
:100b640003f8015b9a42fbd1d7e7002adcd1e4e722
:100b740030bc704700000020040000208402000004
:020000040000fa
:100b8400f8b51c4b1e68b369074613b9304600f02c
:100b94006ff84836b4687368013b03d5336833b1e2
:100ba4003668f7e7b4f90c506db16434f4e7042106
:100bb400384600f091fa30600028f1d10c233b60f4
:100bc40004462046f8bd4ff6ff73e3810123a38159
:100bd40025662560a560656025616561a5610822bb
:100be400294604f1580000f0effb6563a563a56492
:080bf400e564e6e714140000bb
:020000040000fa
:100bfc008b8973b59d0706460c4607d504f1470350
:100c0c00236023610123636102b070bd01ab6a46ae
:100c1c0000f020f9009905463046fff779fe38b907
:100c2c00b4f90c309a05efd443f00203a381e5e745
:100c3c000c4bb362a389206043f08003a381009b1b
:100c4c006361019b20614bb1b4f90e10304600f08a
:100c5c006dfb18b1a38943f00103a381a3891d4344
:080c6c00a581d1e7ed130000a2
:020000040000fa
:100c7400836910b5044633bb8364c3640365124bb4
:100c8400124a1b688262984204bf01238361fff702
:100c940077ff60602046fff773ffa0602046fff7f0
:100ca4006fff0022e0600421606800f0b3f80122c5
:100cb4000921a06800f0aef802221221e06800f0d9
:100cc400a9f80123a36110bd14140000ed13000062
:020000040000fa
:100cd40018b338b504460d4600f0cef9ddb1002056
:100ce4000f4a137e13f0040ffbd0538b13f0070f3e
:100cf4000cd1536803f00703012b936a1abf2370c6
:100d0400013424f8023b01308542ead1854214bf04
:100d14000020012038bd0020f8e70020704700bf04
:040d24000020014169
:020000040000fa
:100d280018b338b504460d4600f0bcf9ddb1002013
:100d38000f4a137e13f0040ffbd0538b13f0070fe9
:100d48000cd1536803f00703012b936a1abf237071
:100d5800013424f8023b01308542ead1854214bfb0
:100d68000020012038bd0020f8e70020704700bfb0
:040d78000004004330
:020000040000fa
:100d7c0038b50b6905460c46dbb118b183690bb964
:100d8c00fff772ff0c4b9c4209d16c68b4f90c3024
:100d9c007bb121462846bde83840fff71dbb074b09
:100dac009c4201d1ac68f1e7054b9c4208bfec6852
:100dbc00ece7002038bd00bfb8120000d8120000cc
:040dcc009812000079
:020000040000fa
:100dd00070b50d4e0d4ca41ba4100025a54209d1e1
:100de0000b4e0c4cfff73efaa41ba4100025a542a5
:100df00005d170bd56f8253098470135eee756f815
:100e0000253098470135f2e77002000070020000bb
:080e10007002000074020000f2
:020000040000fa
:100e1800002310b504460360436083608181036644
:100e2800c28103614361836119460822583000f08a
:100e3800c9fa054b6362054ba362054be362054b98
:100e48002462236310bd00bf35120000111000009a
:080e58008111000005140000e7
:020000040000fa
:100e600070b50e46b1f90e10002990b014461d461b
:100e700007da00232b60b3891a0610d44ff480637d
:100e80000ee001aa00f0a0f90028f2db029a02f4b9
:100e90007042a2f500535a425a412a60eee74023bd
:080ea0000020236010b070bdba
:020000040000fa
:100ea80010b5054c227832b9044b13b10448aff39e
:100eb80000800123237010bd3c01002000000000c9
:100ec8000000000008b5034b1bb103490348aff30a
:100ed800008008bd00000000400100200000000064
:020000040000fa
:100ee800b0b1b9b10c4a03e030f8023b936269b182
:100ef8000139137e13f0010ffbd0536803f0070389
:100f0800012bf1d0037893620130f0e7012070479c
:0c0f1800002070470120704700200141bc
:020000040000fa
:100f2400b0b1b9b10c4a03e030f8023b936269b145
:100f34000139137e13f0010ffbd0536803f007034c
:100f4400012bf1d0037893620130f0e70120704760
:0c0f54000020704701207047000400439b
:020000040000fa
:100f60002de9f8438046894600f14804002614b96b
:100f70003046bde8f883a5686768013f01d524685d
:100f8000f5e7ab89012b07d9b5f90e30013303d052
:0c0f900029464046c84706436435eee79a
:020000040000fa
:100f9c0070b50d46a9b114460ab1022801d92046f4
:100fac0070bd094b2bb108461146aff300802046ab
:100fbc0070bd164615f8010b00f0c8f9013ef9d1c9
:0c0fcc00ede70c46204670bd0000000060
:020000040000fa
:100fd800636f646520696e206d61696e2066756e49
:100fe80020000000636f646520696e206c6f6f706d
:100ff8002000000072656164206461746120617280
:081008006520646f6e65200095
:020000040000fa
:101010002de9f0411f468b89db0505460c46164637
:1010200005d502230022b1f90e1000f0dff8a389e4
:10103000b4f90e1023f48053a38132463b46284670
:08104000bde8f04100f0aeb87c
:020000040000fa
:101048000a4b0b4a1a604ff622029a814ff440323b
:101058005a601a46d369002bfcd1044a136843f03e
:1010680002031360d369002bfcd1704700200141b3
:04107800040110401f
:020000040000fa
:10107c000a4b5b8b13f0070f0ed0084b80221a76ad
:10108c0007225a831b7e13f0040f05d0034b9a6a78
:10109c001a7e12f0040ffad1704700bf00200141f4
:020000040000fa
:1010ac000a4b5b8b13f0070f0ed0084b80221a767d
:1010bc0007225a831b7e13f0040f05d0034b9a6a48
:1010cc001a7e12f0040ffad1704700bf00040043df
:020000040000fa
:1010dc0070b54a1e642555430e4605f17001fff7a5
:1010ec0017fc044640b1002180e842000c30a0609f
:0c10fc0005f1640200f064f9204670bdac
:020000040000fa
:10110800074a136843b10749184488429abf1060d8
:1011180018464ff0ff307047034b1360f3e700bfea
:0c11280064010020700300207001002012
:020000040000fa
:1011340070b50d4661b1164642b138b91446012066
:1011440000f098f8013c05f8010bf8d1304670bd69
:081154000e46304670bd00bfdd
:020000040000fa
:10115c00074ad36823f4e0631b041b0c43f0bf6302
:10116c0043f40033d360bff35f8f62b6704700bfa8
:04117c0000ed00e0a2
:020000040000fa
:1011800010b50c46b1f90e1000f030f8431ca389dd
:1011900015bf606523f4805343f48053a38118bfc7
:0411a000a38110bd5a
:020000040000fa
:1011a40038b5074c054608461146002222601a4607
:1011b40000f03af9431c02d1236803b12b6038bd17
:0411c4000000002007
:020000040000fa
:1011c80038b5074c0023054608461146236000f051
:1011d80021f9431c02d1236803b12b6038bd00bf3d
:0411e80000000020e3
:020000040000fa
:1011ec0038b5074c054608461146002222601a46bf
:1011fc0000f012f9431c02d1236803b12b6038bdf7
:04120c0000000020be
:020000040000fa
:1012100038b5074c054608461146002222601a469a
:1012200000f002f9431c02d1236803b12b6038bde2
:04123000000000209a
:020000040000fa
:1012340010b50c46b1f90e10fff7e8ff0028abbf5c
:10124400636da3891b1823f48053acbf6365a3812a
:0212540010bdcb
:020000040000fa
:021256007047df
:020000040000fa
:10125800064b012283f8d82083f8d920332283f85b
:10126800bc204ff48022c3f8002170470080004161
:020000040000fa
:1012780030b583b002ac002344f8043d012529466b
:101288002046fff723fd0028f9d0019803b030bdb0
:020000040000fa
:101298000000000000000000000000000000000046
:1012a8000000000000000000000000000000000036
:020000040000fa
:1012b8000000000000000000000000000000000026
:1012c8000000000000000000000000000000000016
:020000040000fa
:1012d8000000000000000000000000000000000006
:1012e80000000000000000000000000000000000f6
:020000040000fa
:1012f80038b5064c0023054608462360fff700ff73
:10130800431c02d1236803b12b6038bd00000020c4
:020000040000fa
:1013180038b5064c002305460846236000f078f8e7
:10132800431c02d1236803b12b6038bd00000020a4
:020000040000fa
:1013380038b5064c002305460846236000f06cf8d3
:10134800431c02d1236803b12b6038bd0000002084
:020000040000fa
:1013580030b583b002ac04f8010d012529462046ba
:0c136800fff7befd0028f9d003b030bd37
:020000040000fa
:1013740008b500f019f8fff76dfffff7b9f8fff7ac
:0c13840061fefff766fffff7e7fe08bd03
:020000040000fa
:1013900010b5054b588b10f0070401d1204610bd45
:0c13a000fff784fefae700bf00040043e2
:020000040000fa
:1013ac0040f20452014b1a80704700bf00400041cc
:020000040000fa
:1013bc00024b187ec0f38000704700bf000400434e
:020000040000fa
:1013cc0002440346934200d1704703f8011bf9e72e
:020000040000fa
:1013dc00024b01461868fff7d7b900bf580100202f
:020000040000fa
:0c13ec000149fff7b7bd00bf7d0d0000f8
:020000040000fa
:0c13f8004ff400534b600020704700bf12
:020000040000fa
:08140400b1f90e10fff786bfdd
:020000040000fa
:08140c004ff0ff30704700bff4
:020000040000fa
:0414140004000020b0
:020000040000fa
:04141800fff7f8bf23
:020000040000fa
:04141c00fff7ecbf2b
:020000040000fa
:0414200000f006b81a
:020000040000fa
:0414240000f006b816
:020000040000fa
:04142800fff784be88
:020000040000fa
:04142c00fff7b6bd53
:020000040000fa
:0414300001207047e0
:020000040000fa
:0414340000207047dd
:020000040000fa
:02143800fee7cd
:020000040000fa
:02143a00fee7cb
:020000040000fa
:02143c00fee7c9
:020000040000fa
:02143e00fee7c7
:020000040000fa
:02144000fee7c5
:020000040000fa
:02144200fee7c3
:020000040000fa
:02144400fee7c1
:020000040000fa
:021446007047ed
:020000040000fa
:021448007047eb
:020000040000fa
:02144a007047e9
:020000040000fa
:0200000400807a
:044000003912003c35
:020000040000fa
:0200000400807a
:044004008000a82a66
:020000040000fa
:0200000400807a
:04400800ffffffffb8
:00000001FF
