:020000040000fa
:10000000f0ff03204d14000073180000a32000002f
:10001000cb200000cd200000cf2000000000000019
:100020000000000000000000000000005f1500005c
:10003000c9200000000000005f1500005f150000ef
:100040005f1500005f1500005f1500005f150000e0
:100050005f1500005f1500005f1500005f150000d0
:100060005f1500005f1500005f150000111d000006
:100070005f1500005f1500005f1500005f150000b0
:100080005f1500005f1500005f1500005f150000a0
:100090005f1500005f1500005f1500005f15000090
:1000a0005f1500005f1500005f1500005f15000080
:1000b0005f1500005f1500005f1500005f15000070
:1000c0005f1500005f1500005f1500005f15000060
:1000d0005f1500005f1500005f1500005f15000050
:1000e0005f1500005f150000000000000000000028
:1000f000000000005f1500005f1500005f150000a4
:100100005f1500005f1500005f1500005f1500001f
:100110005f1500005f1500005f1500005f1500000f
:100120005f1500005f1500005f1500005f150000ff
:100130005f1500005f1500005f1500005f150000ef
:100140005f1500005f1500005f1500005f150000df
:100150005f1500005f1500005f1500005f150000cf
:100160005f1500005f1500005f1500005f150000bf
:100170005f1500005f1500005f1500005f150000af
:100180005f1500005f1500005f1500005f1500009f
:100190005f1500005f1500005f1500005f1500008f
:1001a0005f1500005f1500005f1500005f1500007f
:1001b0005f1500005f1500005f1500005f1500006f
:1001c0005f1500005f1500005f1500005f1500005f
:1001d0005f1500005f1500005f1500005f1500004f
:1001e0005f1500005f1500005f1500005f1500003f
:1001f0005f1500005f1500005f1500005f1500002f
:100200005f1500005f1500005f1500005f1500001e
:100210005f1500005f1500005f1500005f1500000e
:100220005f1500005f1500005f1500005f150000fe
:100230005f1500005f1500005f1500005f150000ee
:100240005f1500005f1500005f1500005f150000de
:100250005f1500005f1500005f1500005f150000ce
:040260005f15000026
:020000040000fa
:10026400f8b500bff8bc08bc9e4670477119000081
:10027400f8b500bff8bc08bc9e4670474d19000095
:020000040000fa
:10028400d40100201c00000000000000f001002048
:100294000c0000000000000000000020010000002d
:1002a40000000000fc010020040000000100000028
:1002b40074010020740100206000000001000000af
:1002c40000000000dc1e0000fc1e0000bc1e00003c
:1002d400000000000000000000000000000000001a
:1002e400000000000000000000000000000000000a
:1002f40000000000000000000000000000000000fa
:1003040000000000000000000000000000000000e9
:1003140000000000000000000000000000000000d9
:10032400000200200400000000000000040200207d
:100334000400000000000000080000206c01000020
:100344000100000043000000000000000000000065
:100354000000000000000000000000000000000099
:100364000000000043000000000000000000000046
:100374000000000000000000000000000000000079
:100384000000000043000000000000000000000026
:100394000000000000000000000000000000000059
:1003a4000000000043000000000000000000000006
:1003b4000000000000000000000000000000000039
:1003c40000000000430000000000000000000000e6
:1003d4000000000000000000000000000000000019
:1003e40000000000430000000000000000000000c6
:1003f40000000000000000000000000000000000f9
:1004040000000000430000000000000000000000a5
:1004140000000000000000000000000000000000d8
:1004240000000000d11f0000f11d000000000000ca
:10043400100d0000892000008820000088200000a2
:100444008820000088200000882000008820000008
:10045400882000008820000088200000ffffffffa4
:10046400ffffffffffffffffffff000001004153fd
:1004740043494900000000000000000000000000a3
:1004840000000000000000000000000000004153d4
:100494004349490000000000000000000000000083
:1004a4000000000000000000000000000000000048
:1004b40004000020040000000000000008020020e6
:1004c4000400000000000000000000000000000024
:020000040000fa
:1004d4002de9f04317460a7e85b06e2a98460646f3
:1004e4000c460c9b01f1430e00f0bc801ad8632a21
:1004f4002ed00ad8002a00f0c880582a00f08a803a
:1005040004f1420584f842202ae0642a01d0692ad1
:10051400f6d121681a6811f0800f23d0111d1960db
:10052400136827e0732a00f0b48008d86f2a2ad011
:10053400702ae5d10a6842f020020a6003e0752ab5
:1005440021d0782adcd1782284f845206e4964e0f1
:100554001a6801f14205111d1960136884f84230cc
:100564000123a3e011f0400f02f104011960d7d078
:10057400b2f90030002b03da2d225b4284f84320c9
:1005840062490a2217e02068196810f0800f03d02e
:10059400081d18600b6806e010f0400f01f104001c
:1005a4001860f7d00b8859496f2a14bf0a22082211
:1005b400002084f843006568a560002dc0f29c808b
:1005c400206820f004002060002b3fd1002d40f073
:1005d40095807546082a0bd12368da0708d5236964
:1005e40062689a42debf302305f8013c05f1ff350d
:1005f400aeeb05032361cdf800803b4603aa2146f8
:10060400304600f004fc013055d14ff0ff3005b006
:10061400bde8f08381f845203c492268186812f04f
:10062400800f00f104051d6001d0036802e0550647
:10063400fbd50388d00744bf42f0200222601bb9d7
:10064400226822f0200222601022b1e77546b3fb33
:10065400f2f002fb1033cb5c05f8013d03460028a1
:10066400f5d1b7e708681a68496910f0800f04d01b
:10067400101d18601368196007e010f0400f02f1b4
:10068400040018601368f6d01980002323617546ae
:10069400b1e71a68111d19601568626800212846bf
:1006a40000f034fe08b1401b6060636823610023de
:1006b40084f843309fe723692a4639463046c047c9
:1006c4000130a2d023689b0707d5002504f119093e
:1006d400e368039a9b1a9d4205dbe068039b9842fa
:1006e400b8bf184693e701234a4639463046c04707
:1006f40001308ad00135ebe7002ba7d10b7884f8c1
:10070400423004f1420565e76b1e00005a1e0000ea
:020000040000fa
:100714002de9f04f9db00d4692460393074618b15c
:1007240083690bb900f0d2ff6f4b9d4256d17d68af
:10073400ab891c075cd52b69002b59d00023099386
:1007440020238df82930dff8a48130238df82a3056
:100754004ff001095446264616f8013b002b52d1ae
:10076400b4eb0a0b0bd05b4652462946384601f0df
:1007740059f8013000f0b380099b5b440993237856
:10078400002b00f0ac8000234ff0ff32049307935a
:10079400059206938df853301a9305223178534805
:1007a40000f0b4fd741c049b002830d1d80644bf6b
:1007b40020228df85320190744bf2b228df8532093
:1007c40032782a2a2bd0079a00210a20344601368f
:1007d4002378303b092b68d971b326e0444b9d4202
:1007e40001d1bd68a4e7434b9d4208bffd689fe764
:1007f4002946384600f0f4fb00289fd04ff0ff3024
:100804001db0bde8f08f252baad03446a3e7a0eb9a
:10081400080009fa00f0184304902646bde7039a3d
:10082400111d12680391002a01db079204e0524271
:1008340043f002030792049323782e2b0ed163789e
:100844002a2b04f1010134d1039b1a1d1b68039266
:10085400002bb8bf4ff0ff3302340593264e2178a6
:100864000322304600f052fd38b14023801b03fac6
:1008740000f0049b03430493013421781f488df84e
:100884002810062200f042fd03ab009304f1010a94
:100894001b4b2a4604a9f0b1384601f0fdfb421c6b
:1008a4001dd0099b0344099354e700fb0232012144
:1008b4008ce70023059318460a260c46013122785a
:1008c400303a092a03d9002bc8d00590c6e706fba5
:1008d40000200123f1e73846fff7fafddfe7ab8993
:1008e4005b068bd409988be7dc1e0000ea1f00002e
:1008f400fc1e0000bc1e0000f01f0000f41f0000de
:0409040029180000ae
:020000040000fa
:100908000a0d2d2d2d2d2d2d2d2d2d2d2d2d2d2d52
:100918002d2d2d2d2d2d2d2d2d2d2d2d2d2d2d2dff
:100928002d2d2d2d2d2d2d2d2d2d2d2d2d2d2d2def
:100938002d2d2d2d2d2d2d2d2d2d2d000a0d202069
:10094800202020202020202020202020202020209f
:1009580020205254432054616d7065722044656da7
:100968006f20202020202020202020202020202030
:10097800202000000a0d2d2d2d2d2d2d2d2d2d2d56
:100988002d2d2d2d2d2d2d2d2d2d2d2d2d2d2d2d8f
:100998002d2d2d2d2d2d2d2d2d2d2d2d2d2d2d2d7f
:1009a8002d2d2d2d2d2d2d2d2d2d2d2d2d2d2d0a92
:1009b8000d0000000a0d4261636b75702072656757
:1009c8002076616c756520697320307825582c0d68
:1009d8000a00000053797374656d2074696d652091
:1009e80069733a202020253032643a253032643a3f
:1009f800253032640d0000000a0d54616d70657277
:100a080020446574656374656420212121212026b2
:100a18002000000054616d70657265642074696d12
:100a2800652069733a202020253032643a25303217
:100a3800643a2530326400000a0d4261636b7570b8
:100a480020726567206973206175746f2d65726106
:100a58007365642061667465722074616d70657277
:100a680020262076616c7565206973202578200d15
:100a78000a0000004261636b75702072656720761a
:100a8800616c75652072656c6f6164656420746f54
:0c0a980020307825582c0a0d000000bf0b
:020000040000fa
:100aa4002de9f7431d46514b1e6804460f469046f8
:100ab40026b1b36913b9304600f008fe4c4b9c4292
:100ac40052d17468b8f1020f06d0b8f1010f00f2e8
:100ad4008980002dc0f286802146304600f050fe09
:100ae400616b41b104f14403994202d0304600f0f5
:100af4005dfc002363630023a3616360a3891b0679
:100b040003d52169304600f051fca38923f44a63dc
:100b140023f00303b8f1020fa3815dd001ab6a4651
:100b24002146304600f0ecfea3891843a0812dbb7a
:100b3400009d284601f080fa074600284ed1ddf8d2
:100b44000090a9453cd14ff0ff30a38943f0020344
:100b5400a3810023a36004f14703236023610123dd
:100b6400636103b0bde8f083224b9c4201d1b468b9
:100b7400a8e7214b9c4208bff468a3e7002fd8d014
:100b8400b36913b9304600f0a1fdb8f1010f08bff5
:100b9400a389276004bf43f00103a381a3892761cc
:100ba40013f0080065611bd013f0010018bf6d42fb
:100bb4004ff000031dbfa360a5611846a560d0e7f0
:100bc400484601f039fa07460028bcd0a38943f00f
:100bd4008003a3814d46d3e70020b6e7a946f5e795
:100be400a060bee74ff0ff30bbe700bffc01002070
:0c0bf400dc1e0000fc1e0000bc1e000007
:020000040000fa
:100c00008a892de9f041054610070c465ad44b68f5
:100c1000002b05dc0b6c002b02dc0020bde8f08112
:100c2000e66a002ef9d0002312f480522f682b6060
:100c300033d0606da3895a0705d56368c01a636b0a
:100c40000bb1236cc01a00230246e66a216a2846cb
:100c5000b047431ca38906d129681d294bd82b4acc
:100c6000ca40d60747d500226260d90422692260b3
:100c700004d5421c01d12b6803b96065616b2f60fc
:100c80000029cad004f14403994202d0284600f05a
:100c90008ffb00206063bde8f081216a01232846b4
:100ca000b047411cc6d12b68002bc3d01d2b01d0ef
:100cb000162b01d12f60b0e7a38943f04003a38135
:100cc000bde8f0810f69002fa7d093070e6808bf19
:100cd0004b690f6018bf0023a6eb07088b60b8f1c3
:100ce000000f9add43463a46216aa66a2846b04775
:100cf000002807dca38943f04003a3814ff0ff30b5
:100d0000bde8f0810744a8eb0008e8e701004020b7
:020000040000fa
:100d100000202020202020202020282828282820cb
:100d200020202020202020202020202020202020c3
:100d3000208810101010101010101010101010102b
:100d4000100404040404040404040410101010101b
:100d500010104141414141410101010101010101e5
:100d60000101010101010101010101011010101037
:100d700010104242424242420202020202020202b7
:100d8000020202020202020202020202101010100b
:100d90002000000000000000000000000000000033
:100da0000000000000000000000000000000000043
:100db0000000000000000000000000000000000033
:100dc0000000000000000000000000000000000023
:100dd0000000000000000000000000000000000013
:100de0000000000000000000000000000000000003
:100df00000000000000000000000000000000000f3
:100e000000000000000000000000000000000000e2
:010e100000e1
:020000040000fa
:100e12002de9f04791461f468a680b69ddf820806c
:100e22009342b8bf1346c9f8003091f843200646f2
:100e32000c4612b10133c9f800302368990642bf4b
:100e4200d9f800300233c9f80030256815f00605dc
:100e520007d104f1190ae368d9f800209b1a9d42d0
:100e620029db94f843302268003318bf012392062d
:100e72002ed404f1430239463046c047013021d016
:100e82002368e568d9f8002003f00603042b08bfa5
:100e9200ad1aa36822690cbf25eae57500259342c5
:100ea200c4bf9b1aed184ff000091a344d451bd1ef
:100eb2000020bde8f0870123524639463046c0473c
:100ec200013003d14ff0ff30bde8f0870135c2e7b2
:100ed200e1185a1c302081f84300224494f845104e
:100ee20082f843100233c4e70123224639463046d2
:0c0ef200c0470130e6d009f10109d7e744
:020000040000fa
:020efe0070473b
:020000040000fa
:100f0000f0b593b0002000f07dfd0024314b1c7043
:100f10000c230b9309940a940d9476230e930f23bc
:100f20000c9301230f932c4d284600f095fe05f1fc
:100f30003c0000f091fe05f1740000f08dfe2146aa
:100f4000264801f08bf809a800f0d2fd244920467c
:100f500001f05cf8204601f061f8014605f1b400ab
:100f600000f07afe2e46d4351a4c002709a800f06e
:100f70000dfd099b0a9a0b99284600f06dfe237817
:100f8000002bf3d0684600f01ffe06f1f80000f0d9
:100f900063fe009b019a029906f58a7000f05cfee0
:100fa000384601f03bf8014606f59c7000f054fe0f
:100fb0000b49384601f02af8384601f02ff801466f
:100fc00006f5ba7000f048fe06f1740000f044fe29
:100fd0002770cbe70000002008090000291c000052
:040fe00055aa55aa0f
:020000040000fa
:100fe400324b70b51d6806460c4625b1ab6913b982
:100ff400284600f06bfb2e4b9c420fd16c68b4f971
:101004000c309ab215072cd4d00611d409223260c0
:1010140043f04003a3814ff0ff3070bd254b9c4249
:1010240001d1ac68ebe7244b9c4208bfec68e6e7cf
:10103400510712d5616b41b104f14403994202d0c6
:10104400304600f0b3f900236363a38923f024033b
:10105400a3810023636023692360a38943f0080309
:10106400a38123694bb9a38903f42073b3f5007feb
:1010740003d02146304600f0edfaa28912f00103b4
:101084000cd00023a36063695b42a361236953b955
:10109400b4f90c3013f08000bad170bd920758bf78
:1010a4006369a360f2e70020f7e700bffc010020ba
:0c10b400dc1e0000fc1e0000bc1e000042
:020000040000fa
:1010c00000222d4b1a742d4a03f500639a621a46ca
:1010d000536813f0100ffbd14222294bc3f8842030
:1010e0001a46d2f8843013f0400ffad0254b002274
:1010f0009a6377225a631a46d36b13f0040ffbd11d
:101100000222204b83f830201a46d36b13f0020fd3
:10111000fbd11c4a136c03f00303032bfad1012209
:10112000194b5a711a46d37813f0010ffbd0174aa6
:10113000134b1a621a46536813f0040ffbd1144a7a
:101140000f4b5a621a46536813f0080ffbd1412225
:101150000b4bc3f8dc201a46d2f8dc3013f0400ffa
:10116000fad0094b6ff07f421a6140f2ff725a6168
:10117000084a9a61704700bf001400400601300021
:10118000001c004000100040000800400701010062
:08119000070102005682010074
:020000040000fa
:1011980070b5cd1c25f0030508350c2d38bf0c257e
:1011a800002d064601dba94203d90c233360002039
:1011b80070bd00f08aff234a1468214691b9224c79
:1011c80023681bb9304600f0a5fe2060294630464a
:1011d80000f0a0fe431c26d10c233360304600f0fb
:1011e80075ffe4e70b685b1b1ad40b2b0fd90b6058
:1011f800cd50cc18304600f069ff04f10b00231dd8
:1012080020f00700c31a1bd05a42e25070bd8c422e
:101218000dbf63684b686360136018bf0c46e9e74d
:101228000c464968cae7c41c24f00304a04205d050
:10123800211a304600f06efe0130cdd02560d9e786
:0c12480070bd00bf000200200402002066
:020000040000fa
:10125400f8b50e461446054618b183690bb900f07b
:1012640035fa274b9c422fd16c68a369a360a389ec
:10127400190733d52369002b30d0b4f90c30f6b2fa
:101284009a04374634d523692068c01a63699842a2
:1012940004db2146284600f073fa28bba368013b0f
:1012a400a36023685a1c22601e706369013098424f
:1012b40004d0a389db0719d50a2e17d12146284665
:1012c40000f05efa90b10fe00e4b9c4201d1ac6885
:1012d400cbe70d4b9c4208bfec68c6e72146284685
:1012e400fff77efe0028c8d04ff0ff373846f8bd20
:1012f40043f40053a381236e23f400532366c2e70f
:0c130400dc1e0000fc1e0000bc1e0000ef
:020000040000fa
:1013100001f0ff01102a2bdb10f0070f08d010f8a6
:10132000013b013a8b422dd010f0070f42b3f6d1aa
:10133000f0b441ea012141ea014122f007047ff0c3
:1013400000070023f0e80256083c85ea010586ea1a
:10135000010685fa47f5a3fa87f586fa47f6a5fa56
:1013600087f68eb9eed1f0bc01f0ff0102f0070262
:1013700032b110f8013b013a83ea010313b1f8d10d
:101380000020704701387047002d06bf35460338ee
:10139000073815f0010f07d1013015f4807f02bf27
:1013a000013015f4c03f0130f0bc0138704700bf78
:020000040000fa
:1013b00038b50546002945d051f8043c0c1f002bd8
:1013c000b8bfe41800f085fe1f4a1368104633b911
:1013d000636014602846bde8384000f07bbea3423d
:1013e0000cd921686218934204bf1a685b68636075
:1013f00004bf521822600460ece713465a680ab131
:10140000a242fad919685818a0420bd120680144a9
:10141000581882421960ddd1106852685a60014440
:101420001960d7e702d90c232b60d3e72068211875
:101430008a4204bf11685268626004bf09182160c3
:0c1440005c60c7e738bd00bf0002002060
:020000040000fa
:10144c0008b51b4b98471b4b9847eff3108172b6ae
:10145c00194ad2f8883043f47003c2f88830bff3cd
:10146c004f8fbff36f8f01b962b6144c20236360aa
:10147c0000f070f8104a124b23f07f039360114b6d
:10148c009847a36823f00103a3602346da6812f09f
:10149c00010ffbd1094b5a6842f004025a60012239
:1014ac009a60094b9847094b9847fff723fdfee7d5
:1014bc00d1200000d120000000ed00e000600041d0
:1014cc000000000075180000d1200000d1200000a1
:020000040000fa
:1014dc002de9f74380460e46144600f065fd0128c1
:1014ec001cd1731efe2b19d88df8046005460027fd
:1014fc000df10409af4220d0a36817f80910013b85
:10150c00002ba36004daa26993421adb0a2918d0d3
:10151c0023685a1c226019700137ebe7324604f13c
:10152c00580301a9404600f051f9421c0546ded192
:10153c00a38943f04003a3810646304603b0bde8bf
:10154c00f08322464046fff77ffe431ce4d106465b
:02155c00f3e7b3
:020000040000fa
:02155e00fee7a6
:020000040000fa
:101560001c4b1d4a934230b438bf002103d203f80c
:10157000011b9342fbd1194800250168c1b942689b
:1015800032b383680c30d3b10139034613f8014bf1
:1015900001f8014f1c1a9442f8d312f0030318bf4c
:1015a000012303eb920200eb820001680029e6d0e0
:1015b000846842680b460c303cb9002addd01a44de
:1015c00003f8015b9a42fbd1d7e7002adcd1e4e7bc
:1015d00030bc70470000002008000020840200009a
:020000040000fa
:1015e000f8b51c4b1e68b369074613b9304600f0c6
:1015f0006ff84836b4687368013b03d5336833b17c
:101600003668f7e7b4f90c506db16434f4e704219f
:10161000384600f051fb30600028f1d10c233b60cc
:1016200004462046f8bd4ff6ff73e3810123a381f2
:1016300025662560a560656025616561a561082254
:10164000294604f1580000f001fd6563a563a56417
:08165000e564e6e7a4200000b8
:020000040000fa
:101658008b8973b59d0706460c4607d504f14703e9
:10166800236023610123636102b070bd01ab6a4648
:1016780000f044f9009905463046fff789fd38b96e
:10168800b4f90c309a05efd443f00203a381e5e7df
:101698000c4bb362a389206043f08003a381009bb5
:1016a8006361019b20614bb1b4f90e10304600f024
:1016b80051fc18b1a38943f00103a381a3891d43f9
:0816c800a581d1e769200000b3
:020000040000fa
:1016d000836910b5044633bb8364c3640365124b4e
:1016e000124a1b688262984204bf01238361fff79c
:1016f00077ff60602046fff773ffa0602046fff78a
:101700006fff0022e0600421606800f0d7f801223a
:101710000921a06800f0d2f802221221e06800f04e
:10172000cdf80123a36110bda420000069200000b2
:020000040000fa
:1017300018b338b504460d4600f05efaddb100205e
:101740000f4a137e13f0040ffbd0538b13f0070fd7
:101750000cd1536803f00703012b936a1abf23705f
:10176000013424f8023b01308542ead1854214bf9e
:101770000020012038bd0020f8e70020704700bf9e
:041780000020014103
:020000040000fa
:1017840038b50b6905460c46dbb118b183690bb952
:10179400fff79cff0c4b9c4209d16c68b4f90c30e8
:1017a4007bb121462846bde83840fff727ba074bee
:1017b4009c4201d1ac68f1e7054b9c4208bfec6840
:1017c400ece7002038bd00bfdc1e0000fc1e00005a
:0417d400bc1e000037
:020000040000fa
:1017d800f0b5054685b01e460f460f4c91b92268f4
:1017e8000e49126a002a08bf0a4601a9d2f8e04049
:1017f8003a46a047431c01bf002333608a232b606d
:1018080005b0f0bd2468054f246a002c08bf3c468b
:10181800d4f8e040ede700bffc01002008000020fc
:020000040000fa
:10182800f8b50e46096e14468a0407460bd4e51827
:10183800ac420dd0324614f8011b384600f020faad
:101848000130f5d10ee023f00303e518ac4201d1d5
:101858000020f8bd324654f8041b384600f098fbc7
:0a1868000130f3d14ff0ff30f8bd5e
:020000040000fa
:02187200fee78f
:020000040000fa
:1018740070b50d4e0d4ca41ba4100025a54209d132
:101884000b4e0c4cfef7ecfca41ba4100025a54247
:1018940005d170bd56f8253098470135eee756f866
:1018a400253098470135f2e770020000700200000d
:0818b400700200007402000044
:020000040000fa
:1018bc00002310b504460360436083608181036696
:1018cc00c28103614361836119460822583000f0dc
:1018dc00b7fb054b6362054ba362054be362054bfb
:1018ec002462236310bd00bf391e0000291b0000b9
:0818fc00611d00008d200000b9
:020000040000fa
:1019040070b50e46b1f90e10002990b014461d466c
:1019140007da00232b60b3891a0610d44ff48063ce
:101924000ee001aa00f03efa0028f2db029a02f46b
:101934007042a2f500535a425a412a60eee740230e
:081944000020236010b070bd0b
:020000040000fa
:10194c0010b5054c227832b9044b13b10448aff3ef
:10195c0000800123237010bdd40100200000000082
:10196c000000000008b5034b1bb103490348aff35b
:10197c00008008bd00000000d8010020000000001d
:020000040000fa
:10198c000d4a136913f4004ffbd10b4b9b69c3f346
:10199c0004328260c3f38512426003f03f0202609e
:1019ac00c3f38352013a02619a0e74324261c3f35b
:0c19bc004443c360704700bf002400409b
:020000040000fa
:1019c800b0b1b9b10c4a03e030f8023b936269b197
:1019d8000139137e13f0010ffbd0536803f007039e
:1019e800012bf1d0037893620130f0e701207047b2
:0c19f800002070470120704700200141d2
:020000040000fa
:101a040010b500f0f9fa0c4c23680021586800f076
:101a14000bfb23680021986800f006fb00f02cfa09
:101a2400fff74cfb00f0b4f8fff767fa00f042f858
:0c1a340000f094f810bd00bffc01002081
:020000040000fa
:101a40002de9f8438046894600f14804002614b980
:101a50003046bde8f883a5686768013f01d5246872
:101a6000f5e7ab89012b07d9b5f90e30013303d067
:0c1a700029464046c84706436435eee7af
:020000040000fa
:101a7c0070b50d46a9b114460ab1022801d9204609
:101a8c0070bd094b2bb108461146aff300802046c0
:101a9c0070bd164615f8010b00f06afa013ef9d13b
:0c1aac00ede70c46204670bd0000000075
:020000040000fa
:101ab8000c4a13889bb243f001031380136913f097
:101ac800010ffbd1074b02221a664af60a321a8026
:101ad8001a46136913f0020ffbd14ff48042014bf1
:081ae8005a8170470024004000
:020000040000fa
:101af000c26883681b0343ea424302681343426897
:101b000043ea82134269743a43ea8263026901320a
:101b100043ea8253034a9361136913f0080ffbd120
:081b2000012070470024004081
:020000040000fa
:101b28002de9f0411f468b89db0505460c46164614
:101b380005d502230022b1f90e1000f043f9a3895c
:101b4800b4f90e1023f48053a38132463b4628464d
:081b5800bde8f04100f012b9f4
:020000040000fa
:101b60000a4ad36823f4e0631b041b0c43f0bf63f1
:101b700043f40033d360bff35f8f62b6044be022bf
:101b800083f80b234ff400621a60704700ed00e009
:041b900000e100e090
:020000040000fa
:101b94000a4b0b4a1a604ff622029a814ff44032e4
:101ba4005a601a46d369002bfcd1044a136843f0e7
:101bb40002031360d369002bfcd17047002001415c
:041bc40004011040c8
:020000040000fa
:101bc8000a4b5b6ec3f304328260c3f38512426032
:101bd80003f03f020260c3f38352013a02619a0e96
:101be80074324261c3f34443c36070470024004029
:020000040000fa
:101bf8000a4b5b8b13f0070f0ed0084b80221a7626
:101c080007225a831b7e13f0040f05d0034b9a6af0
:101c18001a7e12f0040ffad1704700bf002001416c
:020000040000fa
:101c280010f4804f0ad00122054b1a70054a064b62
:101c38009a664ff48022054bc3f81c21704700bff9
:101c4800000000201f0000800024004000800041a8
:020000040000fa
:101c58000fb40a4b13b51c6824b1a36913b9204605
:101c6800fff732fd05ab049aa16801932046fef701
:101c78004dfd02b0bde8104004b07047fc010020e3
:020000040000fa
:101c88009368013b002b10b4936009da9469a3426e
:101c980002dbcbb20a2b03d15df8044bfff7d6baaf
:101ca8001368581c10601970c8b25df8044b70476f
:020000040000fa
:101cb80070b54a1e642555430e4605f17001fff7bd
:101cc80067fa044640b1002180e842000c30a06069
:0c1cd80005f1640200f0b6f9204670bd72
:020000040000fa
:101ce400074a136843b10749184488429abf1060f1
:101cf40018464ff0ff307047034b1360f3e700bf03
:0c1d040008020020100400201002002043
:020000040000fa
:101d100008b5074a908980b2064b18604cf2ff3133
:101d200091815b6813b1034a9168984708bd00bf71
:081d300000240040f001002036
:020000040000fa
:101d380070b50d4661b1164642b138b91446012056
:101d480000f0a8f8013c05f8010bf8d1304670bd49
:081d58000e46304670bd00bfcd
:020000040000fa
:101d600010b50c46b1f90e1000f030f8431ca389f1
:101d700015bf606523f4805343f48053a38118bfdb
:041d8000a38110bd6e
:020000040000fa
:101d840038b5074c054608461146002222601a461b
:101d940000f092f9431c02d1236803b12b6038bdd3
:041da4000400002017
:020000040000fa
:101da80038b5074c0023054608461146236000f065
:101db80079f9431c02d1236803b12b6038bd00bff9
:041dc80004000020f3
:020000040000fa
:101dcc0038b5074c054608461146002222601a46d3
:101ddc0000f06af9431c02d1236803b12b6038bdb3
:041dec0004000020cf
:020000040000fa
:101df00082b001b901a942b14bb113780b601278de
:101e0000101c18bf012002b070471046fbe76ff0ae
:041e10000100f8e7ee
:020000040000fa
:101e140038b5074c054608461146002222601a468a
:101e240000f048f9431c02d1236803b12b6038bd8c
:041e34000400002086
:020000040000fa
:101e380010b50c46b1f90e10fff7e8ff0028abbf4c
:101e4800636da3891b1823f48053acbf6365a3811a
:021e580010bdbb
:020000040000fa
:101e5a0030313233343536373839414243444546d6
:101e6a00003031323334353637383961626364656c
:021e7a00660000
:020000040000fa
:101e7c00064b012283f8d82083f8d920332283f82b
:101e8c00bc204ff48022c3f8002170470080004131
:020000040000fa
:101e9c0030b583b002ac002344f8043d012529463b
:101eac002046fff73ffc0028f9d0019803b030bd65
:020000040000fa
:101ebc000000000000000000000000000000000016
:101ecc000000000000000000000000000000000006
:020000040000fa
:101edc0000000000000000000000000000000000f6
:101eec0000000000000000000000000000000000e6
:020000040000fa
:101efc0000000000000000000000000000000000d6
:101f0c0000000000000000000000000000000000c5
:020000040000fa
:101f1c0038b5064c0023054608462360fff7dcfe67
:101f2c00431c02d1236803b12b6038bd0400002090
:020000040000fa
:101f3c0038b5064c002305460846236000f0aef881
:101f4c00431c02d1236803b12b6038bd0400002070
:020000040000fa
:101f5c0038b5064c002305460846236000f0a2f86d
:101f6c00431c02d1236803b12b6038bd0400002050
:020000040000fa
:101f7c0030b583b002ac04f8010d0125294620468a
:0c1f8c00fff71cfd0028f9d003b030bda9
:020000040000fa
:101f9800b2f90c3013f4005f06d143f40053938177
:0c1fa800136e43f400531366fff794ba65
:020000040000fa
:101fb400044b054a1b681b6a002b08bf134693f8a1
:0c1fc40028017047fc01002008000020ec
:020000040000fa
:101fd00049b1ff2a85bf8a2303600a704ff0ff30a2
:0a1fe00098bf0120704708467047c3
:020000040000fa
:101fea00232d302b2000686c4c00656667454647f8
:011ffa0000e6
:020000040000fa
:101ffc0040f20452014b1a80704700bf0040004170
:020000040000fa
:10200c002030024b43f82010704700bf00240040e2
:020000040000fa
:10201c002030024b53f82000704700bf00240040d2
:020000040000fa
:10202c0000294ff480630cbf02220022fef734bd5e
:020000040000fa
:10203c00024b01461868fff7a9b800bffc0100204d
:020000040000fa
:10204c0002440346934200d1704703f8011bf9e7a1
:020000040000fa
:0c205c00014b586099607047f0010020b3
:020000040000fa
:0c2068000149fff7e9bc00bf851700002c
:020000040000fa
:0c2074004ff400534b600020704700bf89
:020000040000fa
:0b2080004300504f53495800002e0051
:020000040000fa
:08208c00b1f90e10fff754bf7b
:020000040000fa
:082094004ff0ff30704700bf60
:020000040000fa
:06209c004ff0ff30704719
:020000040000fa
:0220a200fee757
:020000040000fa
:0420a40074010020a3
:020000040000fa
:0420a800fff7f4bf8b
:020000040000fa
:0420ac00fff7e2bf99
:020000040000fa
:0420b00000f006b87e
:020000040000fa
:0420b40000f006b87a
:020000040000fa
:0420b800fff73ebe32
:020000040000fa
:0420bc00fff7debc90
:020000040000fa
:0420c0000120704744
:020000040000fa
:0420c4000020704741
:020000040000fa
:0220c800fee731
:020000040000fa
:0220ca00fee72f
:020000040000fa
:0220cc00fee72d
:020000040000fa
:0220ce00fee72b
:020000040000fa
:0220d000704757
:020000040000fa
:0220d200704755
:020000040000fa
:0220d400704753
:020000040000fa
:0200000400807a
:044000003912003c35
:020000040000fa
:0200000400807a
:044004008000a82a66
:020000040000fa
:0200000400807a
:04400800ffffffffb8
:00000001FF
