:020000040000fa
:10000000f8ff03204103000035060000370600001a
:100010003b0600003d0600003f0600000000000017
:100020000000000000000000000000003306000097
:100030003906000000000000330600009d050000a6
:1000400033060000330600003306000033060000cc
:1000500033060000330600003306000033060000bc
:1000600033060000330600003306000033060000ac
:10007000330600003306000033060000330600009c
:10008000330600003306000033060000330600008c
:10009000330600003306000033060000330600007c
:1000a000330600003306000033060000330600006c
:1000b000330600003306000033060000330600005c
:1000c000330600003306000033060000330600004c
:1000d000330600003306000033060000330600003c
:1000e000330600003306000000000000000000009e
:1000f0000000000033060000330600003306000055
:10010000330600003306000033060000330600000b
:1001100033060000330600003306000033060000fb
:1001200033060000330600003306000033060000eb
:1001300033060000330600003306000033060000db
:1001400033060000330600003306000033060000cb
:1001500033060000330600003306000033060000bb
:1001600033060000330600003306000033060000ab
:10017000330600003306000033060000330600009b
:10018000330600003306000033060000330600008b
:10019000330600003306000033060000330600007b
:1001a000330600003306000033060000330600006b
:1001b000330600003306000033060000330600005b
:1001c000330600003306000033060000330600004b
:1001d000330600003306000033060000330600003b
:1001e000330600003306000033060000330600002b
:1001f000330600003306000033060000330600001b
:10020000330600003306000033060000330600000a
:1002100033060000330600003306000033060000fa
:1002200033060000330600003306000033060000ea
:1002300033060000330600003306000033060000da
:1002400033060000330600003306000033060000ca
:1002500033060000330600003306000033060000ba
:040260003306000061
:020000040000fa
:10026400f8b500bff8bc08bc9e4670470105000005
:10027400f8b500bff8bc08bc9e467047dd0400001a
:020000040000fa
:100284000022274b1a74274a03f500639a621a4620
:10029400536813f0100ffbd14222234bc3f8842080
:1002a4001a46d2f8843013f0400ffad01f4b0022c4
:1002b4009a6377225a631a46d36b13f0040ffbd167
:1002c40002221a4b83f830201a46d36b13f0020f24
:1002d400fbd1164a136c03f00303032bfad101225a
:1002e400134b5a711a46d37813f0010ffbd0114afd
:1002f4000d4b1a621a46536813f0040ffbd10e4ad1
:10030400094b5a621a46536813f0080ffbd1084b85
:100314006ff07f421a6140f2ff725a61704700bf6a
:100324000014004006013000001c00400010004092
:0c03340000080040070101000701020062
:020000040000fa
:1003400008b51b4b98471b4b9847eff3108172b6cb
:10035000194ad2f8883043f47003c2f88830bff3ea
:100360004f8fbff36f8f01b962b6144c20236360c7
:1003700000f02ef8104a124b23f07f039360114bcc
:100380009847a36823f00103a3602346da6812f0bc
:10039000010ffbd1094b5a6842f004025a60012256
:1003a0009a60094b9847094b984700f0b7f8fee769
:1003b000410600004106000000ed00e00060004141
:1003c000000000005104000041060000410600004a
:020000040000fa
:1003d0001c4b1d4a934230b438bf002103d203f8ae
:1003e000011b9342fbd1194800250168c1b942683d
:1003f00032b383680c30d3b10139034613f8014b93
:1004000001f8014f1c1a9442f8d312f0030318bfed
:10041000012303eb920200eb820001680029e6d081
:10042000846842680b460c303cb9002addd01a447f
:1004300003f8015b9a42fbd1d7e7002adcd1e4e75d
:1004400030bc70470000002000000020c005000004
:020000040000fa
:1004500070b50d4e0d4ca41ba4100025a54209d16a
:100460000b4e0c4cfff7fefea41ba4100025a5426a
:1004700005d170bd56f8253098470135eee756f89e
:10048000253098470135f2e7700200007002000045
:0804900070020000740200007c
:020000040000fa
:100498000d4b1b6803f00303032b00d0704710b407
:1004a8000a4b9c684ff47a7202fb00f25209084b1f
:1004b800a3fb0232d20905498b681b1b9a42fbd861
:1004c8005df8044beae700bf10e000e01c000020e4
:0404d800c55a7c0a7b
:020000040000fa
:1004dc0010b5054c227832b9044b13b10448aff374
:1004ec0000800123237010bd0000002000000000dc
:1004fc000000000008b5034b1bb103490348aff3e0
:10050c00008008bd00000000040000200000000076
:020000040000fa
:10051c0008b5002000f05ef800f06af8084c094eaf
:10052c004ff480252046fff7b1ffc6f8185120463e
:10053c00fff7acffc6f814512046fff7a7fff1e711
:08054c00905f010000800041f6
:020000040000fa
:10055400074ad36823f4e0631b041b0c43f0bf6316
:1005640043f40033d360bff35f8f62b6704700bfbc
:0405740000ed00e0b6
:020000040000fa
:10057800054a002313609360044951600621116005
:10058800034a93601360704710e000e0ff1ab70059
:040598001c00002023
:020000040000fa
:10059c0008b5064b1b68064b9a6801329a601b68bb
:1005ac0013b1034a5068984708bd00bf10e000e043
:0405bc001c000020ff
:020000040000fa
:1005c000000000201c000000000000001c000020b3
:1005d0000c0000000000000000000000000000000f
:020000040000fa
:1005e00008b500f015f800f01bf8fff74bfe00f01f
:0c05f0001ff8fff7c1fffff7adff08bdcb
:020000040000fa
:1005fc00034b00229a601a6842f001021a6070479d
:04060c0010e000e01a
:020000040000fa
:1006100040f20452014b1a80704700bf0040004175
:020000040000fa
:100620004ff48022014bc3f8002170470080004145
:020000040000fa
:02063000704711
:020000040000fa
:02063200fee7e1
:020000040000fa
:02063400fee7df
:020000040000fa
:02063600fee7dd
:020000040000fa
:02063800fee7db
:020000040000fa
:02063a00fee7d9
:020000040000fa
:02063c00fee7d7
:020000040000fa
:02063e00fee7d5
:020000040000fa
:02064000704701
:020000040000fa
:0200000400807a
:044000003912003c35
:020000040000fa
:0200000400807a
:044004008000a82a66
:020000040000fa
:0200000400807a
:04400800ffffffffb8
:00000001FF
