:020000040000fa
:10000000f8ff0320a5150000df240000cb25000029
:10001000f3250000f5250000f72500000000000092
:10002000000000000000000000000000a324000009
:10003000f125000000000000a3240000a32400001c
:10004000a3240000a3240000a3240000a324000094
:10005000a3240000a3240000a3240000a324000084
:10006000a3240000a3240000a3240000a324000074
:10007000a3240000a3240000a3240000a324000064
:10008000a3240000a3240000a3240000a324000054
:10009000a3240000a3240000a3240000a324000044
:1000a000a3240000a3240000a3240000a324000034
:1000b000a3240000a3240000a3240000a324000024
:1000c000a3240000a3240000a3240000a324000014
:1000d000a3240000a3240000a3240000a324000004
:1000e000a3240000a3240000000000000000000082
:1000f00000000000a3240000a3240000a3240000ab
:10010000a3240000a3240000a3240000a3240000d3
:10011000a3240000a3240000a3240000a3240000c3
:10012000a3240000a3240000a3240000a3240000b3
:10013000a3240000a3240000a3240000a3240000a3
:10014000a3240000a3240000a3240000a324000093
:10015000a3240000a3240000a3240000a324000083
:10016000a3240000a3240000a3240000a324000073
:10017000a3240000a3240000a3240000a324000063
:10018000a3240000a3240000a3240000a324000053
:10019000a3240000a3240000a3240000a324000043
:1001a000a3240000a3240000a3240000a324000033
:1001b000a3240000a3240000a3240000a324000023
:1001c000a3240000a3240000a3240000a324000013
:1001d000a3240000a3240000a3240000a324000003
:1001e000a3240000a3240000a3240000a3240000f3
:1001f000a3240000a3240000a3240000a3240000e3
:10020000a3240000a3240000a3240000a3240000d2
:10021000a3240000a3240000a3240000a3240000c2
:10022000a3240000a3240000a3240000a3240000b2
:10023000a3240000a3240000a3240000a3240000a2
:10024000a3240000a3240000a3240000a324000092
:10025000a3240000a3240000a3240000a324000082
:04026000a3240000d3
:020000040000fa
:10026400f8b500bff8bc08bc9e467047e11e00000c
:10027400f8b500bff8bc08bc9e467047bd1e000020
:020000040000fa
:100284002de9f04182b0884b1e68197d21b933787d
:100294004bbb02b0bde8f0813378002b40f0ff8007
:1002a40030460022531cdbb29942f2d010f8284f9a
:1002b4000cb91a46f6e70232d2b2012a08bf00226c
:1002c40079490a75ff2be4d003eb8303dc0035196d
:1002d4006b79012b09d02b7b042bdad8dfe803f0f0
:1002e4000a1d2e5080000b46eee72b7b042b10d00a
:1002f40000232b7395f82030012b00f0cc800023d1
:10030400335585f820306b71ab70eb706b702b71cb
:10031400bfe70022644b5a75eae7ab685b6a0321c6
:10032400e88898476861b0f1ff3fb2d0ab681b69b9
:100334002a465e49984702232b73aae7ab681b68d9
:100344006869984770b195f820301bb1012385f88e
:1003540020309ee7ab685b6868699847686203234e
:100364002b73f3e795f82030012b03d0002385f895
:1003740020308ee7284602f06ff800232b71f5e752
:10038400494b5b7d012b84d00122474b5a756b6a24
:100394001b691b68b3f5007f3abf4ff40074b4fbcc
:1003a400f3f40124404e4ff400720021306902f04e
:1003b400bdf8022385f8213032696869ab6800947e
:1003c4009c68002305f11c01a047eb69b3f1ff3fd2
:1003d40002d004232b735ce70022334b5a7558e791
:1003e40095f92130022b06d06bb100222e4b5a75a1
:1003f40003232b734de7ab68db6a002b3ff449af53
:100404002869984745e7284b186900236b70042234
:10041400274901f0cdff0028b0fa80f34fea5313c7
:100424000cbf4d27ff276b701f4b5c6823782bb1e3
:1004340000221d4b5a7502232b732ae72b790133b3
:100444002b712a7e1b4b53f82280404602f076f82b
:10045400c6b232464146a01c01f0adfeaa78a319eb
:100464009a70731c54fa83f32a7930329a70b31c4d
:1004740054fa83f300229a70a56167704d2f02d05d
:1004840001232370d4e71346626122610a4ae978a2
:1004940011705370f4e7284601f0deff2fe70023c4
:1004a400014a137510e700bf1c2900209d2000009d
:0c04b4001422000054290020cc04002079
:020000040000fa
:1004c00010b14ff0ff30704730b58bb00c46644b25
:1004d00093f90030022b49d0614b1b6cdb683bb1b8
:1004e0005f4a908e9847022802d04ff0ff3044e0d8
:1004f0005b4b1b6c1b683bb1594d0b21a88e984779
:10050000a863b0f1ff3ff0d028220021684602f036
:100510000ff8534b1a6cd2696946986b90470028c4
:1005200000f093804e4b009ada67019ac3f880205e
:10053000039ac3f884200499c3f888109a62069a33
:10054000c3f88c200799c3f89010da62182283f858
:100550006820029ada66059a1a67089a5a6703f1c0
:100560007c029a67099ada6002221a703c4b93f86f
:100570009530012b03d04ff0ff300bb030bd384b1e
:10058000002283f89520db7933b10122344b83f8c4
:1005900095204ff0ff30f0e7314b93f860304bb1ce
:1005a00014f0080f06d001222d4b83f895204ff050
:1005b000ff30e2e72a4b586e002849d09d6dab789a
:1005c00000225bb105f110030022013282423fd0cc
:1005d0001d46103313f80e1c0029f6d10123ab7011
:1005e00000232b706c706b6014f0080f02d0012197
:1005f0001b4bd9711a4b93f86010013183f86010ce
:10060000198e42ea0142aa601b8e01339bb24ff65b
:10061000ff72934208bf0123114a1386ab68b3f1fe
:10062000ff3f08d092f83c302bb1136c9b6913b19b
:100630000c49906b98470122094b83f895200db126
:10064000a8689ae74ff0ff3097e74ff0ff3094e744
:100650000122034b83f895204ff0ff308de700bf58
:0806600070270020c3250000f3
:020000040000fa
:10066800002800f0b68070b582b00446a9b1531ec8
:10067800dbb2012b11d815460e4601f005fb90b1ef
:100688000022574b1a70574b1b78ab425fd015228c
:10069800534b1a704ff0ff304ae01322504b1a7038
:1006a8004ff0ff3044e003224d4b1a704ff0ff30fb
:1006b8003ee001224a4b1a704ff0ff3038e0162214
:1006c800474b1a704ff0ff3032e00022464b1a7049
:1006d800464b1b78002b50d00122434b1a70142232
:1006e8003f4b1a704ff0ff3022e000223f4b9a73c5
:1006f800a36cfbb198473d4b5b681b68f3b13b4a61
:10070800507b9847364b18700d285ed00122374b26
:100718009a7330b9354a01211170354b19705a60f6
:1007280000200122304b1a70003018bf01204042cf
:1007380002b070bd17222a4b1a70dce71722284b2b
:100748001a700122294b9a734ff0ff30e9e7694686
:10075800204601f0b9fc0028abd09df804309d423a
:1007680001d0002babd1204b1b78012badd0072239
:100778001b4b1a704ff0ff30dae71c4b5d70194abb
:1007880054685c6000221a73701d73792f2b0bd08c
:1007980053b10146154a137b0133137311f8013f16
:1007a8002f2b01d0002bf6d1104b98609df800003c
:1007b80058739b7b012b98d00722094b1a70012292
:1007c800094b1a704ff0ff30b2e70122074b9a73ba
:1007d800a0e71322024b1a704ff0ff30704700bf9a
:1007e800600200205802002000000020640200205f
:0407f800500200208b
:020000040000fa
:1007fc00002900201c0000000000000070270020d1
:10080c0098000000000000006c05002002000000b1
:10081c000000000070250020000100000000000016
:10082c00702600200001000000000000802800203d
:10083c002000000000000000a02800202000000084
:10084c0000000000c0280020200000000000000074
:10085c00e028002020000000000000006e050020b1
:10086c0001000000000000001028002040000000e3
:10087c0000000000402900201400000001000000ce
:10088c00ff0000000000000000000000ff0000005e
:10089c00ff000000000000207402000000000000b7
:1008ac001c2900201800000001000000800200201c
:1008bc00b00400209425000000000000b0020020cd
:1008cc00000000005429002014000000010000006a
:1008dc001c22000020220000242200002c220000f8
:1008ec0030220000800200204e02000000000000b8
:1008fc00502800202400000000000000682900207f
:10090c001000000000000000700500200020000016
:10091c0000000000d00400200400000000000000d3
:10092c00d40400209800000000000000000000002b
:10093c000000000022222222222222222222222213
:020000040000fa
:10094c002de9f04115461e469df820700c4611b15c
:10095c004ff0ff330b6000f0f5ff0346f8b142781f
:10096c009df8241011421ad0ddb1069abab119784b
:10097c0002eb060e01ebc10201eb42029df81c00da
:10098c0002443e4800ebc202d2f88020964506d8bd
:10099c00982202fb010292f89420012a04d0bde8af
:1009ac00f081022ffbd1e0e7982202fb010200202c
:1009bc0082f89400126c9268002a48d093f800e0f8
:1009cc0098222e4802fb0e02926c002a37d04ff070
:1009dc00980808fb0e08106ac8f84800b8f832c02e
:1009ec001878000240ea0c4c10684cea0000d06009
:1009fc00536015615661069b93611777012313723f
:100a0c0000231362b8f8323001339bb24ff6ff70fb
:100a1c00834208bf0123a8f832300cb1d36823609d
:100a2c009823164803fb0e03db6cfbb19820134b89
:100a3c0000fb0e3edef850301a62cef850209822a1
:100a4c000e4b02fb0131012381f89430a7e7022ff2
:100a5c0003d0032f08bf0127b0e79823074a03fbf5
:100a6c000121012381f89430bde8f081982303fb28
:100a7c000e0ecef84c20cef85020e0e77027002068
:020000040000fa
:100a8c0010b582b0454b1b7a072b23d8dfe803f057
:100a9c000415243241506f804148002300930222f8
:100aac0001461030fff7dafd18b100223b4b1a72e9
:100abc0010e00122394b1a720ce00021394800f089
:100acc007bf8364b1860b0f1ff3f0ebf08220222b4
:100adc00324b1a7202b010bd0021334800f06cf892
:100aec002e4b5860b0f1ff3f0ebf082203222b4b58
:100afc001a72efe7294b186800f0caff0b2814bfd5
:100b0c0008220422254b1a72244b186800f052ff5d
:100b1c00e0e702226ff00901204b586800f02efb31
:100b2c0010f10a0f14bf082205221c4b1a72d1e7d0
:100b3c001e4b0a22194653f8050c00f0c7feb0f103
:100b4c00ff3f09d00a221a49184801f0dbfb50b1cb
:100b5c000822124b1a72bde7104c606800f02aff95
:100b6c0008232372b6e706220c4b1a72b2e70b4b22
:100b7c00586801f059f838b90822084b1a72074b1b
:100b8c00586800f017ffa5e70722044b1a72f6e726
:100b9c004ff48022074bc3f814219be7d4040020a8
:100bac00e41d0000001e0000181e0000dd040020e3
:080bbc00ac250000008000419f
:020000040000fa
:100bc400f0b5c3b004460d46002141914ff4817243
:100bd400684601f0abfc6a4641a9204600f06cfa75
:100be40018b94ff0ff3043b0f0bd419b5a78022a48
:100bf40009d0394a1278012a0dd00722374b1a70ce
:100c04004ff0ff30efe7002df3d00722334b1a707b
:100c14004ff0ff30e7e7324a127882b3304a92f855
:100c2400102142b101222c4b1a7012222b4b1a7044
:100c34004ff0ff30d7e72b4c012622e00df10306dd
:100c440031e000229a7325490a705a68966866b1a1
:100c54002a46694604f10800b047204b1870012267
:100c6400419b9a7330b92046bde717211b4a117086
:100c740001229a73002323704ff0ff30b3e7184c1e
:100c84000026174a310188190001012717543144fd
:100c940002eb01125360104a17709df802202f2aac
:100ca400ccd00df102063278227452b1324604f1ee
:100cb4001000fe3612f8011f00f8011f09b1b242fc
:100cc400f8d19a7b012abcd00722044b1a70002366
:100cd40023704ff0ff3086e7000000206002002000
:080ce400100000202001002097
:020000040000fa
:100cec00b0f1ff3f06d0982303fb00f33e4ad356e6
:100cfc00022b00d07047982303fb002393f8943009
:100d0c00012bf7d1982303fb0023002283f89420b6
:100d1c0093f83c3033b19823334a03fb002393f808
:100d2c003d308bb170b5044698232f4a03fb00234a
:100d3c005b7983b1012b23d098202b4b00fb043023
:100d4c00012380f8943070bd982303fb002001230d
:100d5c0080f8943070479823234a03fb0023d96c06
:100d6c005965002937d098231f4a03fb0023002222
:100d7c005a709a70da701a7101225a7102230b722e
:100d8c009820194b00fb0430456d2a7f174b53f804
:100d9c002260ab696a692969b047012821d0012812
:100dac00cad9ff232b7201206a6898230e4903fbd2
:100dbc000413012183f83d1000215971d96c096a83
:100dcc00d964996c29629d645368002bb4d0d268a5
:100ddc00e9689847b0e7982303fb002300221a65c3
:100dec00aae700202872dfe770270020f02400001b
:020000040000fa
:100dfc0038b50446456dc26a836ab2fbf3f30179d8
:100e0c00022941d003294cd001291bd0002141706b
:100e1c00c1708170dbb26969b1fbf3f18161686902
:100e2c00b0fbf3f103fb1101e161591a2162a869ce
:100e3c00814288bf2062216a8b4210d0a368636212
:100e4c0001232371a169134601fb02f2a16820461c
:100e5c0001f04ef80346012807d0d8b238bd2b69f3
:100e6c006362022323710023f7e7a26ae36903fba1
:100e7c0002f3e361a068216a01fb02f229691844bc
:100e8c0001f0fefa022323710123a26900212046fe
:100e9c0000f098fe03460128dfd1032323710023c1
:100eac00dbe7dab28169134601fb02f2416a00f01a
:100ebc00b9fd03460128d0d1aa69216a8a42ccd057
:100ecc00521aaa616b69226a13446b61236aa16a84
:0e0edc002a6901fb03232b6100232371bde76c
:020000040000fa
:020eea0070474f
:020000040000fa
:100eec00ff2864d0364b1b69984201d01320704701
:100efc00a9b1334a9368528893424dd070b50d46d0
:100f0c00c0f30744101d162202fb03f12d4b01eb1d
:100f1c004001204600f0e4fe28b9012070bd0020fd
:100f2c00274b98607047284bff22264909682046ba
:100f3c0000f0d6fe00283cd0234801f0fbfa84b226
:100f4c00ab6933b1ea6922b1611c8a421bd200221f
:100f5c001a700c2c28bf0c2422461b4905f10900e1
:100f6c0001f025f92c4400206072164b9a8a2a72e3
:100f7c00da89aa80da68ea809b682b60104a936849
:100f8c000133936070bd22460f49184601f00ff9ea
:100f9c00ab6900221a55dce70023094a93604b72b7
:100fac008b6943b1ca6942b1002018707047132095
:100fbc007047012070bd002070470020704700bfb3
:0c0fcc0040290020a028002070250020f3
:020000040000fa
:100fd8002de9f04f83b00b78bbb10c4600271f44b6
:100fe800bfb27f00bfb214f8013f002bf7d12e4be0
:100ff8005b88002b52d09346019182460826002434
:10100800dff8ac80dff8a0900de00027efe704f0f0
:10101800070338f81330bb4218d00134b9f802304e
:101028000236a34235dd254614f0070fefd11a1b0f
:10103800082a28bf0822434652003146504600f08d
:1010480051fe0028e3d14ff0ff3024e0b9f8021038
:10105800043105eb850305eb430529445b4616225d
:101068004900504600f03efe019801f065fa054639
:101078000e4b0246dbf80010504600f033fe80b1fc
:101088002a460199094801f03ff90028c5d12046b0
:1010980001e04ff0ff3003b0bde8f08f4ff0ff30b4
:1010a800f9e74ff0ff30f6e74029002070260020ce
:0410b80010280020dc
:020000040000fa
:1010bc002de9f04104460f46164601f03bfa85b285
:1010cc0005222a49204601f01df9d0b9284b1b787e
:1010dc004bb10534264b93f80c8042469968204658
:1010ec0001f010f918b10622224b1a701de0204baa
:1010fc003b604444c8f57f4808f1fb084544adb259
:10110c0005e01d4b1b786bb11b4b5b683b604eb312
:10111c00ea1cb2f5817f0bdd0622164b1a700020fb
:10112c00bde8f0810d22134b1a700020bde8f08150
:10113c000021304601f0f6f93b685b7b30333746d3
:10114c0007f8023b3a23737025b900237b55012025
:10115c00bde8f0812a462146384601f028f80135d1
:10116c00adb2f2e70120bde8f08100bfdc25000044
:0c117c00640200206002002050020020ed
:020000040000fa
:1011880038b5b0f1ff3f1ed004460d46037803b3cf
:1011980043685968886910b3012a25d0022a2fd0dc
:1011a800002222739a7b012a25d100229a732946ac
:1011b80063685b689b69a0689847636801229a73b3
:1011c80098bb284638bd09221e4b1a704ff0ff35d0
:1011d800f7e709221b4b1a704ff0ff35f1e7172389
:1011e80023734ff0ff35ece7ca69cab100222273b6
:1011f8009a7b012a1dd0072323734ff0ff35e0e7c0
:101208004a6a6ab1002222739a7b012af3d100222a
:101218009a7363685b685b6aa06898472918c7e790
:10122800172323734ff0ff35cbe720734ff0ff35bb
:10123800c7e700229a7363685b68db69a068984710
:081248004119b5e76002002026
:020000040000fa
:101250000022274b1a74274a03f500639a621a4644
:10126000536813f0100ffbd14222234bc3f88420a4
:101270001a46d2f8843013f0400ffad01f4b0022e8
:101280009a6377225a631a46d36b13f0040ffbd18b
:1012900002221a4b83f830201a46d36b13f0020f48
:1012a000fbd1164a136c03f00303032bfad101227e
:1012b000134b5a711a46d37813f0010ffbd0114a21
:1012c0000d4b1a621a46536813f0040ffbd10e4af5
:1012d000094b5a621a46536813f0080ffbd1084baa
:1012e0006ff07f421a6140f2ff725a61704700bf8f
:1012f0000014004006013000001c004000100040b7
:0c13000000080040070101000701020086
:020000040000fa
:10130c0010b14ff0ff30704738b5274b9b7913b1b4
:10131c004ff0ff3038bd244b00221a7001249c7111
:10132c0083f8602088699865486a5866c86958646b
:10133c000d6add65da641a655c861c869864026049
:10134c00db6da3420fd913462046174daa6c03f14f
:10135c002404134422441a62ab6c18510130234606
:10136c00ea6d9042f2d34a680f4b1a640a889a8647
:10137c004ff0ff329a630a7a83f83c20012283f8fb
:10138c003d20486998600020587183f8952083f8b7
:10139c0094200b7c23b90122034b1a70002038bd1a
:0c13ac00497c01f079f8f6e7702700207a
:020000040000fa
:1013b80070b500f0c9fa48b102460178982326486a
:1013c80003fb010393f89530012b00d070bd9823df
:1013d80003fb0103002083f89500db6c002b33d05e
:1013e800044698251c4805fb010508e06cb1186afd
:1013f8002062186aae6c1e62ab6403464bb1586833
:101408008242f3d01c461b6af8e7186ae8641c4657
:10141800efe79823104803fb0103db6cabb198237b
:1014280003fb01030020186598200b4b00fb0131da
:1014380091f86030013b81f860300023cb719370e4
:10144800012381f89530c1e71c469823024803fb25
:0c14580001031c65e8e700bf70270020be
:020000040000fa
:10146400f8b50b78303bdbb2012b01d91320f8bd62
:101474001f4a12f813401f4b1b78a34201d01320bc
:10148400f8bd1d4b1b68b3f1ff3f2cd01a4b1b69f1
:10149400b3f1ff3f0cbf012502250646174a03316d
:1014a4002046fff797fdb0f1000e1edb124f2a0114
:1014b400b918124b5868b8509b688b60c1f804e0a7
:1014c4000f4b1a78230443ea02632b43cb600132a7
:1014d400d2b2ff2a08bf002209490a703360054ac4
:1014e400d3600020f8bd0025d7e70420f8bd00bf75
:1014f400cc04002040290020c0280020e02800203f
:041504006e05002050
:020000040000fa
:10150800f8b50378303bdbb2214a12f81330012bcf
:1015180001d91320f8bd1f4a12789a4201d013202e
:10152800f8bd0d46c41c1c4a21461846fff750fd5d
:1015380000282adb204600f0ffff86b2ab692bb1fa
:10154800ea691ab1964217d900221a700c2e28bfe0
:101558000c263246214605f1090000f02afe2e44e9
:10156800002070720c4b9a8a2a72da89aa80da688b
:10157800ea809b682b60f8bd32462146184600f089
:1015880018feab6900229a55e0e70420f8bd00bfb9
:0c159800cc040020402900208028002006
:020000040000fa
:1015a40008b51c4b98471c4b9847eff3108172b653
:1015b4001a4ad2f8883043f47003c2f88830bff373
:1015c4004f8fbff36f8f01b962b6154c2023636050
:1015d40000f040f9114a134b23f07f039360124b40
:1015e400984700f0e9fca36823f00103a3602346b5
:1015f400da6812f0010ffbd1094b5a6842f0040279
:101604005a6001229a60094b9847094b984700f0a9
:10161400b2fffee7f9250000f925000000ed00e027
:101624000060004100000000311e0000f9250000a8
:04163400f925000094
:020000040000fa
:1016380070b5012802d90124204670bd1a4b1b78c9
:10164800ff2b01d00024f7e7184b13f81060164d54
:1016580000246c80ff23eb60304600f0d3fe686006
:10166800134b4ff0ff321a609c601a619c61114b5a
:1016780006222146304600f035fb88b106220e4985
:101688000c4800f093fe044608b10124d4e7ab1cd3
:1016980002220621304600f025fb18b12e70cbe758
:1016a8000124c9e70124c7e740290020cc04002011
:0c16b800c0280020e0280020cc25000005
:020000040000fa
:1016c400002834d02de9f04107461a4d00242c702f
:1016d4006c60ac604ff0ff084246214605f11000f3
:1016e40000f024ff2c73144e34707460b4603473af
:1016f40085f81041c5f81441c5f818414246214601
:1017040005f5907000f012ff85f81c413474746183
:10171400b46134773a78094b1a707a685a600123b5
:10172400074a1370074a93732046bde8f0814ff0cf
:10173400ff307047100000203002002058020020c3
:081744000000002064020020f7
:020000040000fa
:10174c00391600003521000065140000d517000083
:10175c00000000002d200000791e00006521000013
:10176c006520000075230000091500000000000032
:10177c00000000000000000000000000000000005d
:10178c00000000000000000000000000000000004d
:10179c00000000000000000000000000000000003d
:1017ac00000000000000000000000000000000002d
:1017bc00000000006d1b0000ed0e0000c9220000af
:0817cc00000000000000000015
:020000040000fa
:1017d400f8b500241c6084b2022c01d91320f8bd92
:1017e40025461b4c04eb0514e468a04201d01320e9
:1017f400f8bd174c04eb0514a468a24228bf224686
:10180400164602b3a1b11c460b462901104f795864
:10181400c0f3074000f068fab8b126602d017919c9
:101824007a5932447a518b689b1b8b600020f8bd37
:101834001a60074b2d0159195a5932445a51a41ba5
:101844008c600020f8bd0020f8bd0020f8bd00bf6a
:04185400c028002088
:020000040000fa
:101858001c4b1d4a934230b438bf002103d203f811
:10186800011b9342fbd1194800250168c1b94268a0
:1018780032b383680c30d3b10139034613f8014bf6
:1018880001f8014f1c1a9442f8d312f0030318bf51
:10189800012303eb920200eb820001680029e6d0e5
:1018a800846842680b460c303cb9002addd01a44e3
:1018b80003f8015b9a42fbd1d7e7002adcd1e4e7c1
:1018c80030bc7047000000206c050020fc070000b9
:020000040000fa
:1018d80030b583b04ff0ff330193984207d00378b7
:1018e80063b90922174b1a704ff0ff3004e0092240
:1018f800144b1a704ff0ff3003b030bd43685c687a
:10190800e46834b19c7b012c08d007230373019849
:10191800f2e7172303734ff0ff30ede7044600208a
:10192800987363685b68dd6801aba068a847636863
:1019380001229a730028ead020734ff0ff330193f5
:08194800e5e700bf600200208a
:020000040000fa
:10195000431e13f1030f26d8030a13f0ff0f25d1fe
:1019600010b4c2b2dbb29821144c01fb0341496ea2
:101970008a421dd29824114904fb03131201996d68
:101980008b189c68a04215d19878a8b1895c9822e0
:1019900002fb01f209498a56022a18bf00231846a1
:1019a0005df8044b70470023184670470023fbe79f
:1019b0000023f4e70023f2e70023f0e7702700207c
:020000040000fa
:1019c000b0f1ff3f0fd003788bb143685a6852697a
:1019d0009ab1002202739a7b012a13d00723037362
:1019e0004ff0ff3070470922104b1a7070470922e0
:1019f0000e4b1a704ff0ff307047172303734ff0f0
:101a0000ff30704710b5044600229a7343685b6844
:101a10005b6980689847636801229a7308b92070ef
:101a200010bd20734ff0ff3010bd00bf60020020da
:020000040000fa
:101a300038b50446807801280ad0022814d0a56a57
:101a4000e06805fb02022261636161620123a37009
:101a5000002384f83d30236c5b692269616aa06bc6
:101a60009847c8b10223a370236c1b6aa06b9847e8
:101a7000012801d0c0b238bd6369013b6361002b0e
:101a8000f8d0a16a22690a442261636a0b44636246
:0c1a90000123a3700020ede70220ebe72b
:020000040000fa
:101a9c00b0f1ff3f0fd003788bb143685a68526a9c
:101aac009ab1002202739a7b012a13d00723037385
:101abc004ff0ff30704709220f4b1a707047092204
:101acc000d4b1a704ff0ff307047172303734ff014
:101adc00ff30704710b5044600229a7343685b6868
:101aec005b6a80689847636801229a73002800db60
:0c1afc0010bd227310bd00bf600200206e
:020000040000fa
:101b080010b50c46fff720ff30b30378e2b29821f6
:101b1800134801fb030191f89410012902d04ff0fa
:101b2800ff3010bd982101fb0301002081f89400cb
:101b380002ebc202496c01eb8202d1688c420cbff5
:101b480092f908004ff0ff309821054a01fb032362
:101b5800012283f8942010bd4ff0ff3010bd00bf64
:041b680070270020c2
:020000040000fa
:101b6c0041b30b78303bdbb2134a12f81330012b24
:101b7c0001d913207047114a12789a4201d01320d0
:101b8c0070470e4a1269ff2a01d0072070470c4a91
:101b9c0012781b0443ea026308490b610132d2b28a
:101bac00ff2a08bf002206490a7003600020034b7d
:101bbc009860704713207047cc0400204029002007
:041bcc006e05002082
:020000040000fa
:101bd00010b50446c178012909d0022912d0c06a83
:101be000e16800fb0212226163610123e3700023bc
:101bf00084f83d30236c9b682169a06b9847b0b195
:101c00000223e370236c1b6aa06b9847012801d064
:101c1000c0b210bd6369013b6361002bf8d023693a
:101c2000e26a134423610123e3700020f0e70220fd
:021c3000eee7dd
:020000040000fa
:021c32007047f9
:020000040000fa
:101c3400b0f1ff3f10d010b50446007888b1626857
:101c44005168096a89b100212173917b012910d05f
:101c540007222273002010bd09220b4b1a700120a9
:101c640070470922084b1a7010bd172222730020f6
:101c740010bd0023937363685b681b6aa068984770
:0c1c8400636801229a7310bd600200200a
:020000040000fa
:101c900038b5144b5d682b7863b1044605220146c4
:101ca000114800f035fb70b1a91c204600f004fc7f
:101cb000002308b1184638bdab699a6812685869a4
:101cc00090470346f6e7a91c601d00f0f5fb0023d2
:101cd0000028efd1ab699a681268586990470346ab
:0c1ce000e8e700bf1c2900200c220000d7
:020000040000fa
:101cec0070b506461846b4b2124b5d6813464a19d5
:101cfc000146204600f048f8b0f1ff3f17d00546ea
:101d0c000146204600f068fa431edbb2012b0ad8cc
:101d1c00304600f039fb2946204600f05dfa431ea0
:101d2c00dbb2012bf4d9b0fa80f0400970bd002071
:081d3c0070bd00bf402900202a
:020000040000fa
:101d4400104bdb68834219d010b504460d4b5888fc
:101d54000430a2b20c4b03eb02135968162202fba7
:101d640001f10a4b01eb4001c4f30740fff7bcff4c
:101d7400034608b1034ad460184610bd012318462f
:101d8400704700bf40290020c0280020e028002020
:020000040000fa
:101d940010b14ff0ff307047f0b583b00f480768bb
:101da4007869b0f1ff3f03d14ff0ff3003b0f0bdcd
:101db4001e4615460c46bb68db699847022387f824
:101dc4002130d7f814e0bb6800969e692b1a22468e
:101dd40007f11c017046b047f869e7e71c290020a9
:020000040000fa
:101de4002f6d6e742f6d7944726976650000000062
:101df4002f6465762f6e766d613100002f6d6e74e1
:101e04002f6d7944726976652f46494c452e747856
:101e1400740000002f6d6e742f6d794472697665bd
:0c1e24002f544553542e7478740000bff6
:020000040000fa
:101e300070b50d4e0d4ca41ba4100025a54209d170
:101e40000b4e0c4cfef70efaa41ba4100025a54265
:101e500005d170bd56f8253098470135eee756f8a4
:101e6000253098470135f2e770020000700200004b
:081e7000700200007402000082
:020000040000fa
:101e780038b504460d4600f011fa08b9012038bdfe
:101e88002046fff75bff094b9b68ab420bd3a4b21c
:101e9800074924010819054a52682a440a515d1b5a
:101ea8008560002038bd012038bd00bfe028002033
:041eb800c02800201e
:020000040000fa
:101ebc0010b5054c227832b9044b13b10448aff37a
:101ecc0000800123237010bd0029002000000000b9
:101edc000000000008b5034b1bb103490348aff3e6
:101eec00008008bd00000000042900200000000054
:020000040000fa
:101efc0070b504461d464078012815d002280dd037
:101f0c00e06fe36800fb023301226270226c1669f9
:101f1c002a46a06bb04748b102236370236c1b6a3e
:101f2c00a06b9847c0b270bd0023efe70220f9e721
:020000040000fa
:101f3c0030b40e4c246825781db14ff0ff3030bc06
:101f4c00704701252570a2602061e1804ff0ff32bf
:101f5c00626125732376002363702371e370612221
:101f6c00a27084f820302046e9e700bf1c2900202d
:020000040000fa
:101f7c0008b500f0bffa00f07df9fff763f900f047
:101f8c00a9fa00f02efa07490020fff7b9f9064b21
:101f9c0018600648fff790fb00f0fcfa00f058f9c7
:101fac0008bd00bf34220000d0040020e42500004e
:020000040000fa
:101fbc00094b00225a60094ada60094a1a61094938
:101fcc004a6a42f480324a6205225a60bff34f8f4c
:101fdc00bff36f8f704700bf90ed00e0100008005a
:081fec002500020300ed00e0f6
:020000040000fa
:101ff40000220b4b1a8004380b1f01f5fe7150f8b8
:10200400042f43f8042f8b42f9d1064b1b8803f0ad
:1020140030031bb94af20352024b9a8001207047e5
:082024006c05002000400041a2
:020000040000fa
:10202c0083b2022b01d9132070471a46094b03ebdc
:10203c000213db68984201d0132070470549120146
:10204c008b184ff0ff30885000209860ff22da6028
:08205c00704700bfc0280020fe
:020000040000fa
:1020640010b5044600f01cf9034608b9184610bd23
:102074002046fff765fea4b22401054a054b1b590f
:1020840051685b1a9268934214bf00230123ede761
:08209400e0280020c028002014
:020000040000fa
:10209c0010b5034638b1012809d00948c4680cb101
:1020ac00807d40b110bd002082f82100f5e7ff20b3
:1020bc0082f82100f1e71846d278a047f2e700bf7a
:0420cc001c290020ab
:020000040000fa
:1020d00070b50b4b5d682c7834b10e46a91c0530e9
:1020e00000f0eaf910b10024204670bd6b784d2b4a
:1020f0000cbf02230023337100233360f4e700bfd9
:042100001c29002076
:020000040000fa
:102104006d2500003523000029240000d32300009e
:10211400cd240000091b00002924000055230000e1
:1021240043240000c1040000b9130000ed0c0000ba
:020000040000fa
:10213400012801d901207047074b13f81020074be1
:102144001b789a4201d001207047044b002058802c
:10215400ff22da601a707047cc0400204029002066
:020000040000fa
:1021640010b5044600f09cf808b9002010bd2046c4
:10217400fff7e6fda4b22401024b1859024b5b6839
:0c218400c01a10bdc0280020e028002078
:020000040000fa
:10219000012008604ff400234b604ff40072ca60c6
:1021a0004ff480620a614ff400528a614022ca6192
:0a21b0008860486108624b627047c6
:020000040000fa
:1021ba0070b5044602b970bd234611f8015b03f8f5
:1021ca00015b561e1db91444a34203d170bd1c46bf
:0a21da003246efe703f8015bf6e779
:020000040000fa
:1021e40050b908b5074b1b685869b0f1ff3f06d0da
:1021f4009b685b69984708bd4ff0ff3070474ff00c
:08220400ff3008bd1c29002079
:020000040000fa
:10220c002f6465762f0000004d50465300000000ef
:10221c006e766d00736400006d6d63626c6b000014
:08222c0072616d006d74640025
:020000040000fa
:1022340000000000ec22000000000000000000008c
:1022440001000000700500206829002050280020ab
:08225400010000000100000080
:020000040000fa
:10225c00074ad36823f4e0631b041b0c43f0bf63f1
:10226c0043f40033d360bff35f8f62b6704700bf97
:04227c0000ed00e091
:020000040000fa
:10228000074b4ff00042c3f89020062283f8df206e
:102290004ff48022c3f80021c3f81021704700bf1b
:0422a0000080004179
:020000040000fa
:1022a40083b2022b09d81a46054b03eb0213db68f1
:1022b400834214bf0020012070470020704700bff4
:0422c400c02800200e
:020000040000fa
:1022c800ff280bd0064b1b69984201d0132070479a
:1022d800034bff221a610020986070471320704753
:0422e8004029002069
:020000040000fa
:1022ec00eb0e0000331c0000b9250000ed250000aa
:1022fc005f250000892500000000000091210000ee
:04230c005125000057
:020000040000fa
:1023100010b56ab10139841810f8013b11f8012f8a
:10232000934203d1a04201d0002bf5d1981a10bde1
:04233000104610bd86
:020000040000fa
:1023340008b5fff70bfb30b100789822034b02fb82
:102344000030683008bd002008bd00bf70270020a1
:020000040000fa
:1023540008b5fff7fbfa30b103789821034a01fb73
:102364000323d86808bd002008bd00bf70270020e3
:020000040000fa
:1023740010b50446fff794ff08b9002010bd2046ad
:10238400fff7defc014b986810bd00bfe028002079
:020000040000fa
:1023940050b908b5054b1b681a7822b19a68d26afd
:1023a4000ab11869904708bd704700bf1c29002076
:020000040000fa
:1023b40010b501390244904201d1002010bd10f83b
:0e23c400013b11f8014fa342f5d0181b10bdcc
:020000040000fa
:1023d20010b584b0022403940324029401240194ce
:0c23e200069c0094fef7b1fa04b010bd98
:020000040000fa
:0223ee00704736
:020000040000fa
:1023f0000022044b1a80044b58614af201529a8021
:0c240000012070476c05002000400041e6
:020000040000fa
:10240c0008b10020704708b5034b1b689a68d26965
:0c241c005869904708bd00bf1c29002033
:020000040000fa
:1024280010b584b001240394002402940194069cfe
:0a2438000094fef787fa04b010bd0f
:020000040000fa
:1024420010b584b0022403940294019400931346bd
:0a2452000022fef77afa04b010bd74
:020000040000fa
:10245c00044b5b681a7822b19a69824204bf00224d
:08246c001a7070471c290020c2
:020000040000fa
:1024740008b500f0adf8034b1868fef735fcfef71d
:0824840003fb08bdd004002099
:020000040000fa
:10248c0010b5431e0a44914200d110bd11f8014b06
:06249c0003f8014ff7e711
:020000040000fa
:0224a200fee753
:020000040000fa
:1024a40008b50b46024a0146fff746fd08bd00bfca
:0424b40004210000ff
:020000040000fa
:1024b80010f8012b11f8013b012a28bf9a42f7d0e6
:0424c800d01a70476f
:020000040000fa
:1024cc0038b50d461446fff73dfa08b14560c460b7
:0224dc0038bd09
:020000040000fa
:0224de00fee717
:020000040000fa
:1024e0004ff48022014bc3f818217047008000414f
:020000040000fa
:1024f000fd1e0000311a0000d11b0000fd0d000080
:020000040000fa
:1025000040f20452014b1a80704700bf0040004166
:020000040000fa
:1025100008b513460a461946fff7b8ff012008bd63
:020000040000fa
:10252000024b588ac04300f0010070470040004150
:020000040000fa
:1025300002440346934200d1704703f8011bf9e7b8
:020000040000fa
:10254000034613f8012b002afbd1181a01387047f3
:020000040000fa
:0e25500008b5fff7e5ff80f00100c0b208bd3e
:020000040000fa
:0e255e0008b5084611461a46fff7d3ff08bd20
:020000040000fa
:0e256c0008b5fff7eff9003018bf012008bdd9
:020000040000fa
:0e257a0008b50020fff7fdfcfff777fffce738
:020000040000fa
:0c25880008b508461146fff731fd08bdfc
:020000040000fa
:0c2594000000000000000000000000003b
:020000040000fa
:0c25a0000022014b1a727047d404002086
:020000040000fa
:0c25ac0031323334353637383930000016
:020000040000fa
:0a25b80008b50846fff718ff08bd3c
:020000040000fa
:0825c200012381f83d30704750
:020000040000fa
:0225ca00fee72a
:020000040000fa
:0825cc004d50465302010000ce
:020000040000fa
:0825d40008b5fdf755fe08bd36
:020000040000fa
:0825dc002f6d6e742f0000bf8b
:020000040000fa
:0825e400020000004c1700008a
:020000040000fa
:0425ec000220704712
:020000040000fa
:0225f000fee704
:020000040000fa
:0225f200fee702
:020000040000fa
:0225f400fee700
:020000040000fa
:0225f600fee7fe
:020000040000fa
:0225f80070472a
:020000040000fa
:020000040008f2
:100000004d50465302010200688f089f38000000df
:100010004a0000000b0000004a3cd65300000000dc
:10002000000041000000550000000a000000503ca4
:10003000d65300000000000046494c452e747874e9
:1000400000544553542e7478740048656c6c6f20ce
:10005000576f726c6431323334353637383930008b
:100060000000000000000000000000000000000090
:100070000000000000000000000000000000000080
:100080000000000000000000000000000000000070
:100090000000000000000000000000000000000060
:1000a0000000000000000000000000000000000050
:1000b0000000000000000000000000000000000040
:1000c0000000000000000000000000000000000030
:1000d0000000000000000000000000000000000020
:1000e0000000000000000000000000000000000010
:1000f0000000000000000000000000000000000000
:1001000000000000000000000000000000000000ef
:1001100000000000000000000000000000000000df
:1001200000000000000000000000000000000000cf
:1001300000000000000000000000000000000000bf
:1001400000000000000000000000000000000000af
:10015000000000000000000000000000000000009f
:10016000000000000000000000000000000000008f
:10017000000000000000000000000000000000007f
:10018000000000000000000000000000000000006f
:10019000000000000000000000000000000000005f
:1001a000000000000000000000000000000000004f
:1001b000000000000000000000000000000000003f
:1001c000000000000000000000000000000000002f
:1001d000000000000000000000000000000000001f
:1001e000000000000000000000000000000000000f
:1001f00000000000000000000000000000000000ff
:020000040000fa
:0200000400807a
:044000003912003c35
:020000040000fa
:0200000400807a
:044004008000a82a66
:020000040000fa
:0200000400807a
:04400800ffffffffb8
:00000001FF
