:1000000080040120A9020000A5020000A502000052
:10001000A5020000A5020000A502000000000000EB
:10002000000000000000000000000000A502000029
:10003000A502000000000000A5020000A5020000CB
:10004000A5020000A5020000A5020000A502000014
:10005000A5020000A5020000A5020000A502000004
:10006000A5020000A5020000A5020000A5020000F4
:10007000A5020000A5020000A5020000A5020000E4
:10008000A5020000A5020000A5020000A5020000D4
:10009000A5020000A5020000A5020000A5020000C4
:1000A000A5020000A5020000A5020000A5020000B4
:1000B000A5020000A5020000A5020000A5020000A4
:1000C000A5020000A5020000A5020000A502000094
:1000D000A5020000A5020000A5020000A502000084
:1000E000A5020000A50200000000000000000000C2
:1000F0000000000005040000A5020000A5020000A9
:10010000A5020000A5020000A5020000A502000053
:10011000A5020000A5020000A5020000A502000043
:10012000A5020000A5020000A5020000A502000033
:10013000A5020000A5020000A5020000A502000023
:10014000A5020000A5020000A5020000A502000013
:10015000A5020000A5020000A5020000A502000003
:10016000A5020000A5020000A5020000A5020000F3
:10017000A5020000A5020000A5020000A5020000E3
:10018000A5020000A5020000A5020000A5020000D3
:10019000A5020000A5020000A5020000A5020000C3
:1001A000A5020000A5020000A5020000A5020000B3
:1001B000A5020000A5020000A5020000A5020000A3
:1001C000A5020000A5020000A5020000A502000093
:1001D000A5020000A5020000A5020000A502000083
:1001E000A5020000A5020000A5020000A502000073
:1001F000A5020000A5020000A5020000A502000063
:10020000A5020000A5020000A5020000A502000052
:10021000A5020000A5020000A5020000A502000042
:10022000A5020000A5020000A5020000A502000032
:10023000A5020000A5020000A5020000A502000022
:10024000A5020000A5020000A5020000A502000012
:10025000A5020000A5020000A5020000A502000002
:10026000A502000010B5054C237833B9044B13B137
:100270000448AFF300800123237010BD2C0400203C
:10028000000000009C06000008B5034B1BB10349A9
:100290000348AFF3008008BD0000000030040020D8
:1002A0009C060000FEE7000008B50F4A0F4B9A427B
:1002B00002D00F498B420ED30E4B0F4A00219342BE
:1002C0000ED30E4B0E4A23F07F0393600D4B9847DD
:1002D0000D4B9847FEE752F8040B43F8040BE9E78F
:1002E00043F8041BEBE700BF9C0600000000002061
:1002F0002C0400202C0400208004002000000000BA
:1003000000ED00E04905000071040000EFF31083E8
:10031000036072B6BFF35F8F7047BFF35F8F0368F0
:1003200083F3108870470000054B10B51C68054B1F
:100330009847054B01462046BDE81040184700BFCE
:10034000480400204D030000610300007823584357
:1003500002300323B0FBF3F06423584370470000DE
:100360000139FDD8704700BF094A138810B59BB208
:100370001380084B9847084B9847084B9847084B01
:10038000984740F6FF70074BBDE81040184700BF84
:1003900000400041D5030000E9030000C90300004C
:1003A00001040000A9030000C30707D5044B054A58
:1003B0001A6243F6FD7259681142FCD1704700BFC2
:1003C000001C004001010100014B01225A717047DD
:1003D00000080040034BDA6902F47C52DA61002223
:1003E0001A74704700140040034B044A9A611A695A
:1003F0009207FCD5704700BF00100040062600039E
:10040000704700000B4A937882B0DBB20193019BE6
:10041000990705D5084B1B6813B1506802B01847FF
:10042000019BDB0704D5044B5B680BB1014AF4E781
:1004300002B07047000002414C04002013B5094B84
:1004400001A89847084BD3F88010D3F8A020D3F820
:100450009040064B54400C4001A854409847204619
:1004600002B010BD0D030000008000411B0300001E
:1004700008B5114B114C124D9847124B4FF00041EB
:10048000C3F8841093F8DF2042F0040283F8DF20E1
:100490002646C3F898106420A047A8470028FADB36
:1004A000084B4FF48022C3F81C216420B047A847B2
:1004B0000028F0DBF9E700BF410500002903000038
:1004C0003D0400000080004108B5194B9847194BC6
:1004D00019494FF00042C3F88420C3F8A81001F175
:1004E0008021C3F8A810C3F8842093F8DF1041F0EE
:1004F000040183F8DF10C3F8982093F8DF2002F09E
:10050000FE0283F8DF204FF48022C3F81821C3F8DD
:1005100008214FF08042C3F82821084AC3F8282157
:1005200093F8522102F0FE0283F8522108BD00BF69
:10053000690300000080004100000240040000C088
:10054000004B1847C904000070B50D4E0D4D761BC9
:10055000B61006D00024013455F8043B9847A64253
:10056000F9D1094E094D761B00F086F8B61006D079
:100570000024013455F8043B9847A642F9D170BDD8
:1005800084060000840600008C060000840600003B
:10059000024B13B1024800F005B87047000000009C
:1005A000B1050000002301461A46184600F01EB8A7
:1005B00038B50A4C0A4D641BA4100AD004F18043DC
:1005C000013B05EB8305013C55F804399847002CA5
:1005D000F9D1BDE8384000F059B800BF9C060000D2
:1005E00098060000704700BF704700BF2DE9F0413A
:1005F0001E4C0546206890461F460E46FFF7F2FF48
:100600001B4B1A68D2F8483133B35A6820681F2A46
:1006100027DC4DB9911C01325A6043F82160FFF785
:10062000E3FF0020BDE8F08103EB82010124C1F863
:10063000888004FA02FED3F88841022D44EA0E0CA9
:10064000C3F888C1C1F80871E4D1D3F88C114EEA1F
:100650000104C3F88C41DDE702F5A673C2F8483106
:10066000D3E7FFF7C1FF4FF0FF30DBE7280400209E
:100670007406000000000020F8B500BFF8BC08BCFC
:100680009E4670479105000089020000F8B500BF42
:0C069000F8BC08BC9E46704765020000E4
:10069C0000000000EC02002054030020BC030020EA
:1006AC00000000000000000000000000000000003E
:1006BC00000000000000000000000000000000002E
:1006CC00000000000000000000000000000000001E
:1006DC00000000000000000000000000000000000E
:1006EC0000000000000000000000000000000000FE
:1006FC0000000000000000000000000000000000EE
:10070C0000000000000000000000000000000000DD
:10071C0000000000000000000000000000000000CD
:10072C0000000000000000000000000000000000BD
:10073C0000000000000000000100000000000000AC
:10074C000E33CDAB34126DE6ECDE05000B00000071
:10075C00000000000000000000000000000000008D
:10076C00000000000000000000000000000000007D
:10077C00000000000000000000000000000000006D
:10078C00000000000000000000000000000000005D
:0C0ABC0000000000000000005C040020AE
:00000001FF
