:1000000068050120A9020000A5020000A502000069
:10001000A5020000A5020000A502000000000000EB
:10002000000000000000000000000000A502000029
:10003000A502000000000000A5020000A5020000CB
:10004000A5020000A5020000A5020000A502000014
:10005000A5020000A5020000A5020000A502000004
:10006000A5020000A5020000A50200003D07000057
:10007000A5020000A5020000A5020000A5020000E4
:10008000A5020000A5020000A5020000A5020000D4
:10009000A5020000A5020000A5020000A5020000C4
:1000A000A5020000A5020000A5020000A5020000B4
:1000B000A5020000A5020000A5020000A5020000A4
:1000C000A5020000A5020000A5020000A502000094
:1000D000A5020000A5020000A5020000A502000084
:1000E000A5020000A50200000000000000000000C2
:1000F00000000000AD060000ED090000FD09000051
:10010000050A00000D0A0000A5020000A50200007B
:10011000A5020000A5020000A5020000A502000043
:10012000A5020000A5020000A5020000A502000033
:10013000A5020000A5020000A5020000A502000023
:10014000A5020000A5020000150A0000250A000013
:100150002D0A0000350A0000A5020000A5020000DB
:10016000A5020000A5020000A5020000A5020000F3
:10017000A5020000A5020000A5020000A5020000E3
:10018000A5020000A5020000A5020000A5020000D3
:10019000A5020000A5020000A5020000A5020000C3
:1001A000A5020000A5020000A5020000A5020000B3
:1001B000A5020000A5020000A5020000A5020000A3
:1001C000A5020000A5020000A5020000A502000093
:1001D000A5020000A5020000A5020000A502000083
:1001E000A5020000A5020000A5020000A502000073
:1001F000A5020000A5020000A5020000A502000063
:10020000A5020000A5020000A5020000A502000052
:10021000A5020000A5020000A5020000A502000042
:10022000A5020000A5020000A5020000A502000032
:10023000A5020000A5020000A5020000A502000022
:10024000A5020000A5020000A5020000A502000012
:10025000A5020000A5020000A5020000A502000002
:10026000A502000010B5054C237833B9044B13B137
:100270000448AFF300800123237010BD2C0400203C
:1002800000000000A40E000008B5034B1BB1034999
:100290000348AFF3008008BD0000000030040020D8
:1002A000A40E0000FEE7000008B50F4A0F4B9A426B
:1002B00002D00F498B420ED30E4B0F4A00219342BE
:1002C0000ED30E4B0E4A23F07F0393600D4B9847DD
:1002D0000D4B9847FEE752F8040B43F8040BE9E78F
:1002E00043F8041BEBE700BFA40E00000000002051
:1002F0002C0400202C0400206805002000000000D1
:1003000000ED00E0E90C0000890A0000EFF3108323
:10031000036072B6BFF35F8F7047BFF35F8F0368F0
:1003200083F3108870470000014B1860014B184799
:10033000480400203D0A0000054B10B51C68054B21
:100340009847054B01462046BDE81040184700BFBE
:100350004804002009060000510A0000F0B50568B5
:100360001DB90F4BBDE8F0401847D1F808C02C4626
:100370000026C2F1010ED4E90137934295BFDB1983
:1003800073449B1ADB199C4507D92368264613B989
:100390003046044BE6E71C46EDE7A542E1D0F7E71F
:1003A000850500008D0500002DE9F047D0E90464C3
:1003B000037E0136DA07054606611FD4037E9B07DC
:1003C0001CD4DFF84480DFF8449000F11407CCB16E
:1003D0006368A268F31A934214D33846C047237C5B
:1003E000012B04D16660324621463846C847D5F80D
:1003F00014A0E368204698475446E8E72B7E43F074
:1004000002032B76BDE8F087950500005D03000030
:1004100010B5044B044698470020034B206123602D
:1004200010BD00BFED060000A90300000023836299
:10043000C3690BB108381847704700238362436AC9
:100440000BB108381847704770B50446054BA0F14A
:1004500008052C309847236A1BB12846BDE8704038
:10046000184770BDDB05000010B5B0F84C301446DD
:10047000B0F844209A420CD10023A0F84430012364
:1004800003638164A0F84C40034B08309847204632
:1004900010BD6FF01B00FBE7DB090000838FB0F895
:1004A00044209A4210B504460AD0026C591C818738
:1004B000D15C044B9847044B2046BDE810401847D8
:1004C000024BFAE7D5090000DB090000E309000050
:1004D0002DE9F74305460F4BDFF8449001A834356A
:1004E0008846164698470C4B284698470B4B0746BC
:1004F00001A898470024A74201D0B44203D1204666
:1005000003B0BDE8F08308EB04012846C847013476
:10051000F1E700BF0D030000010600001B0300000F
:10052000B905000038B504460D46343011461A4668
:100530000C4B984790B9294604F108000A4B98479C
:1005400058B90A4B63600A4B23600A4BA3600A4BFD
:10055000E3600A4B23610A4B636138BD6FF00C0006
:10056000FBE700BFA105000071090000D1040000F5
:10057000690400009D040000490400002D040000EF
:100580003B04000003680B600160704703680B6068
:100590000160704703680BB11A6802601846704723
:1005A000531E1A4001BFC0E90132C260016010460B
:1005B00018BF6FF00C007047D0E902329A4209D0A0
:1005C000426813400268D35C0B7083680133836018
:1005D000002070476FF009007047C36842681340FD
:1005E0000268D154D0E90121C368591A914288BFE9
:1005F0009A1A03F1010388BF8260C360002070472C
:10060000D0E90202101A704742F6E063584370477F
:10061000094A138810B59BB21380084B9847084BC2
:100620009847084B9847084B984740F6FF70074B90
:10063000BDE81040184700BF004000417D060000A3
:100640009106000071060000A90600005106000096
:10065000C30707D5044B054A1A6243F6FD72596871
:100660001142FCD1704700BF001C00400101010095
:10067000014B01225A71704700080040034BDA69B0
:1006800002F47C52DA6101221A74704700140040AF
:10069000034B044A9A611A699207FCD5704700BF60
:1006A0000010004006260003704700000B4A9378B4
:1006B00082B0DBB20193019B990705D5084B1B68FB
:1006C00013B1506802B01847019BDB0704D5044BF7
:1006D0005B680BB1014AF4E702B0704700000241C9
:1006E0007804002003690B42FCD17047024638B5FC
:1006F0000125D1600E4C0D80084648F20301A04749
:100700002946D068A047D06848F28003038048F2A9
:100710000301A047D068202303626021A047D3686B
:100720004FF480715981034B00201A6038BD00BF1F
:10073000E50600004C04002000207047074B10B570
:100740001C68E3689B89DB0507D523680BB120464D
:100750009847E3684FF480729A8110BD4C040020E2
:10076000C3690B42FCD17047036823F002030360A6
:100770000321014B184700BF6107000070B50C4D05
:1007800006460FCD88B06C460FC495E80F0084E88C
:100790000F006B46002053F8042BB24202D1C0B2C6
:1007A00008B070BD01300828F5D10020F8E700BF7F
:1007B000140E000010B58469227ED107034608D5C7
:1007C000A27DD20705D5012222750368BDE810403D
:1007D0001847227E900709D5A27D910706D50222EF
:1007E000227518469A68BDE810401047227E5207CD
:1007F0000DD5628B02F0370212B1FF23638310BD67
:10080000A16A5A68C9B21846BDE810401047227E56
:10081000D209F4D0802222761846DA689047638B9A
:100820009BB2EBE7054B984202D1054B196070472C
:10083000044B984204BF024B59607047003000409F
:10084000500400200004004308B5034B9847800083
:100850002E3000F0FE0008BD7D0700004209012394
:1008600000F01F0003FA00F0014B43F8220070472C
:1008700000E100E000280DDB4309012200F01F0029
:1008800002FA00F02033044A42F82300BFF34F8FEE
:10089000BFF36F8F704700BF00E100E0002809DB65
:1008A0004309012200F01F0002FA00F06033024AFF
:1008B00042F82300704700BF00E100E02DE9F0415D
:1008C000274B284F284E044698470538424242415C
:1008D000E169182303FB027311F0010FD3F83C8088
:1008E00011D103212046B04723689B0708F01C055F
:1008F00003D51E4B98470221B04745F001052560FE
:1009000003212046B04720460121B0470321C4F807
:100910000080B047182505FB02751F212B6C636012
:10092000B0476B6CA36018F4C04FB5F8483008D0DE
:10093000A18963F30C01A181A38995F84A1061F3A1
:100940004F33A381182303FB0272002092F84B302F
:10095000A37392F84C3084F83030BDE8F08100BFCA
:100960007D070000140E0000610700006907000009
:100970002DE9F8430646114B08460C4698470546B4
:10098000C0B9B461314620460D4BDFF844800D4FAD
:100990000D4E98470D4B98472C46814609EB0401B4
:1009A000C9B20846C0470846B84701340846B047B0
:1009B000042CF3D12846BDE8F88300BFBD08000031
:1009C000250800009D0800005D080000490800009F
:1009D00075080000836999627047836901229A75DE
:1009E0007047836902229A7570470000014B1868AE
:1009F000014B184750040020B5070000004B184772
:100A0000ED090000004B1847ED090000004B1847A6
:100A1000ED090000014B5868014B184750040020B5
:100A2000B5070000004B1847150A0000004B184797
:100A3000150A0000004B1847150A0000034B6FF021
:100A40007F425A6005221A60704700BF10E000E044
:100A50000B0E0C4A30B5D8B26FF07F440138C0B2EB
:100A6000FF2808D1A3EB0363194451609160136818
:100A7000DB03FCD530BD546094601568ED03FCD5F4
:100A8000ECE700BF10E000E008B5064B064C074D50
:100A900098476420A0474FF48023EB616420A0476F
:100AA000F7E700BFE10C00003903000000800041BF
:100AB00030B54B1CC5B2184B4FEA50104FEAC0106E
:100AC00005F01F04034407D1234493F8402002F0AB
:100AD000FE0283F8402030BD181903EB540390F850
:100AE000402002F0FE0242F0010280F8402093F81C
:100AF000302015F0010FC9B219BF02F00F0242EA0F
:100B0000011101F00F0102F0F00214BFC9B211434C
:100B100083F83010DFE700BF00800041064B402221
:100B2000C3F89C204322C3F88C20044A536943F441
:100B300080535361704700BF001C00400008004014
:100B400010B5054C05490420A0472346044905205B
:100B5000BDE81040184700BFB10A000003000400C0
:100B60000300050013B5074B074C9847002300937B
:100B7000064A074907481023A047074B02B0BDE8C3
:100B8000104018471D0B00002505000058040020E8
:100B900000300040D8040020410B0000064B4022EA
:100BA000C3F80C214322C3F88C20044A136A43F093
:100BB00002031362704700BF001C004000080040A1
:100BC00010B5054C05493020A04723460449312083
:100BD000BDE81040184700BFB10A00000200300015
:100BE0000200310013B5074B074C984700230093D0
:100BF000064A074907481023A047074B02B0BDE843
:100C0000104018479D0B00002505000068040020D7
:100C10000004004388040020C10B00000148024B7F
:100C2000184700BF10E000E02903000010B5204B7A
:100C30009847204B20494FF480225A619A604FF028
:100C400080429A621D4A9A6293F8522002F0FE0294
:100C500083F852204FF00042C3F88420C3F8A81054
:100C600001F18021C3F8A810C3F8842093F8DF10A5
:100C700041F0040183F8DF10C3F8982093F8DF20D7
:100C800002F0FE0283F8DF200D4A536943F400733B
:100C900053610C4B98470C490C4B02460C48984743
:100CA0000C4B98470C4B98470C4BBDE8104018472D
:100CB000110600000080004100000240040000C056
:100CC0000008004039070000002400401104000023
:100CD00028050020650B0000E50B00001D0C00003E
:100CE000004B18472D0C000070B50D4E0D4D761BB6
:100CF000B61006D00024013455F8043B9847A642AC
:100D0000F9D1094E094D761B00F0BAF8B61006D09D
:100D10000024013455F8043B9847A642F9D170BD30
:100D20008C0E00008C0E0000940E00008C0E000053
:100D3000024B13B1024800F005B8704700000000F4
:100D4000510D0000002301461A46184600F01EB857
:100D500038B50A4C0A4D641BA4100AD004F1804334
:100D6000013B05EB8305013C55F804399847002CFD
:100D7000F9D1BDE8384000F08DB800BFA40E0000E6
:100D8000A00E0000704700BF704700BF2DE9F04182
:100D90001E4C0546206890461F460E46FFF7F2FFA0
:100DA0001B4B1A68D2F8483133B35A6820681F2A9F
:100DB00027DC4DB9911C01325A6043F82160FFF7DE
:100DC000E3FF0020BDE8F08103EB82010124C1F8BC
:100DD000888004FA02FED3F88841022D44EA0E0C02
:100DE000C3F888C1C1F80871E4D1D3F88C114EEA78
:100DF0000104C3F88C41DDE702F5A673C2F848315F
:100E0000D3E7FFF7C1FF4FF0FF30DBE728040020F6
:100E10007C0E000000300040003400400020014102
:100E2000004001410000004300040043000800436B
:100E3000000C004300000000000000000000000063
:100E400000000000000000000000000000000000A2
:100E5000040010400000030002007000B9FC000014
:100E60000000000005000000040010400000030026
:100E700002007000B9FC000000000000000000202B
:100E8000F8B500BFF8BC08BC9E467047310D0000A5
:100E900089020000F8B500BFF8BC08BC9E46704748
:040EA00065020000E7
:100EA40000000000EC02002054030020BC030020DA
:100EB400000000000000000000000000000000002E
:100EC400000000000000000000000000000000001E
:100ED400000000000000000000000000000000000E
:100EE40000000000000000000000000000000000FE
:100EF40000000000000000000000000000000000EE
:100F040000000000000000000000000000000000DD
:100F140000000000000000000000000000000000CD
:100F240000000000000000000000000000000000BD
:100F340000000000000000000000000000000000AD
:100F4400000000000000000001000000000000009C
:100F54000E33CDAB34126DE6ECDE05000B00000061
:100F6400000000000000000000000000000000007D
:100F7400000000000000000000000000000000006D
:100F8400000000000000000000000000000000005D
:100F9400000000000000000000000000000000004D
:0C12C400000000000000000044050020B5
:00000001FF
