:020000040000fa
:10000000f0ff0320751300001f200000770c000094
:1000100045200000472000004920000000000000ab
:10002000000000000000000000000000eb170000ce
:10003000971f000000000000eb170000eb17000006
:10004000eb170000eb170000eb170000eb170000a8
:10005000eb170000eb170000eb170000eb17000098
:10006000eb170000eb170000eb170000911c0000dd
:10007000eb170000eb170000eb170000eb17000078
:10008000eb170000eb170000eb170000eb17000068
:10009000eb170000eb170000eb170000eb17000058
:1000a000eb170000eb170000eb170000eb17000048
:1000b000eb170000eb170000eb170000eb17000038
:1000c000eb170000eb170000eb170000eb17000028
:1000d000eb170000eb170000eb170000eb17000018
:1000e000eb170000eb17000000000000000000000c
:1000f00000000000eb170000eb170000eb170000fa
:10010000eb170000eb170000eb170000eb170000e7
:10011000eb170000eb170000eb170000eb170000d7
:10012000eb170000eb170000eb170000eb170000c7
:10013000eb170000eb170000eb170000eb170000b7
:10014000eb170000eb170000eb170000eb170000a7
:10015000eb170000eb170000eb170000eb17000097
:10016000eb170000eb170000eb170000eb17000087
:10017000eb170000eb170000eb170000eb17000077
:10018000eb170000eb170000eb170000eb17000067
:10019000eb170000eb170000eb170000eb17000057
:1001a000eb170000eb170000eb170000eb17000047
:1001b000eb170000eb170000eb170000eb17000037
:1001c000eb170000eb170000eb170000eb17000027
:1001d000eb170000eb170000eb170000eb17000017
:1001e000eb170000eb170000eb170000eb17000007
:1001f000eb170000eb170000eb170000eb170000f7
:10020000eb170000eb170000eb170000eb170000e6
:10021000eb170000eb170000eb170000eb170000d6
:10022000eb170000eb170000eb170000eb170000c6
:10023000eb170000eb170000eb170000eb170000b6
:10024000eb170000eb170000eb170000eb170000a6
:10025000eb170000eb170000eb170000eb17000096
:04026000eb17000098
:020000040000fa
:10026400f8b500bff8bc08bc9e467047e91800000a
:10027400f8b500bff8bc08bc9e467047c51800001e
:020000040000fa
:10028400d40100201c00000000000000f001002048
:100294000c0000000000000000000020010000002d
:1002a40000000000fc010020040000000100000028
:1002b40074010020740100206000000001000000af
:1002c400000000005c1e00007c1e00003c1e0000bc
:1002d400000000000000000000000000000000001a
:1002e400000000000000000000000000000000000a
:1002f40000000000000000000000000000000000fa
:1003040000000000000000000000000000000000e9
:1003140000000000000000000000000000000000d9
:10032400000200200400000000000000040200207d
:100334000400000000000000080000206c01000020
:100344000100000043000000000000000000000065
:100354000000000000000000000000000000000099
:100364000000000043000000000000000000000046
:100374000000000000000000000000000000000079
:100384000000000043000000000000000000000026
:100394000000000000000000000000000000000059
:1003a4000000000043000000000000000000000006
:1003b4000000000000000000000000000000000039
:1003c40000000000430000000000000000000000e6
:1003d4000000000000000000000000000000000019
:1003e40000000000430000000000000000000000c6
:1003f40000000000000000000000000000000000f9
:1004040000000000430000000000000000000000a5
:1004140000000000000000000000000000000000d8
:10042400000000006b1f0000711d000000000000b0
:10043400740b0000052000000420000004200000cc
:100444000420000004200000042000000420000018
:10045400042000000420000004200000ffffffff30
:10046400ffffffffffffffffffff000001004153fd
:1004740043494900000000000000000000000000a3
:1004840000000000000000000000000000004153d4
:100494004349490000000000000000000000000083
:1004a4000000000000000000000000000000000048
:1004b40004000020040000000000000008020020e6
:1004c4000400000000000000000000000000000024
:020000040000fa
:1004d4002de9f04317460a7e85b06e2a98460646f3
:1004e4000c460c9b01f1430e00f0bc801ad8632a21
:1004f4002ed00ad8002a00f0c880582a00f08a803a
:1005040004f1420584f842202ae0642a01d0692ad1
:10051400f6d121681a6811f0800f23d0111d1960db
:10052400136827e0732a00f0b48008d86f2a2ad011
:10053400702ae5d10a6842f020020a6003e0752ab5
:1005440021d0782adcd1782284f845206e4964e0f1
:100554001a6801f14205111d1960136884f84230cc
:100564000123a3e011f0400f02f104011960d7d078
:10057400b2f90030002b03da2d225b4284f84320c9
:1005840062490a2217e02068196810f0800f03d02e
:10059400081d18600b6806e010f0400f01f104001c
:1005a4001860f7d00b8859496f2a14bf0a22082211
:1005b400002084f843006568a560002dc0f29c808b
:1005c400206820f004002060002b3fd1002d40f073
:1005d40095807546082a0bd12368da0708d5236964
:1005e40062689a42debf302305f8013c05f1ff350d
:1005f400aeeb05032361cdf800803b4603aa2146f8
:10060400304600f02bfc013055d14ff0ff3005b0df
:10061400bde8f08381f845203c492268186812f04f
:10062400800f00f104051d6001d0036802e0550647
:10063400fbd50388d00744bf42f0200222601bb9d7
:10064400226822f0200222601022b1e77546b3fb33
:10065400f2f002fb1033cb5c05f8013d03460028a1
:10066400f5d1b7e708681a68496910f0800f04d01b
:10067400101d18601368196007e010f0400f02f1b4
:10068400040018601368f6d01980002323617546ae
:10069400b1e71a68111d19601568626800212846bf
:1006a40000f07cfd08b1401b606063682361002397
:1006b40084f843309fe723692a4639463046c047c9
:1006c4000130a2d023689b0707d5002504f119093e
:1006d400e368039a9b1a9d4205dbe068039b9842fa
:1006e400b8bf184693e701234a4639463046c04707
:1006f40001308ad00135ebe7002ba7d10b7884f8c1
:10070400423004f1420565e7eb1d0000da1d0000ec
:020000040000fa
:100714002de9f04f9db00d4692460393074618b15c
:1007240083690bb900f066ff6f4b9d4256d17d681b
:10073400ab891c075cd52b69002b59d00023099386
:1007440020238df82930dff8a48130238df82a3056
:100754004ff001095446264616f8013b002b52d1ae
:10076400b4eb0a0b0bd05b4652462946384601f0df
:1007740015f8013000f0b380099b5b44099323789a
:10078400002b00f0ac8000234ff0ff32049307935a
:10079400059206938df853301a9305223178534805
:1007a40000f0fcfc741c049b002830d1d80644bf24
:1007b40020228df85320190744bf2b228df8532093
:1007c40032782a2a2bd0079a00210a20344601368f
:1007d4002378303b092b68d971b326e0444b9d4202
:1007e40001d1bd68a4e7434b9d4208bffd689fe764
:1007f4002946384600f0a8fb00289fd04ff0ff3070
:100804001db0bde8f08f252baad03446a3e7a0eb9a
:10081400080009fa00f0184304902646bde7039a3d
:10082400111d12680391002a01db079204e0524271
:1008340043f002030792049323782e2b0ed163789e
:100844002a2b04f1010134d1039b1a1d1b68039266
:10085400002bb8bf4ff0ff3302340593264e2178a6
:100864000322304600f09afc38b14023801b03fa7f
:1008740000f0049b03430493013421781f488df84e
:100884002810062200f08afc03ab009304f1010a4d
:100894001b4b2a4604a9f0b1384601f0bbfb421cad
:1008a4001dd0099b0344099354e700fb0232012144
:1008b4008ce70023059318460a260c46013122785a
:1008c400303a092a03d9002bc8d00590c6e706fba5
:1008d40000200123f1e73846fff7fafddfe7ab8993
:1008e4005b068bd409988be75c1e0000841f000014
:1008f4007c1e00003c1e00008a1f00008e1f0000aa
:04090400a117000037
:020000040000fa
:100908002de9f7431d46514b1e6804460f46904695
:1009180026b1b36913b9304600f06afe4c4b9c42cd
:1009280052d17468b8f1020f06d0b8f1010f00f285
:100938008980002dc0f286802146304600f0b2fe44
:10094800616b41b104f14403994202d0304600f092
:1009580073fc002363630023a3616360a3891b0600
:1009680003d52169304600f067fca38923f44a6364
:1009780023f00303b8f1020fa3815dd001ab6a46ef
:100988002146304600f076ffa3891843a0812dbb8d
:10099800009d284601f00cfb074600284ed1ddf8e3
:1009a8000090a9453cd14ff0ff30a38943f00203e2
:1009b800a3810023a36004f147032360236101237b
:1009c800636103b0bde8f083224b9c4201d1b46857
:1009d800a8e7214b9c4208bff468a3e7002fd8d0b2
:1009e800b36913b9304600f003feb8f1010f08bf30
:1009f800a389276004bf43f00103a381a38927616a
:100a080013f0080065611bd013f0010018bf6d4298
:100a18004ff000031dbfa360a5611846a560d0e78d
:100a2800484601f0c5fa07460028bcd0a38943f020
:100a38008003a3814d46d3e70020b6e7a946f5e732
:100a4800a060bee74ff0ff30bbe700bffc0100200d
:0c0a58005c1e00007c1e00003c1e000024
:020000040000fa
:100a64008a892de9f041054610070c465ad44b6893
:100a7400002b05dc0b6c002b02dc0020bde8f081b0
:100a8400e66a002ef9d0002312f480522f682b60fe
:100a940033d0606da3895a0705d56368c01a636ba8
:100aa4000bb1236cc01a00230246e66a216a284669
:100ab400b047431ca38906d129681d294bd82b4a6a
:100ac400ca40d60747d500226260d9042269226051
:100ad40004d5421c01d12b6803b96065616b2f609a
:100ae4000029cad004f14403994202d0284600f0f8
:100af400a5fb00206063bde8f081216a012328463c
:100b0400b047411cc6d12b68002bc3d01d2b01d08c
:100b1400162b01d12f60b0e7a38943f04003a381d2
:100b2400bde8f0810f69002fa7d093070e6808bfb6
:100b34004b690f6018bf0023a6eb07088b60b8f160
:100b4400000f9add43463a46216aa66a2846b04712
:100b5400002807dca38943f04003a3814ff0ff3052
:100b6400bde8f0810744a8eb0008e8e70100402055
:020000040000fa
:100b74000020202020202020202028282828282069
:100b84002020202020202020202020202020202061
:100b940020881010101010101010101010101010c9
:100ba40010040404040404040404041010101010b9
:100bb4001010414141414141010101010101010183
:100bc40001010101010101010101010110101010d5
:100bd4001010424242424242020202020202020255
:100be40002020202020202020202020210101010a9
:100bf40020000000000000000000000000000000d1
:100c040000000000000000000000000000000000e0
:100c140000000000000000000000000000000000d0
:100c240000000000000000000000000000000000c0
:100c340000000000000000000000000000000000b0
:100c440000000000000000000000000000000000a0
:100c54000000000000000000000000000000000090
:100c64000000000000000000000000000000000080
:010c7400007f
:020000040000fa
:020c7600fee797
:020000040000fa
:100c78000a0d2d2d2d2d2d2d2d2d2d2d2d2d2d2ddf
:100c88002d2d2d2d2d2d2d2d2d2d2d2d2d2d2d2d8c
:100c98002d2d2d2d2d2d2d2d2d2d2d2d2d2d2d2d7c
:100ca8002d2d2d2d2d2d2d2d2d2d2d000a0d2020f6
:100cb800202020202020202020202020202020202c
:100cc80020205254432044656d6f2020202020208e
:100cd8002020202020202020202020000a0d2d2d3b
:100ce8002d2d2d2d2d2d2d2d2d2d2d2d2d2d2d2d2c
:100cf8002d2d2d2d2d2d2d2d2d2d2d2d2d2d2d2d1c
:100d08002d2d2d2d2d2d2d2d2d2d2d2d2d2d2d2d0b
:100d18002d2d2d2d2d2d2d0a0d0000000a53797330
:100d280074656d2074696d652069733a20202025eb
:100d38003032643a253032643a253032640d00008e
:100d48000a53797374656d20646174652069733a18
:100d5800202020253032643a253032643a2530325a
:080d6800640d200a0a0000bf1f
:020000040000fa
:100d70000022334b1a74334a03f500639a621a4611
:100d8000536813f0100ffbd142222f4bc3f884207d
:100d90001a46d2f8843013f0400ffad02b4b0022c1
:100da0009a6377225a631a46d36b13f0040ffbd170
:100db0000222264b83f830201a46d36b13f0020f21
:100dc000fbd1224a136c03f00303032bfad1012257
:100dd0001f4b5a711a46d37813f0010ffbd01d4aee
:100de000194b1a621a46536813f0040ffbd11a4ac2
:100df000154b5a621a46536813f0080ffbd1412273
:100e0000114bc3f8dc201a46d2f8dc3013f0400f47
:100e1000fad041220c4bc3f814211a46d2f81431ef
:100e200013f0400ffad00a4b6ff07f421a6140f284
:100e3000ff725a61094a9a6108221a62704700bf1c
:100e40000014004006013000001c0040001000406b
:100e5000000800400701010007010200568201005e
:020000040000fa
:100e60002de9f04791461f468a680b69ddf820801e
:100e70009342b8bf1346c9f8003091f843200646a4
:100e80000c4612b10133c9f800302368990642bffd
:100e9000d9f800300233c9f80030256815f006058e
:100ea00007d104f1190ae368d9f800209b1a9d4282
:100eb00029db94f843302268003318bf01239206df
:100ec0002ed404f1430239463046c047013021d0c8
:100ed0002368e568d9f8002003f00603042b08bf57
:100ee000ad1aa36822690cbf25eae5750025934277
:100ef000c4bf9b1aed184ff000091a344d451bd1a1
:100f00000020bde8f0870123524639463046c047ed
:100f1000013003d14ff0ff30bde8f0870135c2e763
:100f2000e1185a1c302081f84300224494f84510ff
:100f300082f843100233c4e7012322463946304683
:0c0f4000c0470130e6d009f10109d7e7f5
:020000040000fa
:100f4c00324b70b51d6806460c4625b1ab6913b91a
:100f5c00284600f04bfb2e4b9c420fd16c68b4f929
:100f6c000c309ab215072cd4d00611d40922326059
:100f7c0043f04003a3814ff0ff3070bd254b9c42e2
:100f8c0001d1ac68ebe7244b9c4208bfec68e6e768
:100f9c00510712d5616b41b104f14403994202d05f
:100fac00304600f047f900236363a38923f0240340
:100fbc00a3810023636023692360a38943f00803a2
:100fcc00a38123694bb9a38903f42073b3f5007f84
:100fdc0003d02146304600f0cdfaa28912f001036d
:100fec000cd00023a36063695b42a361236953b9ee
:100ffc00b4f90c3013f08000bad170bd920758bf11
:10100c006369a360f2e70020f7e700bffc01002052
:0c101c005c1e00007c1e00003c1e00005a
:020000040000fa
:1010280070b5cd1c25f0030508350c2d38bf0c25ef
:10103800002d064601dba94203d90c2333600020aa
:1010480070bd00f0ffff234a1468214691b9224c75
:1010580023681bb9304600f01dff20602946304642
:1010680000f018ff431c26d10c233360304600f0f3
:10107800eaffe4e70b685b1b1ad40b2b0fd90b6054
:10108800cd50cc18304600f0deff04f10b00231dd4
:1010980020f00700c31a1bd05a42e25070bd8c42a0
:1010a8000dbf63684b686360136018bf0c46e9e7bf
:1010b8000c464968cae7c41c24f00304a04205d0c2
:1010c800211a304600f0e6fe0130cdd02560d9e780
:0c10d80070bd00bf0002002004020020d8
:020000040000fa
:1010e400f8b50e461446054618b183690bb900f0ed
:1010f40081fa274b9c422fd16c68a369a360a38912
:10110400190733d52369002b30d0b4f90c30f6b26b
:101114009a04374634d523692068c01a6369984213
:1011240004db2146284600f0bffa28bba368013b34
:10113400a36023685a1c22601e70636901309842c0
:1011440004d0a389db0719d50a2e17d121462846d6
:1011540000f0aafa90b10fe00e4b9c4201d1ac68aa
:10116400cbe70d4b9c4208bfec68c6e721462846f6
:10117400fff7eafe0028c8d04ff0ff373846f8bd25
:1011840043f40053a381236e23f400532366c2e780
:0c1194005c1e00007c1e00003c1e0000e1
:020000040000fa
:1011a00001f0ff01102a2bdb10f0070f08d010f818
:1011b000013b013a8b422dd010f0070f42b3f6d11c
:1011c000f0b441ea012141ea014122f007047ff035
:1011d00000070023f0e80256083c85ea010586ea8c
:1011e000010685fa47f5a3fa87f586fa47f6a5fac8
:1011f00087f68eb9eed1f0bc01f0ff0102f00702d4
:1012000032b110f8013b013a83ea010313b1f8d17e
:101210000020704701387047002d06bf354603385f
:10122000073815f0010f07d1013015f4807f02bf98
:10123000013015f4c03f0130f0bc0138704700bfe9
:020000040000fa
:1012400038b50546002945d051f8043c0c1f002b49
:10125000b8bfe41800f0fafe1f4a1368104633b90d
:10126000636014602846bde8384000f0f0bea34239
:101270000cd921686218934204bf1a685b686360e6
:1012800004bf521822600460ece713465a680ab1a2
:10129000a242fad919685818a0420bd1206801441b
:1012a000581882421960ddd1106852685a600144b2
:1012b0001960d7e702d90c232b60d3e720682118e7
:1012c0008a4204bf11685268626004bf0918216035
:0c12d0005c60c7e738bd00bf00020020d2
:020000040000fa
:1012dc0000b593b0002000f00ffb00241f4b1c70d6
:1012ec0011230b93099412230a9306230d9379234c
:1012fc000e931a230c9301230f93194d284600f0db
:10130c0065fc05f13c0000f061fc05f16c0000f09f
:10131c005dfc2146134800f059fe09a800f084fb3f
:10132c000321684600f0e6f92c46ac3509a800f01c
:10133c0003fb099b0a9a0b99284600f047fc0e9b6d
:10134c0003f26c730d9a01320c9904f1d00000f089
:10135c003dfc4ff47a7000f0f5fde7e7000000204b
:08136c00780c00001d1e0000ba
:020000040000fa
:1013740008b51b4b98471b4b9847eff3108172b687
:10138400194ad2f8883043f47003c2f88830bff3a6
:101394004f8fbff36f8f01b962b6144c2023636083
:1013a40000f070f8104a124b23f07f039360114b46
:1013b4009847a36823f00103a3602346da6812f078
:1013c400010ffbd1094b5a6842f004025a60012212
:1013d4009a60094b9847094b9847fff77dfffee752
:1013e4004b2000004b20000000ed00e000600041b5
:1013f40000000000ed1700004b2000004b2000000f
:020000040000fa
:101404002de9f74380460e46144600f091fd01286d
:101414001cd1731efe2b19d88df8046005460027d5
:101424000df10409af4220d0a36817f80910013b5d
:10143400002ba36004daa26993421adb0a2918d0ac
:1014440023685a1c226019700137ebe7324604f115
:10145400580301a9404600f079f9421c0546ded143
:10146400a38943f04003a3810646304603b0bde898
:10147400f08322464046fff733fe431ce4d1064680
:02148400f3e78c
:020000040000fa
:021486007047ad
:020000040000fa
:101488001c4b1d4a934230b438bf002103d203f8e5
:10149800011b9342fbd1194800250168c1b9426874
:1014a80032b383680c30d3b10139034613f8014bca
:1014b80001f8014f1c1a9442f8d312f0030318bf25
:1014c800012303eb920200eb820001680029e6d0b9
:1014d800846842680b460c303cb9002addd01a44b7
:1014e80003f8015b9a42fbd1d7e7002adcd1e4e795
:1014f80030bc704700000020080000208402000073
:020000040000fa
:10150800f8b51c4b1e68b369074613b9304600f09e
:101518006ff84836b4687368013b03d5336833b154
:101528003668f7e7b4f90c506db16434f4e7042178
:10153800384600f07dfb30600028f1d10c233b6079
:1015480004462046f8bd4ff6ff73e3810123a381cb
:1015580025662560a560656025616561a56108222d
:10156800294604f1580000f02bfd6563a563a564c6
:08157800e564e6e72020000015
:020000040000fa
:101580008b8973b59d0706460c4607d504f14703c2
:10159000236023610123636102b070bd01ab6a4621
:1015a00000f06cf9009905463046fff73dfd38b96b
:1015b000b4f90c309a05efd443f00203a381e5e7b8
:1015c0000c4bb362a389206043f08003a381009b8e
:1015d0006361019b20614bb1b4f90e10304600f0fd
:1015e0007dfc18b1a38943f00103a381a3891d43a6
:0815f000a581d1e7e51f000011
:020000040000fa
:1015f800836910b5044633bb8364c3640365124b27
:10160800124a1b688262984204bf01238361fff774
:1016180077ff60602046fff773ffa0602046fff762
:101628006fff0022e0600421606800f0fff80122eb
:101638000921a06800f0faf802221221e06800f0ff
:10164800f5f80123a36110bd20200000e51f00006c
:020000040000fa
:1016580018b338b504460d4600f0a2faddb10020f3
:101668000f4a137e13f0040ffbd0538b13f0070fb0
:101678000cd1536803f00703012b936a1abf237038
:10168800013424f8023b01308542ead1854214bf77
:101698000020012038bd0020f8e70020704700bf77
:0416a800000c0043ef
:020000040000fa
:1016ac0038b50b6905460c46dbb118b183690bb92b
:1016bc00fff79cff0c4b9c4209d16c68b4f90c30c1
:1016cc007bb121462846bde83840fff7c5b9074b2a
:1016dc009c4201d1ac68f1e7054b9c4208bfec6819
:1016ec00ece7002038bd00bf5c1e00007c1e000033
:0416fc003c1e000090
:020000040000fa
:10170000c26883681b0343ea42430268134342688a
:1017100043ea82134269743a43ea826302690132fe
:1017200043ea8253094a1362136913f0200ffbd175
:10173000064b83f824101a46136913f4006ffbd18b
:101740004ff48072014b5a81012070470024004001
:020000040000fa
:10175000f0b5054685b01e460f460f4c91b922687c
:101760000e49126a002a08bf0a4601a9d2f8e040d1
:101770003a46a047431c01bf002333608a232b60f5
:1017800005b0f0bd2468054f246a002c08bf3c4614
:10179000d4f8e040ede700bffc0100200800002085
:020000040000fa
:1017a000f8b50e46096e14468a0407460bd4e518b0
:1017b000ac420dd0324614f8011b384600f024fa32
:1017c0000130f5d10ee023f00303e518ac4201d15e
:1017d0000020f8bd324654f8041b384600f09cfb4c
:0a17e0000130f3d14ff0ff30f8bde7
:020000040000fa
:0217ea00fee718
:020000040000fa
:1017ec0070b50d4e0d4ca41ba4100025a54209d1bb
:1017fc000b4e0c4cfef730fda41ba4100025a5428b
:10180c0005d170bd56f8253098470135eee756f8ee
:10181c00253098470135f2e7700200007002000095
:08182c007002000074020000cc
:020000040000fa
:10183400002310b50446036043608360818103661e
:10184400c28103614361836119460822583000f064
:10185400b9fb054b6362054ba362054be362054b81
:101864002462236310bd00bfb91d00006d1a00007f
:08187400e11c00000920000046
:020000040000fa
:10187c0070b50e46b1f90e10002990b014461d46f5
:10188c0007da00232b60b3891a0610d44ff4806357
:10189c000ee001aa00f042fa0028f2db029a02f4f0
:1018ac007042a2f500535a425a412a60eee7402397
:0818bc000020236010b070bd94
:020000040000fa
:1018c40010b5054c227832b9044b13b10448aff378
:1018d40000800123237010bdd4010020000000000b
:1018e4000000000008b5034b1bb103490348aff3e4
:1018f400008008bd00000000d801002000000000a6
:020000040000fa
:1019040010b500f047fb0d4c23680021586800f027
:1019140049fb23680021986800f044fb00f0daf8e2
:10192400fff724fa00f00af9fff7abfd00f020f905
:1019340000f0eaf800f0b4f810bd00bffc0100208c
:020000040000fa
:101944000d4a136913f4004ffbd10b4b9b69c3f38e
:1019540004328260c3f38512426003f03f020260e6
:10196400c3f38352013a02619a0e74324261c3f3a3
:0c1974004443c360704700bf00240040e3
:020000040000fa
:10198000b0b1b9b10c4a03e030f8023b936269b1df
:101990000139137e13f0010ffbd0536803f00703e6
:1019a000012bf1d0037893620130f0e701207047fa
:0c19b0000020704701207047000c00432d
:020000040000fa
:1019bc002de9f8438046894600f14804002614b905
:1019cc003046bde8f883a5686768013f01d52468f7
:1019dc00f5e7ab89012b07d9b5f90e30013303d0ec
:0c19ec0029464046c84706436435eee734
:020000040000fa
:1019f80070b50d46a9b114460ab1022801d920468e
:101a080070bd094b2bb108461146aff30080204644
:101a180070bd164615f8010b00f06cfa013ef9d1bd
:0c1a2800ede70c46204670bd00000000f9
:020000040000fa
:101a3400c26883681b0343ea424302681343426853
:101a440043ea82134269743a43ea826302690132c7
:101a540043ea8253034a9361136913f0080ffbd1dd
:081a640001207047002400403e
:020000040000fa
:101a6c002de9f0411f468b89db0505460c461646d1
:101a7c0005d502230022b1f90e1000f061f9a389fb
:101a8c00b4f90e1023f48053a38132463b4628460a
:081a9c00bde8f04100f030b993
:020000040000fa
:101aa4000a4ad36823f4e0631b041b0c43f0bf63ae
:101ab40043f40033d360bff35f8f62b6044be0227c
:101ac40083f80b234ff400621a60704700ed00e0c6
:041ad40000e100e04d
:020000040000fa
:101ad8000b4b012283f8d82083f8d920332183f8cf
:101ae800bc104ff48021c3f80011c3f8101183f81b
:101af800c82183f8c921222283f8b421704700bf86
:041b08000080004118
:020000040000fa
:101b0c000b4a13889bb243f001031380136913f043
:101b1c00010ffbd148f60a32054b1a801a4613699d
:101b2c0013f0020ffbd14ff48072014b5a817047b6
:041b3c000024004041
:020000040000fa
:101b40000a4b0b4a1a604ff658729a814ff4403292
:101b50005a601a46d369002bfcd1044a136843f03b
:101b600002031360d369002bfcd1704700200141b0
:041b7000040110401c
:020000040000fa
:101b74000a4b0b4a1a604ff658729a814ff440325e
:101b84005a601a46d369002bfcd1044a136843f007
:101b940002031360d369002bfcd17047000c00438f
:041ba40004011040e8
:020000040000fa
:101ba8000a4b5b8b13f0070f0ed0084b80221a7676
:101bb80007225a831b7e13f0040f05d0034b9a6a41
:101bc8001a7e12f0040ffad1704700bf000c0043d0
:020000040000fa
:101bd8000fb40a4b13b51c6824b1a36913b9204686
:101be800fff706fd05ab049aa16801932046fef7ae
:101bf8008dfd02b0bde8104004b07047fc01002024
:020000040000fa
:101c08009368013b002b10b4936009da9469a342ee
:101c180002dbcbb20a2b03d15df8044bfff75ebaa7
:101c28001368581c10601970c8b25df8044b7047ef
:020000040000fa
:101c380070b54a1e642555430e4605f17001fff73d
:101c4800eff9044640b1002180e842000c30a06062
:0c1c580005f1640200f0b4f9204670bdf4
:020000040000fa
:101c6400074a136843b10749184488429abf106071
:101c740018464ff0ff307047034b1360f3e700bf83
:0c1c8400080200201004002010020020c4
:020000040000fa
:101c900008b5074a908980b2064b18604cf2ff31b4
:101ca00091815b6813b1034a9168984708bd00bff2
:081cb00000240040f0010020b7
:020000040000fa
:101cb80070b50d4661b1164642b138b914460120d7
:101cc80000f098f8013c05f8010bf8d1304670bdda
:081cd8000e46304670bd00bf4e
:020000040000fa
:101ce00010b50c46b1f90e1000f030f8431ca38972
:101cf00015bf606523f4805343f48053a38118bf5c
:041d0000a38110bdee
:020000040000fa
:101d040038b5074c054608461146002222601a469b
:101d140000f090f9431c02d1236803b12b6038bd55
:041d24000400002097
:020000040000fa
:101d280038b5074c0023054608461146236000f0e5
:101d380077f9431c02d1236803b12b6038bd00bf7b
:041d48000400002073
:020000040000fa
:101d4c0038b5074c054608461146002222601a4653
:101d5c0000f068f9431c02d1236803b12b6038bd35
:041d6c00040000204f
:020000040000fa
:101d700082b001b901a942b14bb113780b6012785e
:101d8000101c18bf012002b070471046fbe76ff02f
:041d90000100f8e76f
:020000040000fa
:101d940038b5074c054608461146002222601a460b
:101da40000f046f9431c02d1236803b12b6038bd0f
:041db4000400002007
:020000040000fa
:101db80010b50c46b1f90e10fff7e8ff0028abbfcd
:101dc800636da3891b1823f48053acbf6365a3819b
:021dd80010bd3c
:020000040000fa
:101dda003031323334353637383941424344454657
:101dea0000303132333435363738396162636465ed
:021dfa00660081
:020000040000fa
:101dfc0030b583b002ac002344f8043d01252946dc
:101e0c002046fff723fc0028f9d0019803b030bd21
:020000040000fa
:101e1c0010f4807f07d00122034b1a704ff48022fc
:101e2c00024bc3f81c2170470000002000800041c9
:020000040000fa
:101e3c000000000000000000000000000000000096
:101e4c000000000000000000000000000000000086
:020000040000fa
:101e5c000000000000000000000000000000000076
:101e6c000000000000000000000000000000000066
:020000040000fa
:101e7c000000000000000000000000000000000056
:101e8c000000000000000000000000000000000046
:020000040000fa
:101e9c0038b5064c0023054608462360fff7dcfee8
:101eac00431c02d1236803b12b6038bd0400002011
:020000040000fa
:101ebc0038b5064c002305460846236000f0acf804
:101ecc00431c02d1236803b12b6038bd04000020f1
:020000040000fa
:101edc0038b5064c002305460846236000f0a0f8f0
:101eec00431c02d1236803b12b6038bd04000020d1
:020000040000fa
:101efc0030b583b002ac04f8010d0125294620460b
:0c1f0c00fff738fd0028f9d003b030bd0d
:020000040000fa
:101f1800b2f90c3013f4005f06d143f400539381f7
:0c1f2800136e43f400531366fff768ba11
:020000040000fa
:101f3400044b054a1b681b6a002b08bf134693f821
:0c1f440028017047fc010020080000206c
:020000040000fa
:101f50000028a8bf002207db42f21173013bfdd12c
:0a1f600001329042f8da7047704732
:020000040000fa
:101f6a0049b1ff2a85bf8a2303600a704ff0ff3008
:0a1f7a0098bf012070470846704729
:020000040000fa
:101f8400232d302b2000686c4c006566674546475e
:011f9400004c
:020000040000fa
:021f9600fee764
:020000040000fa
:101f980040f20452014b1a80704700bf00400041d4
:020000040000fa
:101fa80000294ff480630cbf02220022fef7a8bc70
:020000040000fa
:101fb800024b01461868fff733b800bffc01002048
:020000040000fa
:101fc80002440346934200d1704703f8011bf9e726
:020000040000fa
:0c1fd800014b586099607047f001002038
:020000040000fa
:0c1fe4000149fff7e9bc00bfad1600008a
:020000040000fa
:0c1ff0004ff400534b600020704700bf0e
:020000040000fa
:0b1ffc004300504f53495800002e00d6
:020000040000fa
:08200800b1f90e10fff756bffd
:020000040000fa
:082010004ff0ff30704700bfe4
:020000040000fa
:062018004ff0ff3070479d
:020000040000fa
:02201e00fee7db
:020000040000fa
:042020007401002027
:020000040000fa
:04202400fff7f4bf0f
:020000040000fa
:04202800fff7e2bf1d
:020000040000fa
:04202c0000f006b802
:020000040000fa
:0420300000f006b8fe
:020000040000fa
:04203400fff740beb4
:020000040000fa
:04203800fff7debc14
:020000040000fa
:04203c0001207047c8
:020000040000fa
:0420400000207047c5
:020000040000fa
:02204400fee7b5
:020000040000fa
:02204600fee7b3
:020000040000fa
:02204800fee7b1
:020000040000fa
:02204a007047dd
:020000040000fa
:02204c007047db
:020000040000fa
:02204e007047d9
:020000040000fa
:0200000400807a
:044000003912003c35
:020000040000fa
:0200000400807a
:044004008000a82a66
:020000040000fa
:0200000400807a
:04400800ffffffffb8
:00000001FF
